:100000000C94C7020C94E4020C94E4020C94E72CC8
:100010000C94E4020C94E4020C94E4020C94E402C8
:100020000C94E4020C94E4020C948F320C9461332F
:100030000C94652B0C94E4020C94E4020C94E402FE
:100040000C94E4020C94E4020C94E4020C94E40298
:100050000C94E4020C940A2C0C94E4020C94E40238
:100060000C94E4020C94E4020C94E4020C94E40278
:100070000C94E4020C94E4020C94E4020C94E40268
:100080000C94E4020C94E4020C94E4020C94E40258
:100090000C94E4020C94E4020C94E4020C94E40248
:1000A0000C94E4020C94E4020C94E4023B063B063C
:1000B00067066706F907F907F907F907DF06490731
:1000C0005B075B07EA170D1815188219821951187A
:1000D0006D188018CA18CF18DA18E518F218F51834
:1000E000C933F033E834F033E8343C345F34E83477
:1000F000B634C534290014001A0008001500170092
:1001000000002B0004001600070009000A00000090
:10011000E1001D001B000600190005000000E000C2
:10012000E200E30049002C002C002C4100001E00DE
:100130001F002000120013002A0000000B000D0019
:100140000E000F002D0028000000110010003600E6
:100150003700520038002C422C002C00E4005000E4
:1001600051004F002B001E001F0020002100220024
:100170000000E0001E021F022002210222020000F5
:10018000E100570056005500540067000000E000F1
:10019000E200E30049002C002C002C410000230069
:1001A00024002500260027002A0000002302240244
:1001B00025022602270228000000350010002F1219
:1001C00030122D12E5002C422C002C00E4005000CF
:1001D00051004F002B003A003B003C003D003E0028
:1001E0000000E0001F023100330033123400000031
:1001F000E100207821782378247825780000E00039
:10020000E200E30049002C002C002C4100003F00DC
:1002100040004100420043004C00000050005100EB
:1002200052004F002E0028000000267827782F006B
:1002300030003100E5002C422C002C00E40050007E
:1002400051004F00FD377A585A000004E6D6B446F4
:100250000200210116000000742FE5A3E001D40084
:10026000CD5D003D8889C65436C3174FE4EFB08793
:1002700049EF04273029A63F2713515BAD920212A4
:100280002716ED0742E7927AD42B0B80EDA3B78DAA
:10029000CEC04F6EB1CC584B13E830447F7873A575
:1002A00065AE536FA0157571E668A3FEE4B1DE611B
:1002B0002889037582B439343FB3553FE51E76F67D
:1002C000B131EFD5AEEDDE3C71B0AEB20C1F50B720
:1002D00056CB5E1856512BB49F96D6F164A0CBB97D
:1002E0004DF7BA7D4F807981355B710D73F85240BF
:1002F000110937EC70EB797AA6BD1E27497CAF1D3A
:100300000715CFA9233F951653A87AAFA495BD151D
:100310001BCABEA607CC24F8C5D923DC3E0B3CF291
:100320006B53DDD41BF27F5964C2C5F497EA4C00CD
:10033000000000003D89230AC361FA220001E9019F
:10034000D5030000D540B2DCB1C467FB0200000059
:100350000004595A010001001204621C941C0000A0
:10036000020002000E04621C941C00000300010045
:100370001304621C941C000004000200F803621CB9
:10038000941C5B1C050001001404621C941C0000FA
:1003900006000200FA03621C941C00000700020021
:1003A0001004621C941C0000080001001504621C6B
:1003B000941C0000120002001604621C941C000031
:1003C000130002001804621C941C000014000100B9
:1003D0001A04621C941C0000150000000000601B41
:1003E000DD1B000000000000000000002A2B280098
:1003F00000000000000000000000000000000029D4
:10040000000000002C1E3420212224342627252E13
:10041000362D3738271E1F2021222324252633334B
:10042000362E37381F0405060708090A0B0C0D0E77
:100430000F101112131415161718191A1B1C1D2F43
:100440003130232D350405060708090A0B0C0D0E63
:100450000F101112131415161718191A1B1C1D2F23
:100460003130354C000000000000000000000000AA
:10047000000000000000000000000000000000007C
:1004800000000000000000007E0F00D4FFFFFFC747
:10049000000000781C037600690061006C003A00DF
:1004A00066003600340063003200620033006300EF
:1004B0000000100363006F006F006C003600350011
:1004C000300000000A036D002E006B006900000080
:1004D0000403090409024200020100A0FA09040011
:1004E000000103010100092111010001224400075C
:1004F000058103080001090401000203000000094E
:1005000021110100012222000705820320000107BA
:100510000503032000011201000200000008434D02
:1005200050060001010203010660FF0961A10109F3
:1005300062150026FF0095207508810209631500E9
:1005400026FF00952075089102C005010906A1014A
:10055000050719E029E715002501950875018102B5
:100560009501750881010507190029FF150026FF6F
:100570000095067508810005081901290515002553
:1005800001950575019102950175039101C0112432
:100590001FBECFEFDAE0DEBFCDBF11E0A0E0B1E0DB
:1005A000ECEFFBE602C005900D92A234B107D9F73B
:1005B00024E0A2E4B1E001C01D92AD32B207E1F740
:1005C0000E9435170C94FC350C9400008330B0F475
:1005D0006830A0F4473090F498E3899FF00111242B
:1005E00087E0689FE00DF11D1124E40FF11DEE0F6F
:1005F000FF1FEC50FF4F85919491089581E090E0AA
:1006000008959C013A9521153F4130F5BC016627BC
:100610007270AC01442754709C012227387094FFFB
:100620000FC090FF02C080E101C080E0672B09F09D
:100630008062452B09F08064232B79F0806808954F
:10064000892F8170672B09F08260452B09F0846047
:10065000232B19F08860089580E00895CF93DF93ED
:10066000EB010E940103FE010995DF91CF910895EE
:10067000CF93DF93EC01805E9109089710F02097EB
:1006800019F461EA75E002C06FEA75E0CE010E94DC
:100690002E038C2F0E943C05DF91CF910895CF93BC
:1006A000DF93EC010E946205CE01805E91090897FC
:1006B00010F0209719F468EA75E002C066EB75E067
:1006C000CE010E942E03DF91CF91089581E008951D
:1006D00081E008950E94680308950E946A030895C6
:1006E0000E946803089508950E9473030895A6E088
:1006F000B0E0EDE7F3E00C94443549835A839E83E0
:100700003091490189819A81311115C03E8133238D
:1007100059F0222349F00E948109182F682F8981FE
:100720009A810E945D0903C00E946F09182F698198
:100730007A81812F04C00E94810969817A810E9497
:10074000D4112696E3E00C946035FC0187819085F6
:10075000009749F4262F4081518162817381848101
:1007600095810E94770308950F931F93CF93DF9392
:10077000EC0161E00E94A5038C01BE010E946D03A3
:10078000882329F0BE01C8010E94072202C080E030
:1007900090E08170DF91CF911F910F910895CF93D9
:1007A000DF93EC0160E00E94A503BE010E94740388
:1007B000DF91CF91089581E008950E94DB030895B1
:1007C000CF93C82F0E94C7058C2F0E94DD032FEF07
:1007D00084E39CE0215080409040E1F700C000009D
:1007E000CF91089581E00E94E0030E94302C08958B
:1007F00080E00E94E0030E94412C08950F931F9314
:10080000CF93DF93EC018B010E94CC27882329F042
:1008100061E0C8010E94A503EC01B801CE010E946D
:100820005529882369F1B801CE010E94111B882344
:1008300039F1B801CE010E947003882309F1B80193
:10084000CE010E94F7278823D9F0B801CE010E947B
:10085000321F8823A9F0B801CE010E949F28882367
:1008600079F0F8018581882349F1C3308CE7D807F6
:10087000D9F060F4C115FCE7DF0721F40E94F20310
:1008800080E01FC0C130DC4789F018C0CB35ECE7F1
:10089000DE0791F0CC35FCE7DF0759F0CA35DC47BD
:1008A00069F40E943B0F0AC00E94430F0E94F803A4
:1008B000E7CF0E94310F02C00E943F0FC8010E9483
:1008C0006603DF91CF911F910F910895CF93DF932E
:1008D000EC0161E00E94A503BE010E94FE03DF91CE
:1008E000CF9108950E943E2B0E94AD0408950E946E
:1008F000B1040E94472B0895982F92959F7019F08C
:10090000892F24E001C020E0982F9695969511F04C
:100910002E5F892F982F969509F02F5F822F0895CB
:10092000089581E008950895CF93DF93D82F0E9412
:100930009104C82F882319F08D2F0E9493048C2FC7
:10094000DF91CF9108950895CF93C82F0E9490040E
:100950008C2F0E949404CF91089580E00E94A404FB
:1009600008950E94962A0E94A4040895CF930E949D
:10097000962AC82F80914401C81779F0C09344018A
:100980000E94D32B609345017093460180934701E9
:10099000909348018C2F0E94A404CF910895009752
:1009A00041F0EFE9FFE03197F1F700C00000019757
:1009B000F6CF0895AFE0B0E0E0EEF4E00C944335FC
:1009C0004A875B876C877D878E879F87882349F05E
:1009D00080914A0190914B01019690934B01809335
:1009E0004A018F8581110E94140E8E010F5F1F4FE7
:1009F00089E0F80111928A95E9F786E0FE013A96BE
:100A0000D80101900D928A95E1F78091930382FFBE
:100A100012C08091FA039091FB03892B61F00E9430
:100A2000D00D882319F082E00E94050F0E94AC0DC2
:100A300081110E94680E8D8181110CC009811A817B
:100A40002B813C814D815E816F81788589850E94F3
:100A50001F0D05C0C8010E94B4038111EFCF2F966E
:100A6000E4E00C945F35FC012481213021F4808185
:100A700091810E94AE090895CF93882309F1C82F70
:100A80008CEF8C0F813A70F48C2F0E94C42A88233B
:100A900029F08C2F0E94072B0E94B90E8C2F0E94E8
:100AA000FF2A0CC080E28C0F883050F4C77081E0C0
:100AB00001C0880FCA95EAF70E94F40D0E94B90E92
:100AC000CF9108958823B1F09CEF980F913A18F4D4
:100AD0000E94072B0DC090E2980F983058F4877051
:100AE00091E001C0990F8A95EAF7892F0E94FA0DCB
:100AF0000E94B90E08951F93CF93DF93182FEB0137
:100B00000E943C05209741F08FE99FE00197F1F7A3
:100B100000C000002197F6CF812F0E946205DF916F
:100B2000CF911F910895893329F460911804709131
:100B3000190404C060911604709117040E947B058B
:100B40000895882321F00E94F40D0E94B90E0895A3
:100B5000882321F00E94FA0D0E94B90E089588237F
:100B600021F00E94070E0E94B90E0895882321F0FB
:100B70000E940D0E0E94B90E08950E94140E0E944C
:100B8000B90E08950E940F2B0E94BD0508950E9482
:100B9000010E0E94C205089592959F70963079F0DB
:100BA00010F4925001C09A50923068F4803F69F07E
:100BB00018F4883E40F409C0843F29F406C0883EFA
:100BC00020F0813F11F080E0089581E00895FC015C
:100BD0002481222371F087819085009719F00E946B
:100BE000DC1004C0808191810E94AE090E94CC0576
:100BF000089580E00895A0E0B0E0E1E0F6E00C9414
:100C00003E356C01EB01FC01F580068102950F7009
:100C10000E94EA0D8823F9F0FF20E9F08D2F807FF4
:100C2000803461F080E28C0F8830A8F08D2F807EB8
:100C3000803221F4C23078F0002369F08091930370
:100C400082FF09C082E00E94050F0E94EA0D91E038
:100C5000E82EE92601C0E12CBD2EB2948FE0B82227
:100C60008B2D90E08C30910508F0C3C1FC01EA5A4D
:100C7000FF4F0C9428351D2F1F708D2F807F11F092
:100C80001295107FFF2099F0112309F490C180E2A2
:100C90008C0F883010F0C11104C0812F0E94F40D18
:100CA00003C0812F0E94070E0E94B90E80C18C2FB5
:100CB0000E946205112309F49CC180E28C0F8830E8
:100CC00048F1CC2339F1812F0E940D0E26C01D2F33
:100CD0001F708D2F807F803211F01295107FCC23F2
:100CE00021F0C13009F451C05CC08091930382FDB2
:100CF00017C0FF2049F0112329F0812F0E94F40D25
:100D00000E94B90E80E054C180E00E946205112368
:100D100009F46FC1812F0E94FA0D0E94B90E69C1BA
:100D2000FF20D1F0002309F440C0013021F4812FCD
:100D30000E94210E5EC180911404823008F459C1D2
:100D4000081357C1812F0E94A105812F0E94380EE0
:100D5000812F0E94C20E4DC1002369F080911404BE
:100D6000823008F446C1013009F043C10E94F10D00
:100D7000812309F43EC1812F0E94A805812F0E9482
:100D8000380E812F0E94CE0E34C180911A04FF20AC
:100D900021F0801708F42DC108C0081708F029C1F8
:100DA0000AC0FF2031F0011102C1812F0E94A1056C
:100DB00020C1011107C1812F0E94A8051AC18D2FE2
:100DC000837081F5F11019C14C2F429546954770FB
:100DD000440F440F2C2F2F70042E01C0220F0A94B1
:100DE000EAF7C4FF08C08FE090E001C0880F4A9581
:100DF000EAF7809501C080E09D2F969596959370B7
:100E0000822B923049F058F4913019F00E94AF08CB
:100E1000F4C00E94A908F1C00E94B508EEC00E946B
:100E2000A608EBC0FF2019F08D2F817001C08695B8
:100E3000882309F4E2C04C2F429546954770440F31
:100E4000440F2C2F2F70042E01C0220F0A94EAF7B2
:100E5000C4FF08C08FE090E001C0880F4A95EAF710
:100E6000809501C080E09D2F969596959370822B7A
:100E7000923049F058F4913019F00E94FB08BDC03F
:100E80000E94F508BAC00E940109B7C00E94BE08BE
:100E9000B4C01D2F1F70FF2039F0812F0E94D00891
:100EA0008C2F0E94A105A9C08C2F0E94A805812F1C
:100EB0000E94DC08A2C0C23FD9F028F4C03F41F034
:100EC000C13F51F170C0C33FC9F0C43F09F16BC0CD
:100ED00080911A04FF2021F0081708F08AC003C08F
:100EE000801708F486C08D2F8F710E94E90881C099
:100EF0008D2F8F71FF2009F460C077C0FF2029F08B
:100F00008D2F8F710E94C70874C00E94C30871C0E2
:100F10008091930382FD06C08D2F8F71FF2009F40D
:100F200064C04BC080911404823040F1FF20C1F0B6
:100F30000E94CC0D843039F40E94FB0E8D2F8F71EE
:100F40000E94DC0855C080911404081708F050C0B6
:100F50001D2F1F71812F0E94D00863E0812F07C0D1
:100F6000081740F00E94FB0E64E08D2F8F710E94E5
:100F7000DD0E3EC081E00E94050F3AC0FF2051F017
:100F80001D2F1F71812F0E94D00863E0812F0E94C6
:100F9000DD0E2FC081E00E94050F023050F182E08B
:100FA0000E94050F26C0FF2059F0002321F08C2F4E
:100FB0000E943C051EC08D2F8F710E94D00819C061
:100FC000002389F0C93329F4809118049091190401
:100FD00004C080911604909117040E94CF048C2FB6
:100FE0000E94620506C08D2F8F710E94DC0801C02F
:100FF000E12C88EF8B0D843020F40E94962A0E9409
:10100000A404CE010E94CC05811105C010924B01B1
:1010100010924A0120C0FF2019F00111F7CF1BC028
:101020000111F4CF20E0F60140815181628173818A
:10103000848195810E947703B6010E948F1D8823C9
:1010400029F380914A0190914B010297F9F68C2F78
:101050000E949305DBCFEE2089F00E94CC0D80FD2D
:101060000DC0F60115820E94C60D0E94D008C6016F
:101070000E9462080E94C60D0E94DC08CDB7DEB750
:10108000E9E00C945A350F931F93CF93DF93EC0153
:101090008F819885009719F00E94DC1005C0688147
:1010A00079818D810E94B9098C010E9407090E94F3
:1010B0009908B801CE010E94FB05DF91CF911F91E5
:1010C0000F910895CF93DF93FC0124812223D1F067
:1010D000EC010E94660481110FC00E94EA0D882372
:1010E00089F08D81882371F08091930382FF0AC07B
:1010F00082E00E94050F06C0CE010E944308CE0187
:101100000E94CF03DF91CF910895A6E0B0E0EBE815
:10111000F8E00C9445352696E2E00C946135A9E0A0
:10112000B0E0E5E9F8E00C9443352996E4E00C944E
:101130005F35089508950E949A0808950E949B08BB
:1011400008950E949E088093620108950E94A1085C
:10115000089590916201892B0E94A10808959091B1
:10116000620189230E94A108089590916201892754
:101170000E94A10808950E949A0808950E94BB0841
:1011800080936101089580E00E94BE08089591E077
:1011900001C0990F8A95EAF7892F0E94BE08089529
:1011A00021E030E001C0220F8A95EAF780916101C9
:1011B000822B0E94BE08089521E030E001C0220F7A
:1011C0008A95EAF720958091610182230E94BE08EA
:1011D000089521E030E001C0220F8A95EAF780915E
:1011E000610182270E94BE08089590916101892BB8
:1011F0000E94BE0808959091610189230E94BE0853
:1012000008959091610189270E94BE08089508956C
:10121000962F9770A1E001C0AA0F9A95EAF793E084
:10122000769567959A95E1F7FB01EE0FFF1F6E0F1C
:101230007F1FFA01E60FF71F40E050E0682F70E0D3
:1012400090819B01042E02C0369527950A94E2F7FF
:101250002170219529272A23292721934F5F5F4F4A
:101260004330510569F708959B01782F777043E06B
:10127000969587954A95E1F7FC01EE0FFF1F8E0FBB
:101280009F1FF901E80FF91F40E050E080E0219135
:1012900030E0072E02C0369527950A94E2F72170B8
:1012A0003327042E01C0220F0A94EAF7822B4F5FE6
:1012B0005F4F4330510559F70895282F983070F447
:1012C000873060F4862F622F70E027E0929F600DD8
:1012D000711D11244CE451E00E94080908959830D2
:1012E00070F4873060F4292F90E06CE471E037E00F
:1012F000239F800D911D11240E943409089580E0E0
:101300000895CF92DF92FF920F931F93CF93DF93B5
:101310006C010091610180916201082BC3E0D0E073
:1013200010E0C8010C2E02C0959587950A94E2F74B
:1013300080FD04C02197A8F7F12C07C0FC2EB60150
:101340008C2F0E94EF110197A9F38F2DDF91CF9180
:101350001F910F91FF90DF90CF900895CF93DF936F
:10136000EC010E948109BE010E94EF11DF91CF9133
:1013700008951F93CF93DF93EB0190914901992337
:1013800021F0CB010E94AE0913C0882349F0CB01A4
:101390000E948109182F682FCE010E945D0904C0A8
:1013A000CB010E946F09182FBE01812F0E94EF11FF
:1013B000DF91CF911F910895E1E0F0E0DF0102C0DD
:1013C000AA0FBB1F6A95E2F7BD01DF0102C0AA0F99
:1013D000BB1F4A95E2F7AD01462B01C0EE0F2A95DF
:1013E000EAF7942F9823491302C08E2B0895E095B5
:1013F0008E230895242F462F682F809161010E942B
:10140000DC090E94BE080895FF920F931F93CF93AB
:10141000DF93C091630189E0F82E80916401C817C1
:10142000B1F0D0E0FC9EF001FD9EF00D1124EB59CF
:10143000FE4F008111812281338144815581668173
:10144000778180850E948F082196C770E6CFCDB73F
:10145000DEB7E5E00C945E350F931F930091AD016C
:101460001091AE012091AF013091B0014091B101D6
:101470005091B2016091B3017091B4018091B501B6
:101480000E948F081F910F91089520916301909100
:10149000640159E02917A9F030E0529FF001539FF1
:1014A000F00D1124EB59FE4F7181761306C0708147
:1014B000781303C07581741306C02F5F3F4F2770E8
:1014C000E9CF80E0089581E00895A0E0B0E0EBE688
:1014D000FAE00C9440358091B30182958F7009F049
:1014E00052C08091B201882309F44DC0C0916301BC
:1014F00089E0D82E80916401C81709F444C0D0E077
:10150000DC9E8001DD9E100D1124F801EB59FE4F89
:1015100084818823A9F191818091AE01981330C014
:1015200090818091AD0198132BC08581811128C0D5
:10153000E280F3808091AF019091B001E81AF90A3E
:1015400060E08DEA91E00E94A5036DEA71E00E94DF
:10155000F11AE816F906A0F48091B3018F7080614A
:101560008093B301F801E559FE4F80818F7080614F
:1015700080838DEA91E00E9462080E94040A03C001
:101580002196C770B7CFCDB7DEB7E7E00C945C35D6
:101590002F923F925F926F927F928F929F92AF9223
:1015A000BF92CF92DF92EF92FF920F931F93CF9350
:1015B000DF93CDB7DEB768970FB6F894DEBF0FBEE6
:1015C000CDBF8C0186E0F801DE01539601900D92AB
:1015D0008A95E1F7D80114967C9014971596EC90B3
:1015E0008DEA282E81E0382E8091B10181111CC036
:1015F000772009F456C0EE2009F450C0C8010E94BB
:10160000E705F82E882309F449C089E0F801ADEA1E
:10161000B1E001900D928A95E1F78DEA91E00E9488
:1016200033050E94650AB9C1F80160805180C2800B
:10163000D38060E08DEA91E00E94A5035C01F09008
:10164000B2018091AF019091B001FF2009F421C156
:101650004601881A990A60E08DEA91E00E94A5038C
:101660006DEA71E00E94F11A8816990608F0ABC085
:101670007720B9F08091B301382F307F2091AE01EF
:10168000D80111969C911197332371F0291709F411
:1016900057C0C8010E94E705811166C0C8010E94B9
:1016A0006208FF24F394B2C1291321C02091AD0137
:1016B0009C9129131CC04091B4015091B50117961B
:1016C0002D913C9118974217530789F4E1100FC0F0
:1016D0008F7080618093B3010E942C0A8DEA91E0A3
:1016E0000E9462088091B301F80186838EC1E110E7
:1016F00011C040E0652D862D0E94450A882309F41B
:101700004FC16DEA71E0C5010E94841D882309F470
:1017100047C10DC08091B30181608093B3016DEA30
:1017200071E0C5010E94881D882309F46EC18DEA0D
:1017300091E00E946208EDEAF1E089E0DF0158C023
:101740002091AD01F80190812913A3CF4091B401FC
:101750005091B501278130854217530709F099CF81
:10176000E11097CF8683E7C0EE2009F497CF209150
:10177000B301822F82958F7090E00297BCF0809128
:10178000AD019091AE019B878A87DD86CC868091E2
:10179000B1018E871F86288B8091B4019091B5018D
:1017A0009A8B898BCE010A960E94620889E0F80123
:1017B000ADEAB1E001900D928A95E1F70E94650AC9
:1017C0000E942C0A6ECF8091B301982F907FB1F4C4
:1017D0006C2DDE8ACD8A462D552D7E89872D9E2D36
:1017E0000E9485088DEA91E00E94620889E0D1019B
:1017F0001D928A95E9F70E942C0A07C1772009F407
:1018000050CF2091AE01F801918129131AC0209187
:10181000AD019081291315C04091B4015091B501DB
:10182000278130854217530761F4E1100AC086838F
:10183000C8010E94620889E0D1011D928A95E9F7EA
:10184000E5C0C8010E94E705882309F427CFEE20F0
:1018500009F424CF2091B301822F82958F7090E0FC
:1018600002970CF4A3CF8091AD019091AE019A83C1
:101870008983DC82CB828091B1018D831E822F838C
:101880008091B4019091B50199878887CE01019626
:101890008BCF5601A81AB90A60E08DEA91E00E9448
:1018A000A5036DEA71E00E94F11AA816B90608F0C6
:1018B00065C0772009F4F5CEFE2CEE2009F4EECEBB
:1018C0009091AE01F801818198134AC09091AD01C9
:1018D0008081981345C02091B4013091B501878172
:1018E000908528173907E1F58091AF019091B001FB
:1018F000C81AD90AF8ECCF16D10448F58091B30183
:1019000080FD25C082958F70482F50E0411551050C
:10191000F1F02091B301D80116962C9316974F3011
:10192000510549F08F5F982F9295907F822F8F708D
:10193000892B16968C93C8010E94620889E0F801F1
:10194000ADEAB1E001900D928A95E1F726C089E0F9
:10195000F801ADEAB1E001900D928A95E1F756C029
:10196000C8010E94E705811121CF8091B3018160F8
:101970008093B301C8010E94620848C06C2DDE8AC2
:10198000CD8A462D552D7E89872D9E2D0E94850856
:1019900089E0F10111928A95E9F70E942C0A36C07C
:1019A00040E0652D862D0E94450AE82E81112DC04C
:1019B0006B8A5C8A8B899C890E94AE09292F2295AB
:1019C0002F70243020F49F70223028F009C02A5054
:1019D000223080F014C0992349F0811107C013C050
:1019E000992321F0F8019681907F69F0805E88301C
:1019F00030F409C0803F38F0815F833020F0C801A7
:101A00000E946208EF2CFE2C01C0F12C8F2D6896ED
:101A10000FB6F894DEBF0FBECDBFDF91CF911F91FF
:101A20000F91FF90EF90DF90CF90BF90AF909F907D
:101A30008F907F906F905F903F902F900895A2E1DC
:101A4000B0E0E5E2FDE00C9442350A871B872C8765
:101A50003D874E875F87688B798B8A8BCE010A968C
:101A60000E94C80A882371F04E854423C1F10A857B
:101A70001B852C853D855F85688979898A890E94C7
:101A80008F082DC089E0FE013A96DE011196019083
:101A90000D928A95E1F76E85662309F12091640124
:101AA00030E0C9010196877099274091630150E0A9
:101AB0008417950709F43FC06D8399E0929FD00188
:101AC000939FB00D1124AB59BE4FFE01319601908A
:101AD0000D929A95E1F7809364010E94040A89E0CF
:101AE000F82E8091630190916401891789F1F89E25
:101AF000C00111248B599E4F0E94C80A882341F1CE
:101B0000E0916301FE9EF0011124EB59FE4F00812C
:101B1000118122813381448155816681778180855D
:101B20000E948F088091630190E001968770992749
:101B300080936301D6CF0E94C70510926401109272
:101B40006301EDEAF1E089E0DF011D928A95E9F792
:101B50006296E5E00C945E358091FA039091FB0368
:101B6000892B89F00E94C72B2091C1013091C201BD
:101B7000AC01421B530B81E02091FA033091FB032F
:101B80004217530708F480E0817008958091C001E6
:101B900086958695869508958091C00187700895F1
:101BA0000E94C72B2091BE013091BF01821B930B75
:101BB0002091FA033091FB038217930740F0809144
:101BC000C00182FB882780F991E0892701C080E06D
:101BD000817008959091C001977081E009F480E0D0
:101BE00008958091CE0108959091CE01892B809324
:101BF000CE01089580959091CE0189238093CE01E6
:101C000008951092CE0108958091CD01089590918C
:101C1000CD01892B8093CD01089580959091CD01C0
:101C200089238093CD0108951092CD01089580916C
:101C3000C401089508950E941A0E08950E941B0E73
:101C40000895CF939091C4019823891779F0C82FF4
:101C50000E94C72B9093C2018093C1018091C4015F
:101C60008C2B8093C4018C2F0E941E0ECF9108955F
:101C70009091C401292F282399F08095892380937E
:101C8000C401882319F00E94C72B02C080E090E0B5
:101C90009093C2018093C1018091C4010E941E0EE5
:101CA0000895CF939091930392FF10C09091C40137
:101CB000981761F0C82F0E94C72B9093C2018093A0
:101CC000C101C093C4018C2F0E941E0ECF910895B4
:101CD0008091C401882349F01092C4011092C2017E
:101CE0001092C10180E00E941E0E08950F931F9371
:101CF000CF93DF930091000110910101C091CE01BB
:101D00008091CD01C82B8091C401882399F08091E6
:101D1000FA039091FB03892B29F00E94AC0D8111ED
:101D20000E94680E8091C401C82B0E94B52A8111BF
:101D30000E94680EF801C083C0910001D09101019A
:101D400048E050E066EB71E0CE010E947535892BCA
:101D500059F088E0FE01A6EBB1E001900D928A9562
:101D6000E1F7CE010E94AA2ADF91CF911F910F9136
:101D700008950E94760E08950E941A0E08950E94FA
:101D8000BC0E08959091C301292F2823821729F0B2
:101D9000892B8093C3010E94BF0E08959091C301C7
:101DA000292F282331F0809589238093C3010E9435
:101DB000BF0E08950E941A0E08959091930392FF0A
:101DC00017C098E0899F90011124262B2093C00111
:101DD0000E94D0080E94C72B9093BF018093BE0140
:101DE0008091C0018695869586950E94DA0E0895A9
:101DF0000E94D00808951092C0011092BF01109265
:101E0000BE0180E00E94DA0E08959091C001809595
:101E100089238093C001282F277069F4981759F0FF
:101E20009091930392FF07C08695869586950E94B0
:101E3000DC080E94FB0E08959091930392FB2227E9
:101E400020F9281769F080FB92F990939303809111
:101E50009203909193030E94650F82E00E94050F08
:101E600008958091930382FB882780F991E0892768
:101E70000E941C0F089581E00E941C0F089580E0CD
:101E80000E941C0F08956FEF7FEF80E090E00E94AA
:101E9000DE35089580E090E00E94AA35863E9E4F90
:101EA00019F40E94EA28089580E0089582E090E005
:101EB0000E94A235089583E090E00E94A235089523
:101EC00084E090E00E94AA350895BC0184E090E08F
:101ED0000E94DE350895AB01BC018FE090E00E94C6
:101EE000D2350895AB01BC0183E190E00E94D23568
:101EF000089560E070E0CB010E94720F089560E0E9
:101F000070E0CB010E946B0F0E94790F0895A8E04A
:101F1000B0E0EDE8FFE00C94453566EE7EEF80E042
:101F200090E00E94DE3560E082E090E00E94C035E3
:101F300081E08093620161E083E090E00E94C0351F
:101F400060E074E184E090E00E94DE3560E086E0CD
:101F500090E00E94C0356FEF87E090E00E94C035AE
:101F600040E050E0BA0188E090E00E94D23560E0A5
:101F700084E290E00E94C03560E087E190E00E943A
:101F8000C03560E08CE090E00E94C03560E08DE0FC
:101F900090E00E94C03519821A821B821C821D8229
:101FA0001E821F82188648E050E068E170E0CE0192
:101FB00001960E94B03540E050E0BA0180E290E026
:101FC0000E94D23580E00E9403290E9438290E9495
:101FD0007F0F2896E2E00C9461350E94870F0895E8
:101FE000A6E0B0E0E6EFFFE00C9443350E94C72B7B
:101FF0008C018091CF019091D0010817190781F0D1
:1020000019821A820E94C72B682F49815A81792F21
:1020100080E090E00E94DA041093D0010093CF0199
:102020002696E4E00C945F350E9405136093DD0171
:102030007093DE018093DF019093E0016093D901FA
:102040007093DA018093DB019093DC01089581E0C5
:1020500008950E943115089508950E942C10089546
:102060000E942C1008950E94301008950E942C1098
:1020700008950E94361008950E942C1008958FE153
:1020800093E10E9442170E94C3170E94AF1C0E9456
:102090003C100E94391008950E942D100E942C10AF
:1020A00008950E943E130E94A30408950E94BE2B2F
:1020B0000E94DF120E9448290E9437150E94811455
:1020C0000E9451100E94CE230E9449150E94331095
:1020D00008950E943115882331F00E9463280E94E0
:1020E000C0210E94F71E0895A6E0B0E0EAE7F0E103
:1020F0000C943C350E942710811103C00E94F00F00
:1021000053C00E94A61481EDE82E81E0F82E6701ED
:1021100000E0F60111916F01802F0E946E1381275C
:102120000F5F083019F08823A1F302C0882331F330
:102130008091E10181FD0E9474130E942910A82E54
:1021400010E099249394812F0E946E13B82EF7010A
:10215000C080C82609F100E0DD24D3948C2D8D21A8
:10216000A9F0AA2099F009831A830E94C72B9C83A7
:102170008B839D8291E08B2D8D2109F490E0498124
:102180005A816B817C818D810E94DA040F5FDD0CA6
:10219000073021F7F701B0821F5FFFEFEF1AFF0A48
:1021A000183089F60E9414100E9469100E94B6042B
:1021B0002696EBE00C9458351F93CF93DF930E9443
:1021C000F411EC01C11582E5D807C8F5C11590E5F9
:1021D000D90708F0BBC0C83ED105C0F4C03ED10548
:1021E00008F0DDC0C53AD10550F4C430D10508F07F
:1021F000D6C0219709F0D0C081E090E0D1C0CD3C9D
:10220000D10508F4C9C0CE019065CAC0C11580E4EB
:10221000D80708F05AC0C11590E2D90708F0AFC03E
:10222000C11581E0D80708F4B7C08D2F0E94901225
:10223000182FCE0199270E94F4111F71ABC0C0382E
:1022400092E5D90720F5C03682E5D80708F061C0CD
:10225000C03492E5D90708F04AC0C03282E5D807F9
:10226000F0F54C2F4695469590E2499FA001112428
:10227000C37021E030E0C90102C0880F991FCA95E0
:10228000E2F7EA01C82BD92BCE019D6889C0C03C7A
:1022900092E5D90768F48C2F8F71C03AD24508F0C7
:1022A0004CC090E0D82FCC27CE01846F906A78C0C4
:1022B000C03E82E5D80708F06FC0CF71DD27DC2F64
:1022C000CC27CE01806F906A6BC0CE0199270E9407
:1022D000F411CC27DF70D06A8C2B9D2B61C0CF719D
:1022E000D0E0DC2FCC27CE01816F906A59C08C2FB3
:1022F0008F718695869590E2899F90011124C37015
:1023000081E090E002C0880F991FCA95E2F79C68AF
:1023100011C08C2F8F718695869590E2899F9001D0
:102320001124C37081E090E002C0880F991FCA9504
:10233000E2F79A68822B932B33C00E9490128F7120
:1023400090E0D82FCC27CE0190622AC08C2F8F71BD
:102350000E94901295E0D695C7959A95E1F7CF70B7
:10236000D0E0DC2FCC27282F30E084FF05C084E0AC
:10237000220F331F8A95E1F7D069CE01DBCF8D2F75
:102380008F710E949012182FCE0199270E94F4118C
:102390001F719062912B04C080E090E001C0CE01DB
:1023A000DF91CF911F9108952091D2023091D302F5
:1023B000232B91F4703F39F4603F71F48091F60360
:1023C0009091F7030895783038F4673028F4462F59
:1023D000672F0E949925089580E090E008950E945B
:1023E000D4110E94DC1008958238910569F1B0F48F
:1023F0008133910509F475C048F48932910509F4D7
:1024000067C08A32910509F471C00895853391053A
:1024100009F459C089339105B9F00895833E9105B7
:1024200089F138F4803E9105D1F0823E910529F181
:102430000895863E9105C9F1873E9105D9F1843E04
:10244000910509F06CC027C02091920320FD57C070
:1024500021FD55C02091930323FD5BC00895809119
:10246000920380FD48C08091930380FF48C0809113
:10247000920384FD46C083EE51C08091920382FF97
:102480003CC0F5CF8091920382FD37C080919303C9
:1024900080FD35C0ECCF8091930381FF36C08091E1
:1024A000920384FD2EC087EE39C08091920383FF92
:1024B0002AC0F5CF8091920383FD25C080919303BC
:1024C00081FD23C0ECCF8091920385FD22C01FC007
:1024D0008091920385FD1BC08091930383FF19C0F7
:1024E0000AC08091920386FD16C017C080919203A6
:1024F00086FD13C010C089E311C082EE0FC080EECC
:102500000DC080E00BC086EE09C084EE07C085E3F5
:1025100005C089E203C08AE201C081E390E008952A
:102520009091920392FF10C041E0282F2471243033
:1025300009F040E031E0282F2871283009F030E020
:10254000431711F02CE0822793FF10C041E0282FA1
:102550002471243109F040E031E0282F287128311E
:1025600009F030E0431711F02CE0822730919303FB
:1025700030FF10C051E0282F2171213009F050E0C8
:1025800041E0282F2871283009F040E0541711F05D
:1025900029E0822731FF10C041E0282F217121312D
:1025A00009F040E031E0282F2871283109F030E0AF
:1025B000431711F029E0822794FD877E0895109239
:1025C0008E0310928F03109290031092910308953E
:1025D000CF92DF92EF92FF926B017C010E94311546
:1025E00081110EC00E94D32BC61AD70AE80AF90A35
:1025F000C0928E03D0928F03E0929003F0929103E9
:10260000FF90EF90DF90CF9008950F931F930E945B
:102610003115882319F00E94D32B0EC00E94D32BB2
:1026200000918E0310918F032091900330919103BC
:10263000600F711F821F931F1F910F91089580E0FB
:1026400008950E94430F08950E94A6142FEF86E775
:1026500091E0215080409040E1F700C000000E94CE
:10266000A61480E00E946E1380FF04C00E94211314
:102670000E94302C08950E94241308950E944A0F4E
:10268000811102C00E94ED0F0E94560F8093E1015C
:102690000E94600F90939303809392030E943B13D8
:1026A0000E945B0F0E94A608809161010E94BB08F6
:1026B0000895E82FF0E0E356FC4F2081822F90E050
:1026C00021E030E002C0220F331F6A95E2F7282391
:1026D000392381E0232B09F480E00895E82FF0E00E
:1026E000E356FC4F80810895089580EA8A95F1F7BA
:1026F000089500C008950E947513089508950E94DA
:102700007E1308950E947F1308950E947E130895FA
:102710000E94851308950E947E130895A4E0B0E0FE
:10272000E4E9F3E10C9443350E9431156091A5036F
:102730008823E9F119821A821B821C82862F90E07D
:102740008E010F5F1F4FB80183569C4F0E94571593
:10275000882389F08091940390E044E050E0B80130
:1027600083569C4F0E94753521E02093E201892B0E
:1027700069F410E019C08091E2018823D1F384E06C
:10278000F80111928A95E9F71092E201E091940321
:10279000F0E0E356FC4F89819A81AB81BC81808354
:1027A0009183A283B38311E00E9482130DC070E075
:1027B00063567C4F8091940390E083569C4F0E9417
:1027C000E0150E948B1310E0812F2496E4E00C9416
:1027D0005F35F894E82FE295EF70F0E031A1282FF3
:1027E0002F7081E090E001C0880F2A95EAF7982FBA
:1027F0009095932391A392A1892B82A37894089515
:102800000F931F93CF93DF93C5E3D1E089918F3F5F
:1028100011F00E94E91381E0CC33D807B9F7CCE37B
:10282000D1E000E411E089918F3F11F00E94E9139B
:102830000C171D07C1F7DF91CF911F910F910895DC
:10284000EF92FF920F931F93CF93DF93C62FD0E0A9
:10285000CB5CDE4F28812F3F09F44EC0042F162F8A
:102860007C01F894E22FE295EF70F0E081A1422F15
:102870004F7021E030E001C0220F4A95EAF7822B29
:1028800081A382A12095282322A378940E94791302
:102890006CE371E0F701A7014C5F5F4FF12C302F23
:1028A0003095DB012D91BD012F3FB1F0822F829534
:1028B0008F7090E0DC0190968C9190E02F7002C0B8
:1028C000959587952A95E2F780FD06C08081802B3B
:1028D0008083FF24F39403C0808183238083319617
:1028E000E417F507F1F688818F3F11F00E94E91394
:1028F0006F2D812F0E947B13CDB7DEB7E6E00C94DD
:102900005D358091020180910201811102C094E045
:1029100001C090E09093A50384E0891B8093940309
:102920000E94001488E0EDE9F3E0DF01982F1D928A
:102930009A95E9F7E5E9F3E0DF011D928A95E9F759
:1029400084E00E94E8140E9488130895A8E0B0E093
:10295000ECEAF4E10C9441358E010F5F1F4F88E0E3
:10296000F80111928A95E9F7F12CEE24E3944E2DAB
:102970006F2DC8010E942014F394EE0CF7E0FF12B3
:10298000F6CF48E050E0B80185E993E00E94753544
:1029900021E0009709F420E0892B41F088E0F8015C
:1029A000A5E9B3E001900D928A95E1F76091A50346
:1029B00070E063567C4F44E085E993E00E94E9149F
:1029C000182F0E948E13812B2896E6E00C945D351B
:1029D0000895EF92FF920F931F93CF93DF937C01A3
:1029E0008B01C42F222351F081E08093E5010E94E6
:1029F000C72B9093E4018093E30104C08091E5012B
:102A0000811102C080E01AC08091E3019091E4013D
:102A10000E94DF2B0597B0F3D0E0AE01B701C801EB
:102A20000E947535892B39F0AE01B701C8010E94AB
:102A3000823581E001C080E01092E501CDB7DEB7BC
:102A4000E6E00C945D35CF930E941B35C82F8111B1
:102A500002C00E9416358C2FCF9108958091E90114
:102A600008958091E80108950E94311508950E940B
:102A700023158093E8010E9434158093E9010E9498
:102A80002E15809302010E94311581110E948F152D
:102A900008950E943115811102C00E949215089577
:102AA00081E09091EA019A3008F080E008950F9358
:102AB0001F93CF93DF93EC018B018091EA018A3061
:102AC00038F4B801CE010E94DD1581111DC00AC085
:102AD0008091E6019091E7010E94DF2B843F9140B5
:102AE00080F715C08091EA018F3F19F08F5F8093C6
:102AF000EA018091EA018A3060F00E94C72B90932E
:102B0000E7018093E60103C01092EA0102C080E071
:102B100001C081E0DF91CF911F910F9108950E9434
:102B2000A22C08950E94A52C0895A0E0B0E0EBE946
:102B3000F5E10C9440357901C82F880FDD0B411564
:102B40005105A9F0FE0193E0EE0FFF1F9A95E1F702
:102B5000ED5FFE4F8181928185519E4F208130E053
:102B60004217530708F49A01A9010E948235CE0149
:102B70000E948D2DD82E8823D1F001151105B9F0B2
:102B800083E0CC0FDD1F8A95E1F7FE01ED5FFE4F7C
:102B9000438150E00417150708F4A801CD5FDE4F0C
:102BA0006C817D8165517E4FC7010E9482358D2DDC
:102BB000CDB7DEB7E7E00C945C350E94DA160895D5
:102BC0000E94F1160895A4E0B0E0E9EEF5E10C945E
:102BD0004335609100027091010280910202909150
:102BE00003020E94EE2B643671058105910528F1E0
:102BF0000E940513DC01CB010296A11DB11D898342
:102C00009A83AB83BC8300E010E020E030E044E036
:102C100050E0BE016F5F7F4F82E00E949515182F34
:102C2000882361F00E94D32B60930002709301020D
:102C3000809302029093030201C011E0812F249639
:102C4000E4E00C945F35A0E0B0E0E9E2F6E10C943A
:102C50003D357C015B016A010E945015811103C062
:102C600001E010E002C00AE010E0C1E0D0E0B501F0
:102C7000C701F6010995811115C021960C171D0792
:102C800094F0CC9F9001CD9F300D300D112480E049
:102C900090E045E34A95F1F700000196821793070B
:102CA000C1F7E5CF81E0CDB7DEB7EAE00C94593546
:102CB000A5E0B0E0EEE5F6E10C943D355B01E09077
:102CC0004001F090410101E010E09E012B5F3F4F79
:102CD00040E050E060E070E080E00E949515182F21
:102CE000882309F43EC067018FEFC81AD80A6091A3
:102CF000FC017091FD018091FE019091FF010E9405
:102D0000EE2B643671058105910518F104E010E0A1
:102D10009E012F5F3F4F40E050E060E070E081E0B7
:102D20000E949515182F64E070E0C6010E94CF2321
:102D300091E02D81281390E0192351F10E94D32BAB
:102D40006093FC017093FD018093FE019093FF015D
:102D500011C064E070E0C6010E94CF239D818913F9
:102D6000D5CFF70181819281A381B48189839A8330
:102D7000AB83BC83112361F089819A81AB81BC81D3
:102D80008093F8019093F901A093FA01B093FB01AD
:102D90008091F8019091F901A091FA01B091FB01A5
:102DA000F50180839183A283B383812F2596EAE086
:102DB0000C9459350F931F93CF93DF93EC018B0144
:102DC00048E556E10E942316882331F043EE55E191
:102DD000B801CE010E942316DF91CF911F910F9170
:102DE00008950F931F93CF93DF93C0914001D0912B
:102DF0004101CE01019624E0FB01DC0101900D921E
:102E00002A95E1F764E070E00E94CF2388836D810A
:102E10007E818F8198850091F4011091F5012091B8
:102E2000F6013091F701601771078207930751F09F
:102E30006093F4017093F5018093F6019093F7018C
:102E40000E94E812DF91CF911F910F9108950E9487
:102E50006A2F0E9456100E94772F08950E947C2F9F
:102E60000E9474100E94962F08950E945E2B0E946B
:102E7000502F0E943F100E9427170E942E170E9479
:102E80004C10FBCF9093430180934201089581152C
:102E90002CE7920759F48091D4029091D502892BA6
:102EA00019F480E090E0089580E09CE70895ECE359
:102EB000F2E080E090E06AEC7AE140E55AE12AED48
:102EC00039E17783668351874087338722879787E5
:102ED0008687019670968830910599F70895CF926C
:102EE000DF92EF92FF921F93CF93DF93CDB7DEB7C0
:102EF0002A970FB6F894DEBF0FBECDBF80E5E6EA95
:102F0000F3E0DF011D928A95E9F788E3E4E0F2E05F
:102F1000DF011D928A95E9F786EAC82E83E0D82E54
:102F20007F0110E0F701D182C082BE016F5F7F4F49
:102F3000812F0E947124892B79F488E0FE0131965B
:102F4000D60101900D928A95E1F789859A85D7017E
:102F500013969C938E931297BAE0CB0ED11CE7E0A8
:102F6000EE0EF11C1F5F1830E9F62A960FB6F894A2
:102F7000DEBF0FBECDBFDF91CF911F91FF90EF90CD
:102F8000DF90CF9008950E9457170E946F17089501
:102F9000CF92DF92FF920F931F93CF93DF93CDB722
:102FA000DEB72A970FB6F894DEBF0FBECDBF6032F2
:102FB00009F0A8C1DC011196EC9111974E2F50E059
:102FC0004E30510508F09EC18C01FA01EE59FF4FB9
:102FD0000C94283588E0EDE2F1E0DE0111960190D5
:102FE0000D928A95E1F780E2F80111928A95E9F74E
:102FF00086E0D8018C9311961C92119712961C9220
:10300000129713961C92139788E0FE01319614963E
:1030100001900D928A95E1F775C180E1FD018083F1
:1030200081E08183128213826DC1DC0113968C9141
:10303000139790E0982F882712962C91820F911D5C
:10304000092E000CAA0BBB0B45E0880F991FAA1F85
:10305000BB1F4A95D1F7AC01BD01405E5F4F6F4F7A
:103060007F4F481759076A077B0708F44BC1803127
:10307000E1E09E07A105B10508F044C14131F1E04E
:103080005F076105710520F040E151E060E070E00C
:10309000481B590BBC016C5B7D4FC8010E946C350D
:1030A00031C140E250E06FEF70E00E948B358091BB
:1030B000D402D8018C938091D20211968C931197EF
:1030C00012961C92129713961C92139781E01496F5
:1030D0008C93149715968C9315C181E090E0909392
:1030E000D3028093D20282E390E09093D102809346
:1030F000D0020E94C72B9093CF028093CE0202C1D0
:103100008091D2029091D302892BC9F160E080E0D6
:103110000E945913D82E61E081E00E945913F82EC5
:103120008091CE029091CF020E94DF2B85369105CF
:1031300000F1DD20F1F0FF20E1F00E94C72B909319
:10314000CF028093CE028091D0029091D10201975C
:103150009093D1028093D002892B89F41092D302EC
:103160001092D20281E090E09093D5028093D40235
:1031700006C082E390E09093D1028093D0028091C8
:10318000D402F80180838091D20281838091D002A1
:103190008283B8C01092D5021092D402B3C040E22C
:1031A00050E0BC01DC0112968D919C9113970E9416
:1031B000091DA8C0BC016F5F7F4F4FE150E0FC01CB
:1031C000828193810E94381D0AC0BC016C5F7F4FD1
:1031D0004CE150E0FC01828193810E94531DD80193
:1031E0008C9390C00E94D51C8DC0FC0182818230DE
:1031F00009F443C0A8F48823B1F1813009F082C0FA
:1032000013968C912AE0F22EFE0131966F01DF01B8
:10321000EF2D1D92EA95E9F7B6010E9447246BC095
:10322000833009F459C0843009F06CC01396FC90C7
:1032300013978AE0FD013496DE01119601900D92FC
:103240008A95E1F789859A850E9447179A87898729
:10325000BE016F5F7F4F8F2D0E948624F80180830F
:103260000E946F174FC080E21D928A95E9F788E0AF
:10327000F80180838183128245C01396FC901397D6
:103280008AE0FD013496DE01119601900D928A9537
:10329000E1F789819A810E9447179A8389838B81FC
:1032A0009C810E9447179C838B838D819E810E9405
:1032B00047179E838D838F8198850E944717988733
:1032C0008F83BE016F5F7F4F8F2D0E945C24F801BA
:1032D00080830E94571716C013968C919AE0F92E9E
:1032E000FE0131966F01DF01EF2D1D92EA95E9F79E
:1032F000B6010E947124D8018D93F60101900D92C0
:10330000FA94E1F72A960FB6F894DEBF0FBECDBF50
:10331000DF91CF911F910F91FF90DF90CF90089593
:10332000A6E0B0E0E6E9F9E10C9445359093F703A7
:103330008093F603811520E2920718F40E94380367
:1033400010C080EF89838A830E94C72B8160682F19
:103350009C838B8349815A817C8181E091E00E942A
:10336000DA042696E2E00C946135A6E0B0E0EBEBDF
:10337000F9E10C9445359093F7038093F60381159A
:1033800020E2920718F40E944F0310C080EF898357
:103390008A830E94C72B8160682F9C838B8349811D
:1033A0005A817C8181E090E00E94DA042696E2E076
:1033B0000C9461350F931F93CF93DF938C01EB0136
:1033C0006CEB72E08C2F0E944724892B09F04AC0D5
:1033D0008091160490911704009741F0EFE9FFE007
:1033E0003197F1F700C000000197F6CFDD27CA53EF
:1033F000DD4F8881F80112821882833079F048F419
:10340000813041F1823071F58091BE029091BF020E
:1034100009C0843051F08530E9F024C08091C002A9
:103420009091C1020097B1F01BC08091C2029091AF
:10343000C3020097A9F42091BC023091BD02809193
:10344000BE029091BF022115310541F0009741F471
:10345000C90106C08091BC029091BD02009711F095
:103460000E94B519DF91CF911F910F910895CF93CD
:10347000DF93EC010E94901980911604909117043B
:10348000009741F0EFE9FFE03197F1F700C000004D
:103490000197F6CFCE010E94B519DF91CF91089523
:1034A0000F931F93CF93DF938C01EB016CEB72E0D2
:1034B0008C2F0E944724892B09F067C0DD27F80173
:1034C0008281813039F4958192FD13C090FF11C043
:1034D00082E00FC0823041F4F801858182FD06C090
:1034E00080FD06C083E005C086E003C085E001C022
:1034F00084E0CA53DD4F88838330B1F028F48130F3
:1035000071F0823031F041C08430A9F0853079F11A
:103510003CC08091BE029091BF020097A1F58091BE
:10352000BC029091BD0220C08091C0029091C10266
:103530000097E9F028C08091C2029091C3020097E1
:1035400011F58091BC029091BD02009749F00E9454
:10355000371A8091BE029091BF02009781F013C08C
:103560008091BE029091BF02009779F00CC08091CB
:10357000BC029091BD02009741F00E94371A8091E1
:10358000BC029091BD020E949019DF91CF911F91D2
:103590000F9108950F931F93CF93DF938C01862F84
:1035A0006CEB72E00E944724892BB1F4C091BC02FD
:1035B000D091BD02209781F0F8018281833039F4E7
:1035C000CE010E94371ACE010E94371A02C0843001
:1035D00018F0CE010E94371ADF91CF911F910F9101
:1035E0000895AAE0B0E0E7EFFAE10C9441358C01D0
:1035F0007B0197558F3F910509F058F4BE016F5F2D
:103600007F4F802F0E944724892B19F489859A8542
:1036100004C0B701C8010E947F1D2A96E6E00C9401
:103620005D35CF93DF93FB012581211145C0EC016E
:10363000D755CF3FD10511F008F03EC06CEB72E0DA
:103640008C2F0E944724892BB9F5CE0124E0880FE6
:10365000991F2A95E1F7FC01E45CFD4F228121309E
:10366000C9F42091BC023091BD02232B29F1209195
:10367000BE023091BF02232BF9F02091C00230919D
:10368000C102232BC9F42091C2023091C302232B23
:1036900049F012C0223081F42091C0023091C10261
:1036A000232B51F0FC01EF5BFD4F20812E7F208307
:1036B000845C9D4F0E94A82781E0DF91CF910895FF
:1036C000A0E0B0E0E6E6FBE10C943D354430510566
:1036D00008F46CC04091920341FBCC24C0F8D12C7B
:1036E000CC0CDD1C42FB882780F9C82FE0E0DE2FE0
:1036F000CC0FDD1FCC0FDD1FCC2ADD2A40FBEE24D2
:10370000E0F8F12CEC28FD2843FBAA27A0F9B0E053
:1037100023E0AA0FBB1F2A95E1F7EA2AFB2A44FB04
:10372000EE27E0F9F0E034E0EE0FFF1F3A95E1F705
:10373000EE29FF2945FB222720F930E055E0220F32
:10374000331F5A95E1F72E2B3F2B46FB882780F934
:1037500090E0E6E0880F991FEA95E1F7822B932B22
:1037600047FB442740F950E05695542F442757957E
:103770004795842B952B20919303322F3170132F73
:1037800000E0082B192B26952170B22EBB0CA12C22
:103790000A291B29012E000C220B330BFB0100838D
:1037A00011832283338380E090E002C08FEF9FEF8C
:1037B000CDB7DEB7EAE00C945935CF92DF92EF92A5
:1037C000FF924430510508F46FC0FB01C080D180E6
:1037D000E280F3800E94C70580919203C0FA80F9CD
:1037E000B701A601769567955795479540FB81F9F6
:1037F000B701A60122E076956795579547952A95DA
:10380000D1F740FB82F9B701A60133E076956795C1
:10381000579547953A95D1F740FB83F9B701A60133
:10382000E4E07695679557954795EA95D1F740FB83
:1038300084F9B701A601F5E0769567955795479508
:10384000FA95D1F740FB85F9B701A601A6E0769578
:10385000679557954795AA95D1F740FB86F9B7012B
:10386000A601B7E07695679557954795BA95D1F734
:1038700040FB87F98093920380919303D0FA80F9FB
:1038800099E0F694E794D794C7949A95D1F7C0FA43
:1038900081F98093930380919203909193030E9406
:1038A000650F80E090E002C08FEF9FEFFF90EF90F8
:1038B000DF90CF9008958091F8039091F9030E94D2
:1038C0002D1F08959C01CA01F9013296459154912A
:1038D0008417950750F0CB01F901349665917491E6
:1038E0000E94823580E090E008958FEF9FEF089569
:1038F0000F931F93CF93DF9308EF13E0C0E0D0E066
:10390000CE010E943524F80161918F01861719F0CC
:10391000CE010E943F242196C432D10589F7DF9160
:10392000CF911F910F910895DA019C012E5F3F4FB7
:10393000F90145915491F90125913491A217B307EA
:1039400058F0FC013496859194910E9482350E9432
:10395000781C80E090E008958FEF9FEF08950F931B
:103960001F93CF93DF9308EF13E0C0E0D0E0CE01C8
:103970000E943524F80181938F012196C432D1052C
:10398000B1F7C0E0D0E0FE01E25AFC4F859194917E
:10399000009711F0FC0109952C96C039D10599F7D3
:1039A000DF91CF911F910F910895E8EFF3E0128E10
:1039B000138E8FEA90E09183808385E0848F28E8DE
:1039C00033E13383228322E330E0378B268B28ECEC
:1039D00030E0318F208F158E178E168E20E530E067
:1039E00031A320A382A30E94781C0E94C7051092D5
:1039F000930310929203E3E9F3E080818460808373
:103A000080919203909193030E94650F0E94AF1CD6
:103A10000895EF92FF920F931F93CF93DF937C0152
:103A2000EB018A016FEF70E0CE010E948B3524E537
:103A300033E080E090E0AC014E5F5F4F0417150764
:103A400090F0F90165917491E616F70630F4FE01E5
:103A5000E80FF91F71836083CA01245F3F4F43E081
:103A6000243E340741F7CDB7DEB7E6E00C945D3570
:103A70009C0184E593E0FC01A591B4912A173B07D2
:103A800041F00C96E3E0843E9E07A9F78FEF9FEF8D
:103A90000895FC0136962591349121153105B1F335
:103AA000F90109950895CF93DF93C4E5D3E0FE01B2
:103AB000259134918217930731F02C9623E0C43E70
:103AC000D207A9F707C0FE01389625913491211538
:103AD000310519F48FEF9FEF0FC0CE01F901099561
:103AE000009751F4FE013A9685919491009711F058
:103AF000FC01099580E090E0DF91CF9108958091DD
:103B00001004909111040895809115048170089516
:103B1000809115048695817091E0892708958091A0
:103B2000150483FB882780F9089580910E049091F5
:103B30000F0408958832910550F48E319105A0F458
:103B4000049700F1809113048295817012C089332B
:103B5000910530F48D32910578F48B9769F012C09D
:103B60008436910549F00EC08091130483FB8827A9
:103B700080F991E0892708958091130482FB8827BA
:103B800080F9F7CF80E008958091130485FB8827A2
:103B900080F908958091130486FB882780F90895A1
:103BA00080911B01877F80931B0182E00E940D0E94
:103BB00080911B0184FF06C08F7E80931B0182E0F1
:103BC0000E94F40D80911B0185FF06C08F7D8093BC
:103BD0001B0180E20E94F40D0E94B90E0895CF935C
:103BE000DF93EC01662319F082E00E94070ECE01FC
:103BF00090528115904318F4CE01992701C0CE014F
:103C00000E943803DF91CF9108959C013052211515
:103C1000304308F499270E944F030895FC01FF27C1
:103C200024E0F695E7952A95E1F79C012F7033275C
:103C3000EE0FFF1FEA52FD4F81E090E002C0880FB7
:103C4000991F2A95E2F7662329F020813181822B82
:103C5000932B06C0809590952081318182239323F8
:103C6000918380830895FC0123E0F695E7952A95DA
:103C7000E1F7EE71FF27EA52FD4F8F70992721E09F
:103C800030E002C0220F331F8A95E2F780819181D4
:103C90002823392381E0232B09F480E00895A0E054
:103CA000B0E0E5E5FEE10C944035EC017B01D42E5B
:103CB000890180911B0182FF80C02091FF02309119
:103CC00000032C173D0719F0209709F076C090915A
:103CD0001B019B7F90931B0191FD11C080910103FB
:103CE00090910203A701481B590B61E080911C01D0
:103CF00090911D014817590718F460E001C061E078
:103D0000617080911B0160FB81F980931B01C901E7
:103D10000E940E1E0E94F10D81FF08C080911B01C0
:103D2000806180931B0182E00E94FA0D0E94F10DD8
:103D300085FF08C080911B01806280931B0180E297
:103D40000E94FA0D60911B0166956170A801809137
:103D5000FF02909100030E94EF1DD11005C08091D9
:103D600016049091170413C0B8018091FF0290913E
:103D700000030E94C41D882391F3B8018091FF02C3
:103D8000909100030E94CA1D8111E9CF2BC00097BA
:103D900041F0EFE9FFE03197F1F700C00000019733
:103DA000F6CF60911B0166956170A8018091FF02BA
:103DB000909100030E94051E0FC0CE010E94331E89
:103DC000A801682FCE010E94051E8091FF029091EC
:103DD0000003C817D90711F40E94D01DF092020306
:103DE000E0920103CDB7DEB7E7E00C945C3580913B
:103DF000130480FF1EC080911B0182FF1AC00E9425
:103E0000C72B2091010330910203AC01421B530BDD
:103E100020911C0130911D014217530750F026EFED
:103E200032E041E0BC018091FF02909100030E94CA
:103E30004F1E089580911B01982F909590FB80F95B
:103E400080931B010E94D01D089580911B018E7FDD
:103E500080931B010E94D01D089590931D018093B3
:103E60001C010895A0E0B0E0E8E3FFE10C943F35C9
:103E70002091130420FF35C08B01EC010E94C72B59
:103E80006C01F8018581882379F180911B0182FF03
:103E900008C026EF32E040E0B60180E090E00E94EA
:103EA0004F1EC431FCE7DF0789F0C5312CE7D2078C
:103EB00051F0C3318CE7D80759F480911B01816020
:103EC00080931B0105C00E941A1F02C00E94251F7B
:103ED000CE01905281159043E0F4109200031092AD
:103EE000FF02FF24F394D2C0C13ED10521F480919A
:103EF0001B018F7E06C0C53ED10531F480911B01A8
:103F00008F7D80931B0105C0CE0190528115904397
:103F100040F380911B0180FFE4CFB801CE010E94E5
:103F20009A1DF801F580882309F4ADC0FF2009F43B
:103F3000A3C00E94F10DF82E0E94170E8F298D7FCD
:103F4000B9F0109200031092FF028091130481FDDA
:103F50000FC060E0CE010E940E1EA80160E0CE01FD
:103F60000E94EF1D0E94170E8D7F0E94510E7FC090
:103F700089E0F801A6EFB2E001900D928A95E1F791
:103F80001092F9021092F8028091FF0290910003C2
:103F9000C817D90709F04BC0B801CE010E94C41D53
:103FA000882309F444C080911B0181FD12C08091D7
:103FB0000103909102037601E81AF90AB801809191
:103FC000FF02909100030E94F11AE816F90678F5B5
:103FD0000AC0B8018091FF02909100030E94CA1D9F
:103FE0008111E5CF24C00E94F10D81FF08C08091AE
:103FF0001B01806180931B0182E00E94FA0D0E94E8
:10400000F10D85FF08C080911B01806280931B0128
:1040100080E20E94FA0D60911B0166956170A80113
:104020008091FF02909100030E94EF1D23C00E9427
:10403000F10D182F0E94170E812B8695817090919B
:104040001B0180FB91F990931B010E94170E8D7F3D
:104050000E94510ED0930003C093FF02D09202033E
:10406000C092010380911B01846080931B0182E058
:104070000E94050FF12C0AC0980140E0B601CE0164
:104080000E944F1E03C0F11028CF2BCF8F2DCDB72C
:10409000DEB7E8E00C945B350895EF92FF920F9342
:1040A0001F93CF93DF9380917603882309F441C057
:1040B000C09103038DE0F82E80917603C817A8F510
:1040C000EE24E394EC0EE0920303D0E0FC9EF001BA
:1040D000FD9EF00D1124E25FFC4F8481882319F1CD
:1040E00087819085892B51F4818592858F3F2FEFB1
:1040F000920721F061E00E944C200BC000811181E9
:1041000022813381448155816681778180850E9437
:104110001F0DFC9EF001FD9EF00D1124E25FFC4F8F
:1041200014820E94140ECE2DC7CF109276031092E7
:104130000303CDB7DEB7E6E00C945D350895109229
:10414000780310927703E4E0F2E08581811102C0E8
:1041500014821682379682E0EC33F807B1F708959F
:10416000BC0140910C0380910D03942F981729F105
:10417000292F30E0F901EE0FFF1FEC5FFC4F01909B
:10418000F081E02DE617F70799F487E0869FF001AC
:10419000879FF00D1124EC5FFD4F81E08483941321
:1041A0000CC02F5F3F4F2370332720930C030895DB
:1041B0002F5F3F4F922F9370D9CF08956F927F92C8
:1041C0009F92AF92BF92CF92DF92EF92FF920F93A6
:1041D0001F93CF93DF93DB0114962C911497211139
:1041E00060C0A0907603EEE0F3E020E030E0B12C78
:1041F00066246394712C2A1508F051C0E384F4847A
:10420000CD90DC9011976FEF7FEF912C492D50E00E
:104210008A01000F111F0C0D1D1DE8010881198175
:104220000115110531F0E016F10609F4BA01939475
:10423000EDCF6F3FDFEF7D0771F1E30102C0CC0FDF
:10424000DD1F6A95E2F7BC2AB30102C0660F771F33
:104250009A94E2F7AB01415051096B2D70E046177B
:104260005707C1F412964D915C9113976DE0629FD0
:10427000F001639FF00D1124E25FFC4F50874783EC
:1042800024E02483108211829287818721E0159691
:104290002C9305C014822F5F3F4F3D96ACCF0E94F8
:1042A000B020DF91CF911F910F91FF90EF90DF90A1
:1042B000CF90BF90AF909F907F906F9008951F9385
:1042C000CF93DF93C0910C0317E080910D03C817C3
:1042D000A1F0D0E0FE01EE0FFF1FEC5FFC4F8081EC
:1042E0009181189FB001199F700D11246C5F7D4F53
:1042F0000E94DE202196C370E8CF0E944D200E94CC
:104300009F20DF91CF911F9108951F93CF93DF934B
:10431000DC01DC9111961C91119780E090E020E087
:10432000ED2FF12FE20FF11DE20FF11D40815181C0
:1043300041155105B9F0FB01C081318190E0EC2FAE
:10434000F32FE90FF11DE90FF11D0190F081E02D30
:10435000309731F04E175F0709F481E09F5FEFCF90
:104360002F5FDECF882321F0921728F0CD0104C003
:1043700080E090E001C0CB01DF91CF911F910895C3
:1043800080911E01882341F18091790390917A03F5
:10439000009711F10E94DF2B209177033091780371
:1043A00028173907C8F490910C0380910D039817D2
:1043B00059F00E945F2110927803109277031092B7
:1043C0007A031092790308950E944D2010927A0387
:1043D000109279030E949F20089510927A03109200
:1043E000790310921E0180910D0380930C030E94AB
:1043F0009F200E944D20089580911E01882319F06E
:104400000E94ED21089581E080931E010895ADE0A2
:10441000B0E0EDE0F2E20C9435354C016B018035F3
:104420002CE7920741F4FB0115811123C9F081E0CB
:1044300080931E01AEC18135FCE79F0739F4FB0173
:104440001581112369F00E94ED21A3C182359C479B
:1044500039F4FB011581112319F00E94FC2199C147
:104460009091610180916201892B0E947C04182F38
:104470000E949E20181731F0F601608171810E9420
:10448000D4114C0164E0E62E62E0F62EA12CB12C92
:104490001C8666246394712CCE0101969B878A87C3
:1044A000F7012081318144244A94542C212C822DFF
:1044B00090E0FC01EE0FFF1FE20FF31F40815181DE
:1044C0004115510531F08416950609F42C01239409
:1044D000EECFFFEF4F165F0609F405C1F7016481C7
:1044E000611103C080911E0102C080E090E08170E4
:1044F000F6013580332009F492C0882309F48FC077
:10450000B701C5010E94951D8C01F70185818111BC
:1045100014C0C301042C01C0880F0A94EAF79681E5
:10452000892B868380917703909178038017910778
:1045300020F410937803009377039301022C02C0B8
:10454000220F331F0A94E2F721503109F7018681C7
:1045500090E02817390709F0C7C08091790390913E
:104560007A03009749F00E94DF2B0817190720F4FF
:1045700021E0F7012483B8C020900C0340910D0383
:104580004D8780E090E0ED852E1699F1422C512C5C
:10459000F201EE0FFF1FEC5FFC4F80819181E7E09D
:1045A000E89F8001E99F100D11240C5F1D4FB7019A
:1045B000C8010E9485210097A9F021E0FC01248315
:1045C0008E159F0509F490C020910C0322120AC099
:1045D0008017910739F492012F5F3F4F23703327E3
:1045E00020930C0392012F5F3F4F422F4370242EE4
:1045F000CACFE816F90609F477C0422C512CF20113
:10460000EE0FFF1FEC5FFC4FB182A082FFEF4F1A4D
:104610005F0A23E04222552440920D0365C0F70152
:1046200095812681911115C0A301022C02C0440F6F
:10463000551F0A94E2F74150510930E042175307E1
:1046400009F043C0662309F441C0C5010E94B020AF
:104650003CC0822F90E09C0121503109282339234E
:10466000042C02C0959587950A94E2F7232B59F5FF
:1046700080FF29C0F70182819381892BE1F0EA85CF
:10468000FB8529E011922A95E9F70E94C72B282F74
:104690008B839C8344E04D83F70182819381782F43
:1046A0008887998709811A813C815E816F81892F72
:1046B0000E941F0D04C060E0C5010E944C20F7015C
:1046C000158281E003C0817001C080E09301042C59
:1046D00001C0220F0A94EAF72095F7019681292359
:1046E0002683382E01C0312CFC85F329FC872FEF5F
:1046F000A21AB20A47E0E40EF11C88E0A816B10441
:1047000009F0CECEF6018581882379F1FC85FF235F
:1047100061F10E94C72B90937A0380937903809173
:104720007603883098F591E0980F9093760399E09E
:10473000F601DE01119601900D929A95E1F72DE0B8
:10474000829FC0011124825F9C4F29E0FE013196B7
:10475000DC0101900D922A95E1F72FEF3FEFFC016C
:10476000328721879486838611C090910C038091B3
:104770000D03981719F00E945F2108C00E944D2078
:1047800010927A03109279030E949F2011E0FC8519
:104790001F27812F2D96E2E10C9451350895FC01DD
:1047A000680F791F8FEF91E3E617F70771F02191FA
:1047B000822728E030E087FF03C0880F892701C0E7
:1047C000880F21503109B9F7EFCF089584E008959B
:1047D00050E0440F551F2EE0629F400D511D1124E3
:1047E0009A0160E7869F200D311D1124C901899629
:1047F00008950F931F93CF93DF938430A0F4683014
:1048000090F4473080F40E94E8238C010E94A23586
:1048100090E0D82FCC27C80101960E94A2359E01B6
:10482000282BC90102C080E090E0DF91CF911F9159
:104830000F9108950F931F93CF93DF93843080F4EB
:10484000683070F4473060F4E9010E94E8238C017D
:104850006D2F0E94C0356C2FC80101960E94C03593
:10486000DF91CF911F910F9108958432910528F423
:1048700087519E4F0E94A235089580E008958432AA
:10488000910520F487519E4F0E94C03508958830CD
:1048900080F49B01982F8AE0989FB0011124635FF8
:1048A0007D4F4AE050E0C9010E94923580E090E0DF
:1048B00008958FEF9FEF0895883080F49B01982F23
:1048C0008AE0989FB0011124635F7D4F4AE050E079
:1048D000C9010E94E43580E090E008958FEF9FEFDA
:1048E0000895883080F49B01982F8AE0989FB0014A
:1048F0001124635A7D4F4AE050E0C9010E9492356D
:1049000080E090E008958FEF9FEF0895883080F465
:104910009B01982F8AE0989FB0011124635A7D4F24
:104920004AE050E0C9010E94E43580E090E008953B
:104930008FEF9FEF0895A4E1B0E0E1EAF4E20C9478
:104940003F35C090D402D090D50281E090E09093A2
:10495000D5028093D40200E010E0F12C4F2D612F9E
:10496000802F0E94E6029C014F2D612F802F0E9414
:104970001A24F39487E0F812F1CF1F5F183069F71B
:104980000F5F043049F70E94D51C1C861B861E86CB
:104990001D86188A1F861A8A198A88EC90E09C8BDB
:1049A0008B8B10E0BE01655F7F4F812F0E945C24DE
:1049B0001F5F1830B9F7FE0131967F018AE011922E
:1049C0008A95E9F710E0B701812F0E9486241F5FC6
:1049D0001830C9F7D092D502C092D4026496E8E0AC
:1049E0000C945B35EF92FF920F931F93CF93DF935D
:1049F000EA017A01E60EF71E8C01C8018996CE15F0
:104A0000DF0569F0003C21E0120720F40E94A23586
:104A1000888301C0188221960F5F1F4FEECFCDB75C
:104A2000DEB7E6E00C945D35A0E0B0E0EAE1F5E247
:104A30000C943935EC016B017A01803C914008F00F
:104A400073C080EC91E08C1B9D0B8617970708F4D0
:104A50006BC03E0139E2630E711C8091D4029091CB
:104A6000D502892B19F0CE0CDF1C59C0C0FF11C034
:104A7000CE0188960E94A23590E0982F8827F701F2
:104A80002081822B81159C4739F48FEFF7018083B9
:104A900003C000E010E002C001E010E0CE018C0D88
:104AA0009D1D560180FF17C0F1E0AF1AB108470104
:104AB0008A0C9B1CC3018C0D9D1D0E94A235F40124
:104AC000208130E0322F2227282B21153C4719F472
:104AD0008FEFF4018083F701E00FF11F2FEFCF017B
:104AE0008E199F098A159B0508F0BDCF808190E043
:104AF000982F88273181832B81159C4711F42083BF
:104B000021833296ECCFC03CE1E0DE0720F4F701D0
:104B100060810E94C035FFEFEF1AFF0A2196CE0197
:104B20008996EC14FD0479F7CDB7DEB7EEE00C946E
:104B30005535843038F4683028F4473018F40E9432
:104B4000F923089580E090E0089580E1089583E5D9
:104B500091E00895EF92FF920F931F93CF93DF930D
:104B6000EA017A01E60EF71E8C01C80183559D4FBC
:104B7000CE15DF0569F0033521E0120720F40E940D
:104B8000A235888301C0188221960F5F1F4FEDCF99
:104B9000CDB7DEB7E6E00C945D35EF92FF920F9350
:104BA0001F93CF93DF93EA017A01E60EF71E8C0183
:104BB000C80183559D4FCE15DF0559F0033521E01F
:104BC000120718F468810E94C03521960F5F1F4FAD
:104BD000EFCFCDB7DEB7E6E00C945D35CF93DF9332
:104BE000CDEAD2E060E0CE010E94C0352196C11529
:104BF00084E0D807B9F7DF91CF910895A4E0B0E041
:104C0000E4E0F6E20C943B35F82E2FE0281708F488
:104C1000B4C08FEF93E00E94A2358111AEC00DEABF
:104C200012E0FF2071F0011584E0180709F4A5C017
:104C3000C8010E94A235811101C0FA940F5F1F4F75
:104C4000F0CF19821A821B821C82CC24CA9478016C
:104C5000EFEFEE1AFE0AC8010E94A23589831A827C
:104C6000882309F48AC0813009F081C05801F2E03C
:104C7000AF0EB11CC7010E94A235D82E8A838823AB
:104C800009F47BC08FEF8D0D833088F4780123E029
:104C9000E20EF11CC5010E94A2358B83811102C076
:104CA0008701D5CFCE0101960E948527F9CF8BEFE2
:104CB0008D0D833078F5480183E0880E911CC50185
:104CC0000E94A2358B83811102C07401E9CF780163
:104CD000E4E0EE0EF11CC4010E94A2358C8388230F
:104CE000F9F22B813C812130FFEF3F0718F0922F22
:104CF00080E001C0C90126E0D21631F0E7E0DE16FF
:104D000031F00E94371ACCCF0E949019C9CF0E946F
:104D1000B519C6CFF4E0DF1611F07501C1CFC5019A
:104D20000E94A235D82E780124E0E20EF11CC801C1
:104D300003960E94A235DD2001F18823F1F0282F8F
:104D400030E021503109C29EA001C39E500D1124B4
:104D50008D2D90E00197840F951F019708F4A0CF47
:104D6000EFE9FFE03197F1F700C00000F6CF60E017
:104D7000CE0101960E941E2793CF2496ECE00C945E
:104D80005735A0E0B0E0E7ECF6E20C944035E82FB0
:104D9000F0E0EC51FC4FD490282F269526952695CF
:104DA00030E0F901EC57FB4F0491877010E0082EBA
:104DB00002C0159507950A94E2F701701127F901D1
:104DC000EC58FB4FE490F12C082E02C0F594E794C8
:104DD0000A94E2F791E0E922FF24F901EC59FB4F34
:104DE000C491D0E002C0D595C7958A95E2F7C1700D
:104DF000DD270115110519F081EE0E943C05E11433
:104E0000F10419F086EE0E943C058D2D0E94930559
:104E1000E114F10419F086EE0E94620501151105F6
:104E200019F081EE0E946205CD2B19F08CE20E94F0
:104E30009305CDB7DEB7E7E00C945C35EF92FF92B7
:104E40000F931F93CF93DF93EC01162F0AE0888115
:104E5000882309F455C0813009F043C0898181302D
:104E600041F47E0182E0E80EF11C8A810E949305E4
:104E700009C0823049F47E01E2E0EE0EF11C8A8125
:104E80000E943C05E7012FC0833041F47E01F2E02F
:104E9000EF0EF11C8A810E946205F4CF843011F07C
:104EA000219621C02A81229680E090E030E02053B4
:104EB00031092A30310558F4089FA001099F500D8F
:104EC0001124C901840F951F21962881EFCF0097E7
:104ED00051F0EFE9FFE03197F1F700C000000197D2
:104EE000F6CF0E94C1262196812F882309F4AFCFE7
:104EF000EFE9FFE03197F1F700C000008150F5CFF6
:104F0000CDB7DEB7E6E00C945D3560E00E941E2769
:104F100008954115510511F0FA0109950895CF93AF
:104F2000DF93EC014A855B856E857F850E9489272A
:104F30008B810E940D0E8C810E94FA0D0E94B90E89
:104F400086E0FE0111928A95E9F7DF91CF910895ED
:104F5000CF93DF93EC018D8181FD11C082608D8341
:104F60008B810E94070E8C810E94F40D0E94B90E65
:104F7000488559856E857F85CE010E9489271092CC
:104F80007E0310927D038D8180FD03C0CE010E94BF
:104F90008F27DF91CF910895CF93FB01C581CC235B
:104FA00019F120917D0330917E0321153105D9F04F
:104FB00028173907C1F0AC01C901992724E0880FEF
:104FC000991F2A95E1F7FC01EF5BFD4F20812460DA
:104FD0002083845C9D4FFC01518340830E94A8275D
:104FE0000E94140E01C0C0E08C2FCF910895EF9263
:104FF000FF920F931F93CF93DF939C0137552F3F61
:10500000310511F008F059C0FB017C018C0111271A
:1050100084E0000F111F8A95E1F7E801C45CDD4FC1
:1050200095810F5B1D4FD8018C9190FB80F98C937B
:105030008581882349F10E94C72B90937C0380933C
:105040007B038A818F5F8A830E94F10D8B830E948C
:10505000040E9B81892B8B830E94170E8C834E81BB
:105060005F816E857F85CE010E948927F80180814E
:1050700081FD03C09E2D8F2D02C090E080E09093B3
:105080007D0380937E0319C04C855D856E857F8589
:10509000CE010E948927D8018C9181FF0EC0CE01DC
:1050A0000E948F2780917D0390917E03E816F90678
:1050B00021F410927E0310927D0381E0CDB7DEB71C
:1050C000E6E00C945D35A9E0B0E0E9E6F8E20C9486
:1050D000433580917D0390917E03892B61F180910E
:1050E0007B0390917C030E94DF2B8C01BE016F5FDC
:1050F0007F4F89E0FB0111928A95E9F780917D034A
:1051000090917E030E94F11A80179107A0F480917C
:105110007D0390917E03992724E0880F991F2A959B
:10512000E1F7FC01EF5BFD4F208122FD04C0845CB0
:105130009D4F0E94A8272996E4E00C945F351F93A9
:10514000CF93DF9387372CE7920721F088379C476E
:1051500059F031C0FB01C581CC2319F00E94E12830
:1051600009C00E94E12818C0FB01C581CC2391F041
:105170000E94E4280E94D0080E94E728D82F0E94AD
:10518000E428C82F0E94E1284D2F6C2F0E94FA09B5
:10519000C0E012C00E94E4280E94DC080E94E728B8
:1051A000182F0E94E428D82F0E94E128412F6D2F4C
:1051B0000E94FA0901C0C1E08C2FDF91CF911F91AD
:1051C0000895809121010895809120010895809192
:1051D0001F01089585E290E00E94A235813C81F490
:1051E00086E290E00E94A235893D51F487E290E08A
:1051F0000E94A23591E0853209F090E0892F01C02C
:1052000080E081700895CF93C82F811102C06FEFA5
:1052100001C061EC85E290E00E94C035C11102C07E
:105220006FEF01C069ED86E290E00E94C035C111C8
:1052300002C06FEF01C065E287E290E00E94C035D6
:10524000CF910895089588E290E00E94A235682FDA
:1052500070E080E090E008950895CF93C62F0E94FB
:105260002C296C2F88E290E00E94C035CF910895E0
:1052700080E00E94032960E070E0CB010E942D29AC
:105280000E949B240E94EE2581E00E94032908953C
:105290000E9422290E9423290E942C290E94EA2888
:1052A000811102C00E94382908959C01FB0185816B
:1052B000882351F0A90157574038510530F4C901EE
:1052C0000E94FE2580E0089581E008952FEFFC0103
:1052D00020830895EF92FF920F931F93CF93DF9354
:1052E000EC01162F2091D2023091D3028881232B1A
:1052F00061F08E3F09F00CC18981833008F4FFC052
:105300008550833008F004C1FAC08B3009F4E2C044
:1053100038F5853009F475C0B8F48230E9F130F41D
:10532000813009F0F1C0198289E082C0833009F42C
:105330005BC0843009F0E8C04B816A8189810E949A
:10534000F9239C838D83E4C0873009F468C008F496
:1053500063C0883009F463C0893009F460C0D4C0E8
:10536000803109F490C060F48D3009F45EC008F417
:1053700059C08E3009F45EC08F3009F46CC0C4C0CF
:10538000823109F487C008F481C0833109F492C0E6
:105390008E3F09F4B4C0B8C08981823041F08330B7
:1053A00069F0813009F0B0C00E94D32B02C00E9486
:1053B00023299A838B837C836D83AAC08091D40236
:1053C0009091D502892B09F4A3C07E0122E0E20E60
:1053D000F11C00E0802F0E946E13F70181937F0182
:1053E0000F5F0830B9F794C08981823009F08CC012
:1053F0006A817B818C819D810E942E350E942D299E
:1054000087C02C813D813227232732274B816A8137
:1054100089810E941A247CC00E949B2479C08FEF4E
:10542000888376C00E94A52533C00E94A725998352
:105430008A836EC089819A819827892798276B81F2
:1054400070E06D31710508F063C0AE014C5F5F4FD5
:105450000E94AA255DC08091D4029091D502892B2B
:1054600009F456C089819A819827892798276B81EA
:1054700070E06D31710508F04BC0AE014C5F5F4FBD
:105480000E94CD2545C00E94EE2542C00E94E62321
:1054900089833EC089819A819827892798276B81C3
:1054A00070E06D317105A0F5AE014C5F5F4F0E9459
:1054B000F2242EC089819A819827892798276B81A9
:1054C00070E06D31710520F5AE014C5F5F4F0E94B9
:1054D00014251EC08091D4029091D502892BC1F071
:1054E000CE010E94462EFFEF21EE84E0F1502040D5
:1054F0008040E1F700C000000E94302C09C0612FFD
:10550000CE010E94C81704C0612FCE010E946629F7
:10551000612FCE010E94462ECDB7DEB7E6E00C9497
:105520005D35909381038093800308950E94311527
:10553000811103C080917F030895E0918003F09171
:105540008103309729F00190F081E02D09950895AD
:1055500080E00895E0918003F0918103309721F07D
:105560000280F381E02D09950895E0910001F0910A
:105570000101329697E080E0915029F02191222399
:10558000D9F38F5FF9CF0895882371F0209100013E
:1055900030910101F9013296285F3F4F91918917AF
:1055A00029F0E217F307D1F780E0089581E008952C
:1055B0009C01FC0132969FEF80E04191461789F0F3
:1055C0009F3F19F4411101C0982F8F5F8630A9F7D2
:1055D0009F3F39F0F901E90FF11D97FDFA956283BC
:1055E000089508959C012A5F3F4FFC0142814613B4
:1055F00001C01282019682179307B9F70895682FA8
:1056000080910001909101010E94D82A0895682F8D
:1056100080910001909101010E94F22A0895E09189
:105620000001F0910101329686E0DF011D928A951A
:10563000E9F7089508950E941A2B089583E0809356
:1056400082030E941B2B0895811102C081E001C0DA
:1056500082E0809382030E941B2B08950E94242BDA
:10566000089581E0809382030E941B2B08950E947D
:10567000312B089508950E943A2B08950E943B2BE8
:1056800008950E943A2B08950E943A2B08950E9493
:105690003A2B0895CF930E94442B0E94A6140E9497
:1056A000412BC0E08C2F0E946E13811104C0CF5F8C
:1056B000C830C1F701C081E0CF91089585B78068F7
:1056C00085BF85B7806885BF08951F920F920FB67A
:1056D0000F9211248F939F93AF93BF938091830375
:1056E000811113C080911C0490911D04A0911E048F
:1056F000B0911F044196A11DB11D80931C0490938D
:105700001D04A0931E04B0931F04BF91AF919F91FD
:105710008F910F900FBE0F901F90189580912404C9
:10572000843031F10E9472041092830320E488E1F6
:1057300090E00FB6F894A895809360000FBE209378
:10574000600083B7817F846083BF83B7816083BF3C
:105750007894889583B78E7F83BF0FB6F894A89509
:1057600080916000886180936000109260000FBE9D
:1057700008950E94C7050E947704089582E084BDC1
:1057800093E095BD9AEF97BD80936E0008952FB773
:10579000F89480911C0490911D04A0911E04B09176
:1057A0001F042FBF08952FB7F89460911C047091C7
:1057B0001D0480911E0490911F042FBF08959C0129
:1057C0004FB7F89480911C0490911D04A0911E0481
:1057D000B0911F044FBF821B930B0895CF92DF92AD
:1057E000EF92FF922FB7F894C0901C04D0901D0444
:1057F000E0901E04F0901F042FBFA7019601261B06
:10580000370B480B590BCA01B901FF90EF90DF909D
:10581000CF90089578941F920F920FB60F92112493
:105820008F939F93AF93BF9380911C0490911D041D
:10583000A0911E04B0911F040196A11DB11D80937B
:105840001C0490931D04A0931E04B0931F04BF91E9
:10585000AF919F918F910F900FBE0F901F90189551
:1058600087E797E790930108809300089AE088E122
:105870000FB6F894A895809360000FBE90936000D7
:10588000FFCF9AE088E10FB6F894A8958093600066
:105890000FBE90936000FFCF8EE14A9B02C0815003
:1058A000E1F74A9BFECF08955A9880E28A95F1F776
:1058B0005A9A0895FC012AE02A95F1F728E090E031
:1058C00080E031E040E14A95F1F7880F4A9B02C041
:1058D0008160932700C0000040E14A95F1F7215014
:1058E00089F720E12A95F1F729B100C0000030E1E5
:1058F0003A95F1F722FB222720F992272081920F77
:1059000090830895A1E0B0E0E8E8FCE20C94413512
:1059100019828C017C01E60EF11C0E151F0551F059
:105920000E944C2CCE0101960E945A2CF8018193C2
:105930008F01F3CF81E09981911180E02196E6E01B
:105940000C945D35529A5A9A089552985A9AEA9A46
:10595000E9E6F0E080818F7C80830895615091E0DA
:1059600001C0990F6A95EAF720E031E0992361F0D0
:10597000492F482319F05A9A232701C05A9840E228
:105980004A95F1F79695F2CF222311F05A9A01C069
:105990005A9880E28A95F1F75A980895FF920F93EA
:1059A0001F93CF93DF93EC018C01060F111DC017DD
:1059B000D10741F0F9900E94542C68E08F2D0E948D
:1059C000AE2CF5CFCDB7DEB7E5E00C945E351F9277
:1059D0000F920FB60F9211240F931F932F933F93A3
:1059E0004F935F936F937F938F939F93AF93BF93E7
:1059F000EF93FF93CF93DF931F92CDB7DEB719825A
:105A00000E944C2CCE0101960E945A2C082F06951C
:105A100006950695902F96959570202F2570920FDC
:105A2000292F237096959695920F877089135FC0E2
:105A3000898181115CC0043008F059C080E18A95E9
:105A4000F1F75A9A529A82E08A95F1F700C05A9873
:105A500088E0089F80011124D801AD5FBE4F1696E3
:105A6000ED91FC9117973097A9F0609140017091EA
:105A7000410114962D913C911597260F371F1196D1
:105A80008D919C911297680F791F13964C911397E3
:105A90008C910995F801ED5FFE4F6381662351F00B
:105AA000809140019091410124813581820F931FA3
:105AB0000E94CE2C0E94542C80E18A95F1F75A98CE
:105AC00052985A9A80E18A95F1F7F801ED5FFE4FFE
:105AD0006081662351F080914001909141012181C4
