:100000000C942C020C9449020C9449020C9421206B
:100010000C9449020C9449020C9449020C94490234
:100020000C9449020C9449020C94DE250C94B226DF
:100030000C949E1E0C9449020C9449020C944902A3
:100040000C9449020C9449020C9449020C94490204
:100050000C9449020C94411F0C9449020C944902DF
:100060000C9449020C9449020C9449020C944902E4
:100070000C9449020C9449020C9449020C944902D4
:100080000C9449020C9449020C9449020C944902C4
:100090000C9449020C9449020C9449020C944902B4
:1000A0000C9449020C9449020C9449022900140052
:1000B0001A0008001500170000002B0004001600AD
:1000C000070009000A000000E1001D001B000600F7
:1000D000190005000000E000E200E30049002C00E8
:1000E0002C002C4100001E001F00200012001300F5
:1000F0002A0000000B000D000E000F002D0028004C
:1001000000001100100036003700520038002C4269
:100110002C002C00E400500051004F002B001E006A
:100120001F002000210022000000E0001E021F022C
:100130002002210222020000E10057005600550073
:10014000540067000000E000E200E30049002C00DA
:100150002C002C410000230024002500260027004D
:100160002A0000002302240225022602270228007A
:100170000000350010002F1230122D12E5002C4225
:100180002C002C00E400500051004F002B003A00DE
:100190003B003C003D003E000000E0001F0231003B
:1001A0003300331234000000E100207821782378F6
:1001B000247825780000E000E200E30049002C00EC
:1001C0002C002C4100003F00400041004200430051
:1001D0004C0000005000510052004F002E0028003B
:1001E0000000267827782F0030003100E5002C42EF
:1001F0002C002C00E400500051004F0000000000D3
:10020000000000002A2B2800000000000000000071
:100210000000000000000029000000002C1E342017
:10022000212224342627252E362D3738271E1F203D
:100230002122232425263333362E37381F04050682
:100240000708090A0B0C0D0E0F10111213141516C6
:100250001718191A1B1C1D2F3130232D35040506C4
:100260000708090A0B0C0D0E0F10111213141516A6
:100270001718191A1B1C1D2F3130354C00000000B7
:10028000000000000000000000000000000000006E
:10029000000000000000000000000000000000005E
:1002A0007E0F00D4FFFFFFC700000078100363003B
:1002B0006F006F006C0036003500300000000A034C
:1002C0006D002E006B0069000000040309040902A0
:1002D0005B00030100A0FA09040000010301010012
:1002E00009211101000122440007058103080001D2
:1002F000090401000203000000092111010001228C
:1003000022000705820320000107050303200001E6
:10031000090402000103000000092111010001226B
:10032000B60007058403200001120100020000004E
:1003300008434D50060001010200010660FF0961FB
:10034000A1010962150026FF0095207508810209A8
:1003500063150026FF00952075089102C00501096C
:1003600002A10185020901A1000509190129081549
:100370000025019508750181020501093009311533
:1003800081257F95027508810609381581257F959D
:100390000175088106050C0A38021581257F950133
:1003A00075088106C0C005010980A10185031901F6
:1003B0002AB700150126B700950175108100C00508
:1003C0000C0901A101850419012AA002150126A02A
:1003D00002950175108100C005010906A10185067D
:1003E000050719E029E71500250195087501810227
:1003F0000507190029EF1500250195F07501810207
:1004000005081901290595057501910295017503E6
:100410009101C005010906A101050719E029E715A9
:100420000025019508750181029501750881010576
:1004300007190029FF150026FF00950675088100A1
:100440000508190129051500250195057501910279
:10045000950175039101C00011241FBECFEFDAE0B2
:10046000DEBFCDBF11E0A0E0B1E0E6E2F3E502C0FF
:1004700005900D92A23CB107D9F722E0A2ECB1E0C1
:1004800001C01D92A93FB207E1F70E9448140C94E5
:100490003F290C9400008330B8F46830A8F447304A
:1004A00098F450E097E0699F400D511D1124FA0126
:1004B00098E3899FE00DF11D1124EE0FFF1FE45515
:1004C000FF4F85919491089581E090E0089581E037
:1004D00008950E946702089581E008950E946702CE
:1004E00008950E946E02089508950E94740208956E
:1004F000A6E0B0E0EEE7F2E00C949B2849835A8333
:100500009E833091C90189819A8131111AC03E813F
:10051000332399F0222389F00E94EB07182F682FCC
:1005200089819A810E94C70769817A81812F0E94FF
:10053000060F2696E3E00C94B7280E94D907182FDF
:10054000F3CF0E94EB0769817A81F1CFFC01262F5E
:100550004081518162817381848195810E947802FA
:100560000895CF93DF93EC0161E00E94A602BE01E3
:100570000E946902DF91CF910895CF93DF93EC0140
:1005800060E00E94A602BE010E947502DF91CF9139
:10059000089581E008950E94C9020895CF93C82F5D
:1005A0000E94C3068C2F0E94CB022FEF84E39CE0B5
:1005B000215080409040E1F700C00000CF910895A5
:1005C00081E00E94CE020E94651F089580E00E9493
:1005D000CE020E94761F08950F931F93CF93DF934F
:1005E0008C0161E00E94A602EC01B8010E94C81BC8
:1005F000811106C080E0DF91CF911F910F91089586
:10060000B801CE010E9471028823A1F3B801CE0186
:100610000E94D51A882371F3B801CE010E943C16BE
:10062000882341F3B801CE010E941216882311F3EA
:10063000B801CE010E94191B8823E1F2F8018581DF
:10064000882361F0C330FCE7DF07E9F058F4C115F7
:10065000ECE7DE07A9F0C130DC47B9F0C8010E9421
:100660006C02C9CFCB358CE7D807A9F0CC35ECE7C5
:10067000DE0771F0CA35DC4789F70E94540CEECFD3
:100680000E94E002B7CF0E945C0C0E94E602B2CF4B
:100690000E944A0CE3CF0E94580CE0CF0E947B1EC0
:1006A0000E94750308950E9479030E94801E089598
:1006B000089581E008950895CF93DF93D82F0E9485
:1006C0005903C82F882319F08D2F0E945B038C2FAC
:1006D000DF91CF9108950895CF93C82F0E945803BA
:1006E0008C2F0E945C03CF91089580E00E946C03E0
:1006F00008950E94B41C0E946C030895CF930E9439
:10070000B41CC82F8091C4018C1779F0C093C40128
:100710000E940A1F6093C5017093C6018093C701B0
:100720009093C8018C2F0E946C03CF910895ADE087
:10073000B0E0EDE9F3E00C949C28488759876A877C
:100740007B878C879D8791110E945A0B1F8286E0C0
:10075000FE013896DE01119601900D928A95E1F71F
:100760008D8181110DC029813A814B815C816D8120
:100770007E818F810E94A40A2D96E2E00C94B82815
:10078000CE0101960E94B1028111EDCFF5CFFC019F
:100790002481213021F4808191810E9418080895DC
:1007A000662329F00E949D170E94821808950E94D6
:1007B0000918FACFCF93C82F882399F08CEF8C0FAC
:1007C000813A88F48C2F0E945B1D882329F08C2F9E
:1007D0000E94FB1D0E94EE0B8C2F0E94E41D0E94C4
:1007E000EE0BCF91089580E28C0F883048F4C770EB
:1007F00081E001C0880FCA95EAF70E943D0BEFCF58
:10080000EBE5EC0FE33040F4F0E0E759FE4F808178
:1008100090E00E94EF1CE5CFE8E5EC0FEB3150F4DF
:10082000F0E0EE0FFF1FED5CFE4F808191810E9492
:10083000141DD7CF83E38C0F833198F661E08C2FA2
:100840000E94D003CECF882381F19CEF980F913A7C
:1008500028F40E94FB1D0E94EE0B089590E2980F71
:10086000983050F4877091E001C0990F8A95EAF7AB
:10087000892F0E94430BEFCF9BE5980F933028F40C
:1008800090E080E00E94EF1C089598E5980F9B315E
:1008900028F490E080E00E94141D089593E3980FDF
:1008A000933118F460E00E94D00308951F93CF9312
:1008B000DF93182FEB010E94DA03209739F4812F80
:1008C0000E942304DF91CF911F9108958FE99FE04B
:1008D0000197F1F700C000002197EFCF70E060E0D2
:1008E000893311F460E570E00E945604089588236E
:1008F00021F00E943D0B0E94EE0B0895882321F009
:100900000E94430B0E94EE0B0895B0E0A0E0EBE8DC
:10091000F4E00C9495286C01D62FC72FFC011581AB
:10092000068102950F700E94330BE82E8823F9F0A0
:10093000E12E1123E1F08C2F807F803461F080E282
:100940008D0F883008F18C2F807E803221F4D230D8
:10095000D8F00023C9F08091D50282FF15C082E053
:100960000E941E0C0E94330B91E0E82EE926BC2E5B
:10097000B2949FE0B922FBE0FB15B8F1EB2DF0E05B
:10098000EF5BF64D0C947F28E12CF1CF0C2F0F700C
:10099000C07F11F00295007F112399F0002359F0D8
:1009A00080E28D0F883010F0D11107C0802F0E9497
:1009B0003D0B0E94EE0B8D2F5AC0802F0E944D0BD5
:1009C000F8CF8D2F0E942304002379F080E28D0F51
:1009D000883010F0D11104C0802F0E94430B03C057
:1009E000802F0E94530B0E94EE0BEB2DE850FF0B63
:1009F000349720F40E94B41C0E946C03EE2089F00E
:100A00000E942F0B80FD0DC0F60115820E94290B5C
:100A10000E943B07C6010E948A060E94290B0E9481
:100A20004707CDB7DEB7E9E00C94B1282C2F2F7023
:100A3000F22EC07FC03219F0F29480EFF822DD234D
:100A400041F0D130D1F1112309F444C00023F1F079
:100A5000B2CF8091D50282FD15C0112359F0FF203D
:100A600029F08F2D0E943D0B0E94EE0B80E00E942A
:100A7000DA03BBCF80E00E942304FF2009F4B5CF46
:100A80008F2DABCF112369F0011104C08F2D0E946F
:100A90007704ABCF013009F0A8CF8F2D0E94710BE6
:100AA000A4CF0111A2CF8F2D0E947E048F2D0E9412
:100AB0007D0B8F2D0E94610B98CF112321F0063002
:100AC00008F093CFE3CF053008F08FCF8F2D0E9431
:100AD0007E048BCF0023D1F3D93349F43FEF87EE67
:100AE00093E0315080409040E1F700C000008D2F2E
:100AF0000E9423047ACF8C2F86958695837069F0A7
:100B0000813009F072CF8D2F9C2F9370111102C08C
:100B100080E090E00E94141D68CF8D2F9C2F937071
:100B2000111102C080E090E00E94EF1C5ECF612FA7
:100B30008D2F0E94D00359CF8C2F837079F511111E
:100B400054CF4D2F429546954770440F440F8D2F3B
:100B50008F70042E01C0880F0A94EAF72D2F2071A0
:100B6000D4FF07C02FE030E001C0220F4A95EAF71A
:100B70002095C695C695C370822BC23049F058F4B3
:100B8000C13019F00E94170730CF0E9411072DCFF6
:100B90000E941D072ACF0E940E0727CF869511239A
:100BA00011F08C2F8170882309F41FCF4D2F4295AF
:100BB00046954770440F440F8D2F8F70042E01C04F
:100BC000880F0A94EAF72D2F2071D4FF07C02FE079
:100BD00030E001C0220F4A95EAF72095C695C695E8
:100BE000C370822BC23049F058F4C13019F00E9412
:100BF0006607FBCE0E946007F8CE0E946C07F5CE18
:100C00000E942907F2CECF70112329F08C2F0E9469
:100C10003B078D2F3CCF8D2F0E947E048C2F0E948E
:100C20004707E3CED23F41F160F4D03FB9F0D13F66
:100C300081F0112309F446C00111BDCE8C2F8F71B4
:100C40001FC0D33F01F1D43FA1F78091D50282FDAF
:100C500024C08C2F8F71112311F312C0112341F086
:100C6000053008F0C2CE8C2F8F710E945407BDCE84
:100C7000063008F0BACEF7CF8C2F8F711111CFCF7D
:100C80000E943B07B2CE112329F08C2F8F710E9456
:100C90003207ABCE0E942E07A8CE112349F0CF71A8
:100CA0008C2F0E943B0763E08C2F0E94000C9DCE8E
:100CB00081E00E941E0C023008F497CE82E00E9470
:100CC0001E0C93CE002359F0D93309F010CFEFEF6B
:100CD000F7EE23E0E150F0402040E1F706CF8C2F03
:100CE0008F719DCF0F931F93CF93DF93EC0168819A
:100CF00079818D810E9423088C010E9472070E94D5
:100D00000D07B801CE010E948504DF91CF911F919C
:100D10000F910895CF93DF93EC018C81882399F094
:100D2000CE010E94EC02811111C00E94330B882376
:100D300051F08D81882339F08091D50282FF03C064
:100D400082E00E941E0CDF91CF910895CE010E9497
:100D50007206CE010E94BD02F6CF90E080E00E94B4
:100D6000EF1C90E080E00E94141D0E945A0B0E942C
:100D7000EE0B0E949E180E94821808950E94121E77
:100D80000E94AD0608950E944A0B0E94BE06089577
:100D900092959F70963091F058F4925F9F709230C8
:100DA00058F4803F19F030F4883E30F481E0089523
:100DB0009A5FF4CF843FD1F380E00895883EB0F38A
:100DC000813FD1F7F3CFFC012481222339F08081C8
:100DD00091810E9418080E94C806089580E0089535
:100DE000A6E0B0E0E6EFF6E00C949C282696E2E060
:100DF0000C94B828A7E0B0E0E0E0F7E00C949C2861
:100E00002796E2E00C94B82808950E9404070895FC
:100E10000E9405078093E001089508950E94080745
:100E200008959091E001892B0E9408070895909100
:100E3000E00189230E94080708959091E001892725
:100E40000E94080708950E94040708950E9423073E
:100E500008950E9426078093DF01089580E00E9494
:100E60002907089591E001C0990F8A95EAF7892F23
:100E70000E942907089521E030E001C0220F8A95E1
:100E8000EAF78091DF01822B0E942907089521E073
:100E900030E001C0220F8A95EAF720958091DF01AA
:100EA00082230E942907089521E030E001C0220F2B
:100EB0008A95EAF78091DF0182270E942907089529
:100EC0009091DF01892B0E94290708959091DF01FD
:100ED00089230E94290708959091DF0189270E94A4
:100EE000290708950895262F277091E001C0990FD2
:100EF0002A95EAF723E0769567952A95E1F7FB01B5
:100F0000EE0FFF1FE60FF71FE40FF51F50E040E064
:100F1000682F70E08191DF0111979B01042E02C0C0
:100F2000369527950A94E2F72170219528272923E1
:100F300028272C934F5F5F4F4330510559F7089591
:100F4000A82FA77023E0969587952A95E1F7FC01D5
:100F5000EE0FFF1FE80FF91FE60FF71F50E040E00C
:100F600080E0219130E00A2E02C0369527950A9440
:100F7000E2F721703327042E01C0220F0A94EAF70A
:100F8000822B4F5F5F4F4330510559F70895262F4D
:100F9000983070F4873060F4682F70E087E0989F95
:100FA000600D711D11244AEC51E0822F0E947307DD
:100FB0000895292F983068F4873058F490E06AEC4F
:100FC00071E037E0239F800D911D11240E94A0073E
:100FD000089580E00895CF92DF92FF920F931F93C0
:100FE000CF93DF936C010091DF018091E001082B2A
:100FF000C3E0D0E010E0FC2EC8010C2E02C0959595
:1010000087950A94E2F780FD0CC02197A0F7F12C98
:101010008F2DDF91CF911F910F91FF90DF90CF9097
:101020000895B6018C2F0E94120F019771F3F0CF33
:10103000CF93DF93EC010E94EB07BE010E94120FD9
:10104000DF91CF9108951F93CF93DF93EB019091A0
:10105000C901992339F0CB010E941808DF91CF9183
:101060001F910895882369F0CB010E94EB07182F88
:10107000682FCE010E94C707BE01812F0E94120F68
:10108000EDCFCB010E94D907182FF6CFE1E0F0E0B9
:10109000DF0102C0AA0FBB1F6A95E2F7BD01DF01A5
:1010A00002C0AA0FBB1F4A95E2F76A2B01C0EE0FE0
:1010B0002A95EAF7962F9823961302C08E2B08954F
:1010C000E0958E230895242F462F682F8091DF010D
:1010D0000E9446080E94290708951F93CF93DF932B
:1010E000C091E10117E08091E2018C1304C0DF910F
:1010F000CF911F910895D0E01C9FF0011D9FF00D2E
:101100001124ED51FE4F2081318142815381648150
:10111000758186810E94FA062196C770E4CF2091DE
:101120001B0230911C0240911D0250911E026091E1
:101130001F0270912002809121020E94FA060895F8
:10114000CF93DF9380912102807F09F04DC0809181
:101150002002882309F448C0E091E1015091E201A6
:10116000C0911C02D0911B0260911D0270911E0261
:1011700047E05E17C9F18E2F90E0E49FF001112443
:10118000ED51FE4F2481222391F1489FF001499FA8
:10119000F00D1124DF01AD51BE4F11962C91119726
:1011A0002C1325C02C912D1322C015962C91159728
:1011B00021111DC012962D913C91261B370B283C06
:1011C0003105A8F4809121028F7080618093210203
:1011D000E751FE4F80818F70806180838BE192E0C8
:1011E0000E948A060E946D08DF91CF910895FC014C
:1011F0003196E770BECF482F2091E1019091E20136
:1012000057E0291302C080E0089530E0529FF001BA
:10121000539FF00D1124ED51FE4F8181681306C0DC
:101220008081481303C085818111EECF2F5F3F4F2E
:101230002770E7CFA4E1B0E0E0E2F9E00C94922857
:101240008C0186E0F801DE011F9601900D928A95CF
:10125000E1F7F8018481E5809BE1A92E92E0B92EA7
:1012600090911F0291111FC08823D1F0EE20A9F0A8
:10127000C8010E94E306F82E882379F087E0F80180
:10128000D50101900D928A95E1F7C5010E94C7032F
:101290000E94A0080E948F085FC0C8010E948A06B1
:1012A000FF24F39459C0C080D18082809380F09055
:1012B000200220911D0230911E02A401421B530BFB
:1012C000FF2009F4F9C0483C510508F0A7C0882365
:1012D00009F442C090911C0280912102282F207FA6
:1012E00009F05CC09D1116C090911B02C91212C07A
:1012F000E1104EC08F708061809321020E948F08A0
:101300008BE192E00E948A0680912102F801868397
:10131000F12C22C0E1103CC06D2D8C2D0E94FB08E9
:101320006D2D8C2D0E94FB08E82E8111F1CFCF8608
:10133000D88A8F8598890E941808292F22952F70A6
:10134000243078F49F702230A8F09923B9F0F80186
:101350009681907F99F4FE2C8F2D6496ECE00C948E
:10136000AE282A5F2F70223068F0C8010E948A06DA
:10137000EF2CF1CF992311F0882369F3805E883038
:1013800050F3F3CF803F38F3815F833070F7E3CFC2
:1013900080912102816080932102BACF9D1113C0F8
:1013A00090911B02C9120FC0E1100DC08683C801C5
:1013B0000E948A0687E0F801ABE1B2E001900D924D
:1013C0008A95E1F767CFC8010E94E306882309F4F4
:1013D00064CFEE2009F461CF80912102803288F041
:1013E00020911B0230911C02398728879B868A86B0
:1013F00090911F029C871D868E87CE0108960E94C1
:101400008A0687E0F801ABE1B2E001900D928A957F
:10141000E1F70E94A0080E948F0842CF909121021C
:10142000292F207FA1F4682D9A8A898AA6017A89BA
:101430009E2D0E94F0068BE192E00E948A0687E0D2
:10144000F50111928A95E9F70E948F0861CF8823F0
:1014500009F482CF80911C028D1110C080911B0273
:10146000C8120CC0E1100AC09683C8010E948A0607
:1014700087E0F50111928A95E9F76ECFC8010E94C5
:10148000E306882309F409CFEE2009F406CF809102
:101490002102803208F4B5CF20911B0230911C024A
:1014A0003A8329839C828B8290911F029D831E82A6
:1014B0008F83CE010196A3CF483C5105B8F5882310
:1014C00009F4EECEFE2CEE2009F4E7CE80911C024A
:1014D0008D111EC080911B02C8121AC0809121027A
:1014E00080FD0DC0982F907F51F08683903F09F4C6
:1014F0005ECF982F907F905F8F70892B57CF87E0BA
:10150000F801ABE1B2E001900D928A95E1F724CFAA
:10151000C8010E94E306811174CF8091210281608D
:1015200080932102C8010E948A0616CF682D9A8AEC
:10153000898AA6017A899E2D0E94F00687E0F5012E
:1015400011928A95E9F7A6CEAEE0B0E0EAEAFAE0B9
:101550000C949B28288739874A875B876C877D870F
:101560008E87CE0108960E941A098823B1F06C85F7
:10157000662341F0288539854A855B857D858E8582
:101580000E94FA0617E08091E1019091E20189132F
:101590003DC02E96E3E00C94B72887E0FE01389614
:1015A000DE01119601900D928A95E1F78C858823D2
:1015B00049F32091E20130E0C90101968770992733
:1015C0004091E1014817190699F097E0929FD001E8
:1015D000939FB00D1124AD51BE4FFE013196019085
:1015E0000D929A95E1F78093E2010E946D08CACFAF
:1015F0000E94C3061092E2011092E10187E0EBE144
:10160000F2E0DF011D928A95E9F7BCCF819FC0010E
:1016100011248D519E4F0E941A09882309F4B9CFD5
:10162000E091E1011E9FF0011124ED51FE4F208158
:101630003181428153816481758186810E94FA06DD
:101640008091E10190E00196877099278093E101F4
:101650009ACF80914A0286958695869508958091C5
:101660004A028770089590914A02977081E009F4C8
:1016700080E0089580917602089590917602892BFA
:1016800080937602089580959091760298239093A6
:101690007602089510927602089590917502892B32
:1016A0008093750208958095909175029823909388
:1016B0007502089510927502089508950E945D0BB9
:1016C000089590914B02292F282331F0809589238A
:1016D00080934B020E945E0B089508950E946D0B4B
:1016E000089590914C02292F2823281729F0982B30
:1016F00090934C020E946E0B089590914C02292FFA
:10170000282331F08095892380934C020E946E0B30
:10171000089580914C02882329F010924C0280E0B9
:101720000E946E0B0895CF93C0917602809175024E
:10173000C82B80914C02882331F0C82B0E94391DA0
:1017400081110E94890B8C2FCF910895CF93DF9345
:10175000C0910201D09103010E94930B8883C09134
:101760000201D091030148E050E062E472E0CE0152
:101770000E94D728892B59F088E0FE01A2E4B2E04C
:1017800001900D928A95E1F7CE010E94C81CDF916D
:10179000CF910895CF93DF93C0910001D0910101C3
:1017A0000E94930B8983C0910001D091010140E216
:1017B00050E062E272E0CE010E94D728892B59F0F6
:1017C00080E2FE01A2E2B2E001900D928A95E1F77B
:1017D000CE010E94D31CDF91CF91089580913201F8
:1017E000882339F08091D40287FF03C00E94CA0B7E
:1017F00008950E94A60B089508950E94FC0B089579
:101800009091D50292FF11C098E0899F9001112418
:10181000622B60934A020E943B0780914A028695A0
:10182000869586950E94FD0B08950E943B070895BA
:1018300010924A0280E00E94FD0B089590914A02A6
:101840008095892380934A02282F277069F489178D
:1018500059F09091D50292FF07C08695869586959E
:101860000E9447070E94180C08959091D50292FBA0
:10187000222720F9281769F080FB92F99093D5026E
:101880008091D4029091D5020E947E0C82E00E9449
:101890001E0C08958091D50282FB882780F991E083
:1018A00089270E94350C089581E00E94350C089527
:1018B00080E00E94350C08956FEF7FEF90E080E0AC
:1018C0000E942929089590E080E00E94F528863E34
:1018D0009E4F19F40E94621B089580E0089582E0F3
:1018E00090E00E94ED28089583E090E00E94ED28AA
:1018F000089584E090E00E94F5280895BC0184E0FA
:1019000090E00E9429290895AB01BC018FE090E08E
:101910000E941D290895AB01BC0183E190E00E9463
:101920001D29089560E070E0CB010E948B0C0895A2
:1019300060E070E0CB010E94840C0E94920C08953C
:10194000A8E0B0E0E6EAFCE00C949C2866EE7EEFAE
:1019500090E080E00E94292960E082E090E00E940F
:101960000B2981E08093E00161E083E090E00E9438
:101970000B2960E074E184E090E00E94292960E096
:1019800086E090E00E940B296FEF87E090E00E94D4
:101990000B2940E050E0BA0188E090E00E941D2948
:1019A00060E084E290E00E940B2960E087E190E033
:1019B0000E940B2960E08CE090E00E940B2960E01F
:1019C0008DE090E00E940B2919821A821B821C82F2
:1019D0001D821E821F82188648E050E068E170E098
:1019E000CE0101960E94FB2840E050E0BA0180E25F
:1019F00090E00E941D2980E00E947B1B0E94AA1B90
:101A00000E94980C2896E2E00C94B8280E94A00C42
:101A10000895682F8EE090E00E940B290895A6E0BB
:101A2000B0E0E5E1FDE00C949A280E94FE1E8C01D6
:101A300080917702909178028017910781F0198246
:101A40001A820E94FE1E682F49815A81792F80E0F8
:101A500090E00E94970310937802009377022696F5
:101A6000E4E00C94B6280E942E10609385027093D7
:101A7000860280938702909388026093810270931C
:101A800082028093830290938402089508950895BA
:101A90000E94460D089508950E944B0D089581E01F
:101AA000089588E490E10E9455140E94470D0E9419
:101AB000480D08950E9449120895089508950E94BE
:101AC0005D0D0E945E0D08950E9467100E946B03D9
:101AD00008950E94F51E0E9408100E94BA1B0E94E1
:101AE0004F120E949C110E94640D0E945A140E9481
:101AF00061120E944C0D0895A6E0B0E0E2E8FDE01E
:101B00000C9493280E944F0D81110CC00E940F0D60
:101B10000E9449120E94C0180E947E032696EBE0A4
:101B20000C94AF280E94BF1189E7A82E82E0B82E3E
:101B3000750110E0F70101917F01812F0E948A1049
:101B40001F5F183009F441C00817A1F38091890282
:101B500081FD0E9490100E945A0DC82E10E0992419
:101B60009394812F0E948A10082FF50181915F01C3
:101B7000081729F1D02ED826F12CEE24E3948D2DD0
:101B80008E21A9F0CC2099F0F9821A830E94FE1EC2
:101B90009C838B839D8291E0802F8E2109F490E0BD
:101BA00049815A816B817C818D810E949703F394D6
:101BB000EE0CF7E0FF12E3CFF501319700831F5FD2
:101BC000183079F60E94330DA3CF0813BFCF9ECFF4
:101BD0001F93CF93DF930E94170FEC01C11580E58F
:101BE000D807F0F5C11580E4D80708F09CC0C03EC6
:101BF000D10520F5CD3CD10508F082C0C83AD10509
:101C000078F4C53AD10508F073C0C130D10519F197
:101C1000209709F1C430D105F0F4D0E0C0E01BC03A
:101C2000C33CD105D0F7C85AD0E0CC0FDD1FC45952
:101C3000DE4F0990D881C02DD4640DC0C11580E25B
:101C4000D80708F0D1C0C11581E0D80708F05AC004
:101C5000C83ED10510F7CE01DF91CF911F910895B5
:101C6000C03682E5D80718F5C03482E5D80708F0F9
:101C70006BC0C03282E5D80708F05FC0C11582E5AD
:101C8000D80708F497C02C2F2695269580E2289F28
:101C9000900111248C2F8370C1E0D0E002C0CC0FE2
:101CA000DD1F8A95E2F7C22BD32BDD68D4CFC03A73
:101CB00082E5D80760F4C03882E5D80708F459C037
:101CC000CF71D0E0DC2FCC27C46FD06AC4CFC03C2A
:101CD00082E5D80708F462C0C03E82E5D80708F064
:101CE0009CCFDC2FCC27CC27DF71C06FD06AB3CF5D
:101CF000C55AD0E0CE55DE4FC881D0E0D064ABCF1E
:101D0000D065A9CF8D2F0E94B90F182FCE0199272A
:101D10000E94170FC12FD0E0DC2FCC27CC27DF711A
:101D2000C82BD92B98CFCE0199270E94170FCC270B
:101D3000DF70C82BD92BD06A8ECFCF71D0E0DC2FCB
:101D4000CC27C16FD06A87CF2C2F26952695277078
:101D500080E2289F900111248C2F8370C1E0D0E095
:101D600002C0CC0FDD1F8A95E2F7C22BD32BDC68B3
:101D700072CF2C2F26952695277080E2289F900100
:101D800011248C2F8370C1E0D0E002C0CC0FDD1F86
:101D90008A95E2F7C22BD32BDA685DCF8C2F8F7137
:101DA0000E94B90FC82FD0E0DC2FCC27CC27DF71E1
:101DB000D06251CF8C2F8F710E94B90F55E0D6950C
:101DC000C7955A95E1F7CF70D0E0DC2FCC27282FAC
:101DD00030E084FF05C044E0220F331F4A95E1F74D
:101DE000C22BD32BD06937CF8D2F8F710E94B90FA3
:101DF000182FCE0199270E94170FC12FD0E0DC2F9A
:101E0000CC27CC27DF71C82BD92BD2CF462F7830E7
:101E100030F4673020F4672F0E942A15089590E06F
:101E200080E008950E94060F0E94E80D0895823810
:101E30009105B9F1B0F48133910509F47DC048F4FE
:101E40008932910509F46DC08A32910509F47BC08D
:101E500008958533910509F45FC08933910509F12F
:101E60000895833E9105D9F138F4803E910529F11A
:101E7000823E910579F10895863E9105D9F1873E1C
:101E8000910509F43EC0843E910541F52091D502AB
:101E900021FF24C08091D40284FD19C087EE90E018
:101EA00008952091D402237009F05AC02091D502E0
:101EB00023FF14C089E290E008952091D40220FD10
:101EC00038C03091D50230FF09C024FF43C090E0F4
:101ED00080E008952091D40222FDF7CF089520914B
:101EE000D40222FD3AC03091D50230FD39C024FF22
:101EF000F5CFEDCF2091D40223FFF0CF24FDE7CF23
:101F0000CDCF2091D40223FD2EC03091D50231FFD8
:101F1000EECF84EE90E008952091D40225FFDECF2D
:101F2000C9CF2091D40225FD21C02091D50223FFE5
:101F3000D5CF89E390E0D2CF2091D40226FFCECF37
:101F40008AE290E008952091D40226FFC7CF81E372
:101F500090E0089583EE90E0089582EE90E0089579
:101F600080EE90E0089586EE90E0089585E390E09D
:101F700008959091D40292FF10C041E0282F24715F
:101F8000243009F040E031E0282F2871283009F092
:101F900030E0431711F02CE0822793FF10C041E09E
:101FA000282F2471243109F040E031E0282F2871D6
:101FB000283109F030E0431711F02CE082273091EE
:101FC000D50230FF10C051E0282F2171213009F0D7
:101FD00050E041E0282F2871283009F040E05417E4
:101FE00011F029E0822731FF10C041E0282F217134
:101FF000213109F040E031E0282F2871283109F023
:1020000030E0431711F029E0822794FD877E089580
:102010001092D0021092D1021092D2021092D302EA
:102020000895CF92DF92EF92FF926B017C010E94A4
:10203000491281110EC00E940A1FC61AD70AE80A67
:10204000F90AC092D002D092D102E092D202F0926C
:10205000D302FF90EF90DF90CF9008950F931F93DE
:102060000E944912882329F00E940A1F1F910F9194
:1020700008950E940A1F0091D0021091D102209170
:10208000D2023091D302600F711F821F931FEECFD7
:1020900080E008950E945C0C08950E94BF112FEF0C
:1020A00086E791E0215080409040E1F700C00000B9
:1020B0000E94BF1180E00E948A1080FF04C00E942D
:1020C0004A100E94651F08950E944D1008950E94B5
:1020D000630C811102C00E94060D0E946F0C809358
:1020E00089020E94790C9093D5028093D4020E94B9
:1020F00064100E94740C0E940E078091DF010E9400
:102100002607089508950E948210089508950E9458
:1021100086100895E82FF0E0E152FD4F8081089588
:10212000089580EA8A95F1F7089500C008950E9405
:102130009110089508950E949A100895EF92FF92C9
:102140001F93CF93DF9300D000D0CDB7DEB70E94AE
:102150004912182F6091E702882309F447C01982B9
:102160001A821B821C82862F90E09E012F5F3F4FB8
:102170007901B90181529D4F0E946F128823E9F0C5
:102180008091D60290E044E050E0B70181529D4F2B
:102190000E94D72821E020938A02892BC9F410E0FD
:1021A0000E948710812F0F900F900F900F90DF915A
:1021B000CF911F91FF90EF90089580918A0288231C
:1021C00071F384E0F70111928A95E9F710928A027F
:1021D000E091D602F0E0E152FD4F89819A81AB8116
:1021E000BC8180839183A283B383DACF70E0615294
:1021F0007D4F8091D60290E081529D4F0E94F61251
:102200000E949B10CFCFF894E82FE295EF70F0E09A
:1022100031A1282F2F7081E090E001C0880F2A950E
:10222000EAF7982F9095932391A392A1892B82A3EB
:1022300078940895CF93DF93C5EAD1E089918F3FD9
:1022400011F00E94031181E0CC3AD807B9F781E977
:102250000E94031180E90E94031182E30E9403118E
:1022600086E30E940311DF91CF910895B0E0A0E0D2
:10227000ECE3F1E10C9496287C01162F042FC62F75
:10228000D0E0CB55DE4F28812F3F09F44CC0F894A5
:10229000E22FE295EF70F0E031A12F7081E090E045
:1022A00001C0880F2A95EAF7932F982B91A392A14A
:1022B0008095892382A378940E9495108CEAC82E79
:1022C00081E0D82EF701A7014C5F5F4FF12CE02E83
:1022D000E094D6019D916D0181919F0121503109BA
:1022E0009F3F31F1692F62956F7070E0DB0190962E
:1022F0006C9170E09F7002C0759567959A95E2F7B2
:1023000060FD16C0802BD9018C93FF24F394E41751
:10231000F507F9F688818F3F11F00E9403116F2DA8
:10232000812F0E949710CDB7DEB7E8E00C94B22859
:102330008E21D9018C93EBCF80910401809104010F
:1023400094E0811190E09093E70284E0891B8093F0
:10235000D6020E941A1188E0EFEDF2E0DF01982F1B
:102360001D929A95E9F7E7EDF2E0DF011D928A955B
:10237000E9F784E00E9401120E9483100895A8E00A
:10238000B0E0E5ECF1E10C9498288E010F5F1F4F4F
:1023900088E0F80111928A95E9F7F12CEE24E39494
:1023A0004E2D6F2DC8010E943611F394EE0CF7E00C
:1023B000FF12F6CF48E050E0B80187ED92E00E94AE
:1023C000D72821E0009709F420E0892B41F088E02C
:1023D000F801A7EDB2E001900D928A95E1F76091C6
:1023E000E70270E061527D4F44E087ED92E00E9489
:1023F0000212182F0E949E10812B2896E6E00C9462
:10240000B4280895B0E0A0E0E8E0F2E10C9496284A
:102410006C017B01042FC22F222379F081E080938D
:102420008D020E94FE1E90938C0280938B0280E0AE
:10243000CDB7DEB7E8E00C94B228D0918D02DD2351
:10244000B1F380918B0290918C020E94161F059728
:1024500070F310E0A801B601C7010E94D728892BAC
:1024600031F0A801B601C7010E94E428CD2F1092D7
:102470008D028C2FDDCFCF930E945E28C82F811153
:1024800002C00E9459288C2FCF910895809191020B
:1024900008958091900208950E94491208950E9423
:1024A0003B12809390020E944C12809391020E94F2
:1024B0004612809304010E94491281110E94A512C4
:1024C00008950E944912811102C00E94A812089525
:1024D00081E0909192029A3008F080E008950F9385
:1024E0001F93CF93DF93EC018B01809192028A308E
:1024F000B8F4B801CE010E94F312C82F811122C096
:10250000809192028F3FB9F40E94FE1E90938F0239
:1025100080938E028C2FDF91CF911F910F910895A0
:1025200080918E0290918F020E94161F843F9140ED
:1025300000F7C0E0EFCF8F5F809392028A3020F7E0
:10254000C1E0E8CF10929202E5CF0E94DB1F089510
:102550000E94DE1F0895B0E0A0E0E1EBF2E10C94F0
:1025600097287901C82F880FDD0B41155105A9F077
:10257000FE0193E0EE0FFF1F9A95E1F7EB5FFE4F30
:10258000818192818D569D4F208130E04217530703
:1025900008F49A01A9010E94E428CE010E94C720F4
:1025A000D82E8823D1F001151105B9F083E0CC0FA6
:1025B000DD1F8A95E1F7FE01EB5FFE4F438150E09E
:1025C0000417150708F4A801CB5FDE4F6C817D81ED
:1025D0006D567D4FC7010E94E4288D2DCDB7DEB723
:1025E000E7E00C94B3280E94ED1308950E940414B0
:1025F0000895A4E0B0E0EFEFF2E10C949A28609126
:10260000A8027091A9028091AA029091AB020E9447
:10261000251F11E0643671058105910518F10E94AE
:102620002E106E5F7F4F8F4F9F4F69837A838B830E
:102630009C8310E000E030E020E044E050E0BE0188
:102640006F5F7F4F82E00E94AB12182F882351F0FA
:102650000E940A1F6093A8027093A9028093AA02A5
:102660009093AB02812F2496E4E00C94B628B0E05E
:10267000A0E0EDE3F3E10C9494287C015B016A0196
:102680000E94681201E010E0882311F00AE010E0D7
:10269000C1E0D0E0B501C701F6010995811104C080
:1026A00021960C171D072CF4CDB7DEB7EAE00C9489
:1026B000B028CC9F9001CD9F300D300D112490E0BB
:1026C00080E045E34A95F1F70000019682179307F1
:1026D000C1F7E0CFA5E0B0E0E0E7F3E10C94942887
:1026E0005B01E090B001F090B10101E010E09E01CB
:1026F0002B5F3F4F50E040E070E060E080E00E94E0
:10270000AB12182F882309F44BC067018FEFC81A4A
:10271000D80A6091A4027091A5028091A6029091BE
:10272000A7020E94251F643671058105910580F17D
:1027300004E010E09E012F5F3F4F50E040E070E06A
:1027400060E081E00E94AB12F82E64E070E0C60108
:102750000E945B1411E09D81981310E01F2159F134
:102760000E940A1F6093A4027093A5028093A602A0
:102770009093A70289819A81AB81BC818093A0024A
:102780009093A102A093A202B093A30211E013C000
:1027900064E070E0C6010E945B149D818913C8CF7C
:1027A000F70181819281A381B48189839A83AB836C
:1027B000BC831111DFCF8091A0029091A102A09162
:1027C000A202B091A302F50180839183A283B38317
:1027D000812F2596EAE00C94B0280F931F93CF9396
:1027E000DF93EC018B014AE653E10E943713882303
:1027F00031F049EF52E1B801CE010E943713DF9169
:10280000CF911F910F9108950F931F93CF93DF9353
:10281000C091B001D091B101CE01019624E0FB013D
:10282000DC0101900D922A95E1F764E070E00E94CE
:102830005B1488836D817E818F81988500919C02D5
:1028400010919D0220919E0230919F0260177107A6
:102850008207930751F060939C0270939D028093CE
:102860009E0290939F020E941110DF91CF911F91C1
:102870000F9108950E94B3220E94690D0E94C02208
:1028800008950E94C5220E947C0D0E94DF220895B7
:102890000E94971E0E9499220E94510D0E943A1494
:1028A0000E9441140E945F0DFBCF9093C30180935F
:1028B000C20108950895FC01680F791F8FEF91E31D
:1028C0006E177F0709F408952191822728E030E0F0
:1028D00087FF06C0880F892721503109C9F7F0CF3B
:1028E000880FFACF84E0089550E0440F551F9EE012
:1028F000699F400D511D112490E7899F400D511D86
:102900001124CA01899608950F931F93CF93DF93E3
:102910008430C8F46830B8F44730A8F40E947414C6
:102920008C010E94ED28C82FD0E0DC2FCC27C801F5
:1029300001960E94ED289E01282BC901DF91CF91BD
:102940001F910F91089590E080E0F8CF0F931F93AF
:10295000CF93DF93122F032F843078F4683068F41C
:10296000473058F40E947414EC01602F0E940B2928
:10297000612FCE0101960E940B29DF91CF911F910B
:102980000F9108951F93CF93DF93D0E0C0E011C063
:10299000412F6C2F8D2F0E944B029C01412F6C2FD9
:1029A0008D2F0E94A6141F5F173091F7CF5FC8309C
:1029B00011F010E0EDCFDF5FD43041F7DF91CF9120
:1029C0001F910895EF92FF920F931F93CF93DF9380
:1029D000EC018A017C01E60EF71ECE018996CE1528
:1029E000DF0529F4CDB7DEB7E6E00C94B428C03C8F
:1029F00021E0D20740F40E94ED28F80180830F5FA8
:102A00001F4F2196EACFF8011082F9CFB0E0A0E085
:102A1000ECE0F5E10C9496287C016A018C01060F2C
:102A2000171FEC01CE018996C017D10729F4CDB745
:102A3000DEB7E8E00C94B228C03C21E0D20740F4B5
:102A4000FE01EE19FF09EC0DFD1D60810E940B29AE
:102A50002196E8CF843038F4683028F4473018F4F1
:102A60000E948414089590E080E0089580E1089524
:102A700087E192E00895EF92FF920F931F93CF9317
:102A8000DF93EC018A017C01E60EF71ECE0187512F
:102A90009E4FCE15DF0529F4CDB7DEB7E6E00C94E6
:102AA000B428C73122E0D20740F40E94ED28F80193
:102AB00080830F5F1F4F2196E9CFF8011082F9CF75
:102AC000B0E0A0E0E6E6F5E10C9496287C016A010E
:102AD0008C01060F171FEC01CE0187519E4FC017C6
:102AE000D10729F4CDB7DEB7E8E00C94B228C7319E
:102AF00022E0D20740F4FE01EE19FF09EC0DFD1DA6
:102B000060810E940B292196E7CFCF93DF93C9EE16
:102B1000D1E060E0CE010E940B292196C11584E02E
:102B2000D807B9F7DF91CF910895A8E0B0E0EBE9BD
:102B3000F5E10C949428F82E8FE08F1508F46EC000
:102B40008FEF93E00E94ED28811168C009EE11E03B
:102B5000F11035C0FE0131966F0188E011928A951F
:102B6000E9F77801FFEFEF1AFF0AC8010E94ED288C
:102B700089831A82882309F451C08130D1F4580125
:102B800082E0A80EB11CC7010E94ED288A83882329
:102B900009F444C09FEF980F9330F0F4780193E06C
:102BA000E90EF11CC5010E94ED288B838823B1F149
:102BB0001C8260E0C6010E940B1A8701D2CF01156A
:102BC00094E0190759F1C8010E94ED28811101C054
:102BD000FA940F5F1F4FBCCF7501843051F702E0AC
:102BE00010E07501EFEFEE1AFE0AC5010E94ED2814
:102BF000F601E00FF11F8083882381F08C3741F4C8
:102C0000E2E0F0E0EC0FFD1FE00FF11F1082D1CFEA
:102C10000F5F1F4F57010730110519F72896EAE09B
:102C20000C94B028CF93DF93EB0186319C4711F5CC
:102C30000E943A0B9D81992399F08A7A91E009F4D8
:102C400090E09093AC02811109C089E20E94E41DDA
:102C50000E94EE0B80E0DF91CF91089585E3F6CFDF
:102C60008091AC02811104C089E20E94FB1DF0CF6B
:102C700085E3FBCF81E0EFCFCF93DF93EC01FB0146
:102C80008581882309F4D2C09E0130572332310553
:102C900008F0B2C00E94790C9093D5028093D402C0
:102CA000FE01E150F047E232F10520F4E35BF64D1E
:102CB0000C947F288091D40281608093D40293C0C9
:102CC0008091D50288608093D5028DC08091D40216
:102CD0008260F3CF8091D4028460EFCF8091D402E0
:102CE0008860EBCF8091D5028160EDCF8091D502D5
:102CF0008260E9CF8091D4028061DFCF8091D402DD
:102D00008062DBCF8091D4028064D7CF0E94C3065B
:102D10008091D4028068D1CF8091D4028C60CDCFD5
:102D20008091D5028360CFCF8091D4028E7FC5CFB2
:102D30008091D502877FC7CF8091D4028D7FBDCF90
:102D40008091D4028B7FB9CF8091D402877FB5CF99
:102D50008091D5028E7FB7CF8091D5028D7FB3CF82
:102D60008091D4028F7EA9CF8091D4028F7DA5CF90
:102D70008091D4028F7BA1CF0E94C3068091D402A0
:102D80008F779BCF8091D402837F97CF8091D5029C
:102D90008C7F99CF8091D40282FB992790F921E012
:102DA000922790FB82F990FB83F987CF8091D5021F
:102DB000982F909591708E7F892B90FB81F983CF0E
:102DC0009091D402892F8F7B96FF806476CF0E94EA
:102DD000C3069091D402892F97FB87F980586DCF55
:102DE00081E00E94090D8091D4029091D5020E9449
:102DF0007E0C0E94C30680E0DF91CF91089580E0B1
:102E0000F0CF9091D402892F8F7E94FF806155CFAF
:102E10009091D402892F8E7F90FF81604ECF909148
:102E2000D502892F877F93FF88604DCF81E0E4CF63
:102E3000282F35EB2303C001112497FF04C08058CD
:102E40009109892F089580589F4FFBCF8091B3023D
:102E500080FF0DC06091220170E0660F771F60381F
:102E6000710570F56115710569F1862F089581FF6F
:102E700007C06091220184E0689FB0011124EFCF68
:102E80006091220182FD0AC08091B2028823A9F0DC
:102E90002091210160912201821710F088E0ECCF8F
:102EA000869FC001112433E0880F991F3A95E1F7FE
:102EB000622F70E00E946B28D2CF68E070E0D5CF1F
:102EC0008FE7089581E008958091B30280FF0CC0E0
:102ED00060911E0170E07595679575956795611510
:102EE000710549F1862F089581FF06C060911E018A
:102EF00070E075956795F3CF60911E0182FD0BC060
:102F00009091B1029923A1F060911D0180911E0161
:102F1000961738F0682F70E06038710500F38FE77E
:102F20000895899FC001112470E00E946B28F4CF9E
:102F300061E070E0D7CF81E008959091B6022091D2
:102F4000B702922B2091B902922B2091B802922BBA
:102F500031F098E09093B20291E09093B1028D3CF1
:102F600031F40E94261781958093B70208958E3C14
:102F700019F40E942617F8CF8F3C31F40E942617CF
:102F800081958093B6020895803D19F40E9426171A
:102F9000F8CF893D29F40E9464178093B802089500
:102FA0008A3D21F40E9464178195F7CF8B3D31F45F
:102FB0000E94641781958093B90208958C3D19F49D
:102FC0000E946417F8CF9FE2980F983070F4815DEB
:102FD000990B21E030E001C0220F8A95EAF7809139
:102FE000B502822B8093B50208958D3D31F4809116
:102FF000B30281608093B30208958E3D21F48091E5
:10300000B3028260F7CF8F3DB9F78091B30284603D
:10301000F1CF4091B6028D3C59F48091B70287FF01
:103020000DC01092B70241110BC01092B20208C03D
:103030008E3C81F48091B70218169CF3442381F0F2
:103040008091B8029091B902892B09F05AC0109270
:10305000B10208958F3C49F447FFF0CF1092B602B9
:103060008091B7028111ECCFE0CF803D19F41416A6
:10307000ACF3E4CF9091B802893D29F41916F4F627
:103080001092B802DBCF8A3D19F497FFD7CFF8CF63
:103090009091B9028B3D29F497FFD0CF1092B902DD
:1030A000CDCF8C3D19F41916CCF3C8CF9FE2980F01
:1030B000983090F4815D990B21E030E0B90102C0B5
:1030C000660F771F8A95E2F7CB0180959091B50244
:1030D00089238093B502B2CF8D3D31F48091B30244
:1030E0008E7F8093B302AACF8E3D21F48091B302EC
:1030F0008D7FF7CF8F3D09F0A1CF8091B3028B7FF9
:10310000F0CF08950E94FE1E9C019091B60280911E
:10311000B702982B21F03093B0022093AF02909128
:10312000B8028091B902982B21F03093AE0220931F
:10313000AD0284EB92E00E94E11C089586E0E4EB8E
:10314000F2E0DF011D928A95E9F71092B202109227
:10315000B1021092B3020895FC01828181110EC068
:10316000838181110BC08481811108C091E0858128
:10317000811101C090E0892F8170089581E0FCCF1A
:10318000A6E0B0E0E6ECF8E10C949B2886E0E4EBE6
:10319000F2E0DE01119601900D928A95E1F710920E
:1031A000B6021092B7021092B8021092B9028B8147
:1031B0009C81892B89F08091AF029091B0020E948E
:1031C000161FAC019091B2029923C9F1809123019D
:1031D0008417150608F440C08D819E81892B91F0DB
:1031E0008091AD029091AE020E94161FAC019091A9
:1031F000B102992309F46AC080911F018417150652
:1032000008F472C0BE016F5F7F4F84EB92E00E94B2
:103210002C1E811105C084EB92E00E94AC18811134
:103220000E94821886E0FE013196A4EBB2E0019084
:103230000D928A95E1F72696E3E00C94B728209149
:1032400024018AE0289F900111242417350720F6D5
:103250009F5F9093B20202C09F3FD1F71B81112361
:1032600059F00E9426179FEF11160CF491E0899FE8
:10327000802D11248093B6021C81112359F00E94E5
:1032800026179FEF11160CF491E0899F802D1124D1
:103290008093B7028091B602882309F49DCF1091E4
:1032A000B702112309F498CF0E941817882351F010
:1032B0008093B602812F0E941817882329F08093EB
:1032C000B7028ACF81E0F4CF81E0F9CF20912001CD
:1032D0008AE0289F900111242417350708F092CF27
:1032E0009F5F9093B10202C09F3FD1F71D811123D0
:1032F00059F00E9464179FEF11160CF491E0899F1A
:10330000802D11248093B8021E81112359F00E9450
:1033100064179FEF11160CF491E0899F802D112402
:103320008093B9028091B802882309F46BCF109181
:10333000B902112309F466CF0E941817882351F0AF
:103340008093B802812F0E941817882329F0809358
:10335000B90258CF81E0F4CF81E0F9CFB0E0A0E02E
:10336000E4EBF9E10C949728E82FF0E0E450FE4FED
:10337000D490282F26952695269530E0F901E4561D
:10338000FD4F0491877010E0082E02C01595079537
:103390000A94E2F701701127F901E457FD4FE49018
:1033A000F12C082E02C0F594E7940A94E2F791E01C
:1033B000E922FF24F901E458FD4FC491D0E002C096
:1033C000D595C7958A95E2F7C170DD2701151105DE
:1033D00019F081EE0E94DA03E114F10419F086EE8F
:1033E0000E94DA038D2D0E946E04E114F10419F09D
:1033F00086EE0E9423040115110519F081EE0E944A
:103400002304CD2B19F08CE20E946E04CDB7DEB7F9
:10341000E7E00C94B328EF92FF920F931F93CF93A2
:10342000DF93EC01162F0AE08881882309F454C049
:10343000813009F04EC08981813099F47E0122E00B
:10344000E20EF11C8A810E946E04E7012196812F11
:10345000815050F3EFE9FFE03197F1F700C0000031
:10346000F7CF823041F47E0182E0E80EF11C8A81C0
:103470000E94DA03EACF833041F47E01E2E0EE0EEF
:10348000F11C8A810E942304E0CF843011F0219640
:10349000DDCF2A81229690E080E0AE014F5F5F4F42
:1034A0002053330B2A30310548F0019778F2EFE9C9
:1034B000FFE03197F1F700C00000F7CF089FB0019F
:1034C000099F700D1124C901860F971F2981EA01F8
:1034D000E4CF0E94AE19BACFCDB7DEB7E6E00C94C8
:1034E000B4280F931F93CF93DF93C42FD22FFC01E7
:1034F00085818823C9F04093BC020E94FE1E9093F0
:10350000BB028093BA0280E28C0F883040F4C7700F
:1035100081E001C0880FCA95EAF70E947704DF9125
:10352000CF911F910F9108951091BC02141332C0D6
:103530008091BA029091BB020E94161F883C9105AF
:1035400048F5C0E2CD0F1D17B9F080E2810F883039
:1035500040F4177081E001C0880F1A95EAF70E94C5
:103560007E04C83048F481E09D2F977001C0880F19
:103570009A95EAF70E947704802F0E946E04C83063
:1035800070F6D77081E001C0880FDA95EAF70E94E3
:103590007E04C5CF80E28C0F883008F6C77081E0CA
:1035A00001C0880FCA95EAF7F2CF0F93DB0188516B
:1035B0009C4787309105A0F5FC01E159F64D0C942C
:1035C0007F2806E221EE41EE6AE17CE7CD010E9410
:1035D000711A80E00F91089507E225EE45EE6BE148
:1035E0007CE7F4CF06E221EE40EE68E17CE7EECF27
:1035F00007E225EE44EE69E17CE7E8CF06E221EE42
:1036000042EE6CE17CE7E2CF07E225EE46EE6DE1AB
:103610007CE7DCCF08E221E045EE6EE17CE7D6CF27
:1036200015968C91882319F01092BC02D3CF81E0BB
:10363000D1CF1F93CF93DF9387372CE7920759F0B1
:10364000C1E088379C47E1F4FB01C581CC2371F1CF
:103650000E945C1B06C0FB01C581CC23B1F00E9417
:10366000591B0E943B070E945F1BD82F0E945C1BC6
:10367000C82F0E94591B4D2F6C2F0E946308C0E079
:103680008C2FDF91CF911F9108950E94591B0E94AA
:1036900047070E945F1B182F0E945C1BD82F0E94B7
:1036A000591B412F6D2F0E946308EACF0E945C1BBB
:1036B000EECF809127010895809126010895809191
:1036C0002501089585E290E00E94ED28843289F476
:1036D00086E290E00E94ED28823059F487E290E083
:1036E0000E94ED2891E0823109F090E0892F8170ED
:1036F000089580E0FCCFCF93C82F6FEF811164E273
:1037000085E290E00E940B296FEFC11162E086E232
:1037100090E00E940B296FEFC11162E187E290E017
:103720000E940B29CF910895089588E290E00E94AD
:10373000ED28682F70E090E080E008950895CF9321
:10374000C62F0E949E1B6C2F88E290E00E940B29DE
:10375000CF91089580E00E947B1B60E070E0CB0178
:103760000E949F1B0E94C2140E94851581E00E9446
:103770007B1B08950E94941B0E94951B0E949E1B18
:103780000E94621B811102C00E94AA1B0895089525
:103790009C01FB018581882351F0A90157574038CE
:1037A000510530F4822F0E94951580E0089581E044
:1037B00008952FEFFC01208308950E94D91B0895DE
:1037C00080E00895B0E0A0E0E8EEFBE10C949628DC
:1037D000EC01E62E0E94E01B811110C0E881E1504F
:1037E000E331B8F4F0E0EA58F64D0C947F281982E2
:1037F0008CE08A836E2DCE010E948D21CDB7DEB77D
:10380000E8E00C94B22889818230C1F028F481303C
:1038100061F08FEF8883EECF833099F08430C9F761
:103820001A821B821C821D82E5CF0E940A1F0E9401
:1038300085286A837B838C839D83DCCF0E94951BC4
:10384000F6CF8A81082F10E06E0193E0C90ED11CDB
:103850009CE1F92EF80E0830110560F6802F0E94C9
:103860008A10F60181936F010F5F1F4FF012F3CFA3
:10387000C1CF8981823031F0853059F68A810E942A
:10388000C71BB8CF6A817B818C819D810E9485286E
:103890000E949F1BAFCF4B816A8189810E94841453
:1038A0009827892798279D838C83A4CF2C813D81DD
:1038B0003227232732274B816A8189810E94A614EF
:1038C00099CF0E94C21496CF6E2DCE010E94DD1BAF
:1038D00091CF0E94361589838DCF0E943815982785
:1038E000892798279A83898385CF6B8170E08981A6
:1038F0009A81AE014C5F5F4F9827892798270E94D5
:103900003B1578CF6B8170E089819A81AE014C5F65
:103910005F4F9827892798270E9460156BCF0E94D8
:10392000851568CF0E947214D6CF6B8170E08981B3
:103930009A81AE014C5F5F4F9827892798270E9494
:10394000E21458CF6B8170E089819A81AE014C5F9F
:103950005F4F9827892798270E9406154BCF909391
:10396000C3028093C20208950E944912811103C0CC
:103970008091BD020895E091C202F091C302309798
:1039800029F00190F081E02D0995089580E00895D7
:10399000E091C202F091C302309721F00280F381DE
:1039A000E02D09950895E091C202F091C30230978D
:1039B00039F026E0DC012C930480F581E02D099597
:1039C0000895E091C202F091C302309739F022E0ED
:1039D000DC012C930680F781E02D09950895A3E082
:1039E000B0E0E5EFFCE10C949C282091C0023091FE
:1039F000C10228173907A1F09093C1028093C00239
:103A0000E091C202F091C302309751F023E0298384
:103A10009B838A830084F185E02DCE010196099570
:103A20002396E2E00C94B828A3E0B0E0EAE1FDE1DF
:103A30000C949C282091BE023091BF0228173907B0
:103A4000A1F09093BF028093BE02E091C202F09178
:103A5000C302309751F024E029839B838A8300843A
:103A6000F185E02DCE01019609952396E2E00C94B4
:103A7000B82820910201309103012E5F3F4F8091C1
:103A80003201882379F08091D40287FF0BC0209106
:103A90000001309101012E5F3F4F9EE180E0915087
:103AA00018F4089596E0FACFF90141919F0144235B
:103AB000B1F38F5FF4CF882321F1909132019923E4
:103AC00011F19091D40297FF1EC0E82FE695E6957C
:103AD000E695EE31B0F42091000130910101E20F42
:103AE000F32FF11D228130E0877041E050E002C0E9
:103AF000440F551F8A95E2F72423352381E0232BB9
:103B000091F480E008952091020130910301F901C0
:103B10003296285F3F4F9191981721F0E217F307F3
:103B2000D1F7EFCF81E008959C01FC0132969FEF21
:103B300080E04191461751F09F3F19F4411101C0B7
:103B4000982F8F5F8630A9F79F3F09F40895290FBA
:103B5000311D97FD3A95F90162830895FC01329673
:103B600008962191261303C0DF0111971C92E817D4
:103B7000F907B9F70895E62FE695E695E695EE3153
:103B800068F4E80FF92FF11D677021E030E001C003
:103B9000220F6A95EAF78281822B82830895E62FAD
:103BA000E695E695E695EE3170F4E80FF92FF11DF4
:103BB000677021E030E001C0220F6A95EAF7209596
:103BC0008281282322830895682F809132018823DF
:103BD00059F08091D40287FF07C080910001909135
:103BE00001010E94BB1D0895809102019091030183
:103BF0000E94941D0895682F80913201882359F006
:103C00008091D40287FF07C080910001909101014B
:103C10000E94CF1D089580910201909103010E949E
:103C2000AE1D089580913201882379F08091D402ED
:103C300087FF0BC0E0910001F091010132968EE107
:103C4000DF011D928A95E9F70895E0910201F09154
:103C50000301329686E0F4CFDC01FB0111969C91C2
:103C600011978181981322C012968C911297882304
:103C700019F0928189131AC013968C911397882397
:103C800019F09381891312C015968C91159788238A
:103C900019F0958189130AC014969C91992321F0FB
:103CA00081E02481291303C080E001C081E081709C
:103CB000089508950E94591E0895811106C081E05B
:103CC0008093C4020E945A1E089582E0F9CF83E0D7
:103CD0008093C4020E945A1E08950E945D1E08959A
:103CE00081E08093C4020E945A1E08950E94701EB3
:103CF0000895089508950E947A1E089508950895DC
:103D00000E94791E0895CF930E947E1E0E94BF11CB
:103D10000E947F1EC0E08C2F0E948A10811105C076
:103D2000CF5FC830C1F7CF91089581E0FCCF85B750
:103D3000806885BF85B7806885BF08951F921FB6CC
:103D40001F9211248F939F93AF93BF938091C502CD
:103D5000811113C08091E8029091E902A091EA02DA
:103D6000B091EB024196A11DB11D8093E8029093A2
:103D7000E902A093EA02B093EB02BF91AF919F9149
:103D80008F911F901FBE1F9018958091F002843074
:103D900031F10E944E031092C50288E190E020E4C8
:103DA0000FB6F894A895809360000FBE2093600032
:103DB00083B7817F846083BF83B7816083BF78943A
:103DC000889583B78E7F83BF0FB6F894A8958091AE
:103DD0006000886180936000109260000FBE0895BB
:103DE0000E94C3060E945303089582E084BD93E0BD
:103DF00095BD9AEF97BD80936E0008952FB7F89404
:103E00008091E8029091E902A091EA02B091EB0260
:103E10002FBF08952FB7F8946091E8027091E902DE
:103E20008091EA029091EB022FBF08959C014FB759
:103E3000F8948091E8029091E902A091EA02B09191
:103E4000EB024FBF821B930B0895CF92DF92EF924C
:103E5000FF922FB7F894C090E802D090E902E0906A
:103E6000EA02F090EB022FBFA7019601261B370B49
:103E7000480B590BCA01B901FF90EF90DF90CF902A
:103E8000089578941F921FB61F9211248F939F93C9
:103E9000AF93BF938091E8029091E902A091EA026A
:103EA000B091EB020196A11DB11D8093E8029093A1
:103EB000E902A093EA02B093EB02BF91AF919F9108
:103EC0008F911F901FBE1F90189587E797E79093DB
:103ED00001088093000888E19AE00FB6F894A8954D
:103EE000809360000FBE90936000FFCF88E19AE05E
:103EF0000FB6F894A895809360000FBE9093600071
:103F0000FFCF8EE14A9B02C08150E1F74A9BFECF72
:103F100008955A9880E28A95F1F75A9A0895FC011B
:103F20003BE03A95F1F798E020E080E031E040E1B5
:103F30004A95F1F7880F4A9B02C08160232742E02F
:103F40004A95F1F7000040E14A95F1F7915079F771
:103F500090E19A95F1F799B132E03A95F1F70000C6
:103F600040E14A95F1F792FB992790F99227208139
:103F7000920F90830895A1E0B0E0E1ECFFE10C9492
:103F8000982819828C017C01E60EF11C0E151F0584
:103F900041F481E09981911180E02196E6E00C9452
:103FA000B4280E94811FCE0101960E948F1FF80144
:103FB00081938F01EBCF529A5A9A089552985A9A48
:103FC000EA9AE9E6F0E080818F7C80830895615071
:103FD000770B91E001C0990F6A95EAF720E031E094
:103FE000911108C0222391F05A9A80E28A95F1F744
:103FF0005A980895492F482339F05A9A232740E2C6
:104000004A95F1F79695ECCF5A98F9CF5A98EDCF9B
:10401000FF920F931F93CF93DF93EC018C01060F58
:10402000111DC017D10729F4CDB7DEB7E5E00C9418
:10403000B528F9900E94891F68E08F2D0E94E71F24
:10404000F0CF1F920F920FB60F9211240F931F9370
:104050002F933F934F935F936F937F938F939F9390
:10406000AF93BF93EF93FF93CF93DF930F92CDB7AF
:10407000DEB719820E94811FCE0101960E948F1F18
:10408000082F069506950695282F22952570902FC6
:104090009570290F922F937026952695920F982749
:1040A00097708981982B09F05CC0043008F059C0E2
:1040B00080E18A95F1F75A9A529A82E08A95F1F74F
:1040C00000C05A9888E0089F80011124D801AB5F96
:1040D000BE4F1696ED91FC9117973097A9F060911D
:1040E000B0017091B10114962D913C911597260F56
:1040F000371F11968D919C911297680F791F139617
:104100004C9113978C910995F801EB5FFE4F6381F9
:10411000662351F02091B0013091B10184819581E5
:10412000820F931F0E9408200E94891F80E18A95B8
:10413000F1F75A9852985A9A80E18A95F1F7F80166
:10414000EB5FFE4F6081662351F02091B00130910A
:10415000B10181819281820F931F0E94BB1F0E9437
:10416000811F0F90DF91CF91FF91EF91BF91AF91A0
:104170009F918F917F916F915F914F913F912F917F
:104180001F910F910F900FBE0F901F9018950F93D6
:104190001F93CF93DF93EC0104970CF04CC0F8947D
:1041A000529A5A9885E08A95F1F700009C2F9695CF
:1041B00095708C2F8570980F892F837096959695A2
:1041C00023E0CC0FDD1F2A95E1F7980F8E01092B14
:1041D0000E94891F00C068E0802F0E94E71F80E1D5
:1041E0008A95F1F752985A9A4A9B1EC087E090E050
:1041F0004A991CC0FE01EB5FFE4F63816623F9F014
:104200002091B0013091B10184819581820F931F7B
:104210000E94BB1F811113C0529A5A9A7894DF9161
:10422000CF911F910F91089500C0DECF019729F41F
:10423000529A5A9A789480E0F2CF00C0D9CF0E9467
:10424000811F80E28A95F1F75A98529A80E18A9507
:10425000F1F7CB5FDE4F6881662351F02091B0010A
:104260003091B10189819A81820F931F0E940820A9
:104270000E94891F789481E0D2CF8091CE02089568
:104280009B01BA019091F0029430E9F48F70809311
:10429000E9009FEF8091E800915085FD06C085ED13
:1042A0008A95F1F700009111F5CF8091E80085FF24
:1042B0000AC050E040E0C9010E9483238091E800D9
:1042C0008E778093E800089543E050E0BC0184E0DD
:1042D0000E944021089546E050E0BC0184E00E9425
:1042E0004021089540E250E0BC0184E00E9440215A
:1042F0000895CF93DF93EC0148E050E0BC0181E0EA
:104300000E94402188E0FE01A6ECB2E001900D92EF
:104310008A95E1F7DF91CF910895603231F440E260
:1043200050E0BC0182E00E94402108958091EF029C
:10433000811109C00E9462250E94BF258091E20080
:1043400084608093E20008951092EF0208950E9425
:10435000701E08956091EC0281E0611101C080E05F
:104360000E94671E08959091F00281E0943009F058
:1043700080E06091EC020E946D1E089542E061ECC5
:1043800081E00E94DE2442E261EC84E00E94DE24AF
:1043900042E261EC82E00E94DE2442E260EC83E0D3
:1043A0000E94DE249091F00281E0943009F080E0D8
:1043B0006091EC020E945D1E08958091F2028330AC
:1043C00009F463C030F48130E1F1823009F4A0C017
:1043D00008958A3009F48CC08B3009F471C089309B
:1043E00009F052C08091F102813209F04DC08091F4
:1043F000F5029091F602009719F0029709F044C077
:104400008091E800877F8093E8008091E80082FF38
:1044100037C09091F3008091F200029731F48091BF
:10442000F100813011F0863021F48091F100809309
:10443000CE028091E8008B778093E8000E941225DD
:1044400023C08091F102813AF9F48091E800877FDE
:104450008093E8008091F5029091F602892B61F437
:1044600068E086EC92E070E00E9421248091E800F0
:104470008B778093E800089560E090E080E0F3CFD0
:104480008091F0028111C1CF08958091F102813AAB
:10449000D9F78091F5029091F602892BA9F78091C6
:1044A000E800877F8093E8008091E80080FFFCCFE0
:1044B000809132018093F1008091E8008E77BCCF2B
:1044C0008091F102813201F78091F5029091F6021C
:1044D000892BD1F68091E800877F8093E8000E94C5
:1044E00012258091F302809332010E94C306089541
:1044F0008091F102813241F68091E800877F8093BC
:10450000E8000E9412258091F4028093CF02089562
:104510008091F102813A09F0B7CF8091E800877F5E
:104520008093E8008091E80080FFFCCF8091CF026B
:10453000C1CF84B7877F84BF0FB6F894A8958091C8
:104540006000886180936000109260000FBE80E878
:1045500090E00FB6F89480936100909361000FBED5
:104560000E94761E08950E9462250E94BF25E2EEF9
:10457000F0E080818460808378940E943E280895D2
:1045800088E291E00E94AF1C08958091F00285308E
:1045900031F48091F002853019F00E94F01E0895E8
:1045A0000E94C51E8091EE02882399F30E94831E0B
:1045B000882379F30E946D230E94C306EACFA0E20C
:1045C000B0E0E5EEF2E20C949C288091F002843099
:1045D00009F583E08093E9008091E80082FF1AC02A
:1045E0008091E80090E085FF09C050E040E060E283
:1045F00070E0CE0101960E94D22391E08091E80004
:104600008B778093E800992329F060E2CE01019630
:104610000E94E21BA096E2E00C94B8289A01409117
:10462000F7025091F8020E9416230895492F55274A
:104630004330510521F168F44130510509F443C07C
:104640004230510509F444C090E080E050E040E081
:1046500026C04132510551F142325105A9F763306C
:10466000710590F7FB01EE0FFF1FEB54FE4F4081E9
:1046700051816E547E4FFB01808190E010C09927DC
:104680008130910581F0009729F00297E9F6ECEA74
:10469000F2E002C0EAECF2E0849190E0AF01F901AF
:1046A000518340830895EEEBF2E0F6CF633071055D
:1046B00058F6660F771FFB01E554FE4F408151818C
:1046C00089E090E0ECCF82E190E049E253E0E7CF6F
:1046D0008BE590E04EEC52E0E2CF80E189BD82E1D3
:1046E00089BD09B400FEFDCF8091D8008F7D8093F5
:1046F000D8008091E00082608093E0008091E0002B
:1047000081FDFCCF0895AF92BF92CF92DF92FF92CE
:104710000F931F93CF93DF936C01EB018A010E94EB
:104720003125F82E811123C00115110539F0F8014A
:1047300080819181C81BD90BC80ED91EB12CA12C28
:104740002097A9F08091E80085FD22C08091E800C3
:104750008E778093E80001151105A1F0F8018081A2
:104760009181A80EB91EB182A08285E0F82E8F2D0E
:10477000DF91CF911F910F91FF90DF90CF90BF906D
:10478000AF9008950E9431258823D1F2F82EEFCF03
:10479000F60181916F018093F1002197FFEFAF1A2D
:1047A000BF0ACECFAF92BF92CF92DF92FF920F930C
:1047B0001F93CF93DF936C01EB018A010E94312597
:1047C000F82E811123C00115110539F0F8018081FF
:1047D0009181C81BD90BC80ED91EB12CA12C2097D2
:1047E000A9F08091E80085FD22C08091E8008B77D8
:1047F0008093E80001151105A1F0F80180819181F5
:10480000A80EB91EB182A08285E0F82E8F2DDF910F
:10481000CF911F910F91FF90DF90CF90BF90AF90FD
:1048200008950E9431258823D1F2F82EEFCF809190
:10483000F100F60181936F012197FFEFAF1ABF0AD4
:10484000CECFFC018091F7029091F802861797076E
:10485000A0F06115710529F49091E8009E7790937E
:10486000E80090E06115710551F4911108C0809144
:10487000E80082FF34C080E00895BC01F2CF80914F
:10488000F0028823C1F18530C1F18091E80083FDF9
:1048900030C08091E80082FDEACF8091E80080FF7F
:1048A000E1CF8091F3002091F200382F611571055E
:1048B00019F02830310558F091E02830310509F021
:1048C00090E02091E8002E772093E800CBCF8191F3
:1048D0008093F100615071092F5F3F4FE7CF8091C6
:1048E000F002882341F0853041F08091E80083FF99
:1048F000BECF81E0089582E0089583E00895FC0131
:104900008091F7029091F80286179707A0F0611541
:10491000710529F48091E8008E778093E80090E09B
:104920006115710551F4911108C08091E80082FF72
:1049300035C080E00895BC01F2CF8091F002882359
:10494000C9F18530C9F18091E80083FD31C08091C3
:10495000E80082FDEACF8091E80080FFE1CF8091FE
:10496000F3002091F200382F6115710519F02830FD
:10497000310558F091E02830310509F090E0809140
:10498000E8008E778093E800CBCF84918093F1008C
:104990003196615071092F5F3F4FE6CF8091F00251
:1049A000882341F0853041F08091E80083FFBDCF3E
:1049B00081E0089582E0089583E00895982F97306C
:1049C00028F08F708093E90081E008959093E900CA
:1049D000242F762F50E0981731F07091EC00209141
:1049E000ED005091F00021FD02C09F5FE8CF3091B3
:1049F000EB003E7F3093EB003091ED003D7F309334
:104A0000ED003091EB0031603093EB007093EC00DF
:104A10002093ED005093F0002091EE0027FDE5CFAC
:104A200080E008958091F10287FF13C08091E80033
:104A300082FF06C08091E8008B778093E80004C075
:104A40008091F0028111F2CF08958091F0028823C5
:104A5000D9F38091E80080FFF8CF8091E8008E774D
:104A6000ECCF2091E4003091E50095E6A90120917A
:104A7000EC00822F817020FF06C08091E80080FF4B
:104A800006C080E008952091E80022FD1AC08091C0
:104A9000F002882389F0853089F08091EB0085FD54
:104AA0000FC02091E4003091E50042175307F9F25E
:104AB0009150E1F684E0089582E0089583E008953E
:104AC00081E008950E94D1250E94D925E0EEF0E012
:104AD000808181608083E8EDF0E080818F77808342
:104AE00019BCA7EDB0E08C918E7F8C9380818F7E76
:104AF00080831092EF0208950F931F93CF93DF935B
:104B00000E94D1250E94D925C8EDD0E088818F77F9
:104B1000888388818068888388818F7D888319BC99
:104B20001092F0021092EC021092EE021092ED023E
:104B300000EE10E0F80180818B7F808388818160A6
:104B4000888342E060E080E00E94DE24E1EEF0E055
:104B500080818E7F8083E2EEF0E0808181608083BF
:104B6000808188608083F80180818E7F8083888146
:104B700080618883DF91CF911F910F910895E8EDB7
:104B8000F0E080818F7E8083E7EDF0E080818160BE
:104B9000808384E082BF81E08093EF020E947C25C5
:104BA0000895E8EDF0E080818E7F80831092E2002E
:104BB00008951092DA001092E10008951F920F926A
:104BC0000FB60F9211242F933F934F935F936F93E0
:104BD0007F938F939F93AF93BF93EF93FF938091B6
:104BE000E10082FF0BC08091E20082FF07C080914C
:104BF000E1008B7F8093E1000E943D288091DA00E4
:104C000080FF19C08091D80080FF15C08091DA0024
:104C10008E7F8093DA008091D90080FF96C080E17A
:104C200089BD82E189BD09B400FEFDCF81E080939A
:104C3000F0020E9496218091E10080FF19C08091CE
:104C4000E20080FF15C08091E2008E7F8093E20039
:104C50008091E20080618093E2008091D8008062C0
:104C60008093D80019BC85E08093F0020E94AA21AD
:104C70008091E10084FF2BC08091E20084FF27C077
:104C800080E189BD82E189BD89B5982F917080FF4F
:104C9000FBCF8091D8008F7D8093D8008091E10078
:104CA0008F7E8093E1008091E2008F7E8093E2000E
:104CB0008091E20081608093E2008091EC02882381
:104CC00009F449C084E08093F0020E94B3218091EE
:104CD000E10083FF29C08091E20083FF25C080911D
:104CE000E100877F8093E10082E08093F0021092E0
:104CF000EC028091E1008E7F8093E1008091E200E0
:104D00008E7F8093E2008091E20080618093E200D8
:104D100042E060E080E00E94DE248091F000886044
:104D20008093F0000E94A721FF91EF91BF91AF9176
:104D30009F918F917F916F915F914F913F912F91B3
:104D40000F900FBE0F901F90189519BC1092F00293
:104D50000E94A42170CF8091E30087FD93E090939F
:104D6000F002B3CF1F920F920FB60F9211242F9320
:104D70003F934F935F936F937F938F939F93AF93E3
:104D8000BF93CF93DF93EF93FF93D091E900DF7050
:104D90008091EC00C82FC17080FDC0E81092E9003E
:104DA0008091F000877F8093F00078940E94F6262F
:104DB0001092E9008091F00088608093F000CD2B84
:104DC000CF70C093E900FF91EF91DF91CF91BF9138
:104DD000AF919F918F917F916F915F914F913F9193
:104DE0002F910F900FBE0F901F901895AAE2B0E080
:104DF000ECEFF6E20C949B2881EF92E02091F10019
:104E0000FC012193CF01F2E0893F9F07B9F70E948F
:104E1000DD218091E80083FF1EC18091F102909115
:104E2000F2029A3008F017C1E92FF0E0E757F64D8B
:104E30000C947F28803899F0823809F00CC1809159
:104E4000F5028F70873008F006C18093E9008091E9
:104E5000EB0085FB882780F91092E90006C080915D
:104E6000ED029091EE02911182609091E800977F9F
:104E70009093E8008093F1001092F1008091E80097
:104E80008E77E5C0882309F4D3C0823009F0E3C0EF
:104E90008091F3028111D6C08091F5028F702FEFBF
:104EA000280F263008F0D7C08093E9002091EB004E
:104EB00020FFC8C0933031F48091EB008062809372
:104EC000EB00C0C09091EB0090619093EB0021E06B
:104ED00030E001C0220F8A95EAF72093EA00109291
:104EE000EA008091EB008860EACF8111B4C0109194
:104EF000F3021F778091E3008078812B8093E30099
:104F00008091E800877F8093E8000E9412258091BD
:104F1000E80080FFFCCF8091E30080688093E3008D
:104F200082E0111183E08093F00295C080588230B6
:104F300008F091C08091F3029091F4028C3D23E03F
:104F40009207A1F583E08A838AE289834FB7F894B8
:104F5000DE01139620E03EE051E2E32FF0E05093B3
:104F60005700E49120FF03C0E295EF703F5FEF70C0
:104F70008E2F90E0EA30C0F0C7968D939D932F5FFF
:104F8000243159F74FBF8091E800877F8093E80074
:104F90006AE270E0CE0101960E9421248091E8002F
:104FA0008B778093E80057C0C096E7CF6091F502F9
:104FB0007091F602AE014F5F5F4F0E940E23BC015D
:104FC000892B09F448C09091E800977F9093E800FE
:104FD00089819A810E947F24E1CF8038E1F5809118
:104FE000E800877F8093E8008091EC028093F100D5
:104FF00045CF811130C09091F302923060F58091DD
:10500000E800877F8093E8009093EC020E941225CD
:105010008091EC02882311F084E005C08091E300C8
:1050200087FDFACF81E08093F0020E94BE2113C079
:105030008091F302813079F481E0933009F080E0CF
:105040008093EE021092E9008091E800877F8093C0
:10505000E8000E9412258091E80083FF0AC0809139
:10506000E800877F8093E8008091EB008062809366
:10507000EB00AA96E3E00C94B7280895CF938091B3
:10508000F0028823A1F0C091E900CF709091EC006C
:10509000892F817090FD80E8C82B1092E9008091E3
:1050A000E80083FD0E94F626CF70C093E900CF91FF
:1050B00008950E9462251092F0020895E8EDF0E054
:1050C0008081806180838AE18A95F1F700C08091B8
:1050D000D9008170089597FB072E16F4009407D02D
:1050E00077FD09D00E94C32807FC05D03EF49095B7
:1050F00081959F4F0895709561957F4F0895EE0FAC
:10510000FF1F0590F491E02D0994692796276927E0
:1051100078278727782708952F923F924F925F92A2
:105120006F927F928F929F92AF92BF92CF92DF92B7
:10513000EF92FF920F931F93CF93DF93CDB7DEB71C
:10514000CA1BDB0B0FB6F894DEBF0FBECDBF0994B0
:105150002A88398848885F846E847D848C849B8407
:10516000AA84B984C884DF80EE80FD800C811B8115
:10517000AA81B981CE0FD11D0FB6F894DEBF0FBE44
:10518000CDBFED010895AA1BBB1B51E107C0AA1FAB
:10519000BB1FA617B70710F0A61BB70B881F991FD8
:1051A0005A95A9F780959095BC01CD010895FB0112
:1051B000DC0104C08D910190801921F441505040D0
:1051C000C8F7881B990B0895FB01DC0102C0019010
:1051D0000D9241505040D8F70895F999FECF92BDF5
:1051E00081BDF89A992780B50895A8E1B0E042E022
:1051F00050E00C943129DC01A40FB51F4150504000
:1052000048F0CB01840F951F2E910E940C2941502C
:105210005040D0F70895262FF999FECF92BD81BD59
:10522000F89A019700B4021639F01FBA20BD0FB6E4
:10523000F894FA9AF99A0FBE08950396272F0E94C0
:105240000C290E940B29252F0E940C29242F0C9435
:105250000C290196272F0E940C290C940B29DC01A4
:10526000CB01FC01F999FECF06C0F2BDE1BDF89A71
:10527000319600B40D9241505040B8F70895F8941B
:10528000FFCFC604C604160516057B059705F50471
:10529000F5049C05030612061206941608179C16C0
:1052A00066166A16A0166E16A416B0167A160117A0
:1052B0007E16B4168216B816E0168616BC16E716C9
:1052C0008C16C216CA167216A8167616AC1690164A
:1052D000C616D616F016FF16601698160F17F21A95
:1052E000F81AE11AEC1AFE1A041B0A1BF71B031C1E
:1052F000391C4B1C561C611C641C641C641C091C5E
:10530000091C691C6D1C751C821C8F1C921C951C31
:10531000A21C1A2742272B2842272B2875279627BD
:065320002B28ED27F92700
:105326004D026D02010000000100000000000000B7
:1053360004010000000405000000000000280850D9
:10534600011E0A14010302013D21792172216B21FC
:10535600642101E200E900EA00B500B600B700CD1D
:10536600008301CC008A01920194012102230224C8
:10537600022502260227022A02B300B4006F00703B
:10538600009F01CB019F02A002818283E200E90017
:10539600EA00B500B600B700CD008301CC008A0153
:1053A60092019401210223022402250226022702E9
:1053B6002A02B300B4006F0070009F01CB019F0268
:1053C600A00281828333946697C634359190323633
:1053D60093024422B613043B035D03E002F902196B
:0253E6000300C2
:00000001FF
