:100000000C9466020C94AD020C94AD020C94B522D3
:100010000C94AD020C94AD020C94AD020C94AD02A4
:100020000C94AD020C94AD020C94522A0C94242B27
:100030000C9482250C94AD020C94AD020C94AD028C
:100040000C94AD020C94AD020C94AD020C94AD0274
:100050000C94AD020C94F7250C94AD020C94AD02F7
:100060000C94AD020C94AD020C94AD020C94AD0254
:100070000C94AD020C94AD020C94AD020C94AD0244
:100080000C94AD020C94AD020C94AD020C94AD0234
:100090000C94AD020C94AD020C94AD020C94AD0224
:1000A0000C94AD020C94AD020C94AD024A054A05C5
:1000B0007C057C05C905E705FB06FB06F2058B06FA
:1000C0009C069C069B079B07AD07AD07A407AD07E1
:1000D000AD07AD079B079B07A907AD07AD07A907AC
:1000E000912BB82BB02CB82BB02C042C272CB02C77
:1000F0007E2C8D2C07634236B79BD8A71A396856D9
:1001000018AEBAAB558C1D3CB7CC5763BD6DEDFD39
:10011000753EF6177231BF000000803F05A84CCD38
:10012000B2D44EB93836A9020C50B9918688083C31
:10013000A6AAAA2ABE000000803F000017001500F2
:1001400008001A001400290000000A000900070036
:10015000160004002B0000000500190006001B001B
:100160001D00E1002C412C002C004900E300E200BE
:10017000E00000001C0018000C00120013002A0010
:1001800000000B000D000E000F002D0028000000E5
:100190001100100036003700520038002C422C00AD
:1001A0002C00E400500051004F000000220021000C
:1001B00020001F001E002B0000002202210220024E
:1001C0001F021E02E00000006700540055005600A8
:1001D0005700E1002C412C002C004900E300E20014
:1001E000E0000000230024002500260027002A004C
:1001F0000000230224022502260227022800000014
:10020000350089002F1230122D12E5002C422C00EF
:100210002C00E400500051004F0000003E003D0063
:100220003C003B003A002B00000034003312330046
:1002300031001F02E0000000C85CC75CC65CC45C03
:10024000C35CE1002C412C002C004900E300E200DB
:10025000E00000003F0040004100420043004C002D
:1002600000005000510052004F002E0028000000F6
:10027000C95CCA5C2F0030003100E5002C422C0024
:100280002C00E400500051004F0000047F3F1F6429
:100290003214643214783C1E1E140A05FFAA7F55DE
:1002A00040000101010101010101010202020202FB
:1002B000020202020303030303030303040404040E
:1002C00004040405050505050606060606070707D6
:1002D000070708080808090909090A0A0A0B0B0B8D
:1002E0000C0C0C0D0D0D0E0E0E0F0F0F101011112A
:1002F00011121213131414151516161717181819AE
:10030000191A1A1B1B1C1D1D1E1E1F202021222214
:10031000232424252626272829292A2B2C2D2D2E57
:100320002F30313232333435363738393A3B3C3D71
:100330003E3F404142434445464748494A4C4D4E62
:100340004F50515354555658595A5B5D5E5F616228
:1003500064656668696B6C6D6F7072737577787AB7
:100360007B7D7E8082838587888A8C8E8F91939512
:1003700096989A9C9EA0A2A3A5A7A9ABADAFB1B336
:10038000B5B7BABCBEC0C2C4C6C9CBCDCFD1D4D616
:10039000D8DBDDDFE2E4E7E9EBEEF0F3F5F8FAFDB8
:1003A000FF100363006F006F006C003600350030F3
:1003B0000000000A036D002E006B006900000004BD
:1003C00003090409023B00020100A0FA090400002D
:1003D000010301010009211101000122400007056C
:1003E000810308000A09040100010300000009213B
:1003F00011010001227B000705820320000A12017F
:10040000000200000008434D5006010001020001F7
:1004100005010902A10185020901A10005091901CF
:10042000290815002501950875018102050109308B
:1004300009311581257F95027508810609381581D6
:10044000257F950175088106050C0A38021581255E
:100450007F950175088106C0C005010980A101854D
:100460000319012AB700150126B7009501751081FF
:1004700000C0050C0901A101850419012AA002157B
:100480000126A002950175108100C005010906A191
:1004900001050719E029E715002501950875018177
:1004A000029501750881010507190029FF1500262D
:1004B000FF009506750881000508190129059505B5
:1004C00075019102950175039101C00011241FBEB1
:1004D000CFEFDAE0DEBFCDBF04B603FE27C08091C8
:1004E0001E0390911F03A0912003B0912103873038
:1004F000904BA740B04BD1F410921E0310921F03F3
:10050000109220031092210314BE84B7877F84BF0A
:100510000FB6F894A8958091600088618093600080
:10052000109260000FBEE0E0F8E3099511E0A0E052
:10053000B1E0EAE5F2E602C005900D92A63EB107F1
:10054000D9F723E0A6EEB1E001C01D92AE31B207AB
:10055000E1F70E94BB150C942B310C94000081E054
:10056000089581E008950C94B10208950C94B502A9
:100570001F93CF93DF9300D000D01F92CDB7DEB78B
:1005800049835A836B833091E80189819A813111C3
:1005900014C0662359F0222349F00E943F09182F06
:1005A000682F89819A810E94E80803C00E9413097C
:1005B000182F69817A81812F04C00E943F096981C7
:1005C0007A810F900F900F900F900F90DF91CF9145
:1005D0001F910C944C10FC01262F408151816281A7
:1005E000738184810C94B80281E00895CF93DF93E6
:1005F000EC0160E00E94EB02BE01DF91CF910C9410
:10060000B6020E9455110E9479030C948F110C942C
:100610008B1108950E9489070E9409032FEF84E33C
:100620009CE0215080409040E1F700C000000C9415
:100630001D260F931F93CF93DF938C0161E00E94DF
:10064000EB02EC01B8010E94B302882309F444C014
:10065000B801CE010E945D208823F1F1B801CE01DE
:100660000E94AF208823C1F1B801CE010E94E12190
:10067000882391F1B801CE010E94D81E882361F130
:10068000F8018281882309F1CB358DE5D807C1F0C7
:1006900050F4C115FCE5DF0781F0CF3DDC45A9F43E
:1006A0000E94500E19C0CC35EDE5DE0761F0CD3566
:1006B000DD4559F40E94E10C08C00E940A030CC0F9
:1006C0000E94EA0C02C00E94ED0CC801DF91CF919C
:1006D0001F910F910C94AF0280E0DF91CF911F9199
:1006E0000F91089508950C94720381E008950C947D
:1006F00075030895CF93C82F0E9473038C2F0E9417
:100700007703CF910895CF93DF93CDB7DEB72B97C3
:100710000FB6F894DEBF0FBECDBF4F8358876987F1
:100720007A878B8761110E94100D9E012F5F3F4FCA
:1007300086E0F90111928A95E9F785E0FE01379686
:10074000D90101900D928A95E1F789819A814C81B6
:100750005D81452B31F09F3F31F491E08F3F19F4DB
:1007600003C091E001C090E090FF09C049815A8127
:100770006B817C818D819E810E94100C05C0C90116
:100780000E94F4028111F2CF2B960FB6F894DEBFCF
:100790000FBECDBFDF91CF910895FC018081918183
:1007A0000E9481090895CF93882309F4A4C0C82F1B
:1007B0008238C1F40E94392481FD9DC069E3809193
:1007C0000001909101010E94D3240E94350D2FEF6A
:1007D00081EE94E0215080409040E1F700C000009D
:1007E00069E319C0833801F50E94392480FD83C074
:1007F00063E580910001909101010E94D3240E9441
:10080000350D2FEF81EE94E0215080409040E1F7CC
:1008100000C0000063E580910001909101010E94F9
:10082000D524CF910C94350D8438C1F40E9439241D
:1008300082FD61C067E480910001909101010E94F6
:10084000D3240E94350D2FEF81EE94E0215080409B
:100850009040E1F700C0000067E4DDCF8CEF8C0F23
:10086000813AD0F46C2F80910001909101010E9497
:100870009D24882349F06C2F809100019091010103
:100880000E94D5240E94350D6C2F8091000190911B
:1008900001010E94D324C5CF80E28C0F883048F438
:1008A000C77081E001C0880FCA95EAF70E94F30C77
:1008B000B8CFEBE5EC0FE33040F4F0E0E557FE4F46
:1008C000808190E0CF910C946524E8E5EC0FE7314E
:1008D00050F4F0E0EE0FFF1FE35AFE4F808191814C
:1008E000CF910C947B24CD3E30F08C2F0E94481683
:1008F000CF910C941A17CF910895882309F464C0FE
:10090000823879F40E94392481FF5EC069E38091C6
:100910000001909101010E94D3240E94350D69E3EA
:1009200010C08338B1F40E94392480FF4DC063E5C4
:1009300080910001909101010E94D3240E94350D05
:1009400063E580910001909101010E94D5240C94EF
:10095000350D843879F40E94392482FF35C067E46C
:1009600080910001909101010E94D3240E94350DD5
:1009700067E4E7CF9CEF980F913A10F4682FE1CF2E
:1009800090E2980F983050F4877091E001C0990F71
:100990008A95EAF7892F0E94F90CD9CF9BE5980F29
:1009A000933020F480E090E00C94652498E5980F53
:1009B000973120F480E090E00C947B248D3E20F071
:1009C0000E94A3160C941A1708951F93CF93DF93D8
:1009D000182FEB010E94D303209741F08FE99FE08D
:1009E0000197F1F700C000002197F6CF812FDF912A
:1009F000CF911F910C947D04893319F060E070E071
:100A000002C060E570E00C94E504882321F00E94A8
:100A1000F30C0C94350D0895882321F00E94F90CF5
:100A20000C94350D0895CF92DF92EF92FF920F93C1
:100A30001F93CF93DF937C01D62FC72FFC01128128
:100A4000058102950F700E94C80C882399F011232C
:100A500089F08C2F807F803421F080E28D0F8830E8
:100A600048F082E00E94850D0E94C80C91E0D82ECB
:100A7000D92601C0D12CCC2EC2948FE0C8228C2D57
:100A800090E08C30910508F0B6C1FC01EA5AFF4FA6
:100A90000C9489308C2F807FCF70882311F0C29501
:100AA000C07F112399F0CC2309F491C180E28D0F0E
:100AB000883010F0D11104C08C2F0E94F30C03C0B9
:100AC0008C2F0E94030D0E94350D81C18D2F0E9435
:100AD0007D04CC2309F48FC180E28D0F883010F0A3
:100AE000D11104C08C2F0E94F90C03C08C2F0E94DE
:100AF000090D0E94350D7FC18C2F807FCF70803211
:100B000011F0C295C07FDD2319F0D130C9F022C0A9
:100B1000112371F0002341F0013031F40E94160DD1
:100B20008C2B0E941E0D67C10E94160D8C2B1DC0C0
:100B3000002319F0013009F45EC10E942B0D25C07D
:100B4000112321F0063008F056C10EC0053008F020
:100B500052C11BC0112361F0002331F0F7018581E0
:100B600080FF35C18F7085838C2F0E94050543C19E
:100B7000002359F0D93309F03BC1FFEF07EE13E032
:100B8000F15000401040E1F731C18C2F0E940C055C
:100B900032C18C2F86958695837019F0813061F073
:100BA0002AC1112321F08D2F9C2F937002C080E069
:100BB00090E00E94652427C1112321F08D2F9C2FE6
:100BC000937002C080E090E00E947B241CC18D2FB6
:100BD000112319F00E94481602C00E94A3160E9419
:100BE0001A1711C18C2F837009F047C0111107C16A
:100BF0002D2F229526952770220F220F6D2F6F70B3
:100C0000862F90E0A0E0B0E0022E04C0880F991F6C
:100C1000AA1FBB1F0A94D2F7D4FF10C04FE050E0C8
:100C200060E070E004C0440F551F661F771F2A95CF
:100C3000D2F7409550956095709503C040E050E024
:100C4000BA01C695C695C3708A019B01082B192B62
:100C50002A2B3B2BC901B801C23049F058F4C130EE
:100C600019F00E94FE07CBC00E94EC07C8C00E948A
:100C70001008C5C00E94EA07C2C0112319F08C2FCA
:100C8000817001C08695882309F4B9C02D2F229563
:100C900026952770220F220F6D2F6F70862F90E000
:100CA000A0E0B0E0022E04C0880F991FAA1FBB1F4E
:100CB0000A94D2F7D4FF10C04FE050E060E070E03B
:100CC00004C0440F551F661F771F2A95D2F7409521
:100CD00050956095709503C040E050E0BA01C6950C
:100CE000C695C3708A019B01082B192B2A2B3B2B1D
:100CF000C901B801C23049F058F4C13019F00E945E
:100D0000C3087DC00E94B1087AC00E94D50877C090
:100D10000E94240874C0CF70112339F08C2F0E94D8
:100D20004A088D2F0E9405056AC08D2F0E940C0570
:100D30008C2F0E946B0863C0D23F01F128F4D03F92
:100D400041F0D13FA1F03FC0D33FF9F0D43F39F19A
:100D50003AC0112341F0053008F04DC08C2F8F713F
:100D60000E94900848C0063008F045C0F7CF112314
:100D700039F08C2F8F710E944A083DC01123C9F3AE
:100D80008C2F8F710E946B0836C0112329F08C2F95
:100D90008F710E9435082FC00E9430082CC011238B
:100DA00049F0CF718C2F0E944A0863E08C2F0E947B
:100DB0006A0D21C081E00E94850D0230E0F082E0E2
:100DC0000E94850D18C0112331F0002391F28D2F60
:100DD0000E94D30310C0002399F2D93349F41FEFC6
:100DE00027EE33E0115020403040E1F700C0000012
:100DF0008D2F0E947D0488EF8C0D843020F40E949A
:100E000039240E947A03DD20C9F00E94C40C80FDC1
:100E100015C0F70112820E94BE0C0E944A08C70149
:100E20000E943F070E94BE0CDF91CF911F910F914E
:100E3000FF90EF90DF90CF900C946B08DF91CF91F3
:100E40001F910F91FF90EF90DF90CF9008950F9337
:100E50001F93CF93DF93EC01688179818A810E948F
:100E60008C098C010E94E7080E94D807B801CE01C6
:100E70000E941305DF91CF911F910F910895CF9399
:100E8000DF93EC01988189812B813C81232B31F008
:100E90008F3F31F481E09F3F19F403C081E001C02E
:100EA00080E080FD19C0CE010E94190381110CC0A1
:100EB0000E94C80C882381F08A81882369F082E02F
:100EC000DF91CF910C94850DCE010E942707CE01B2
:100ED000DF91CF910C94F602DF91CF91089580E0DD
:100EE00090E00E94652480E090E00E947B240E94B4
:100EF000100D0E94130D0E94350D0E944B180C948A
:100F00001A1780910001909101010E94D7240C943E
:100F10006F070E94000D0C948107E92FE295EF7096
:100F20004E2F50E0FA013297EE30F105B0F4EE5951
:100F3000FF4F0C948930803F91F018F4883E68F49C
:100F40000EC0843F51F40BC0883E48F0813F29F425
:100F500006C093FB882780F9089580E0089581E01A
:100F60000895FC01808191810E9481090E948D0772
:100F70000895CF93DF9300D000D01F92CDB7DEB796
:100F80000F900F900F900F900F90DF91CF910895D9
:100F9000CF93DF9300D000D000D0CDB7DEB7269638
:100FA0000FB6F894DEBF0FBECDBFDF91CF9108958D
:100FB000089508950C94D9070C94DA070E94DC0771
:100FC00060931002709311028093120290931302A7
:100FD0000C946F070C94DE070F931F93009110027F
:100FE000109111022091120230911302602B712B8B
:100FF000822B932B1F910F910C94DE070F931F935D
:1010000000911002109111022091120230911302EE
:1010100060237123822393231F910F910C94DE0789
:101020000F931F9300911002109111022091120250
:101030003091130260277127822793271F910F9108
:101040000C94DE070C94D9070E94220860930C02CE
:1010500070930D0280930E0290930F020C946F0711
:1010600060E070E0CB010C9424080F931F9341E0E3
:1010700050E060E070E08A019B0104C0000F111F86
:10108000221F331F8A95D2F7C901B8011F910F9112
:101090000C9424080F931F9341E050E060E070E04F
:1010A00004C0440F551F661F771F8A95D2F78091A1
:1010B0000C0290910D02A0910E02B0910F028A01D4
:1010C0009B01082B192B2A2B3B2BC901B8011F911F
:1010D0000F910C9424080F931F9341E050E060E0BF
:1010E00070E004C0440F551F661F771F8A95D2F722
:1010F000409550956095709580910C0290910D02ED
:10110000A0910E02B0910F028A019B0108231923BE
:101110002A233B23C901B8011F910F910C94240885
:101120000F931F9341E050E060E070E004C0440F73
:10113000551F661F771F8A95D2F780910C029091F8
:101140000D02A0910E02B0910F028A019B010827A7
:1011500019272A273B27C901B8011F910F910C9429
:1011600024080F931F9300910C0210910D022091FF
:101170000E0230910F02602B712B822B932B1F914B
:101180000F910C9424080F931F9300910C0210915F
:101190000D0220910E0230910F02602371238223F1
:1011A00093231F910F910C9424080F931F93009188
:1011B0000C0210910D0220910E0230910F02602757
:1011C0007127822793271F910F910C94240808956B
:1011D00027E0929F800D1124E82FE695E695E6958D
:1011E000877051E001C0550F8A95EAF785E0E89FC6
:1011F000F0011124E751FE4F20E030E070E0408123
:10120000CB01022E02C0969587950A94E2F7817071
:10121000819584278523842781932F5F3F4F253035
:10122000310569F7089527E0929F800D1124682FFA
:10123000669566956695982F977085E0689FB001D2
:10124000112440E050E080E0FB01E40FF51FE7517E
:10125000FE4F208130E0092E02C0369527950A9472
:10126000E2F721703327042E01C0220F0A94EAF717
:10127000822B4F5F5F4F4530510531F70895BF9284
:10128000CF92DF92EF92FF920F931F93CF93DF9352
:101290008C01C0900C02D0900D02E0900E02F090F4
:1012A0000F028091100290911102A0911202B09150
:1012B0001302C82AD92AEA2AFB2ACFE1D0E0D701B3
:1012C000C6010C2E04C0B695A795979587950A94EC
:1012D000D2F780FD04C0219790F7B12C07C0BC2E37
:1012E000B8018C2F0E945F100197A9F38B2DDF911D
:1012F000CF911F910F91FF90EF90DF90CF90BF9013
:101300000895CF93DF93EC010E943F09BE010E9434
:101310005F10DF91CF9108951F93CF93DF93EB017F
:101320009091E801992321F0CB010E94810913C01B
:10133000882349F0CB010E943F09182F682FCE0166
:101340000E94E80804C0CB010E941309182FBE01B7
:10135000812F0E945F10DF91CF911F9108951F93FD
:10136000CF93DF93C091140216E080911502C81745
:1013700099F0D0E01C9FF0011D9FF00D1124EA5E52
:10138000FD4F4081518162817381848195810E94EA
:10139000C8072196C770E9CFDF91CF911F910895BB
:1013A0004091460250914702609148027091490273
:1013B00080914A0290914B020C94C8070F931F939F
:1013C000CF93DF9380914B0282958F7009F05DC0BF
:1013D00080914802882309F458C08091140210912A
:1013E00015026091460270914702C0914902D09166
:1013F0004A0291E06F3F09F090E0292F06E0811743
:1014000009F443C0209721F07F3F21F030E003C072
:1014100031E001C0322F90E030FD34C0089FF00170
:10142000099FF00D1124DF01AA5EBD4F11963C917A
:101430001197371327C03C91361324C012963C9164
:10144000129731111FC013964D915C9114974C1B4C
:101450005D0B483C5105B0F480914B028F70806168
:1014600080934B02E55EFD4F80818F7080618083A9
:1014700086E492E00E943F07DF91CF911F910F9188
:101480000C94AF0901968770BACFDF91CF911F916D
:101490000F9108959F92AF92BF92CF92DF92EF92F9
:1014A000FF920F931F93CF93DF93CDB7DEB7619772
:1014B0000FB6F894DEBF0FBECDBF8C0185E0F801FA
:1014C000DE011D9601900D928A95E1F7F801E28008
:1014D00090914602609147022091490230914A0260
:1014E0002115310531F06F3F31F481E09F3F19F450
:1014F00003C081E001C080E0F82FF1709F2E80FDD5
:101500003FC1F80140815181A380B48086E4C82E98
:1015100082E0D82EF0904802F501E21BF30BFF2089
:1015200009F4D9C080914B02E83CF10508F095C060
:10153000282F207F09F052C0561313C0491311C041
:10154000FE2CE1100EC08F70806180934B020E94D0
:10155000D009C6010E943F0780914B02F8018583A4
:101560004CC1AB2831F05F3F31F481E04F3F19F4BB
:1015700003C081E001C080E080FD03C081E08E25D2
:1015800002C080E090E0F82FF170FF2E80FF1CC0B9
:10159000809114022091150236E0821709F40BC1E4
:1015A00090E0389FF001399FF00D1124EA5EFD4F65
:1015B0006181561306C06081461303C06281E61242
:1015C00003C001968770E9CFFE2CEE2009F415C107
:1015D00080914B02816080934B0254C0561306C029
:1015E000491304C0E11002C0F80199C0C8010E946B
:1015F000B107882361F1EE2051F120914B02822F37
:1016000082958F7090E0029774F0809146029091DD
:10161000470298878F831986BB86AA862C87CE01BE
:1016200007960E943F0786E0F801A6E4B2E0019029
:101630000D928A95E1F70E94DE090E94D0090AC046
:10164000561711F1C8010E94B10781112CC0C801C1
:101650000E943F07FF24F394D0C0282F207F81F7FA
:101660007A2DB98AA88A6E2D89890E94B90786E4E5
:1016700092E00E943F0786E0F60111928A95E9F711
:101680000E94D009F12CB9C04913DCCFE110DACFA8
:10169000F8018583C8010E943F0786E0F601119298
:1016A0008A95E9F7AAC0EE2091F220914B02822F91
:1016B00082958F7090E002970CF4B5CF809146022E
:1016C000909147029A8389831B82BD82AC822E83CC
:1016D000CE010196A6CFE83CF10508F044C0FE2CEF
:1016E000EE2009F4B4CF561330C049132EC0209118
:1016F0004B0220FD21C0822F82958F70482F50E031
:1017000041155105C9F0F80125834F30510541F0CD
:101710008F5F982F9295907F822F8F70892B858372
:10172000C8010E943F0786E0F801A6E4B2E00190FC
:101730000D928A95E1F73CC086E0F801A6E4B2E09C
:1017400001900D928A95E1F758C0C8010E94B10737
:10175000811169CF80914B02816080934B02C80157
:101760000E943F074AC07A2DB98AA88A6E2D8989BE
:101770000E94B90786E0F60111928A95E9F718C030
:10178000EE2009F464CFC8010E94B107F82E882327
:1017900009F45DCF86E0F801A6E4B2E001900D9275
:1017A0008A95E1F786E492E00E94CD030E94DE096B
:1017B0000E94D00922C04D875E878D859E850E943C
:1017C0008109292F22952F70223028F49F7039F03B
:1017D000811105C00BC0243028F49F7049F4805E4D
:1017E000883020F0C8010E943F079F2CF92C05C0CB
:1017F000F8019581907F99F7F9CF8F2D61960FB6FB
:10180000F894DEBF0FBECDBFDF91CF911F910F9136
:10181000FF90EF90DF90CF90BF90AF909F90089592
:101820001F93CF93DF93CDB7DEB72C970FB6F89405
:10183000DEBF0FBECDBF4F83588769877A878B87FE
:101840009C87CE0107960E944A0A8823D1F09F8187
:1018500088852A853B85232B31F08F3F31F481E049
:101860009F3F19F403C081E001C080E080FD47C0C4
:101870004F81588569857A858B859C850E94C8072C
:101880003EC086E0FE013796DE01119601900D9272
:101890008A95E1F7FF81E8856A857B856115710589
:1018A00031F0EF3F31F481E0FF3F19F403C081E0F4
:1018B00001C080E080FD23C02091150230E0C90105
:1018C0000196877099274091140250E0841795077C
:1018D000F1F1F983EA837D836C8396E0929FD001D6
:1018E000939FB00D1124AA5EBD4FFE013196019069
:1018F0000D929A95E1F7809315020E94AF0916E0C8
:101900008091140290911502891771F1189FC001FE
:1019100011248A5E9D4F0E944A0A882329F1E09192
:1019200014021E9FF0011124EA5EFD4F4081518197
:1019300062817381848195810E94C807809114021D
:1019400090E001968770992780931402D9CF0E9466
:1019500089071092150210921402E6E4F2E086E084
:10196000DF011D928A95E9F72C960FB6F894DEBF39
:101970000FBECDBFDF91CF911F91089580914C0292
:10198000859585958595089580914C028770089579
:1019900090914C02977081E009F480E00895909155
:1019A000C00292FB222720F9281751F080FB92F900
:1019B0009093C0028091BF029091C0020C94CC0D14
:1019C00008958091C00282FB882780F991E08927E1
:1019D0000C94CF0C81E00C94CF0C80E00C94CF0CD5
:1019E00080915802089590915802892B8093580253
:1019F0000895809590915802892380935802089504
:101A000010925802089590915702892B80935702A3
:101A100008958095909157028923809357020895E5
:101A200010925702089510925602089580914D0227
:101A3000089508950C94190D0C941A0D9091C002FC
:101A400092FD08C090914D02981721F080934D02AD
:101A50000C941C0D089580914D02882329F010925A
:101A60004D0280E00C941C0D0895E0910001F0916E
:101A70000101809158028083E0910001F091010101
:101A8000908180915702892B8083E0910001F09131
:101A90000101908180915602892B808380914D02B3
:101AA000882381F0E0910001F09101019081892B60
:101AB000808380910001909101010E949124811105
:101AC0000E942B0D80910001909101010C944C24F7
:101AD0000C94190D9091C00292FD10C098E0899F5E
:101AE00090011124262B20934C020E944A088091D9
:101AF0004C028595859585950C94680D0C944A0843
:101B000010924C0280E00C94680D20914C0280955C
:101B1000822380934C02982F977041F430E0482F35
:101B2000082E000C550B2417350721F49091C002A4
:101B300092FF07C08595859585950E946B080C944A
:101B4000800D08956FEF7FEF80E090E00C941531E9
:101B500080E090E00E94F13021E0893E9E4F09F044
:101B600020E0822F089582E090E00C94E33083E03F
:101B700090E00C94E330CF9384E090E00E94E33057
:101B8000C82F82E290E00E94E3302C2F30E0A901C0
:101B9000582BCA01CF910895CF93C92F682F84E0A5
:101BA00090E00E94F7306C2F82E290E0CF910C948D
:101BB000F730AB01BC018FE090E00C940931AB0130
:101BC000BC0183E190E00C94093160E070E0CB014E
:101BD0000C94DF0D60E070E0CB010E94D90D0C94F5
:101BE000E50D69EE7EEF80E090E00E94153160E047
:101BF00082E090E00E94F73060E083E090E00E9495
:101C0000F7301092100210921102109212021092EC
:101C1000130260E084E090E00E94F73060E082E22E
:101C200090E00E94F73060E085E090E00E94F7309D
:101C300060E086E090E00E94F7306FEF87E090E090
:101C40000E94F73040E050E0BA0188E090E00E9446
:101C5000093160E08DE090E00E94F73040E050E014
:101C6000BA0188E190E00E94093160E087E190E0EC
:101C70000E94F73040E050E0BA018CE190E00E9411
:101C8000093160E070E080E290E00E94153140E0B0
:101C900050E0BA0188E190E00E9409310C94EA0D0D
:101CA0000C94F10D682F8EE090E00C94F7300E94B8
:101CB000C0256093660270936702809368029093D8
:101CC000690260936202709363028093640290934E
:101CD0006502089585B7806885BF85B7806885BF30
:101CE00008950C94821308950C94730E0C94730E43
:101CF0000C94760E0C94730E0C947A0E0C94730E56
:101D00000E946A0E8BE391E10E942E260E947E0EB5
:101D10000C947C0E0E94740E0C94730E0E94AB25E2
:101D20000E94DE240E943F120E94D21F0E94E61DE4
:101D30000C94780E9F92AF92BF92CF92DF92EF9267
:101D4000FF920F931F93CF93DF93CDB7DEB72A9700
:101D50000FB6F894DEBF0FBECDBF0E94F7128111FF
:101D60000E94570E8AE5A82E82E0B82E00E010E00F
:101D7000902E802F0E947911D82EF501C1905F011D
:101D8000C826B1F40F5F1F4F0830110589F78FEF98
:101D900089838A831B820E94B4258160782F9D836A
:101DA0008C8349815A816B818D810E9483032FC06E
:101DB00080916A0281FD0E947F11E12CFF24F3943F
:101DC0008C2D8F21F1F00E94710E882399F0EE8204
:101DD0009F82DF2081E009F480E088870E94B4259B
:101DE0008160782F9A8789874E815F8168858A858F
:101DF0000E948303F801E65AFD4F8081F826F082A5
:101E000006C0E394FF0CF7E0EF12DACFBBCF0E94DD
:101E10002A1E0E9438170E9439249091590289176E
:101E2000B9F00E943924809359022A960FB6F8948B
:101E3000DEBF0FBECDBFDF91CF911F910F91FF90FD
:101E4000EF90DF90CF90BF90AF909F900C947A036B
:101E50002A960FB6F894DEBF0FBECDBFDF91CF91AB
:101E60001F910F91FF90EF90DF90CF90BF90AF90B8
:101E70009F900895CF93DF930E946410EC01811529
:101E800021E5920708F045C0811530E5930708F079
:101E900094C0883E910528F5803E910508F0F8C071
:101EA000883A910570F4853A910508F07CC081303C
:101EB000910509F475C008F4E8C0049708F0E8C07B
:101EC000E4C08F3B910508F0E0C0C85AD0E0CC0FC9
:101ED000DD1FC257DE4F0990D881C02DCE0194641A
:101EE000D8C0811540E2940758F4811551E0950758
:101EF00008F0CEC08D3E910508F4C7C09065C9C0FA
:101F0000C11580E4D80708F4C0C0DF70CE01906A24
:101F1000C0C0811525E59207A8F4811534E5930723
:101F200008F095C0811543E5940708F07BC0811542
:101F300052E5950708F061C0D82FCC27CE01816FFC
:101F4000906AA7C0C11589E5D807A0F4C11528E596
:101F5000D20708F082C0C11536E5D30708F095C056
:101F60008C2F0E94F8108F7190E0D82FCC27CE01D3
:101F700090628FC0C1154AE5D40708F474C0CE0141
:101F800090568115904208F080C08D2F8F710E946D
:101F9000F810DD27D0628F71AE01582BCA0179C0CD
:101FA00081E090E076C0C55AD0E0C454DE4F88810D
:101FB000C82FD0E0CE0190646CC074E096958795F0
:101FC0007A95E1F7282F23703C2F337081E090E061
:101FD00002C0880F991F3A95E2F79C68AC01522B1A
:101FE0009A019C2F9F709695969550E2959FE001DF
:101FF0001124C9018C2B9D2B4CC08370992721E0A3
:1020000030E002C0220F331F8A95E2F79C2F96958D
:10201000969580E2989FE0011124C22BD32BCE012C
:102020009C6837C08370992721E030E002C0220FFE
:10203000331F8A95E2F79C2F9695969540E2949FE0
:10204000E0011124C22BD32BCE019A6822C0D82FD5
:10205000CC27CE01846F906A1CC0DC2FCC27CE0128
:10206000806F906A16C08C2F8F700E94F81094E0D9
:10207000D695C7959A95E1F7CF70D0E0DC2FCC27A5
:10208000D0699E01282BC90104C080E090E001C006
:10209000CE01DF91CF91089528E3829FC0011124E2
:1020A000FC0127E0729FE00DF11D1124E60FF11DE8
:1020B000EE0FFF1FE65CFE4F8591949108950E94FC
:1020C0004C100E943A0F08958238910569F1B0F4DE
:1020D0008133910509F46DC048F48932910509F402
:1020E00063C08A32910509F469C00895853391056A
:1020F00009F455C089339105B9F00895833E9105DF
:1021000069F138F4803E9105B1F0823E910509F104
:102110000895863E9105A9F1873E9105B9F1843E67
:10212000910509F064C023C02091BF0220FD4FC07B
:1021300021FD4DC008958091BF0280FD44C0809173
:10214000C00280FF44C08091BF0284FD42C083EE84
:102150004DC08091BF0282FF38C0F5CF8091BF0291
:1021600082FD33C08091C00280FD31C0ECCF8091F0
:10217000C00281FF32C08091BF0284FD2AC087EE79
:1021800035C08091BF0283FF26C0F5CF8091BF028A
:1021900083FD21C08091C00281FD1FC0ECCF8091E2
:1021A000BF0285FD1CC01DC08091BF0285FD19C006
:1021B00016C08091BF0286FD16C017C08091BF0275
:1021C00086FD13C010C089E311C082EE0FC080EEFF
:1021D0000DC080E00BC086EE09C084EE07C089E226
:1021E00005C085E303C08AE201C081E390E0089561
:1021F0009091BF0292FF0DC0282F2871283019F44A
:10220000877F846006C0282F2471243011F48B7FCF
:10221000886093FF0DC0282F2871283119F4877E1C
:10222000846106C0282F2471243111F48B7E8861CB
:102230002091C00220FF0DC0382F3871383019F4BA
:10224000877F816006C0382F3171313011F48E7F65
:10225000886021FF0DC0282F2871283119F4877E4E
:10226000816106C0282F2171213111F48E7E886191
:1022700094FD877E089580E008950C94A20D0E943D
:10228000F7128FE39CE90197F1F700C000000E946C
:10229000F71280E00E94791180FF04C00E943D1176
:1022A0000C941D2608950C943F110E94A80D8111D5
:1022B00002C00E94500E0E94B30D80936A020E94D9
:1022C000BB0D9093C0028093BF020E9453110E94E5
:1022D000B70D682F70E080E090E00E94EA076091FF
:1022E0000C0270910D0280910E0290910F020C94DD
:1022F0002208E82FF0E0E753FD4F8081089508950C
:1023000080EA8A95F1F7089500C008950C94801131
:1023100008950C9488110C9489110C9488110C94D4
:102320008D11F894E82FE295EF70F0E031A1282F9D
:102330002F7081E090E001C0880F2A95EAF7982F6E
:102340009095932391A392A1892B82A378940895C9
:1023500008950C94A8110F931F93CF93DF93C2E0BD
:10236000D1E089918F3F11F00E94911181E0C93035
:10237000D807B9F7C9E0D1E00DE011E089918F3FAE
:1023800011F00E9491110C171D07C1F7DF91CF9139
:102390001F910F910895DF92EF92FF920F931F9379
:1023A000CF93DF93062F10E00E5F1E4FE8012881C8
:1023B0002F3F09F45CC0F62EE92ED82EF894E22FB8
:1023C000E295EF70F0E081A12F70C1E0D0E0AE01A6
:1023D00002C0440F551F2A95E2F79A01842B81A36E
:1023E00082A12095282322A378940E9484110F2C87
:1023F00001C0CC0F0A94EAF73C2F6C2F6095A9E03E
:10240000B1E0ED2DFE2DAF014C5F5F4FE12C2D9122
:102410002F3FA9F0822F82958F7090E0EC0188A168
:1024200090E02F7002C0959587952A95E2F780FD80
:1024300006C08081832B8083EE24E39403C08081D7
:10244000862380833196E417F50709F7F801808128
:102450008F3F11F00E9491116E2D8F2DDF91CF9142
:102460001F910F91FF90EF90DF900C948611DF91F8
:10247000CF911F910F91FF90EF90DF900895CF9330
:10248000DF93CDB7DEB72F970FB6F894DEBF0FBE40
:10249000CDBF0E949C138091110181112FC0FE01BC
:1024A000319628E0DF011D922A95E9F721E9298379
:1024B00020E92A8322E32B8326E32C83CF01E9E062
:1024C000F1E09E01275F3F4FDC014D91CD0141932B
:1024D000A217B307C9F727E0E6E5F1E0DE01199698
:1024E00001900D922A95E1F7FC01A2E0B1E0CE0146
:1024F000409621912D93E817F907D9F780911101A2
:10250000811102C094E001C090E09093D20284E077
:10251000891B8093D1020E94AB11E1ECF2E0A9EC9F
:10252000B2E011921D9282E0E93CF807D1F784E015
:102530000E944B130E9401032F960FB6F894DEBF42
:102540000FBECDBFDF91CF910C94A6131F93CF93F5
:10255000DF9300D000D0CDB7DEB70E948213609128
:10256000D202882371F119821A821B821C82862F63
:1025700090E0BE016F5F7F4F87539D4F0E94B41361
:10258000E091D1029E012B5F3F4FF0E0E753FD4FFA
:10259000DE011196882361F010E08D9190819817EB
:1025A00011F0808311E03196A217B307B1F706C08E
:1025B00011921D92A217B307D9F711E00E940703E9
:1025C0000DC070E067537D4F8091D10290E087533A
:1025D0009D4F0E9444140E94A91110E0812F0F907A
:1025E0000F900F900F90DF91CF911F910895EF9270
:1025F000FF920F931F93CF93DF93CDB7DEB728974A
:102600000FB6F894DEBF0FBECDBF8E010F5F1F4F18
:1026100088E0F80111928A95E9F7F12C6F2DC80135
:102620000E94CB11F394F7E0FF12F8CF48E050E09E
:10263000B80181EC92E00E94CD307C0121E0892B31
:1026400009F420E0E114F10441F088E0F801A1EC84
:10265000B2E001900D928A95E1F76091D20270E0AC
:1026600067537D4F44E081EC92E00E944C13EF28C9
:1026700019F40E94A61202C081E090E028960FB6DD
:10268000F894DEBF0FBECDBFDF91CF911F910F91A8
:10269000FF90EF9008950895FF920F931F93CF93AB
:1026A000DF938C01F62ED72FC42F222349F081E02F
:1026B00080936D020E94B42590936C0280936B020C
:1026C00080916D028823C1F080916B0290916C0221
:1026D0000E94CC25059780F0EF2DFD2FD8014C2FBF
:1026E00050E0CD01801B910B841795071CF48D9150
:1026F0008193F7CF10926D02DF91CF911F910F91CF
:10270000FF9008958091700281110DC00E94E92C04
:10271000811102C082E001C081E0809370028230AA
:1027200011F40E94E42C81E090917002913009F044
:1027300080E008950C9482130E949A1380931101F3
:102740000E94821381110C94EC1308950E9482134D
:10275000811102C00C94EE13089581E090917102F2
:102760009A3008F080E008950F931F93CF93DF9382
:10277000EC018B01809171028A3038F4B801CE01EE
:102780000E94421481111DC00AC080916E02909176
:102790006F020E94CC25843F914080F715C0809144
:1027A00071028F3F19F08F5F8093710280917102E7
:1027B0008A3060F00E94B42590936F0280936E027D
:1027C00003C01092710202C080E001C081E0DF917D
:1027D000CF911F910F9108950C946F220C94722247
:1027E000EF92FF920F931F93CF93DF937901C82F3E
:1027F000880FDD0B41155105A9F08AE08C9FF0018F
:102800008D9FF00D1124EE5EFE4F838194818E58D2
:102810009D4F228130E04217530708F49A01A90125
:102820000E94DA30CE010E947C23892B09F5011524
:10283000110501F18AE08C9FF0018D9FF00D1124AC
:10284000EE5EFE4F458150E00417150708F4A8011D
:102850008AE08C9FF0018D9FF00D1124EE5EFE4FFB
:10286000668177816E587D4FC7010E94DA3002C0C1
:1028700080E001C081E0DF91CF911F910F91FF9027
:10288000EF9008950C9465150C9481150F931F9388
:10289000CF93DF9300D000D0CDB7DEB76091870231
:1028A000709188028091890290918A020E94DB25B2
:1028B000643671058105910528F10E940425DC012B
:1028C000CB010296A11DB11D89839A83AB83BC8382
:1028D00000E010E020E030E044E050E0BE016F5F37
:1028E0007F4F82E00E94F013182F882361F00E942E
:1028F000C025609387027093880280938902909329
:102900008A0201C011E0812F0F900F900F900F905D
:10291000DF91CF911F910F910895AF92BF92CF9207
:10292000DF92EF92FF920F931F93CF93DF937C017F
:102930005B016A010E94AD13811103C001E010E048
:1029400002C00AE010E0C1E0D0E0F894B501C70190
:10295000F60109957894811115C021960C171D0771
:1029600094F0CC9F9001CD9F300D300D112480E06C
:1029700090E045E34A95F1F700000196821793072E
:10298000C1F7E3CF81E0DF91CF911F910F91FF90CD
:10299000EF90DF90CF90BF90AF900895AF92BF922D
:1029A000CF92DF92EF92FF920F931F93CF93DF931B
:1029B00000D000D01F92CDB7DEB75B01E090BF0121
:1029C000F090C00101E010E09E012B5F3F4F40E01E
:1029D00050E060E070E080E00E94F013182F882340
:1029E00009F43EC067018FEFC81AD80A60918302CC
:1029F0007091840280918502909186020E94DB256D
:102A0000643671058105910518F104E010E09E011E
:102A10002F5F3F4F40E050E060E070E081E00E94B7
:102A2000F013182F64E070E0C6010E94D31F91E0FC
:102A30002D81281390E0192351F10E94C025609345
:102A4000830270938402809385029093860211C062
:102A500064E070E0C6010E94D31F9D818913D5CF29
:102A6000F70181819281A381B48189839A83AB83A9
:102A7000BC83112361F089819A81AB81BC818093F1
:102A80007F0290938002A0938102B0938202809192
:102A90007F0290918002A0918102B0918202F501A3
:102AA00080839183A283B383812F0F900F900F9027
:102AB0000F900F90DF91CF911F910F91FF90EF90AA
:102AC000DF90CF90BF90AF9008950F931F93CF9357
:102AD000DF93EC018B014EEC54E10E948D148823AE
:102AE00051F046E454E1B801CE01DF91CF911F913E
:102AF0000F910C948D1480E0DF91CF911F910F9175
:102B000008950F931F93CF93DF93F894C091BF0163
:102B1000D091C001CE01019624E0FB01DC010190BF
:102B20000D922A95E1F764E070E00E94D31F88833C
:102B30007894F8946D817E818F81988500917B02D5
:102B400010917C0220917D0230917E026017710706
:102B50008207930751F060937B0270937C0280930D
:102B60007D0290937E020E94E7247894DF91CF91BA
:102B70001F910F9108950E9428250E948F270E947F
:102B8000A8270E94BA270E948A0EFBCF809191024B
:102B900080FF0BC06091350185E0689FB001112472
:102BA00075956795759567952BC081FF09C06091F4
:102BB000350185E0689FB00111247595679520C0A7
:102BC00082FF07C06091350185E0689FB001112444
:102BD00017C0909190029923D1F06091340196171B
:102BE00088F72091350185E0289F90011124929F5C
:102BF000A001939F500D112470E0CA010E94533030
:102C00006038710540F46115710519F406C065E07E
:102C100070E0862F08958FE7089581E008958091F0
:102C2000910280FF08C06091310170E07595679551
:102C30007595679521C081FF06C06091310170E0F4
:102C40007595679519C082FF04C06091310170E0ED
:102C500010C090918F02992399F0609130019617DE
:102C6000A0F780913101899FC001112470E00E947A
:102C700053306038710540F46115710519F406C0D0
:102C800061E070E0862F08958FE7089581E0089550
:102C90008D3E21F40E94C615819504C08E3E29F414
:102CA0000E94C6158093950208958F3E21F40E94DC
:102CB000C615819504C0803F29F40E94C6158093F3
:102CC00094020895893F19F40E940F1605C08A3FA7
:102CD00031F40E940F1681958093960208958B3FE0
:102CE00021F40E940F16819504C08C3F29F40E94A4
:102CF0000F168093970208959FE0980F983078F40C
:102D000021E030E0A90102C0440F551F9A95E2F777
:102D1000CA0190919302892B8093930208958D3F6D
:102D200021F48091910281600BC08E3F21F480914B
:102D30009102826005C08F3F29F4809191028460E6
:102D40008093910208958D3E39F49091950297FFFA
:102D500035C01092950259C08E3E29F4909195028B
:102D60001916BCF32BC0909194028F3E29F497FF63
:102D700025C01092940249C0803F19F41916CCF373
:102D80001DC090919602893F29F41916BCF4109247
:102D900096023BC08A3F19F497FF10C0F8CF8B3FD3
:102DA00039F49091970297FF09C0109297022DC0B5
:102DB0008C3F21F4909197021916BCF39FE0980F75
:102DC000983080F421E030E0A90102C0440F551F83
:102DD0009A95E2F7CA018095909193028923809396
:102DE000930213C08D3F21F4809191028E7F0BC01E
:102DF0008E3F21F4809191028D7F05C08F3F29F491
:102E0000809191028B7F8093910280919402811135
:102E100006C080919502811102C0109290028091AB
:102E20009602811106C080919702811102C0109212
:102E30008F0208950E94B42520919402211104C0AC
:102E400020919502222321F090938E0280938D028F
:102E500020919602211104C020919702222321F093
:102E600090938C0280938B0282E992E00C94572419
:102E7000EF92FF920F931F93CF93DF9300D000D078
:102E800000D0CDB7DEB786E0E2E9F2E0DE011196D0
:102E900001900D928A95E1F7E0909402F0909502EE
:102EA000009196021091970210929402109295024E
:102EB0001092960210929702E11003C0FF2009F4CD
:102EC0005DC080918D0290918E020E94CC25AC0154
:102ED00090919002992339F02091360130E0241727
:102EE000350758F04BC0209137018AE0289F9001A8
:102EF00011242417350718F041C09F3F19F09F5F38
:102F000090939002EE2061F00E94C6151E1414F0FA
:102F10009FEF01C091E0989F902D1124909394020F
:102F2000FF2061F00E94C6151F1414F09FEF01C02E
:102F300091E0989F902D11249093950230919402E6
:102F40003323E1F0209195022223C1F045EB3403B5
:102F5000C0011124992319F09093940203C081E0D9
:102F60008093940235EB2303C0011124992319F0B7
:102F70009093950203C081E080939502011103C0F4
:102F8000112309F45DC080918B0290918C020E9404
:102F9000CC25AC0190918F02992339F02091320118
:102FA00030E02417350758F04BC0209133018AE0F8
:102FB000289F900111242417350718F041C09F3F26
:102FC00019F09F5F90938F02002361F00E940F160B
:102FD000101614F09FEF01C091E0989F902D1124DE
:102FE00090939602112361F00E940F16111614F0AF
:102FF0009FEF01C091E0989F902D1124909397022C
:10300000309196023323E1F0209197022223C1F000
:1030100045EB3403C0011124992319F090939602D3
:1030200003C081E08093960235EB2303C001112495
:10303000992319F09093970203C081E0809397023F
:103040008091940281110BC080919502811107C07B
:1030500080919602811103C08091970281110E9494
:103060001A17EB82FC820D831E8386E0FE013196E7
:10307000A2E9B2E001900D928A95E1F726960FB68B
:10308000F894DEBF0FBECDBFDF91CF911F910F919E
:10309000FF90EF900895E2E9F2E086E0DF011D92F3
:1030A0008A95E9F71092900210928F021092910285
:1030B0000895EF92FF920F931F93CF93DF938B01AD
:1030C000682F11110AC0442329F0E82FF0E0EF55D2
:1030D000FD4F6491762F862F75C0212F30E0E82FA9
:1030E000F0E0442321F0EF55FD4FE491F0E046E09D
:1030F000049FC0011124CFEFD0E0BE010E943F30F9
:103100004BEA4603C001479F900D1124800F911D8B
:10311000800F911D982F990F890FAE01421B530B01
:103120004E9FD0014F9FB00D5E9FB00D11249B2F7D
:10313000189FA0011124452F55278E01041B150B44
:103140000E9FA0010F9F500D1E9F500D11247E0158
:10315000E81AF108E29E8001E39E100DF29E100D28
:103160001124212F3327C21BD30BCE9F9001CF9F59
:10317000300DDE9F300D112462307105A9F048F446
:103180006115710569F061307105C9F48B2F752FD8
:103190000DC06430710581F058F06630710579F426
:1031A0007E2F8B2F932F0DC0832F7B2F9E2F09C037
:1031B0008E2F7B2F952F05C08E2F732F02C07E2F51
:1031C000852F692FDF91CF911F910F91FF90EF9085
:1031D000089541E00E945918089508950E94E91841
:1031E0000895CF93DF93762FE901682F842F0E94F3
:1031F000EE18798368838A83DF91CF910895809157
:10320000D402282F269530E02115310519F481705C
:10321000826005C02532310524F081708864809376
:10322000D402089588E090E00C94EB30CF92DF92C6
:10323000EF92FF926B017C010E94FF18B701A6017B
:1032400088E090E0FF90EF90DF90CF900C940931F0
:10325000E4EDF2E083E0808311828FEF8283838349
:10326000148260817181828193810C9416198091FE
:10327000D40280FF02C08695089580E00895909161
:10328000D802933018F49F5F9093D802882351F0AE
:103290006091D4027091D5028091D6029091D702AC
:1032A0000C941619089581E00C943F199091D8025E
:1032B000992319F091509093D802882351F060918E
:1032C000D4027091D5028091D6029091D7020C94CD
:1032D0001619089581E00C94561970E00C94A71FFC
:1032E00060913C018091D40280FF0AC080913B0133
:1032F00023E0829FC001112487529D4F0C946D19C9
:1033000080913D0190913E01891780F7E82FF0E010
:103310009F01220F331FE20FF31FE752FD4F11826F
:10332000108212828F5FF0CF9091D40290FF16C06E
:1033300090913D0120913E01921770F4E92FF0E049
:10334000DF01AA0FBB1FEA0FFB1FE752FD4F81836E
:10335000608342839F5FF0CF0C9470190895CF93E0
:10336000DF9300D01F92CDB7DEB79091D40290FFCB
:103370000AC09E012F5F3F4F0E94F1184B81698167
:103380008A810E9494190F900F900F90DF91CF9136
:103390000895CF93DF93EC016C8170E080E090E0C2
:1033A0000E94402E20E030E04FE753E40E94632D5E
:1033B0002BED3FE049E450E40E94692F0E94D62F94
:1033C0000E94DD2D2BE43AE34EE25FE30E94F62CEF
:1033D00020EF3BEF48ED52E40E94692F0E940F2E30
:1033E000462FE4EDF2E0628181810E94AF198C8169
:1033F0008F5F8C83DF91CF910895CF93DF93EC01A2
:10340000E4EDF2E0438162818C810E94AF198C81EE
:103410008F5F8C83DF91CF9108950F931F93CF938C
:10342000DF9300D01F92CDB7DEB78C018091980258
:1034300081110AC09E012F5F3F4F4FEF6FEF0E9437
:10344000F1188A8180939802F8018481813051F0CB
:1034500028F0823061F4409198020AC0809198026D
:1034600040E007C06091980240E080E003C040E087
:1034700080E060E00E949419F801848190E0019658
:1034800063E070E00E94533084830F900F900F90A0
:10349000DF91CF911F910F910895AF92BF92CF927C
:1034A000DF92EF92FF920F931F93CF93DF9300D0A1
:1034B0001F92CDB7DEB7182FF62E042FE22E909173
:1034C000D40290FF6DC0E92FE695AE2FB0E0AF5368
:1034D000BE4F8C918093A4029E7F923061F49E0136
:1034E0002F5F3F4F812F0E94F1184B8169818A81A4
:1034F0000E94941943C0823019F40091D7023EC053
:10350000863019F41091D50239C08930D9F3893148
:10351000A9F5E9518E2F8170D82EE695F0E0E4569A
:10352000FD4FA590B490C12CBB2460913F01C616FD
:1035300018F52C2D30E0A29EC001A39E900DB29EE6
:10354000900D112470E00E943F30812FD11002C0F5
:10355000860F01C0861B90913D01290F311DA901E5
:10356000440F551F240F351F27523D4F402F6F2DFD
:103570000E94F118C394D9CF0E9470191093D502FC
:10358000F092D6020093D702EE2051F06091D4025F
:103590007091D5028091D6029091D7020E9416199F
:1035A0000F900F900F90DF91CF911F910F91FF908F
:1035B000EF90DF90CF90BF90AF900895E4EDF2E0F0
:1035C0009181282F4381628188E0890F0C944D1AE4
:1035D00081E00C94DE1AE4EDF2E09181282F438122
:1035E000628188EF890F0C944D1A81E00C94EB1ADC
:1035F000E4EDF2E0628128E0620F08F46FEF282F1B
:10360000438181810C944D1A81E00C94F81AE4ED09
:10361000F2E0628128E0621B08F460E0282F438119
:1036200081810C944D1A81E00C94071BE4EDF2E0CB
:10363000438128E0420F08F44FEF282F62818181F7
:103640000C944D1A81E00C94161BE4EDF2E04381DA
:1036500028E0421B08F440E0282F628181810C940D
:103660004D1A81E00C94251B20E00C944D1AFF921A
:103670000F931F93CF93DF93EC01F12C0FEF10E02A
:1036800060913F01F616F0F480913D012F2D30E05E
:10369000280F311DC901880F991F280F391F275284
:1036A0003D4F70E0C8010E945330962F8C814091AD
:1036B000D7026091D602F99E800D11240E94F11864
:1036C000F394DECF0E9470199A818C8190FF02C022
:1036D0008F5F01C081508C83DF91CF911F910F913B
:1036E000FF900895BF92CF92DF92EF92FF920F93D7
:1036F0001F93CF93DF93FC01828180FF02C00FEF05
:1037000001C001E010E080913F01181708F040C0AF
:1037100080913D01C12ED12CE601C80FD11DCE01F3
:10372000880F991FC80FD91FC752DD4F1982188201
:103730001A8234E0E32EF12CB12C80919A028B0D89
:10374000813114F08F7005C087FF03C090913F0155
:10375000890F082E000C990BC816D90691F4809198
:10376000D7028E9DA0018F9D500D11245595479530
:10377000559547959E016091D6028091D5020E9491
:10378000F118B00EF1E0EF1AF108B9F61F5FBBCFE8
:103790000E94701980919A02013031F4811102C0A7
:1037A00080913F01815007C090E0019660913F01F8
:1037B00070E00E94533080939A02DF91CF911F9165
:1037C0000F91FF90EF90DF90CF90BF900895CF932F
:1037D00080913D0190913E01891770F4E82FF0E04F
:1037E0009F01220F331FE20FF31FE752FD4F11829B
:1037F000108212828F5FF0CFC0E060913F01C61748
:10380000C0F5EC2FF0E070E0CF010E945330209122
:103810003D01820F20919902022E000C330B90E0A3
:10382000E217F307CCF020913A01022E000C330B83
:103830002E173F078CF09C01220F331F820F931F1E
:103840009C0127523D4F4091D7026091D602809152
:10385000D5020E94F1180BC0FC01EE0FFF1F8E0F66
:103860009F1FFC01E752FD4F118210821282CF5F31
:10387000C4CF0E9470192091390180919902820F62
:103880008093990290913A01920F90933A01191600
:103890005CF4082E000C990B40913F0150E0415020
:1038A0005109841795071CF0219520933901CF9178
:1038B00008958F929F92AF92BF92CF92DF92EF9234
:1038C000FF920F931F93CF93DF938C01FC014481F0
:1038D000C42FD0E09E01DE010E9497309B01AC0115
:1038E0000E94AD306B017C01E0E2F0E0EC1BFD0BCF
:1038F000A5E5B0E09B01AC010E94AD304B015C013D
:103900009F01DF010E948F309B01AC010E94B83003
:103910009B01AC012C0D3D1D4E1D5F1DC501B40169
:103920000E946730C22FD22F2A3228F4F3E02F9F53
:10393000900111240DC025E530E02C1B3109C9018F
:10394000880F991F280F391F37FF02C02F5F3F4F85
:1039500035952795C22FC095F12C85E5E82EED1AF7
:1039600080913F01F816C8F4F1FC02C08E2D01C011
:103970008D2F90913D012F2D30E0290F311DA90190
:10398000440F551F240F351F27523D4F4C2F609178
:10399000D6020E94F118F394E3CF0E947019F80147
:1039A0008481811102C091E003C0803219F49FEF3D
:1039B0009093380190913801890FF8018483DF9149
:1039C000CF911F910F91FF90EF90DF90CF90BF901C
:1039D000AF909F908F9008950F931F93CF93DF9395
:1039E000EC0100E010E080913F01282F30E0021749
:1039F000130724F590913D019801290F311DA9016C
:103A0000440F551F240F351F27523D4F869590E0D8
:103A10004C81081719071CF4442331F002C04111EE
:103A200003C04091D70201C040E06091D60280916E
:103A3000D5020E94F1180F5F1F4FD5CF0E94701959
:103A40008C8190E00196817099278C83DF91CF91D2
:103A50001F910F910895E4EDF2E080818E7F8083C5
:103A600060817181828193810E9416191092A50252
:103A70002FEF80E792E0215080409040E1F700C0B6
:103A800000000C947019E4EDF2E080818E7F808359
:103A90001092A5022FEF80E792E0215080409040E5
:103AA000E1F700C000000C9470191092A5028091FB
:103AB000A20281110AC081E08093A2028091D40207
:103AC00081708093A1020C94431D08956091D402EB
:103AD000669570E04BE050E080E491E00E94C030D9
:103AE000892B19F481E08093A5020E941F259093F1
:103AF0009C0280939B0208959091D40290FF35C060
:103B00009170811102C0926006C0853210F09864F5
:103B100002C0880F982B9093D402662351F06091D5
:103B2000D4027091D5028091D6029091D7020E9462
:103B300016196091D402669570E04BE050E080E485
:103B400091E00E94C030892B19F01092A50202C0AA
:103B50000E94661D81E080939E024091D702609191
:103B6000D6028091D5020C94341B0895682F909151
:103B7000D402969581E0890F853208F081E00C949B
:103B80007C1D81E00C94B61D682F9091D40296950F
:103B90008FEF890F09F484E20C947C1D81E00C9472
:103BA000C41D61E00C947C1DE4EDF2E08081816035
:103BB000808386950C94D11D8091D40280FD0C9455
:103BC0002B1D0C94D41D60E00C947C1D8091A302ED
:103BD00081112EC00E94A80D811104C00E94500EB8
:103BE0000E9428190E9412196093D4027093D50282
:103BF0008093D6029093D7026E7F61F40E942819B9
:103C00000E9412196093D4027093D5028093D60259
:103C10009093D7020E94FF181092A5028091D402BF
:103C200080FF03C086950E94E31D81E08093A3027C
:103C30000895E4EDF2E080818160808386950C94A4
:103C4000E31D1092A2028091A10281110E94191E0F
:103C50000C94661D0F931F93CF93DF938091A50261
:103C6000882309F485C08091A402E091D402E695EE
:103C7000E81BE0939D02823049F4F0E0E856FD4FE6
:103C8000E491CE2FD0E009EC19E149C0863049F427
:103C9000F0E0EB56FD4FE491CE2FD0E00DEF19E1AF
:103CA0003EC0893051F4E695F0E0EE56FD4FE491C8
:103CB000CE2FD0E007E31BE132C08F3051F4E69500
:103CC000F0E0E157FD4FE491CE2FD0E002E71BE199
:103CD00026C0853149F4F0E0E457FD4FE491CE2F42
:103CE000D0E007EE1BE11BC0883181F0833239F44C
:103CF000EAE8F2E0C591D4910DE01AE110C08432F7
:103D000051F4C4EFD1E00CEE1CE109C0C8E2D0E0F0
:103D100009E51CE104C0C0EDD7E00DEE18E180918B
:103D20009E02882361F010929E020E941F259093AC
:103D30009C0280939B021092A00210929F020E940C
:103D40001F25E0919B02F0919C028E1B9F0B8F3FE1
:103D50009F4770F4EC0FFD1FF0939C02E0939B02D1
:103D60008BE992E0F801DF91CF911F910F910994B7
:103D7000DF91CF911F910F910895882311F0FA01DF
:103D800001C0FB010994CF93DF93C82FD62F0E9467
:103D900037198C1740F00E9437198D1720F4DF91E6
:103DA000CF910C94C11D8C2FDF91CF910C94D11D1C
:103DB0001F93CF93DF93FB0112811111C3C0EC015C
:103DC0000E94F00C8272CD3CFCE5DF0709F49AC03A
:103DD000A8F5C73CECE5DE0709F476C0A8F4C43CBE
:103DE0009CE5D90709F45FC028F4C33CDC4509F41D
:103DF00057C054C0C53C9CE5D90709F459C0C63C1E
:103E0000DC4509F45CC04AC0CA3CFCE5DF0709F4A4
:103E10006AC050F4C83CECE5DE0709F45AC0C93C5E
:103E2000DC4509F45BC03AC0CB3C9CE5D90709F4FA
:103E30005FC0CC3CDC4509F460C030C0C23DFCE54D
:103E4000DF0709F46FC088F4CF3C9CE5D90709F47B
:103E500060C008F45CC0C03DFCE5DF0709F45CC04D
:103E6000C13DDC4509F45BC019C0C53D9CE5D907DF
:103E700009F460C050F4C33DFCE5DF0709F455C008
:103E8000C43DDC4509F454C009C0C63D9CE5D907D2
:103E900009F455C0CE35DD4509F454C011E052C0D7
:103EA0000E94DC1D4FC04EEC5DE161EC7DE104C081
:103EB00041EC5DE16EEC7DE10E94BD1E43C045EF2B
:103EC0005AE168EE7AE1F8CF48EE5AE165EF7AE11F
:103ED000F3CF43E15BE164E07BE1EECF44E05BE103
:103EE00063E17BE1E9CF41E35BE162E27BE1E4CFC7
:103EF00042E25BE161E37BE1DFCF4AE659E163E562
:103F000079E1DACF43E559E16AE679E1D5CF81E09D
:103F100017C065E082E010C068E086E00DC06EE08A
:103F200089E00AC064E18FE007C067E185E104C071
:103F300088E106C062E289E10E94C31E03C083E2F9
:103F40000E94D11D812FDF91CF911F910895539A27
:103F50002BB1277F3BB138604FB7F894FC01CB0100
:103F6000880F991F680F791F6E0F7F1FE617F707DD
:103F700089F0819198E03BB9000000C087FF2BB920
:103F8000880F000000C000C000C02BB900C09A9587
:103F900091F7ECCF4FBF8FE594E00197F1F700C0A8
:103FA000000008950895FC01680F791F8FEF91E3D9
:103FB000E617F70771F02191822728E030E087FFAC
:103FC00003C0880F892701C0880F21503109B9F734
:103FD000EFCF08950F931F93CF93DF93C42FD22F6A
:103FE000FC0182818823C9F04093A8020E94B42575
:103FF0009093A7028093A60280E28C0F883008F08D
:1040000057C0C77081E001C0880FCA95EAF7DF91F9
:10401000CF911F910F910C9405058091A802481330
:1040200030C08091A6029091A7020E94CC25883CC6
:10403000910538F510E21D0FCD17B9F080E28C0F15
:10404000883040F4C77081E001C0880FCA95EAF754
:104050000E940C05183028F581E09D2F977001C053
:10406000880F9A95EAF70E940505802F0E94FC04AC
:104070001830F0F4D77081E001C0880FDA95EAF7C4
:104080000AC080E28C0F883098F4C77081E001C0CC
:10409000880FCA95EAF7DF91CF911F910F910C9489
:1040A0000C05802FDF91CF911F910F910C94FC0490
:1040B000DF91CF911F910F9108950F939C01CB0138
:1040C000243F4CE5340731F188F4293DFCE53F07F6
:1040D000D9F02A3D4CE5340779F1283D3C45A9F556
:1040E00006E221EE41EE68ED7CE52BC0263FFCE5C3
:1040F0003F07E1F0A8F0273F3C4539F507E225EE00
:1041000046EE67EF7CE51DC007E225EE45EE69ED62
:104110007CE517C006E221EE40EE64EF7CE511C0BD
:1041200007E225EE44EE65EF7CE50BC006E221EEEA
:1041300042EE66EF7CE505C008E221E045EE6AED5F
:104140007CE50E94EA1F80E008C0FC018281882390
:1041500019F01092A80201C081E00F910895CF9349
:10416000DF93EC01FB018281882309F426C1C4306E
:10417000FDE5DF0760F4CB3F9CE5D90768F49E01BD
:1041800022503C452431310508F018C105C0C23623
:10419000EDE5DE0709F012C10E94BB0D9093C0024D
:1041A0008093BF02C031FCE5DF0709F4CAC008F004
:1041B00041C0C8309CE5D90709F4A4C0F0F4C4306C
:1041C000FCE5DF0709F48CC068F4C2309CE5D90730
:1041D00009F482C0C330DC4509F0E5C08091BF021C
:1041E0008260DFC0C630FCE5DF0709F483C008F059
:1041F00085C08091BF028860D4C0CC309CE5D907CF
:1042000009F490C068F4CA30FCE5DF0709F47EC009
:1042100008F084C00E9489078091BF028068C1C0F5
:10422000CE309CE5D90709F481C008F086C08091A2
:10423000BF0294C0CD3FFCE5DF0709F47BC038F531
:10424000C4319CE5D90709F49AC058F4C231FCE5A1
:10425000DF0709F47AC008F07EC08091BF028F7B2F
:10426000A0C0CB3F9CE5D907F1F108F03FC0C531B4
:10427000DC4509F098C08091BF0282FB222720F91B
:1042800091E0922790FB82F990FB83F98AC0C130BC
:104290008DE5D80709F467C050F48091C002CF3F84
:1042A000ECE5DE07C1F108F05BC08D7F65C0C3306F
:1042B0008DE5D80709F471C008F46DC0C236DD453C
:1042C00009F071C08091BF0284FB222720F991E0A0
:1042D000922790FB84F965C08091BF02816061C024
:1042E0008091BF0216C08091C00216C08091C002AA
:1042F000826042C08091BF02806153C08091BF0242
:1043000080624FC08091BF0280644BC08091BF0229
:104310008860846046C0826081602EC08091BF0248
:104320008E7F3FC08091BF028D7F3BC08091BF02D6
:10433000877F37C08091C00214C08091BF028F7EFA
:1043400030C08091BF028F7D2CC00E948907809170
:10435000BF028F7726C08091BF02877F8B7F21C0ED
:104360008D7F8E7F09C08091C002982F90959170AB
:104370008E7F892B90FB81F98093C00214C00E942C
:1043800089078091BF0287FB222720F991E09227BD
:1043900090FB87F906C081E001C080E00E94520EC8
:1043A00002C08093BF028091BF029091C0020E9420
:1043B000CC0D0E94890780E001C081E0DF91CF91A0
:1043C0000895CF93DF9386319C4541F5EB010E9420
:1043D000F00C982F8A8120910001309101018823EF
:1043E00079F09A7A81E009F480E08093A902911132
:1043F00002C069E201C065E3C9010E94D3240AC07A
:104400008091A902811102C069E201C065E3C9017E
:104410000E94D5240E94350D80E001C081E0DF912B
:10442000CF9108958EE14A9B02C08150E1F74A9BEB
:10443000FECF08955A9880E28A95F1F75A9A089526
:10444000FC012AE02A95F1F728E090E080E031E0D5
:1044500040E14A95F1F7880F4A9B02C0816093279B
:1044600000C0000040E14A95F1F7215089F720E1B2
:104470002A95F1F729B100C0000030E13A95F1F733
:1044800022FB222720F992272081920F9083089502
:10449000EF92FF920F931F93CF93DF931F92CDB7AD
:1044A000DEB719828C017C01E60EF11C0E151F058A
:1044B00051F00E941222CE0101960E942022F801A2
:1044C00081938F01F3CF81E09981911180E00F906A
:1044D000DF91CF911F910F91FF90EF900895529A25
:1044E0005A9A089552985A9AEA9AE9E6F0E0808139
:1044F0008F7C80830895615091E001C0990F6A9587
:10450000EAF720E031E0992361F0492F482319F0C0
:104510005A9A232701C05A9840E24A95F1F7969596
:10452000F2CF222311F05A9A01C05A9880E28A955C
:10453000F1F75A980895FF920F931F93CF93DF934B
:10454000EC018C01060F111DC017D10741F0F99045
:104550000E941A2268E08F2D0E947B22F5CFDF9106
:10456000CF911F910F91FF9008951F920F920FB658
:104570000F921124EF92FF920F931F932F933F936B
:104580004F935F936F937F938F939F93AF93BF935B
:10459000EF93FF93CF93DF931F92CDB7DEB71982CE
:1045A0000E941222CE0101960E942022A82FA695D9
:1045B000A695A6959A2F969595702A2F2570920FFD
:1045C000292F237096959695920F877089137CC03A
:1045D0008981811179C0A43008F076C080E18A9584
:1045E000F1F75A9A529AB2E0BA95F1F700C05A9888
:1045F000EA2EF12CEAE0AE9FD0011124AE5EBE4F50
:104600001896ED91FC9119973097B1F06091BF0128
:104610007091C00116962D913C911797260F371F68
:1046200013968D919C911497680F791F15964C9154
:10463000159712968C9109958AE08E9DF0018F9DB9
:10464000F00D1124EE5EFE4F6581662351F08091DE
:10465000BF019091C00126813781820F931F0E9474
:104660009B220E941A22F0E1FA95F1F75A9852988B
:104670005A9A80E18A95F1F78AE08E9D80018F9D9C
:10468000100D11240E5E1E4FD80112966C911297D8
:10469000662399F08091BF019091C00113962D91EE
:1046A0003C911497820F931F0E944822D801ED91EC
:1046B000FC91811105C082E004C0D801ED91FC910C
:1046C00088E080830E9412220F90DF91CF91FF91AA
:1046D000EF91BF91AF919F918F917F916F915F917A
:1046E0004F913F912F911F910F91FF90EF900F905D
:1046F0000FBE0F901F9018950F931F93CF93DF93CA
:10470000843091050CF0A9C02AE0289FF001299F70
:10471000F00D1124EE5EFE4F20813181232B09F430
:104720009CC0EC01F894529A5A9885E08A95F1F76A
:1047300000008C2F869585709C2F9570890F982F7F
:104740009370869586958E0123E0000F111F2A95A0
:10475000E1F7890F082B0E941A22A4E0AA95F1F72D
:1047600000C068E0802F0E947B22B0E1BA95F1F78B
:1047700052985A9A4A9902C000C0FCCF87E090E054
:104780004A9B17C0019799F4529A5A9A8AE08C9FD3
:10479000F0018D9FF00D1124EE5EFE4F0190F0812F
:1047A000E02D81E08083789481E090E058C000C0E3
:1047B000E7CF8AE08C9F80018D9F100D11240E5E43
:1047C0001E4FF80165816623B9F08091BF01909179
:1047D000C00126813781820F931F0E9448228111D8
:1047E0000BC0529A5A9AD801ED91FC9182E08083D5
:1047F000789482E090E033C00E941222B0E2BA9531
:10480000F1F75A98529AE0E1EA95F1F78AE08C9F25
:10481000F0018D9FF00D1124EE5EFE4F6281662344
:1048200051F08091BF019091C00123813481820FAA
:10483000931F0E949B220E941A228AE08C9FF00103
:104840008D9FF00D1124EE5EFE4F0190F081E02D62
:104850001082789480E090E002C084E090E0DF91E4
:10486000CF911F910F9108959093B0028093AF0262
:1048700008950E948213811103C08091AA020895B5
:10488000E091AF02F091B002309721F00190F081F9
:10489000E02D099480E00895E091AF02F091B0021C
:1048A000309721F00280F381E02D09940895E09182
:1048B000AF02F091B002309739F022E0DC012C9386
:1048C0000480F581E02D099408952091AD02309186
:1048D000AE022817390771F09093AE028093AD02B3
:1048E000E091AF02F091B002309721F00680F7819D
:1048F000E02D099408952091AB023091AC02281765
:10490000390771F09093AC028093AB02E091AF0253
:10491000F091B002309721F00084F185E02D0994E8
:104920000895FC01329697E080E0915029F02191A2
:104930002223D9F38F5FF9CF0895662349F0FC0154
:10494000329608962191621729F0E817F907D1F7F6
:1049500080E0089581E008959C01FC0132969FEF6C
:1049600080E04191461789F09F3F19F4411101C041
:10497000982F8F5F8630A9F79F3F39F0F901E90F33
:10498000F11D97FDFA956283089508959C012A5FB1
:104990003F4FFC014281461301C0128201968217EB
:1049A0009307B9F708950C94AC240C94C62402968E
:1049B00026E0FC0111922A95E9F708951092090367
:1049C00010920A0310920B0310920C030895CF92D9
:1049D000DF92EF92FF926B017C010E9482138111A2
:1049E0000EC00E94C025C61AD70AE80AF90AC0926A
:1049F0000903D0920A03E0920B03F0920C03FF909C
:104A0000EF90DF90CF9008950F931F930E94821331
:104A1000882321F01F910F910C94C0250E94C0257E
:104A20000091090310910A0320910B0330910C03AC
:104A3000600F711F821F931F1F910F9108950E9495
:104A4000821381110C94B4250E940425CB01089592
:104A5000089508950C9429250C942925CF930E943C
:104A60002C250E94F7120E942A25C0E08C2F0E945C
:104A70007911811104C0CF5FC830C1F701C081E056
:104A8000CF9108950C9429250C944225809115030B
:104A9000843059F10E94442580E00E947A030E94EC
:104AA000551D1092B10220E488E190E00FB6F89411
:104AB000A895809360000FBE2093600083B7817F2C
:104AC000846083BF83B7816083BF7894889583B700
:104AD0008E7F83BF0FB6F894A8958091600088619F
:104AE00080936000109260000FBE08950C942925F9
:104AF0000E9489070E9439240E947A030E94211E85
:104B00000C9476251F920F920FB60F9211248F935B
:104B10009F93AF93BF938091B102811113C0809195
:104B20000D0390910E03A0910F03B09110034196D5
:104B3000A11DB11D80930D0390930E03A0930F034D
:104B4000B0931003BF91AF919F918F910F900FBEC3
:104B50000F901F90189582E084BD93E095BD9AEF69
:104B600097BD80936E0008952FB7F89480910D0340
:104B700090910E03A0910F03B09110032FBF0895E1
:104B80002FB7F89460910D0370910E0380910F037D
:104B9000909110032FBF08959C014FB7F894809116
:104BA0000D0390910E03A0910F03B09110034FBF1E
:104BB000821B930B0895CF92DF92EF92FF922FB753
:104BC000F894C0900D03D0900E03E0900F03F09086
:104BD00010032FBFA7019601261B370B480B590B5B
:104BE000CA01B901FF90EF90DF90CF9008957894BB
:104BF0001F920F920FB60F9211248F939F93AF9332
:104C0000BF9380910D0390910E03A0910F03B0917B
:104C100010030196A11DB11D80930D0390930E0307
:104C2000A0930F03B0931003BF91AF919F918F9109
:104C30000F900FBE0F901F90189587E797E79093FE
:104C40000108809300089AE088E10FB6F894A895CF
:104C5000809360000FBE90936000FFCF9093E701B8
:104C60008093E60108958091BD0208959091150307
:104C7000943031F58093B2027093B4026093B30222
:104C800082E08093E9008FEF9091E800815095FDDC
:104C900006C095ED9A95F1F700008111F5CF80914E
:104CA000E80085FF0DC040E050E063E070E082EB7B
:104CB00092E00E9446288091E8008E778093E80079
:104CC0000895BC0184E00C943626BC0183E00C946A
:104CD000362622E02093E9002FEF3091E8002150A2
:104CE00035FD06C035ED3A95F1F700002111F5CFFD
:104CF0002091E80025FF0BC040E050E066E070E046
:104D00000E9446288091E8008E778093E8000895FD
:104D1000CF93DF9321E02093E9002FEF3091E8005B
:104D2000215035FD06C035ED3A95F1F7000021110F
:104D3000F5CF2091E80025FF14C0EC0140E050E0E1
:104D400068E070E00E9446288091E8008E778093AA
:104D5000E80088E0FE01A5EBB2E001900D928A9593
:104D6000E1F7DF91CF91089580911403811109C07B
:104D70000E94D7290E94342A8091E20084608093A7
:104D8000E200089510921403089508950895089577
:104D900042E061EC81E00E94502942E261EC82E055
:104DA0000C94502980911703833009F460C030F4CB
:104DB000813071F0823009F499C008958A3009F485
:104DC00085C08B3009F46BC0893009F0A7C020C0C2
:104DD00080911603813A09F0A1C08091E800877F95
:104DE0008093E80080911A0390911B03892B21F492
:104DF00068E085EB92E003C060E080E090E070E066
:104E00000E9491288091E8008B778093E8000895B4
:104E100080911603813209F081C080911A0390912C
:104E20001B03029708F07AC08091E800877F809387
:104E3000E8008091E80082FD05C080911503811192
:104E4000F8CF6CC02091F3008091F20090E0922B9B
:104E5000029729F48091F1008B7F813021F48091B9
:104E6000F1008093BD028091E8008B7753C0809160
:104E70001603813A09F052C080911A0390911B03E6
:104E8000892B09F04BC08091E800877F8093E80070
:104E90008091E80080FFFCCF8091550136C0809161
:104EA00016038132D9F580911A0390911B03892B47
:104EB000A9F58091E800877F8093E8000E9485290A
:104EC00080911803809355010C94890780911603F3
:104ED000813221F58091E800877F8093E8000E946D
:104EE0008529809119038093BE020895809116034D
:104EF000813AA1F48091E800877F8093E800809157
:104F0000E80080FFFCCF8091BE028093F100809189
:104F1000E8008E778093E8000C948529089584B783
:104F2000877F84BF0FB6F894A89580916000886150
:104F300080936000109260000FBE90E080E80FB692
:104F4000F89480936100909361000FBE0C94800EE2
:104F50000E94D7290E94342AE2EEF0E0808184602A
:104F6000808378940E94C92C0E948E0E8BE491E07D
:104F70000C943424809115038530A9F48091150395
:104F8000853079F40E944625809113038823B1F37C
:104F90000E942E25882391F30E9430280E948907C1
:104FA000EDCF0E9478250C949A0E0C94D727292FC8
:104FB000332723303105C9F060F42130310581F009
:104FC0002230310509F044C08BE390E023EC33E05C
:104FD00043C021323105E1F02232310549F138C0B8
:104FE00082E190E02EEF33E037C0992781309105C0
:104FF00049F028F0029761F5E1EAF3E005C0EFEB34
:10500000F3E002C0E3EBF3E0849190E09F0124C061
:105010006115710541F061307105D1F489E090E0CE
:105020002EEE33E019C089E090E025ED33E014C0A6
:105030006115710541F06130710551F48BE790E025
:1050400020E134E009C080E490E02BE834E004C0C3
:1050500080E090E020E030E0FA0131832083089581
:1050600080E189BD82E189BD09B400FEFDCF809158
:10507000D8008F7D8093D8008091E000826080937B
:10508000E0008091E00081FDFCCF0895CF92DF9297
:10509000EF92FF920F931F93CF93DF93EC018B015D
:1050A0007A010E94A429811133C0E114F10439F07E
:1050B000F70180819181081B190BC80FD91FC12CE2
:1050C000D12C0115110519F18091E80085FD16C05C
:1050D0008091E8008E778093E800E114F10449F0B4
:1050E000F70180819181C80ED91ED182C08285E0EE
:1050F0000FC00E94A429882321F30AC089918093BC
:10510000F10001501109FFEFCF1ADF0ADACF80E07A
:10511000DF91CF911F910F91FF90EF90DF90CF9093
:10512000089520911C0330911D032617370748F07E
:105130006115710539F42091E8002E772093E8007D
:1051400001C0B901FC0120E06115710579F1809180
:1051500015038823F1F18530F1F18091E80083FD9A
:105160003CC08091E80082FD2EC08091E80080FF65
:10517000EBCF2091F3008091F20090E0922B61152B
:10518000710551F08830910538F421912093F10098
:10519000615071090196F3CF21E0089709F020E0F2
:1051A0008091E8008E778093E800CECF2111CFCF99
:1051B0000AC080911503882361F0853061F08091E9
:1051C000E80083FD0AC08091E80082FFF2CF80E012
:1051D000089582E0089583E0089581E00895209184
:1051E0001C0330911D032617370748F06115710520
:1051F00039F42091E8002E772093E80001C0B9012E
:10520000FC0120E06115710591F18091150388235F
:1052100009F440C0853009F43FC08091E80083FD67
:105220003DC08091E80082FD2FC08091E80080FFA2
:10523000E9CF2091F3008091F20090E0922B61156C
:10524000710559F08830910540F424912093F100C4
:105250003196615071090196F2CF21E0089709F06B
:1052600020E08091E8008E778093E800CBCF211179
:10527000CCCF0AC080911503882361F0853061F09E
:105280008091E80083FD0AC08091E80082FFF2CFA0
:1052900080E0089582E0089583E0089581E0089514
:1052A000982F973068F59093E900981739F070912E
:1052B000EC002091ED005091F00003C0242F762FD8
:1052C00050E021FD02C09F5FECCF3091EB003E7FAC
:1052D0003093EB003091ED003D7F3093ED00309145
:1052E000EB0031603093EB007093EC002093ED0005
:1052F0005093F0002091EE0027FDE5CF80E0089567
:105300008F708093E90081E008958091160387FFF4
:1053100011C08091E80082FD05C0809115038111C4
:10532000F8CF11C08091E8008B770BC080911503F6
:10533000882349F08091E80080FFF8CF8091E80051
:105340008E778093E80008952091E4003091E50085
:1053500095E64091EC00842F817040FF23C080913E
:10536000E80080FD1DC080911503882399F08530E9
:1053700099F08091EB0085FD11C04091E4005091BF
:10538000E5002417350729F3915011F09A01E1CF78
:1053900084E0089582E0089583E0089581E008950F
:1053A00080E008954091E80042FFDDCF08950E941B
:1053B000452A0E944D2AE0EEF0E0808181608083E2
:1053C000E8EDF0E080818F77808319BCA7EDB0E035
:1053D0008C918E7F8C9380818F7E808310921403BA
:1053E00008950F931F93CF93DF930E94452A0E9445
:1053F0004D2AC8EDD0E088818F77888388818068C6
:10540000888388818F7D888319BC10921503109240
:105410001103109213031092120300EE10E0F80132
:1054200080818B7F808388818160888342E060E017
:1054300080E00E945029E1EEF0E080818E7F808341
:10544000E2EEF0E0808181608083808188608083EB
:10545000F80180818E7F8083888180618883DF91DD
:10546000CF911F910F910895E8EDF0E080818F7E3C
:105470008083E7EDF0E080818160808384E082BFFB
:1054800081E0809314030C94F129E8EDF0E0808131
:105490008E7F80831092E20008951092DA001092BD
:1054A000E10008951F920F920FB60F9211242F93CF
:1054B0003F934F935F936F937F938F939F93AF939C
:1054C000BF93EF93FF938091E10082FF0BC0809127
:1054D000E20082FF07C08091E1008B7F8093E100B2
:1054E0000E94C82C8091DA0080FF1FC08091D800F4
:1054F00080FF1BC08091DA008E7F8093DA0080915C
:10550000D90080FF0DC080E189BD82E189BD09B469
:1055100000FEFDCF81E0809315030E94B42605C0F4
:1055200019BC109215030E94C2268091E10080FFF1
:1055300019C08091E20080FF15C08091E2008E7F4B
:105540008093E2008091E20080618093E20080918C
:10555000D80080628093D80019BC85E08093150341
:105560000E94C6268091E10084FF30C08091E20055
:1055700084FF2CC080E189BD82E189BD09B400FEB1
:10558000FDCF8091D8008F7D8093D8008091E1007D
:105590008F7E8093E1008091E2008F7E8093E20015
:1055A0008091E20081608093E20080911103882362
:1055B00011F084E007C08091E30087FD02C081E024
:1055C00001C083E0809315030E94C7268091E1000B
:1055D00083FF29C08091E20083FF25C08091E10014
:1055E000877F8093E10082E080931503109211037E
:1055F0008091E1008E7F8093E1008091E2008E7FB8
:105600008093E2008091E20080618093E20042E0BA
:1056100060E080E00E9450298091F00088608093D3
:10562000F0000E94C526FF91EF91BF91AF919F912D
:105630008F917F916F915F914F913F912F910F903B
:105640000FBE0F901F9018951F920F920FB60F92DA
:1056500011242F933F934F935F936F937F938F9377
:105660009F93AF93BF93CF93DF93EF93FF93C0913B
:10567000E900CF708091EC00D82FD17080FDD0E888
:105680001092E9008091F000877F8093F000789479
:105690000E94682B1092E9008091F000886080934E
:1056A000F000CD2BCF70C093E900FF91EF91DF9117
:1056B000CF91BF91AF919F918F917F916F915F91AA
:1056C0004F913F912F910F900FBE0F901F90189503
:1056D0001F93CF93DF93CDB7DEB7AA970FB6F89499
:1056E000DEBF0FBECDBFE6E1F3E08091F100819314
:1056F00023E0EE31F207C9F70E94D2268091E8003C
:1057000083FF2EC18091160390911703492F50E01B
:105710004A30510508F024C1FA01E059FF4F0C94BA
:105720008930803821F0823809F01AC108C0809190
:10573000120390911303992389F082600FC0809126
:105740001A038F70873008F00BC18093E9008091B5
:10575000EB0085FB882780F91092E9009091E80022
:10576000977F9093E8008093F1001092F100D1C0F0
:10577000282F2D7F09F0F4C0882319F0823061F0C2
:10578000EFC080911803813009F0EAC0933009F02E
:1057900080E0809313032EC08091180381112AC0EA
:1057A00080911A038F702FEF280F263008F0D8C091
:1057B0008093E9002091EB0020FF1CC0933021F47E
:1057C0008091EB00806214C09091EB009061909307
:1057D000EB0021E030E0A90102C0440F551F8A957B
:1057E000E2F74093EA001092EA008091EB008860B3
:1057F0008093EB001092E9008091E800877F80930E
:10580000E8000E948529ACC08111AAC0109118033C
:105810001F778091E3008078812B8093E300809153
:10582000E800877F8093E8000E9485298091E80046
:1058300080FFFCCF8091E30080688093E30011112A
:1058400002C082E001C083E08093150389C08058C4
:10585000823008F085C080911803909119038C3D27
:1058600053E0950779F583E08A838AE289834FB70D
:10587000F894DE01139620E03EE051E2E32FF0E0E1
:1058800050935700E49120FF03C0E295EF703F5F13
:10589000EF708E2F90E0EA3010F0C79601C0C096EE
:1058A0008D939D932F5F243149F74FBF8091E8007E
:1058B000877F8093E8006AE270E0CE0101960E9443
:1058C000912816C060911A0370911B03AE014F5FBF
:1058D0005F4F0E94D527BC01892B09F441C09091EC
:1058E000E800977F9093E80089819A810E94EF28D1
:1058F0008091E8008B778093E80032C0803881F592
:105900008091E800877F8093E80080911103809365
:10591000F1008091E8008E7772CF811121C08091D3
:1059200018039091190399270297D4F48091E80005
:10593000877F8093E80080911803809311030E9471
:10594000852980911103811106C08091E30087FDB4
:1059500002C081E001C084E0809315030E94C82644
:105960008091E80083FF0AC08091E800877F8093E0
:10597000E8008091EB0080628093EB00AA960FB65E
:10598000F894DEBF0FBECDBFDF91CF911F91089578
:105990000895CF93809115038823A1F0C091E90069
:1059A000CF709091EC00892F817090FD80E8C82B1A
:1059B0001092E9008091E80083FD0E94682BCF706F
:1059C000C093E900CF9108950E94D7291092150342
:1059D0000895E8EDF0E08081806180838AE18A9516
:1059E000F1F700C08091D900817008955058BB270D
:1059F000AA270E940E2D0C94B92E0E94AB2E38F0CF
:105A00000E94B22E20F039F49F3F19F426F40C9432
:105A1000812E0EF4E095E7FB0C947B2EE92F0E947B
:105A2000CA2E58F3BA17620773078407950720F048
:105A300079F4A6F50C94EC2E0EF4E0950B2EBA2F0B
:105A4000A02D0B01B90190010C01CA01A001112484
:105A5000FF27591B99F0593F50F4503E68F11A1630
:105A6000F040A22F232F342F4427585FF3CF4695C1
:105A700037952795A795F0405395C9F77EF41F16E3
:105A8000BA0B620B730B840BBAF09150A1F0FF0FAD
:105A9000BB1F661F771F881FC2F70EC0BA0F621F99
:105AA000731F841F48F4879577956795B795F79589
:105AB0009E3F08F0B0CF9395880F08F09927EE0F1E
:105AC0009795879508950E94772D0C94B92E0E9482
:105AD000B22E58F00E94AB2E40F029F45F3F29F01F
