:100000000C94F2020C9439030C9439030C94882656
:100010000C9439030C9439030C9439030C94390370
:100020000C9439030C9439030C94D92E0C94AB2FF7
:100030000C9455290C9439030C9439030C9439030E
:100040000C9439030C9439030C9439030C94390340
:100050000C9439030C94CA290C9439030C94390379
:100060000C9439030C9439030C9439030C94390320
:100070000C9439030C9439030C9439030C94390310
:100080000C9439030C9439030C9439030C94390300
:100090000C9439030C9439030C9439030C943903F0
:1000A0000C9439030C9439030C943903D606D60604
:1000B0000807080755077307560856087E07E6071E
:1000C000F707F707F608F60808090809FF080809FE
:1000D00008090809F608F6080409080908090409C6
:1000E0007B217E219E21AF21B721C221C521C821BC
:1000F000CB2111221122CE21D121D621E321F021C1
:10010000F321F721042218303F3037313F303731A7
:100110008B30AE3037310531143107634236B79B2F
:10012000D8A71A39685618AEBAAB558C1D3CB7CC57
:100130005763BD6DEDFD753EF6177231BF000000CF
:10014000803F05A84CCDB2D44EB93836A9020C5028
:10015000B9918688083CA6AAAA2ABE000000803F62
:1001600000001700150008001A0014002900000004
:100170000A0009000700160004002B00000005001B
:10018000190006001B001D00E1002C412C002C0072
:100190004900E300E200E00000001C0018000C0031
:1001A000120013002A0000000B000D000E000F00CB
:1001B0002D0028000000110010003600370052000A
:1001C00038002C422C002C00E400500051004F005D
:1001D00000002200210020001F001E002B00000054
:1001E0002202210220021F021E02E000000067001E
:1001F0005400550056005700E1002C412C002C0003
:100200004900E300E200E000000023002400250094
:10021000260027002A0000002302240225022602CD
:10022000270228000000350089002F1230122D12FD
:10023000E5002C422C002C00E400500051004F003F
:1002400000003E003D003C003B003A002B00000057
:1002500034003312330031001F02E0000000C75C9D
:10026000C65CC55CC35CC25CE1002C412C002C0068
:100270004900E300E200E00000003F0040004100D0
:10028000420043004C0000005000510052004F005B
:100290002E0028000000C85CC95C2F00300031002F
:1002A000E5002C422C002C00E400500051004F00CF
:1002B00000000000000000002A2B280000000000C1
:1002C0000000000000000000000000290000000005
:1002D0002C1E3420212224342627252E362D373873
:1002E000271E1F202122232425263333362E37387C
:1002F0001F0405060708090A0B0C0D0E0F1011123A
:10030000131415161718191A1B1C1D2F3130232D05
:10031000350405060708090A0B0C0D0E0F10111203
:10032000131415161718191A1B1C1D2F3130354CB4
:1003300000000000000000000000000000000000BD
:1003400000000000000000000000000000000000AD
:10035000000000007E0F00D4FFFFFFC70000007800
:1003600000047F3F1F643214643214783C1E1E1454
:100370000A05FFAA7F5540000101010101010101A9
:100380000102020202020202020203030303030348
:100390000303040404040404040505050505060616
:1003A00006060607070707070808080809090909D4
:1003B0000A0A0A0B0B0B0C0C0C0D0D0D0E0E0E0F7A
:1003C0000F0F10101111111212131314141515160A
:1003D000161717181819191A1A1B1B1C1D1D1E1E7B
:1003E0001F202021222223242425262627282929CC
:1003F0002A2B2C2D2D2E2F303132323334353637F7
:1004000038393A3B3C3D3E3F4041424344454647F4
:1004100048494A4C4D4E4F50515354555658595ACD
:100420005B5D5E5F616264656668696B6C6D6F7071
:1004300072737577787A7B7D7E8082838587888AE0
:100440008C8E8F91939596989A9C9EA0A2A3A5A717
:10045000A9ABADAFB1B3B5B7BABCBEC0C2C4C6C913
:10046000CBCDCFD1D4D6D8DBDDDFE2E4E7E9EBEECC
:10047000F0F3F5F8FAFDFF100363006F006F006CF6
:100480000036003500300000000A036D002E006BBE
:1004900000690000000403090409025B0003010075
:1004A000A0FA090400000103010100092111010063
:1004B000012240000705810308000A090401000227
:1004C000030000000921110100012222000705821A
:1004D00003200001070503032000010904020001B5
:1004E00003000000092111010001227B000705849F
:1004F0000320000A1201000200000008434D5006CC
:100500000100010200010660FF0961A101096215F5
:100510000026FF009520750881020963150026FF5B
:1005200000952075089102C005010902A10185020C
:100530000901A100050919012908150025019508DF
:10054000750181020501093009311581257F950268
:100550007508810609381581257F95017508810682
:10056000050C0A38021581257F950175088106C0A2
:10057000C005010980A101850319012AB7001501F1
:1005800026B700950175108100C0050C0901A10175
:10059000850419012AA002150126A00295017510F3
:1005A0008100C005010906A101050719E029E71529
:1005B00000250195087501810295017508810105E5
:1005C00007190029FF150026FF0095067508810010
:1005D0000508190129059505750191029501750315
:1005E0009101C00011241FBECFEFDAE0DEBFCDBF06
:1005F00004B603FE27C080911A0390911B03A091BB
:100600001C03B0911D038730904BA740B04BD1F431
:1006100010921A0310921B0310921C0310921D03D8
:1006200014BE84B7877F84BF0FB6F894A8958091D5
:100630006000886180936000109260000FBEE0E06F
:10064000F8E3099511E0A0E0B1E0E6E7FBE602C0BF
:1006500005900D92A63FB107D9F723E0A6EFB1E0D0
:1006600001C01D92AA31B207E1F70E9437160C941F
:10067000B9350C94000081E0089581E008950C9450
:100680003D0308950C9441031F93CF93DF9300D053
:1006900000D01F92CDB7DEB749835A836B83309168
:1006A000F80189819A81311114C0662359F02223FF
:1006B00049F00E94EC09182F682F89819A810E94C5
:1006C000950903C00E94C009182F69817A81812F82
:1006D00004C00E94EC0969817A810F900F900F90FD
:1006E0000F900F90DF91CF911F910C94E322FC01AA
:1006F000262F408151816281738184810C9444034F
:1007000081E00895CF93DF93EC0160E00E947703CE
:10071000BE01DF91CF910C944203E1E0F0E0DF01F4
:1007200002C0AA0FBB1F6A95E2F7BD01DF0102C03C
:10073000AA0FBB1F4A95E2F7AD01462B01C0EE0F91
:100740002A95EAF7942F9823491302C08E2B089517
:10075000E0958E230895242F462F682F80910E0256
:100760000E948D030C9452090E94DB110E94050522
:100770000C940B120C94071208950E94E4080E9436
:10078000BC032FEF84E39CE0215080409040E1F7D0
:1007900000C000000C94F0290F931F93CF93DF93B8
:1007A0008C0161E00E947703EC01B8010E94D32024
:1007B000882309F44BC0B801CE010E943F0388236F
:1007C00009F444C0B801CE010E9430248823F1F11D
:1007D000B801CE010E9482248823C1F1B801CE0164
:1007E0000E94B425882391F1B801CE010E947C1F9C
:1007F000882361F1F8018281882309F1CA358DE5EA
:10080000D807C1F050F4C115FCE5DF0781F0CE3DFB
:10081000DC45A9F40E94E70E19C0CB35EDE5DE07F3
:1008200061F0CC35DD4559F40E94790D08C00E9475
:10083000BD030CC00E94820D02C00E94850DC8013C
:10084000DF91CF911F910F910C943B0380E0DF91DA
:10085000CF911F910F910895DF92EF92FF920F9326
:100860001F93CF93DF93E82FF0E0E055FD4FD49036
:10087000282F26952695269530E0F901E05BFC4F60
:100880000491877010E0082E02C0159507950A9410
:10089000E2F701701127F901E05CFC4FE490F12CC4
:1008A000082E02C0F594E7940A94E2F791E0E92259
:1008B000FF24F901E05DFC4FC491D0E002C0D59562
:1008C000C7958A95E2F7C170DD270115110519F06A
:1008D00081EE0E945F05E114F10419F086EE0E949A
:1008E0005F058D2D0E948806EF2819F086EE0E9484
:1008F0000906012B19F081EE0E940906CD2B51F05B
:100900008CE2DF91CF911F910F91FF90EF90DF90DC
:100910000C948806DF91CF911F910F91FF90EF907B
:10092000DF900895EF92FF920F931F93CF93DF9381
:10093000EC01162F0AE08881882309F455C0813024
:1009400009F043C08981813041F47E0182E0E80EE4
:10095000F11C8A810E94880609C0823049F47E0118
:10096000E2E0EE0EF11C8A810E945F05E7012FC0D4
:10097000833041F47E01F2E0EF0EF11C8A810E9487
:100980000906F4CF843011F0219621C02A812296E5
:1009900080E090E030E0205331092A30310558F4EE
:1009A000089FA001099F500D1124C901840F951FB4
:1009B00021962881EFCF009751F0EFE9FFE03197C2
:1009C000F1F700C000000197F6CF0E942C04219699
:1009D000812F882309F4AFCFEFE9FFE03197F1F7DA
:1009E00000C000008150F5CFDF91CF911F910F9192
:1009F000FF90EF90089560E00C94920408950C9499
:100A0000FE0481E008950C9401050895CF93C82F4A
:100A10000E94FF048C2F0E940305CF910895CF936D
:100A2000DF93CDB7DEB72B970FB6F894DEBF0FBEBE
:100A3000CDBF4F83588769877A878B8761110E9462
:100A4000A80D9E012F5F3F4F86E0F90111928A9514
:100A5000E9F785E0FE013796D90101900D928A955C
:100A6000E1F789819A814C815D81452B31F09F3F6F
:100A700031F491E08F3F19F403C091E001C090E0A0
:100A800090FF09C049815A816B817C818D819E8153
:100A90000E94A80C05C0C9010E9480038111F2CFF9
:100AA0002B960FB6F894DEBF0FBECDBFDF91CF916E
:100AB0000895FC01808191810E94190A0895CF93C5
:100AC000882309F4A4C0C82F8238C1F40E940C28DE
:100AD00081FD9DC069E380910001909101010E9418
:100AE000A6280E94CD0D2FEF81EE94E0215080408A
:100AF0009040E1F700C0000069E319C0833801F5B8
:100B00000E940C2880FD83C063E5809100019091D4
:100B100001010E94A6280E94CD0D2FEF81EE94E0E6
:100B2000215080409040E1F700C0000063E58091D3
:100B30000001909101010E94A828CF910C94CD0D45
:100B40008438C1F40E940C2882FD61C067E4809162
:100B50000001909101010E94A6280E94CD0D2FEF67
:100B600081EE94E0215080409040E1F700C0000009
:100B700067E4DDCF8CEF8C0F813AD0F46C2F80913D
:100B80000001909101010E947028882349F06C2F88
:100B900080910001909101010E94A8280E94CD0D32
:100BA0006C2F80910001909101010E94A628C5CF71
:100BB00080E28C0F883048F4C77081E001C0880F54
:100BC000CA95EAF70E948B0DB8CFEBE5EC0FE33046
:100BD00040F4F0E0E557FE4F808190E0CF910C9417
:100BE0003828E8E5EC0FE73150F4F0E0EE0FFF1F96
:100BF000E35AFE4F80819181CF910C944E28C03FE3
:100C000030F08C2F0E94C416CF910C949617CF9180
:100C10000895882309F464C0823879F40E940C286E
:100C200081FF5EC069E380910001909101010E9403
:100C3000A6280E94CD0D69E310C08338B1F40E944C
:100C40000C2880FF4DC063E5809100019091010167
:100C50000E94A6280E94CD0D63E58091000190912D
:100C600001010E94A8280C94CD0D843879F40E94CB
:100C70000C2882FF35C067E480910001909101014A
:100C80000E94A6280E94CD0D67E4E7CF9CEF980F45
:100C9000913A10F4682FE1CF90E2980F983050F419
:100CA000877091E001C0990F8A95EAF7892F0E9419
:100CB000910DD9CF9BE5980F933020F480E090E020
:100CC0000C94382898E5980F973120F480E090E054
:100CD0000C944E28803F20F00E941F170C9496170A
:100CE00008951F93CF93DF93182FEB010E945F05A8
:100CF000209741F08FE99FE00197F1F700C00000D5
:100D00002197F6CF812FDF91CF911F910C94090687
:100D1000893319F060E070E002C060E570E00C9487
:100D20007106882321F00E948B0D0C94CD0D08953F
:100D3000882321F00E94910D0C94CD0D0895CF923F
:100D4000DF92EF92FF920F931F93CF93DF937C017B
:100D5000062FC72FFC01D281158112951F700E94AA
:100D6000600D882399F0DD2389F08C2F807F8034FB
:100D700021F080E2800F883048F082E00E941D0E52
:100D80000E94600D91E0D82ED92601C0D12CCC2E26
:100D9000C2948FE0C8228C2D90E08C30910508F031
:100DA00085C1FC01EA5AFF4F0C9410358C2F807FCF
:100DB000CF70882311F0C295C07FDD2399F0CC233A
:100DC00009F460C180E2800F883010F0011104C086
:100DD0008C2F0E948B0D03C08C2F0E949B0D0E94B4
:100DE000CD0D50C1802F0E940906CC2309F45EC1AD
:100DF00080E2800F883010F0011104C08C2F0E9417
:100E0000910D03C08C2F0E94A10D0E94CD0D4EC1EB
:100E10008C2F807FCF70803211F0C295C07F00236D
:100E200019F00130C9F022C0DD2371F0112341F027
:100E3000113031F40E94AE0D8C2B0E94B60D36C1DC
:100E40000E94AE0D8C2B1DC0112319F0113009F436
:100E50002DC10E94C30D25C0DD2321F0163008F0FE
:100E600025C10EC0153008F021C11BC0DD2361F083
:100E7000112331F0F701858180FF04C18F708583D4
:100E80008C2F0E94910612C1112359F0093309F0E9
:100E90000AC1FFEF27EE83E0F15020408040E1F7E8
:100EA00000C18C2F0E94980601C18C2F86958695D3
:100EB000837019F0813061F0F9C0DD2321F0802FBB
:100EC0009C2F937002C080E090E00E943828F6C00A
:100ED000DD2321F0802F9C2F937002C080E090E0F2
:100EE0000E944E28EBC0802FDD2319F00E94C4160B
:100EF00002C00E941F170E949617E0C08C2F8370BB
:100F000079F5D111D7C0402F429546954770440FCF
:100F1000440F202F2F70042E01C0220F0A94EAF7ED
:100F200004FF08C08FE090E001C0880F4A95EAF7FF
:100F3000809501C080E0C695C695C370822BC230F3
:100F400049F058F4C13019F00E944609B3C00E941C
:100F50004109B0C00E944B09ADC00E943F09AAC020
:100F6000DD2319F08C2F817001C08695882309F448
:100F7000A1C0402F429546954770440F440F202F43
:100F80002F70042E01C0220F0A94EAF704FF08C054
:100F90008FE090E001C0880F4A95EAF7809501C084
:100FA00080E0C695C695C370822BC23049F058F4D4
:100FB000C13019F00E948A097DC00E9485097AC05B
:100FC0000E948F0977C00E94520974C0CF70DD2340
:100FD00039F08C2F0E946309802F0E9491066AC00D
:100FE000802F0E9498068C2F0E946E0963C0023FDA
:100FF00001F128F4003F41F0013FA1F03FC0033F61
:10100000F9F0043F39F13AC0DD2341F0153008F022
:101010004DC08C2F8F710E947A0948C0163008F09D
:1010200045C0F7CFDD2339F08C2F8F710E94630903
:101030003DC0DD23C9F38C2F8F710E946E0936C02D
:10104000DD2329F08C2F8F710E945B092FC00E9435
:1010500058092CC0DD2349F0CF718C2F0E94630901
:1010600063E08C2F0E94020E21C081E00E941D0EC1
:101070001230E0F082E00E941D0E18C0DD2331F036
:10108000112391F2802F0E945F0510C0112399F265
:10109000093349F49FEFE7EEF3E09150E040F04070
:1010A000E1F700C00000802F0E94090688EF8C0D38
:1010B000843020F40E940C280E940605DD20C9F02F
:1010C0000E945C0D80FD15C0F70112820E94560D32
:1010D0000E946309C7010E949A080E94560DDF9181
:1010E000CF911F910F91FF90EF90DF90CF900C94D4
:1010F0006E09DF91CF911F910F91FF90EF90DF90DC
:10110000CF9008950F931F93CF93DF93EC016881E5
:1011100079818A810E94240A8C010E9494090E948C
:101120003309B801CE010E949F06DF91CF911F9134
:101130000F910895CF93DF93EC01988189812B81E2
:101140003C81232B31F08F3F31F481E09F3F19F434
:1011500003C081E001C080E080FD19C0CE010E9483
:10116000CC0381110CC00E94600D882381F08A811C
:10117000882369F082E0DF91CF910C941D0ECE019F
:101180000E948208CE01DF91CF910C948203DF91FF
:10119000CF91089580E090E00E94382880E090E0B0
:1011A0000E944E280E94A80D0E94AB0D0E94CD0DFA
:1011B0000E94C7180C94961780910001909101012C
:1011C0000E94AA280C94CA080E94980D0C94DC086E
:1011D000E92FE295EF704E2F50E0FA013297EE3092
:1011E000F105B0F4EE59FF4F0C941035803F91F0AB
:1011F00018F4883E68F40EC0843F51F40BC0883E5A
:1012000048F0813F29F406C093FB882780F90895B0
:1012100080E0089581E00895FC01808191810E9421
:10122000190A0E94E8080895CF93DF9300D000D0F8
:101230001F92CDB7DEB70F900F900F900F900F90C9
:10124000DF91CF910895CF93DF9300D000D000D0ED
:10125000CDB7DEB726960FB6F894DEBF0FBECDBF72
:10126000DF91CF910895089508950C9434090C945A
:1012700035090E94370980930F020C94CA080C9418
:10128000390990910F02892B0C94390990910F0222
:1012900089230C94390990910F0289270C943909FC
:1012A0000C9434090E94500980930E020C94CA08D1
:1012B00080E00C94520991E001C0990F8A95EAF7F9
:1012C000892F0C94520921E030E001C0220F8A9549
:1012D000EAF780910E02822B0C94520921E030E053
:1012E00001C0220F8A95EAF7209580910E02822391
:1012F0000C94520921E030E001C0220F8A95EAF7F0
:1013000080910E0282270C94520990910E02892B33
:101310000C94520990910E0289230C9452099091D9
:101320000E0289270C945209089527E0929F800DA0
:101330001124E82FE695E695E695877051E001C007
:10134000550F8A95EAF783E0E89FF0011124E750F2
:10135000FE4F20E030E070E04081CB01022E02C061
:10136000969587950A94E2F7817081958427852365
:10137000842781932F5F3F4F2330310569F708950C
:1013800027E0929F800D1124682F669566956695DB
:10139000982F977083E0689FB001112440E050E0DF
:1013A00080E0FB01E40FF51FE750FE4F208130E0A5
:1013B000092E02C0369527950A94E2F7217033274B
:1013C000042E01C0220F0A94EAF7822B4F5F5F4F71
:1013D0004330510531F70895CF92DF92FF920F937A
:1013E0001F93CF93DF936C0100910E0280910F0247
:1013F000082BC7E0D0E010E0C8010C2E02C0959584
:1014000087950A94E2F780FD04C02197A8F7F12C94
:1014100007C0FC2EB6018C2F0E94E5100197A9F39E
:101420008F2DDF91CF911F910F91FF90DF90CF9083
:101430000895CF93DF93EC010E94EC09BE010E9456
:10144000E510DF91CF9108951F93CF93DF93EB01C8
:101450009091F801992321F0CB010E94190A13C041
:10146000882349F0CB010E94EC09182F682FCE0188
:101470000E94950904C0CB010E94C009182FBE012B
:10148000812F0E94E510DF91CF911F9108951F9346
:10149000CF93DF93C091100216E080911102C8171C
:1014A00099F0D0E01C9FF0011D9FF00D1124EE5E1D
:1014B000FD4F4081518162817381848195810E94B9
:1014C00023092196C770E9CFDF91CF911F9108952D
:1014D0004091420250914302609144027091450252
:1014E00080914602909147020C9423090F931F9319
:1014F000CF93DF938091470282958F7009F05DC092
:1015000080914402882309F458C080911002109100
:1015100011026091420270914302C0914502D09144
:10152000460291E06F3F09F090E0292F06E0811715
:1015300009F443C0209721F07F3F21F030E003C041
:1015400031E001C0322F90E030FD34C0089FF0013F
:10155000099FF00D1124DF01AE5EBD4F11963C9145
:101560001197371327C03C91361324C012963C9133
:10157000129731111FC013964D915C9114974C1B1B
:101580005D0B483C5105B0F4809147028F7080613B
:1015900080934702E95EFD4F80818F708061808378
:1015A00082E492E00E949A08DF91CF911F910F91FF
:1015B0000C94470A01968770BACFDF91CF911F91A3
:1015C0000F9108959F92AF92BF92CF92DF92EF92C8
:1015D000FF920F931F93CF93DF93CDB7DEB7619741
:1015E0000FB6F894DEBF0FBECDBF8C0185E0F801C9
:1015F000DE011D9601900D928A95E1F7F801E280D7
:10160000909142026091430220914502309146023E
:101610002115310531F06F3F31F481E09F3F19F41E
:1016200003C081E001C080E0F82FF1709F2E80FDA3
:101630003FC1F80140815181A380B48082E4C82E6B
:1016400082E0D82EF0904402F501E21BF30BFF205C
:1016500009F4D9C080914702E83CF10508F095C033
:10166000282F207F09F052C0561313C0491311C010
:10167000FE2CE1100EC08F708061809347020E94A3
:10168000680AC6010E949A0880914702F801858382
:101690004CC1AB2831F05F3F31F481E04F3F19F48A
:1016A00003C081E001C080E080FD03C081E08E25A1
:1016B00002C080E090E0F82FF170FF2E80FF1CC088
:1016C000809110022091110236E0821709F40BC1BB
:1016D00090E0389FF001399FF00D1124EE5EFD4F30
:1016E0006181561306C06081461303C06281E61211
:1016F00003C001968770E9CFFE2CEE2009F415C1D6
:101700008091470281608093470254C0561306C0FF
:10171000491304C0E11002C0F80199C0C8010E9439
:101720000C09882361F1EE2051F120914702822FAC
:1017300082958F7090E0029774F0809142029091B0
:10174000430298878F831986BB86AA862C87CE0191
:1017500007960E949A0886E0F801A2E4B2E00190A0
:101760000D928A95E1F70E94760A0E94680A0AC0E3
:10177000561711F1C8010E940C0981112CC0C80133
:101780000E949A08FF24F394D0C0282F207F81F76D
:101790007A2DB98AA88A6E2D89890E94140982E45B
:1017A00092E00E949A0886E0F60111928A95E9F784
:1017B0000E94680AF12CB9C04913DCCFE110DACFDE
:1017C000F8018583C8010E949A0886E0F60111920B
:1017D0008A95E9F7AAC0EE2091F220914702822F64
:1017E00082958F7090E002970CF4B5CF8091420201
:1017F000909143029A8389831B82BD82AC822E839F
:10180000CE010196A6CFE83CF10508F044C0FE2CBD
:10181000EE2009F4B4CF561330C049132EC02091E6
:10182000470220FD21C0822F82958F70482F50E003
:1018300041155105C9F0F80125834F30510541F09C
:101840008F5F982F9295907F822F8F70892B858341
:10185000C8010E949A0886E0F801A2E4B2E0019073
:101860000D928A95E1F73CC086E0F801A2E4B2E06F
:1018700001900D928A95E1F758C0C8010E940C09A9
:10188000811169CF80914702816080934702C8012E
:101890000E949A084AC07A2DB98AA88A6E2D898931
:1018A0000E94140986E0F60111928A95E9F718C0A2
:1018B000EE2009F464CFC8010E940C09F82E882399
:1018C00009F45DCF86E0F801A2E4B2E001900D9248
:1018D0008A95E1F782E492E00E9459050E94760A17
:1018E0000E94680A22C04D875E878D859E850E9472
:1018F000190A292F22952F70223028F49F7039F071
:10190000811105C00BC0243028F49F7049F4805E1B
:10191000883020F0C8010E949A089F2CF92C05C03D
:10192000F8019581907F99F7F9CF8F2D61960FB6C9
:10193000F894DEBF0FBECDBFDF91CF911F910F9105
:10194000FF90EF90DF90CF90BF90AF909F90089561
:101950001F93CF93DF93CDB7DEB72C970FB6F894D4
:10196000DEBF0FBECDBF4F83588769877A878B87CD
:101970009C87CE0107960E94E20A8823D1F09F81BE
:1019800088852A853B85232B31F08F3F31F481E018
:101990009F3F19F403C081E001C080E080FD47C093
:1019A0004F81588569857A858B859C850E9423099E
:1019B0003EC086E0FE013796DE01119601900D9241
:1019C0008A95E1F7FF81E8856A857B856115710558
:1019D00031F0EF3F31F481E0FF3F19F403C081E0C3
:1019E00001C080E080FD23C02091110230E0C901D8
:1019F0000196877099274091100250E0841795074F
:101A0000F1F1F983EA837D836C8396E0929FD001A4
:101A1000939FB00D1124AE5EBD4FFE013196019033
:101A20000D929A95E1F7809311020E94470A16E001
:101A30008091100290911102891771F1189FC001D5
:101A400011248E5E9D4F0E94E20A882329F1E091C5
:101A500010021E9FF0011124EE5EFD4F4081518166
:101A600062817381848195810E9423098091100293
:101A700090E001968770992780931002D9CF0E9439
:101A8000E4081092110210921002E2E4F2E086E003
:101A9000DF011D928A95E9F72C960FB6F894DEBF08
:101AA0000FBECDBFDF91CF911F9108958091480265
:101AB000859585958595089580914802877008954C
:101AC00090914802977081E009F480E00895909128
:101AD000BC0292FB222720F9281751F080FB92F9D3
:101AE0009093BC028091BB029091BC020C94640E56
:101AF00008958091BC0282FB882780F991E08927B4
:101B00000C94670D81E00C94670D80E00C94670DD8
:101B100080915402089590915402892B809354022D
:101B200008958095909154028923809354020895DA
:101B300010925402089590915302892B809353027E
:101B400008958095909153028923809353020895BC
:101B50001092530208951092520208958091490202
:101B6000089508950C94B10D0C94B20D9091BC029F
:101B700092FD08C090914902981721F08093490284
:101B80000C94B40D089580914902882329F0109295
:101B9000490280E00C94B40D0895E0910001F091A9
:101BA0000101809154028083E0910001F0910101D4
:101BB000908180915302892B8083E0910001F09104
:101BC0000101908180915202892B8083809149028A
:101BD000882381F0E0910001F09101019081892B2F
:101BE000808380910001909101010E9464288111FD
:101BF0000E94C30D80910001909101010C941F2857
:101C00000C94B10D9091BC0292FD10C098E0899F98
:101C100090011124262B209348020E946309809191
:101C200048028595859585950C94000E0C94630962
:101C30001092480280E00C94000E2091480280959A
:101C4000822380934802982F977041F430E0482F08
:101C5000082E000C550B2417350721F49091BC0277
:101C600092FF07C08595859585950E946E090C9415
:101C7000180E08956FEF7FEF80E090E00C94A3358D
:101C800080E090E00E947F35893E9E4F11F40C94D5
:101C9000762080E0089582E090E00C94713583E036
:101CA00090E00C947135CF9384E090E00E94713500
:101CB000C82F82E290E00E9471352C2F30E0A901FC
:101CC000582BCA01CF910895CF93C92F682F84E074
:101CD00090E00E9485356C2F82E290E0CF910C94C9
:101CE0008535AB01BC018FE090E00C949735AB01DA
:101CF000BC0183E190E00C94973560E070E0CB018B
:101D00000C94770E60E070E0CB010E94710E0C9491
:101D10007D0E69EE7EEF80E090E00E94A33560E0EA
:101D200082E090E00E94853560E083E090E00E94D0
:101D3000853510920F0260E084E090E00E948535C6
:101D400060E082E290E00E94853560E085E090E00E
:101D50000E94853560E086E090E00E9485356FEF57
:101D600087E090E00E94853540E050E0BA0188E0CD
:101D700090E00E94973560E08DE090E00E9485350C
:101D800040E050E0BA0188E190E00E94973560E0C1
:101D900087E190E00E94853540E050E0BA018CE197
:101DA00090E00E94973560E070E080E290E00E9451
:101DB000A33540E050E0BA0188E190E00E949735F9
:101DC00080E00E948F200E94BB200C94820E0C9415
:101DD000890E682F8EE090E00C9485350E9493293F
:101DE0006093620270936302809364029093650231
:101DF00060935E0270935F02809360029093610231
:101E0000089585B7806885BF85B7806885BF0895C8
:101E10000C94FE1308950C940A0F0C940A0F0C9462
:101E20000D0F0C940A0F0C94110F0C940A0F0E94C2
:101E3000010F81EC91E10E94012A0E94150F0C9480
:101E4000130F0E940B0F0C940A0F0E947E290E9410
:101E5000B1280E94CA200E94BB120E94A5230E94A2
:101E60008A1E0C940F0F9F92AF92BF92CF92DF9277
:101E7000EF92FF920F931F93CF93DF93CDB7DEB70F
:101E80002A970FB6F894DEBF0FBECDBF0E94731322
:101E900081110E94EE0E86E5A82E82E0B82E00E0A9
:101EA00010E0902E802F0E94F511D82EF501C190E0
:101EB0005F01C826B1F40F5F1F4F0830110589F785
:101EC0008FEF89838A831B820E9487298160782F04
:101ED0009D838C8349815A816B818D810E940F057E
:101EE0002FC08091660281FD0E94FB11E12CFF242E
:101EF000F3948C2D8F21F1F00E94080F882399F024
:101F0000EE829F82DF2081E009F480E088870E94D2
:101F100087298160782F9A8789874E815F816885BC
:101F20008A850E940F05F801EA5AFD4F8081F82644
:101F3000F08206C0E394FF0CF7E0EF12DACFBBCFDC
:101F40000E94CE1E0E94B4170E940C289091550248
:101F50008917B9F00E940C28809355022A960FB673
:101F6000F894DEBF0FBECDBFDF91CF911F910F91CF
:101F7000FF90EF90DF90CF90BF90AF909F900C9428
:101F800006052A960FB6F894DEBF0FBECDBFDF91CF
:101F9000CF911F910F91FF90EF90DF90CF90BF9066
:101FA000AF909F900895CF93DF930E94EA10EC01C9
:101FB000811521E5920708F045C0811530E59307AA
:101FC00008F094C0883E910528F5803E910508F000
:101FD000F8C0883A910570F4853A910508F07CC004
:101FE0008130910509F475C008F4E8C0049708F041
:101FF000E8C0E4C08F3B910508F0E0C0C85AD0E0CB
:10200000CC0FDD1FC257DE4F0990D881C02DCE0105
:102010009464D8C0811540E2940758F4811551E0CA
:10202000950708F0CEC0803F910508F4C7C09065C1
:10203000C9C0C11580E4D80708F4C0C0DF70CE0164
:10204000906AC0C0811525E59207A8F4811534E592
:10205000930708F095C0811543E5940708F07BC00D
:10206000811552E5950708F061C0D82FCC27CE0125
:10207000816F906AA7C0C11589E5D807A0F4C11582
:1020800028E5D20708F082C0C11536E5D30708F06D
:1020900095C08C2F0E947E118F7190E0D82FCC2795
:1020A000CE0190628FC0C1154AE5D40708F474C010
:1020B000CE0190568115904208F080C08D2F8F710F
:1020C0000E947E11DD27D0628F71AE01582BCA01AC
:1020D00079C081E090E076C0C55AD0E0C454DE4FAC
:1020E0008881C82FD0E0CE0190646CC074E09695D2
:1020F00087957A95E1F7282F23703C2F337081E084
:1021000090E002C0880F991F3A95E2F79C68AC01F5
:10211000522B9A019C2F9F709695969550E2959F11
:10212000E0011124C9018C2B9D2B4CC08370992791
:1021300021E030E002C0220F331F8A95E2F79C2F86
:102140009695969580E2989FE0011124C22BD32B9F
:10215000CE019C6837C08370992721E030E002C02F
:10216000220F331F8A95E2F79C2F9695969540E2B1
:10217000949FE0011124C22BD32BCE019A6822C078
:10218000D82FCC27CE01846F906A1CC0DC2FCC27BF
:10219000CE01806F906A16C08C2F8F700E947E11C6
:1021A00094E0D695C7959A95E1F7CF70D0E0DC2FF3
:1021B000CC27D0699E01282BC90104C080E090E0A3
:1021C00001C0CE01DF91CF9108950E94E3220E94C9
:1021D000D30F08958238910569F1B0F481339105E8
:1021E00009F46DC048F48932910509F463C08A325C
:1021F000910509F469C008958533910509F455C026
:1022000089339105B9F00895833E910569F138F459
:10221000803E9105B1F0823E910509F10895863E18
:102220009105A9F1873E9105B9F1843E910509F028
:1022300064C023C02091BB0220FD4FC021FD4DC0D2
:1022400008958091BB0280FD44C08091BC0280FF54
:1022500044C08091BB0284FD42C083EE4DC080919A
:10226000BB0282FF38C0F5CF8091BB0282FD33C034
:102270008091BC0280FD31C0ECCF8091BC0281FF17
:1022800032C08091BB0284FD2AC087EE35C08091A8
:10229000BB0283FF26C0F5CF8091BB0283FD21C026
:1022A0008091BC0281FD1FC0ECCF8091BB0285FDF7
:1022B0001CC01DC08091BB0285FD19C016C0809155
:1022C000BB0286FD16C017C08091BB0286FD13C0FD
:1022D00010C089E311C082EE0FC080EE0DC080E017
:1022E0000BC086EE09C084EE07C089E205C085E315
:1022F00003C08AE201C081E390E008959091BB029F
:1023000092FF0DC0282F2871283019F4877F846030
:1023100006C0282F2471243011F48B7F886093FF2E
:102320000DC0282F2871283119F4877E846106C0DA
:10233000282F2471243111F48B7E88612091BC02F6
:1023400020FF0DC0382F3871383019F4877F816035
:1023500006C0382F3171313011F48E7F886021FF33
:102360000DC0282F2871283119F4877E816106C09D
:10237000282F2171213111F48E7E886194FD877E92
:10238000089580E008950C943A0E0E9473138FE331
:102390009CE90197F1F700C000000E94731380E0F0
:1023A0000E94F51180FF04C00E94C3110C94F02913
:1023B00008950C94C5110E94400E811102C00E9424
:1023C000E70E0E944B0E809366020E94530E90937C
:1023D000BC028093BB020E94D9110E944F0E0E9442
:1023E0003F0980910E020C945009E82FF0E0EB5366
:1023F000FD4F80810895089580EA8A95F1F7089548
:1024000000C008950C94FC1108950C9404120C94CF
:1024100005120C9404120C940912F894E82FE2951A
:10242000EF70F0E031A1282F2F7081E090E001C023
:10243000880F2A95EAF7982F9095932391A392A15C
:10244000892B82A37894089508950C9424120F93F5
:102450001F93CF93DF93C2E0D1E089918F3F11F0BA
:102460000E940D1281E0C930D807B9F7C9E0D1E068
:102470000DE011E089918F3F11F00E940D120C17B1
:102480001D07C1F7DF91CF911F910F910895DF9242
:10249000EF92FF920F931F93CF93DF93062F10E0DD
:1024A0000E5F1E4FE80128812F3F09F45CC0F62E15
:1024B000E92ED82EF894E22FE295EF70F0E081A19A
:1024C0002F70C1E0D0E0AE0102C0440F551F2A9525
:1024D000E2F79A01842B81A382A12095282322A3CD
:1024E00078940E9400120F2C01C0CC0F0A94EAF7D6
:1024F0003C2F6C2F6095A9E0B1E0ED2DFE2DAF01D2
:102500004C5F5F4FE12C2D912F3FA9F0822F8295D8
:102510008F7090E0EC0188A190E02F7002C095953B
:1025200087952A95E2F780FD06C08081832B808302
:10253000EE24E39403C08081862380833196E417E0
:10254000F50709F7F80180818F3F11F00E940D1205
:102550006E2D8F2DDF91CF911F910F91FF90EF90F6
:10256000DF900C940212DF91CF911F910F91FF9099
:10257000EF90DF900895CF93DF93CDB7DEB72F971D
:102580000FB6F894DEBF0FBECDBF0E941814809125
:10259000110181112FC0FE01319628E0DF011D924B
:1025A0002A95E9F721E9298320E92A8322E32B836D
:1025B00026E32C83CF01E9E0F1E09E01275F3F4F46
:1025C000DC014D91CD014193A217B307C9F727E074
:1025D000E6E5F1E0DE01199601900D922A95E1F70A
:1025E000FC01A2E0B1E0CE01409621912D93E817C5
:1025F000F907D9F780911101811102C094E001C05F
:1026000090E09093CE0284E0891B8093CD020E94DB
:102610002712EDEBF2E0A5ECB2E011921D9282E000
:10262000E53CF807D1F784E00E94C7130E94B40389
:102630002F960FB6F894DEBF0FBECDBFDF91CF91BE
:102640000C9422141F93CF93DF9300D000D0CDB70A
:10265000DEB70E94FE136091CE02882371F11982C9
:102660001A821B821C82862F90E0BE016F5F7F4F13
:102670008B539D4F0E943014E091CD029E012B5F41
:102680003F4FF0E0EB53FD4FDE011196882361F0E0
:1026900010E08D919081981711F0808311E03196B0
:1026A000A217B307B1F706C011921D92A217B30784
:1026B000D9F711E00E94BA030DC070E06B537D4F53
:1026C0008091CD0290E08B539D4F0E94C0140E94D8
:1026D000251210E0812F0F900F900F900F90DF9137
:1026E000CF911F910895EF92FF920F931F93CF9375
:1026F000DF93CDB7DEB728970FB6F894DEBF0FBED5
:10270000CDBF8E010F5F1F4F88E0F80111928A95AF
:10271000E9F7F12C6F2DC8010E944712F394F7E0FE
:10272000FF12F8CF48E050E0B8018DEB92E00E9434
:102730005B357C0121E0892B09F420E0E114F104F0
:1027400041F088E0F801ADEBB2E001900D928A957E
:10275000E1F76091CE0270E06B537D4F44E08DEB6A
:1027600092E00E94C813EF2819F40E94221302C0BD
:1027700081E090E028960FB6F894DEBF0FBECDBF83
:10278000DF91CF911F910F91FF90EF9008950895E1
:10279000FF920F931F93CF93DF938C01F62ED72FC9
:1027A000C42F222349F081E0809369020E94872987
:1027B0009093680280936702809169028823C1F038
:1027C00080916702909168020E949F29059780F08E
:1027D000EF2DFD2FD8014C2F50E0CD01801B910B28
:1027E000841795071CF48D918193F7CF109269029D
:1027F000DF91CF911F910F91FF90089580916C020E
:1028000081110DC00E947031811102C082E001C0AF
:1028100081E080936C02823011F40E946B3181E080
:1028200090916C02913009F080E008950C94FE13B1
:102830000E941614809311010E94FE1381110C94C2
:10284000681408950E94FE13811102C00C946A144A
:10285000089581E090916D029A3008F080E008952B
:102860000F931F93CF93DF93EC018B0180916D0247
:102870008A3038F4B801CE010E94BE1481111DC007
:102880000AC080916A0290916B020E949F29843F46
:10289000914080F715C080916D028F3F19F08F5FD6
:1028A00080936D0280916D028A3060F00E948729CA
:1028B00090936B0280936A0203C010926D0202C073
:1028C00080E001C081E0DF91CF911F910F910895C9
:1028D0000C9442260C944526EF92FF920F931F937F
:1028E000CF93DF937901C82F880FDD0B4115510578
:1028F000A9F08AE08C9FF0018D9FF00D1124EE5E0F
:10290000FE4F8381948182599D4F228130E042178E
:10291000530708F49A01A9010E946835CE010E946C
:102920004F27892B09F50115110501F18AE08C9FCC
:10293000F0018D9FF00D1124EE5EFE4F458150E0B9
:102940000417150708F4A8018AE08C9FF0018D9FF9
:10295000F00D1124EE5EFE4F6681778162597D4F46
:10296000C7010E94683502C080E001C081E0DF91AC
:10297000CF911F910F91FF90EF9008950C94E11566
:102980000C94FD150F931F93CF93DF9300D000D0CD
:10299000CDB7DEB760918302709184028091850289
:1029A000909186020E94AE296436710581059105D9
:1029B00028F10E94D728DC01CB010296A11DB11D90
:1029C00089839A83AB83BC8300E010E020E030E091
:1029D00044E050E0BE016F5F7F4F82E00E946C14C4
:1029E000182F882361F00E949329609383027093CB
:1029F0008402809385029093860201C011E0812FAA
:102A00000F900F900F900F90DF91CF911F910F912A
:102A10000895AF92BF92CF92DF92EF92FF920F9301
:102A20001F93CF93DF937C015B016A010E942914FD
:102A3000811103C001E010E002C00AE010E0C1E033
:102A4000D0E0F894B501C701F60109957894811199
:102A500015C021960C171D0794F0CC9F9001CD9FB7
:102A6000300D300D112480E090E045E34A95F1F7F8
:102A70000000019682179307C1F7E3CF81E0DF9151
:102A8000CF911F910F91FF90EF90DF90CF90BF906B
:102A9000AF900895AF92BF92CF92DF92EF92FF92E4
:102AA0000F931F93CF93DF9300D000D01F92CDB729
:102AB000DEB75B01E090BF01F090C00101E010E0E3
:102AC0009E012B5F3F4F40E050E060E070E080E00F
:102AD0000E946C14182F882309F43EC067018FEF01
:102AE000C81AD80A60917F02709180028091810299
:102AF000909182020E94AE2964367105810591058C
:102B000018F104E010E09E012F5F3F4F40E050E0DD
:102B100060E070E081E00E946C14182F64E070E0C7
:102B2000C6010E94A62391E02D81281390E019236D
:102B300051F10E94932960937F02709380028093E9
:102B400081029093820211C064E070E0C6010E948D
:102B5000A6239D818913D5CFF70181819281A3811D
:102B6000B48189839A83AB83BC83112361F089810B
:102B70009A81AB81BC8180937B0290937C02A0936D
:102B80007D02B0937E0280917B0290917C02A091A5
:102B90007D02B0917E02F50180839183A283B3838D
:102BA000812F0F900F900F900F900F90DF91CF918A
:102BB0001F910F91FF90EF90DF90CF90BF90AF905B
:102BC00008950F931F93CF93DF93EC018B014AE499
:102BD00055E10E940915882351F042EC54E1B801F7
:102BE000CE01DF91CF911F910F910C94091580E0D8
:102BF000DF91CF911F910F9108950F931F93CF9362
:102C0000DF93F894C091BF01D091C001CE0101962D
:102C100024E0FB01DC0101900D922A95E1F764E0CC
:102C200070E00E94A62388837894F8946D817E8159
:102C30008F81988500917702109178022091790216
:102C400030917A02601771078207930751F0609301
:102C50007702709378028093790290937A020E94AF
:102C6000BA287894DF91CF911F910F9108950E9417
:102C7000FB280E94952B0E94AE2B0E94C02B0E9425
:102C8000210FFBCF80918D0280FF0BC06091350139
:102C900085E0689FB00111247595679575956795D6
:102CA0002BC081FF09C06091350185E0689FB001AC
:102CB00011247595679520C082FF07C0609135018A
:102CC00085E0689FB001112417C090918C02992370
:102CD000D1F060913401961788F72091350185E095
:102CE000289F90011124929FA001939F500D1124C1
:102CF00070E0CA010E94DA346038710540F4611551
:102D0000710519F406C065E070E0862F08958FE71D
:102D1000089581E0089580918D0280FF08C0609140
:102D2000310170E0759567957595679521C081FFB4
:102D300006C06091310170E07595679519C082FFFA
:102D400004C06091310170E010C090918B02992312
:102D500099F0609130019617A0F780913101899F19
:102D6000C001112470E00E94DA346038710540F42B
:102D70006115710519F406C061E070E0862F0895B1
:102D80008FE7089581E00895803F21F40E94421664
:102D9000819504C0813F29F40E94421680939102DC
:102DA0000895823F21F40E944216819504C0833F1A
:102DB00029F40E944216809390020895893F19F4E5
:102DC0000E948B1605C08A3F31F40E948B168195B4
:102DD0008093920208958B3F21F40E948B16819577
:102DE00004C08C3F29F40E948B16809393020895AF
:102DF0009CE0980F953078F421E030E0A90102C002
:102E0000440F551F9A95E2F7CA0190918F02892BC2
:102E100080938F0208958D3F21F480918D0281600F
:102E20000BC08E3F21F480918D02826005C08F3FE0
:102E300029F480918D02846080938D020895803FF3
:102E400039F49091910297FF35C01092910259C0C8
:102E5000813F29F4909191021916BCF32BC09091F7
:102E60009002823F29F497FF25C01092900249C03A
:102E7000833F19F41916CCF31DC090919202893F3B
:102E800029F41916BCF4109292023BC08A3F19F43F
:102E900097FF10C0F8CF8B3F39F49091930297FFC2
:102EA00009C0109293022DC08C3F21F4909193029F
:102EB0001916BCF39CE0980F953080F421E030E0C7
:102EC000A90102C0440F551F9A95E2F7CA018095E7
:102ED00090918F02892380938F0213C08D3F21F43C
:102EE00080918D028E7F0BC08E3F21F480918D02E8
:102EF0008D7F05C08F3F29F480918D028B7F809359
:102F00008D0280919002811106C080919102811101
:102F100002C010928C0280919202811106C08091B1
:102F20009302811102C010928B0208950E9487299A
:102F300020919002211104C020919102222321F0BE
:102F400090938A028093890220919202211104C0F9
:102F500020919302222321F090938802809387028C
:102F60008EE892E00C942A28EF92FF920F931F9321
:102F7000CF93DF9300D000D000D0CDB7DEB786E08E
:102F8000EEE8F2E0DE01119601900D928A95E1F7EC
:102F9000E0909002F09091020091920210919302C1
:102FA000109290021092910210929202109293024B
:102FB000E11003C0FF2009F45DC080918902909167
:102FC0008A020E949F29AC0190918C02992339F0CA
:102FD0002091360130E02417350758F04BC020917E
:102FE00037018AE0289F900111242417350718F033
:102FF00041C09F3F19F09F5F90938C02EE2061F0DB
:103000000E9442161E1414F09FEF01C091E0989F99
:10301000902D112490939002FF2061F00E9442169F
:103020001F1414F09FEF01C091E0989F902D112480
:1030300090939102309190023323E1F0209191021C
:103040002223C1F045EB3403C0011124992319F068
:103050009093900203C081E08093900235EB2303AC
:10306000C0011124992319F09093910203C081E0CB
:1030700080939102011103C0112309F45DC0809176
:103080008702909188020E949F29AC0190918B0247
:10309000992339F02091320130E02417350758F098
:1030A0004BC0209133018AE0289F900111242417FE
:1030B000350718F041C09F3F19F09F5F90938B0236
:1030C000002361F00E948B16101614F09FEF01C0D0
:1030D00091E0989F902D112490939202112361F01A
:1030E0000E948B16111614F09FEF01C091E0989F7B
:1030F000902D112490939302309192023323E1F0AA
:10310000209193022223C1F045EB3403C001112426
:10311000992319F09093920203C081E08093920268
:1031200035EB2303C0011124992319F090939302E6
:1031300003C081E0809393028091900281110BC0C3
:1031400080919102811107C080919202811103C088
:103150008091930281110E949617EB82FC820D836D
:103160001E8386E0FE013196AEE8B2E001900D923A
:103170008A95E1F726960FB6F894DEBF0FBECDBF55
:10318000DF91CF911F910F91FF90EF900895EEE89E
:10319000F2E086E0DF011D928A95E9F710928C0239
:1031A00010928B0210928D020895EF92FF920F936E
:1031B0001F93CF93DF938B01682F11110AC0442313
:1031C00029F0E82FF0E0E958FC4F6491762F862F24
:1031D00075C0212F30E0E82FF0E0442321F0E958BA
:1031E000FC4FE491F0E046E0049FC0011124CFEFD2
:1031F000D0E0BE010E94C6344BEA4603C001479F9F
:10320000900D1124800F911D800F911D982F990F03
:10321000890FAE01421B530B4E9FD0014F9FB00D43
:103220005E9FB00D11249B2F189FA0011124452FE4
:1032300055278E01041B150B0E9FA0010F9F500DEB
:103240001E9F500D11247E01E81AF108E29E8001B4
:10325000E39E100DF29E100D1124212F3327C21B67
:10326000D30BCE9F9001CF9F300DDE9F300D1124E8
:1032700062307105A9F048F46115710569F061309B
:103280007105C9F48B2F752F0DC06430710581F065
:1032900058F06630710579F47E2F8B2F932F0DC077
:1032A000832F7B2F9E2F09C08E2F7B2F952F05C03C
:1032B0008E2F732F02C07E2F852F692FDF91CF9124
:1032C0001F910F91FF90EF90089541E00E94D51853
:1032D000089508950E9465190895CF93DF93762F7E
:1032E000E901682F842F0E946A19798368838A8391
:1032F000DF91CF9108958091D002282F269530E05C
:103300002115310519F48170826005C0253231051F
:1033100024F0817088648093D002089588E090E062
:103320000C947935CF92DF92EF92FF926B017C0182
:103330000E947B19B701A60188E090E0FF90EF9012
:10334000DF90CF900C9497356091D0027091D102AC
:103350008091D2029091D3020C949219E0EDF2E0A8
:1033600083E0808311828FEF828383831482608164
:103370007181828193810C9492198091D00280FF97
:1033800002C08695089580E008959091D40293300C
:1033900018F49F5F9093D402882351F06091D0027B
:1033A0007091D1028091D2029091D3020C94921923
:1033B000089581E00C94C5199091D402992319F0D5
:1033C00091509093D402882351F06091D002709173
:1033D000D1028091D2029091D3020C949219089557
:1033E00081E00C94DC198091D40208958093D4027A
:1033F000662351F06091D0027091D1028091D20287
:103400009091D3020C949219089560E00C94F619EF
:103410008091D10208958091D20208958091D302C3
:10342000089570E00C944B2060913C018091D00293
:1034300080FF0AC080913B0123E0829FC0011124DC
:103440008B529D4F0C94111A80913D0190913E0139
:10345000891780F7E82FF0E09F01220F331FE20F5A
:10346000F31FEB52FD4F1182108212828F5FF0CF5B
:103470009091D00290FF16C090913D0120913E01A5
:10348000921770F4E92FF0E0DF01AA0FBB1FEA0FDB
:10349000FB1FEB52FD4F8183608342839F5FF0CF20
:1034A0000C94141A0895CF93DF9300D01F92CDB7D8
:1034B000DEB79091D00290FF0AC09E012F5F3F4F70
:1034C0000E946D194B8169818A810E94381A0F9080
:1034D0000F900F90DF91CF910895CF93DF93EC0180
:1034E0006C8170E080E090E00E94C73220E030E024
:1034F0004FE753E40E94EA312BED3FE049E450E40A
:103500000E94F0330E945D340E9464322BE43AE35F
:103510004EE25FE30E947D3120EF3BEF48ED52E445
:103520000E94F0330E949632462FE0EDF2E0628175
:1035300081810E94531A8C818F5F8C83DF91CF91A0
:103540000895CF93DF93EC01E0EDF2E043816281D7
:103550008C810E94531A8C818F5F8C83DF91CF9175
:1035600008950F931F93CF93DF9300D01F92CDB791
:10357000DEB78C018091940281110AC09E012F5FF9
:103580003F4F4FEF6FEF0E946D198A818093940235
:10359000F8018481813051F028F0823061F440914B
:1035A00094020AC08091940240E007C060919402A6
:1035B00040E080E003C040E080E060E00E94381A14
:1035C000F801848190E0019663E070E00E94DA34B3
:1035D00084830F900F900F90DF91CF911F910F91E7
:1035E0000895AF92BF92CF92DF92EF92FF920F9326
:1035F0001F93CF93DF9300D01F92CDB7DEB7182F64
:10360000F62E042FE22E9091D00290FF6DC0E92F8C
:10361000E695AE2FB0E0AF53BE4F8C918093A002E1
:103620009E7F923061F49E012F5F3F4F812F0E9459
:103630006D194B8169818A810E94381A43C082309A
:1036400019F40091D3023EC0863019F41091D102D2
:1036500039C08930D9F38931A9F5E9518E2F8170AC
:10366000D82EE695F0E0EE58FC4FA590B490C12C12
:10367000BB2460913F01C61618F52C2D30E0A29EA8
:10368000C001A39E900DB29E900D112470E00E9487
:10369000C634812FD11002C0860F01C0861B9091C5
:1036A0003D01290F311DA901440F551F240F351F5E
:1036B0002B523D4F402F6F2D0E946D19C394D9CFCF
:1036C0000E94141A1093D102F092D2020093D302F6
:1036D000EE2051F06091D0027091D1028091D2021F
:1036E0009091D3020E9492190F900F900F90DF914A
:1036F000CF911F910F91FF90EF90DF90CF90BF90EF
:10370000AF900895E0EDF2E09181282F438162812E
:1037100088E0890F0C94F11A81E00C94821BE0ED93
:10372000F2E09181282F4381628188EF890F0C9408
:10373000F11A81E00C948F1BE0EDF2E0628128E049
:10374000620F08F46FEF282F438181810C94F11AE6
:1037500081E00C949C1BE0EDF2E0628128E0621BAA
:1037600008F460E0282F438181810C94F11A81E0F4
:103770000C94AB1BE0EDF2E0438128E0420F08F42B
:103780004FEF282F628181810C94F11A81E00C9413
:10379000BA1BE0EDF2E0438128E0421B08F440E070
:1037A000282F628181810C94F11A81E00C94C91B4D
:1037B00020E00C94F11AFF920F931F93CF93DF93A5
:1037C000EC01F12C0FEF10E060913F01F616F0F4E0
:1037D00080913D012F2D30E0280F311DC901880F48
:1037E000991F280F391F2B523D4F70E0C8010E94CE
:1037F000DA34962F8C814091D3026091D202F99EE7
:10380000800D11240E946D19F394DECF0E94141ACA
:103810009A818C8190FF02C08F5F01C081508C83A0
:10382000DF91CF911F910F91FF900895BF92CF929A
:10383000DF92EF92FF920F931F93CF93DF93FC01E0
:10384000828180FF02C00FEF01C001E010E0809193
:103850003F01181708F040C080913D01C12ED12CC6
:10386000E601C80FD11DCE01880F991FC80FD91FBF
:10387000CB52DD4F198218821A8234E0E32EF12CEC
:10388000B12C809196028B0D813114F08F7005C0A0
:1038900087FF03C090913F01890F082E000C990B00
:1038A000C816D90691F48091D3028E9DA0018F9DF8
:1038B000500D112455954795559547959E0160915A
:1038C000D2028091D1020E946D19B00EF1E0EF1A80
:1038D000F108B9F61F5FBBCF0E94141A80919602BF
:1038E000013031F4811102C080913F01815007C045
:1038F00090E0019660913F0170E00E94DA3480937D
:103900009602DF91CF911F910F91FF90EF90DF9082
:10391000CF90BF900895CF9380913D0190913E014B
:10392000891770F4E82FF0E09F01220F331FE20F98
:10393000F31FEB52FD4F1182108212828F5FF0CF86
:10394000C0E060913F01C617C0F5EC2FF0E070E0D9
:10395000CF010E94DA3420913D01820F209195021F
:10396000022E000C330B90E0E217F307CCF020910D
:103970003A01022E000C330B2E173F078CF09C01EE
:10398000220F331F820F931F9C012B523D4F4091FA
:10399000D3026091D2028091D1020E946D190BC0B6
:1039A000FC01EE0FFF1F8E0F9F1FFC01EB52FD4F1E
:1039B000118210821282CF5FC4CF0E94141A20910C
:1039C000390180919502820F8093950290913A017E
:1039D000920F90933A0119165CF4082E000C990B83
:1039E00040913F0150E041505109841795071CF068
:1039F000219520933901CF9108958F929F92AF9294
:103A0000BF92CF92DF92EF92FF920F931F93CF93CB
:103A1000DF938C01FC014481C42FD0E09E01DE01C4
:103A20000E9425359B01AC010E943B356B017C0156
:103A3000E0E2F0E0EC1BFD0BA5E5B0E09B01AC0182
:103A40000E943B354B015C019F01DF010E941D3547
:103A50009B01AC010E9446359B01AC012C0D3D1D24
:103A60004E1D5F1DC501B4010E94EE34C22FD22F3E
:103A70002A3228F4F3E02F9F900111240DC025E590
:103A800030E02C1B3109C901880F991F280F391FFD
:103A900037FF02C02F5F3F4F35952795C22FC09546
:103AA000F12C85E5E82EED1A80913F01F816C8F457
:103AB000F1FC02C08E2D01C08D2F90913D012F2D64
:103AC00030E0290F311DA901440F551F240F351F68
:103AD0002B523D4F4C2F6091D2020E946D19F394EE
:103AE000E3CF0E94141AF8018481811102C091E091
:103AF00003C0803219F49FEF909338019091380100
:103B0000890FF8018483DF91CF911F910F91FF906E
:103B1000EF90DF90CF90BF90AF909F908F900895DF
:103B20000F931F93CF93DF93EC0100E010E080919F
:103B30003F01282F30E00217130724F590913D0133
:103B40009801290F311DA901440F551F240F351F5E
:103B50002B523D4F869590E04C81081719071CF4B5
:103B6000442331F002C0411103C04091D30201C08F
:103B700040E06091D2028091D1020E946D190F5FE6
:103B80001F4FD5CF0E94141A8C8190E0019681704E
:103B900099278C83DF91CF911F910F910895E0EDCC
:103BA000F2E080818E7F8083608171818281938148
:103BB0000E9492191092A1022FEF80E792E021500B
:103BC00080409040E1F700C000000C94141AE0ED32
:103BD000F2E080818E7F80831092A1022FEF80E738
:103BE00092E0215080409040E1F700C000000C942A
:103BF000141A1092A10280919E0281110AC081E0E4
:103C000080939E028091D002817080939D020C94DB
:103C1000E71D08956091D002669570E04BE050E09A
:103C200080E491E00E944E35892B19F481E0809365
:103C3000A1020E94F228909398028093970208951F
:103C40009091D00290FF35C09170811102C09260B6
:103C500006C0853210F0986402C0880F982B9093AC
:103C6000D002662351F06091D0027091D102809110
:103C7000D2029091D3020E9492196091D00266956F
:103C800070E04BE050E080E491E00E944E35892BDB
:103C900019F01092A10202C00E940A1E81E08093D6
:103CA0009A024091D3026091D2028091D1020C9489
:103CB000D81B0895682F9091D002969581E0890FC6
:103CC000853208F081E00C94201E81E00C945A1E8D
:103CD000682F9091D00296958FEF890F09F484E2B6
:103CE0000C94201E81E00C94681E61E00C94201E50
:103CF000E0EDF2E080818160808386950C94751EF2
:103D00008091D00280FD0C94CF1D0C94781E60E051
:103D10000C94201E80919F0281112EC00E94400EA3
:103D2000811104C00E94E70E0E94AE190E948E19F4
:103D30006093D0027093D1028093D2029093D30209
:103D40006E7F61F40E94AE190E948E196093D002BA
:103D50007093D1028093D2029093D3020E947B1978
:103D60001092A1028091D00280FF03C086950E942C
:103D7000871E81E080939F020895E0EDF2E080814C
:103D80008160808386950C94871E10929E0280919C
:103D90009D0281110E94BD1E0C940A1E0F931F9359
:103DA000CF93DF938091A102882309F485C080918D
:103DB000A002E091D002E695E81BE09399028230E0
:103DC00049F4F0E0E259FC4FE491CE2FD0E00DE64B
:103DD0001AE149C0863049F4F0E0E559FC4FE4911E
:103DE000CE2FD0E001EA1AE13EC0893051F4E695C9
:103DF000F0E0E859FC4FE491CE2FD0E00BED1BE151
:103E000032C08F3051F4E695F0E0EB59FC4FE4916D
:103E1000CE2FD0E006E11CE126C0853149F4F0E068
:103E2000EE59FC4FE491CE2FD0E00BE81CE11BC013
:103E3000883181F0833239F4E0E6F3E0C591D49122
:103E400001EB1AE110C0843251F4C4EFD1E000E973
:103E50001DE109C0C8E2D0E00DEF1CE104C0C0EDD7
:103E6000D7E009E619E180919A02882361F0109267
:103E70009A020E94F22890939802809397021092DF
:103E80009C0210929B020E94F228E0919702F0910E
:103E900098028E1B9F0B8F3F9F4770F4EC0FFD1F06
:103EA000F0939802E093970287E992E0F801DF919E
:103EB000CF911F910F910994DF91CF911F910F9195
:103EC0000895882311F0FA0101C0FB010994CF93F2
:103ED000DF93C82FD62F0E94BD198C1740F00E9487
:103EE000BD198D1720F4DF91CF910C94651E8C2F96
:103EF000DF91CF910C94751E1F93CF93DF93FB013D
:103F000012811111C3C0EC010E94880D8272CC3C59
:103F1000FCE5DF0709F49AC0A8F5C63CECE5DE072E
:103F200009F476C0A8F4C33C9CE5D90709F45FC046
:103F300028F4C23CDC4509F457C054C0C43C9CE59D
:103F4000D90709F459C0C53CDC4509F45CC04AC036
:103F5000C93CFCE5DF0709F46AC050F4C73CECE556
:103F6000DE0709F45AC0C83CDC4509F45BC03AC01E
:103F7000CA3C9CE5D90709F45FC0CB3CDC4509F499
:103F800060C030C0C13DFCE5DF0709F46FC088F4B4
:103F9000CE3C9CE5D90709F460C008F45CC0CF3C76
:103FA000FCE5DF0709F45CC0C03DDC4509F45BC0FB
:103FB00019C0C43D9CE5D90709F460C050F4C23D66
:103FC000FCE5DF0709F455C0C33DDC4509F454C0E6
:103FD00009C0C53D9CE5D90709F455C0CD35DD457F
:103FE00009F454C011E052C00E94801E4FC042E745
:103FF0005EE165E67EE104C045E65EE162E77EE102
:104000000E94611F43C049E95BE16CE87BE1F8CFA6
:104010004CE85BE169E97BE1F3CF47EB5BE168EA00
:104020007BE1EECF48EA5BE167EB7BE1E9CF45ED71
:104030005BE166EC7BE1E4CF46EC5BE165ED7BE1C7
:10404000DFCF40EF59E169ED79E1DACF49ED59E190
:1040500060EF79E1D5CF81E017C065E082E010C064
:1040600068E086E00DC06EE089E00AC064E18FE0A0
:1040700007C067E185E104C088E106C062E289E12A
:104080000E94671F03C083E20E94751E812FDF918B
:10409000CF911F910895539A2BB1277F3BB1386080
:1040A0004FB7F894FC01CB01880F991F680F791F57
:1040B0006E0F7F1FE617F70789F0819198E03BB9F3
:1040C000000000C087FF2BB9880F000000C000C0AF
:1040D00000C02BB900C09A9591F7ECCF4FBF8FE588
:1040E00094E00197F1F700C00000089583E290E0AA
:1040F0000E947135823281F484E290E00E94713531
:10410000813051F485E290E00E94713591E089326E
:1041100009F090E0892F01C080E081700895CF936D
:10412000C82F811102C06FEF01C062E283E290E00C
:104130000E948535C11102C06FEF01C061E084E2C9
:1041400090E00E948535C11102C06FEF01C069E2A5
:1041500085E290E0CF910C948535089586E290E059
:104160000E947135682F70E080E090E0089586E24B
:1041700090E00C94853580E00E948F2060E070E034
:10418000CB010E94B7200E945E220E943D2381E065
:104190000C948F200E94AD200E947620811102C0D5
:1041A0000C94BB200895CF93FB01C281CC23E9F08E
:1041B0009C0122513F452031310520F482510E945B
:1041C0004D230CC08031FFE59F0751F481E00E9430
:1041D000630943E062E081E00E94AB03C0E018C0E5
:1041E00081319F45A9F482E0F2CF8031EFE59E074F
:1041F00011F481E004C081319F4549F482E00E94BE
:104200006E0943E062E081E00E94AB0301C0C1E0BF
:104210008C2FCF9108952FEFFC0120830895CF9329
:10422000DF93EC018881813889F028F48038A1F48B
:104230000E940E1A10C0823861F0833869F40E941F
:10424000081A89830E940B1A8A8306C00E94BD192E
:1042500002C00E94F3198983DF91CF910895CF9313
:10426000DF93EC0188818138B1F058F4803851F542
:10427000D9810E940B1AC82F0E94081A4D2F6C2F4B
:104280001DC08238B1F08338E9F40E940E1A482F1D
:104290006A81898113C089810E94871E8981811169
:1042A00004C0DF91CF910C94E71DDF91CF910C9466
:1042B000BD1E8981DF91CF910C94051ADF91CF91BA
:1042C0000C94D81BDF91CF910895EF92FF920F933A
:1042D0001F93CF93DF93EC01062F0196E8814E2FB9
:1042E00050E0FA013197E331F10508F09AC0E05946
:1042F000FF4F0C941035198289E056C089818230B5
:1043000039F0833061F0813029F50E94932902C091
:104310000E94AE209A838B837C836D8384C07E0150
:1043200082E0E80EF11C10E0812F0E94F511F701E8
:1043300081937F011F5F1830B9F775C08981823082
:1043400049F46A817B818C819D810E9416350E948F
:10435000B72069C0602FCE010E940B2164C04B8141
:104360006A8189810E9430229C838D835CC02C816C
:104370003D813227232732274B816A8189810E9420
:10438000492251C00E945E224EC00E942F214BC084
:104390000E940F2148C00E94A41945C00E94F0222B
:1043A00024C00E94F22299838A833DC06B8170E011
:1043B00089819A81AE014C5F5F4F982789279827A2
:1043C0000E94F52230C06B8170E089819A81AE0134
:1043D0004C5F5F4F9827892798270E941A2323C094
:1043E0000E943D2320C00E941D2289831CC06B8136
:1043F00070E089819A81AE014C5F5F4F98278927D1
:1044000098270E949D220FC06B8170E089819A815C
:10441000AE014C5F5F4F9827892798270E94C122E1
:1044200002C08FEF8883602FCE01DF91CF911F9163
:104430000F91FF90EF900C94862A84E0089550E04D
:10444000440F551F2EE0629F400D511D11249A010B
:1044500060E7869F200D311D1124C90187960895BC
:104460000F931F93CF93DF930E941F228C010E9412
:104470007135C82FD0E0DC2FCC27C80101960E94EF
:1044800071359E01282BC901DF91CF911F910F91AA
:1044900008950F931F93CF93DF93122F032F0E9442
:1044A0001F22EC01602F0E948535612FCE010196FD
:1044B000DF91CF911F910F910C948535AF92BF92F0
:1044C000CF92DF92EF92FF920F931F93CF93DF93E0
:1044D000A12CE12CF12CB12C00E010E0C0E0D0E0E8
:1044E0006701C00ED11EFE01EE0FFF1FEC0DFD1D7A
:1044F000E05AFE4F259134914C2F6B2D8A2D0E944E
:1045000049222196C730D10571F7025F1F4FB3943E
:1045100088E0B812E3CF80E7E80EF11CA39484E0B2
:10452000A812D9CFDF91CF911F910F91FF90EF90FB
:10453000DF90CF90BF90AF900895EF92FF920F93CE
:104540001F93CF93DF93EA017A01E60EF71E8C01E9
:10455000C8018796CE15DF0569F0003C21E01207FF
:1045600020F40E947135888301C0188221960F5F64
:104570001F4FEECFDF91CF911F910F91FF90EF90E2
:104580000895EF92FF920F931F93CF93DF93EA0169
:104590007A01E60EF71E8C01C8018796CE15DF055D
:1045A00059F0003C21E0120718F468810E9485351B
:1045B00021960F5F1F4FF0CFDF91CF911F910F9189
:1045C000FF90EF900895462F843038F4783028F427
:1045D000673018F4672F0C94302280E090E0089543
:1045E00080E1089589E192E00895EF92FF920F93A0
:1045F0001F93CF93DF93EA017A01E60EF71E8C0139
:10460000C80189519E4FCE15DF0569F0093122E0BE
:10461000120720F40E947135888301C01882219608
:104620000F5F1F4FEDCFDF91CF911F910F91FF9043
:10463000EF900895EF92FF920F931F93CF93DF9324
:10464000EA017A01E60EF71E8C01C80189519E4FDE
:10465000CE15DF0559F0093122E0120718F4688100
:104660000E94853521960F5F1F4FEFCFDF91CF91CD
:104670001F910F91FF90EF900895CF93DF93C7EEB6
:10468000D1E060E0CE010E9485352196C11584E01D
:10469000D807B9F7DF91CF910895DF92EF92FF929B
:1046A0000F931F93CF93DF9300D000D0CDB7DEB729
:1046B000F82E8FE08F15E8F18FEF93E00E947135AF
:1046C000811137C007EE11E0FF2069F0011584E089
:1046D000180779F1C8010E947135811101C0FA945F
:1046E0000F5F1F4FF1CF19821A821B821C82DD24BB
:1046F000D39478018FEFE81AF80AC8010E94713547
:1047000089831A828823A9F09FEF980F933058F479
:104710008A83D9820E5F1F4FC7010E9471358B8338
:10472000882339F07801CE0101960E94FB048701AD
:10473000E0CF0F900F900F900F90DF91CF911F91CE
:104740000F91FF90EF90DF9008950895FC01680F9E
:10475000791F8FEF91E3E617F70771F02191822718
:1047600028E030E087FF03C0880F892701C0880F49
:1047700021503109B9F7EFCF08950F931F93CF93CD
:10478000DF93C42FD22FFC0182818823C9F040938C
:10479000A4020E9487299093A3028093A20280E240
:1047A0008C0F883008F057C0C77081E001C0880FB7
:1047B000CA95EAF7DF91CF911F910F910C94910662
:1047C0008091A402481330C08091A2029091A3026C
:1047D0000E949F29883C910538F510E21D0FCD17E6
:1047E000B9F080E28C0F883040F4C77081E001C0DE
:1047F000880FCA95EAF70E949806183028F581E0DC
:104800009D2F977001C0880F9A95EAF70E94910634
:10481000802F0E9488061830F0F4D77081E001C024
:10482000880FDA95EAF70AC080E28C0F883098F496
:10483000C77081E001C0880FCA95EAF7DF91CF9178
:104840001F910F910C949806802FDF91CF911F91AB
:104850000F910C948806DF91CF911F910F910895CD
:104860000F939C01CB01233F4CE5340731F188F4D1
:10487000283DFCE53F07D9F0293D4CE5340779F1A7
:10488000273D3C45A9F506E221EE41EE67ED7CE5CA
:104890002BC0253FFCE53F07E1F0A8F0263F3C4553
:1048A00039F507E225EE46EE66EF7CE51DC007E22E
:1048B00025EE45EE68ED7CE517C006E221EE40EE00
:1048C00063EF7CE511C007E225EE44EE64EF7CE582
:1048D0000BC006E221EE42EE65EF7CE505C008E282
:1048E00021E045EE69ED7CE50E94BD2380E008C033
:1048F000FC018281882319F01092A40201C081E09A
:104900000F910895CF93DF93EC01FB0182818823FF
:1049100009F426C1C330FDE5DF0760F4CA3F9CE51A
:10492000D90768F49E0122503C452431310508F036
:1049300018C105C0C136EDE5DE0709F012C10E94BD
:10494000530E9093BC028093BB02C031FCE5DF079D
:1049500009F4CAC008F041C0C8309CE5D90709F481
:10496000A4C0F0F4C430FCE5DF0709F48CC068F49F
:10497000C2309CE5D90709F482C0C330DC4509F098
:10498000E5C08091BB028260DFC0C630FCE5DF0776
:1049900009F483C008F085C08091BB028860D4C050
:1049A000CC309CE5D90709F490C068F4CA30FCE526
:1049B000DF0709F47EC008F084C00E94E4088091FB
:1049C000BB028068C1C0CE309CE5D90709F481C024
:1049D00008F086C08091BB0294C0CC3FFCE5DF07A5
:1049E00009F47BC038F5C4319CE5D90709F49AC0B5
:1049F00058F4C231FCE5DF0709F47AC008F07EC044
:104A00008091BB028F7BA0C0CA3F9CE5D907F1F122
:104A100008F03FC0C531DC4509F098C08091BB0269
:104A200082FB222720F991E0922790FB82F990FBEC
:104A300083F98AC0C1158DE5D80709F467C050F421
:104A40008091BC02CE3FECE5DE07C1F108F05BC00F
:104A50008D7F65C0C2308DE5D80709F471C008F4B8
:104A60006DC0C136DD4509F071C08091BB0284FB89
:104A7000222720F991E0922790FB84F965C080916C
:104A8000BB02816061C08091BB0216C08091BC02F4
:104A900016C08091BC02826042C08091BB028061DE
:104AA00053C08091BB0280624FC08091BB02806482
:104AB0004BC08091BB028860846046C08260816088
:104AC0002EC08091BB028E7F3FC08091BB028D7F44
:104AD0003BC08091BB02877F37C08091BC0214C06D
:104AE0008091BB028F7E30C08091BB028F7D2CC035
:104AF0000E94E4088091BB028F7726C08091BB02A0
:104B0000877F8B7F21C08D7F8E7F09C08091BC0203
:104B1000982F909591708E7F892B90FB81F98093CF
:104B2000BC0214C00E94E4088091BB0287FB2227CC
:104B300020F991E0922790FB87F906C081E001C03F
:104B400080E00E94E90E02C08093BB028091BB020C
:104B50009091BC020E94640E0E94E40880E001C0B3
:104B600081E0DF91CF910895CF93DF9386319C450B
:104B700041F5EB010E94880D982F8A812091000158
:104B800030910101882379F09A7A81E009F480E07C
:104B90008093A502911102C069E201C065E3C901D9
:104BA0000E94A6280AC08091A502811102C069E274
:104BB00001C065E3C9010E94A8280E94CD0D80E0D4
:104BC00001C081E0DF91CF9108958EE14A9B02C040
:104BD0008150E1F74A9BFECF08955A9880E28A956A
:104BE000F1F75A9A0895FC012AE02A95F1F728E096
:104BF00090E080E031E040E14A95F1F7880F4A9B70
:104C000002C08160932700C0000040E14A95F1F79F
:104C1000215089F720E12A95F1F729B100C0000061
:104C200030E13A95F1F722FB222720F992272081E3
:104C3000920F90830895EF92FF920F931F93CF935B
:104C4000DF931F92CDB7DEB719828C017C01E60E8F
:104C5000F11C0E151F0551F00E94E525CE010196AD
:104C60000E94F325F80181938F01F3CF81E09981B0
:104C7000911180E00F90DF91CF911F910F91FF90E4
:104C8000EF900895529A5A9A089552985A9AEA9A29
:104C9000E9E6F0E080818F7C80830895615091E0A7
:104CA00001C0990F6A95EAF720E031E0992361F09D
:104CB000492F482319F05A9A232701C05A9840E2F5
:104CC0004A95F1F79695F2CF222311F05A9A01C036
:104CD0005A9880E28A95F1F75A980895FF920F93B7
:104CE0001F93CF93DF93EC018C01060F111DC017AA
:104CF000D10741F0F9900E94ED2568E08F2D0E94C8
:104D00004E26F5CFDF91CF911F910F91FF9008951F
:104D10001F920F920FB60F921124EF92FF920F93F2
:104D20001F932F933F934F935F936F937F938F9333
:104D30009F93AF93BF93EF93FF93CF93DF931F9214
:104D4000CDB7DEB719820E94E525CE0101960E94FB
:104D5000F325A82FA695A695A6959A2F96959570BA
:104D60002A2F2570920F292F237096959695920FD2
:104D7000877089137CC08981811179C0A43008F0C3
:104D800076C080E18A95F1F75A9A529AB2E0BA95C4
:104D9000F1F700C05A98EA2EF12CEAE0AE9FD0015C
:104DA0001124AE5EBE4F1896ED91FC911997309785
:104DB000B1F06091BF017091C00116962D913C91A8
:104DC0001797260F371F13968D919C911497680F94
:104DD000791F15964C91159712968C9109958AE03A
:104DE0008E9DF0018F9DF00D1124EE5EFE4F6581CA
:104DF000662351F08091BF019091C00126813781D7
:104E0000820F931F0E946E260E94ED25F0E1FA9515
:104E1000F1F75A9852985A9A80E18A95F1F78AE008
:104E20008E9D80018F9D100D11240E5E1E4FD801A6
:104E300012966C911297662399F08091BF01909120
:104E4000C00113962D913C911497820F931F0E94DD
:104E50001B26D801ED91FC91811105C082E004C0B0
:104E6000D801ED91FC9188E080830E94E5250F90A8
:104E7000DF91CF91FF91EF91BF91AF919F918F9172
:104E80007F916F915F914F913F912F911F910F9162
:104E9000FF90EF900F900FBE0F901F9018950F93FB
:104EA0001F93CF93DF93843091050CF0A9C02AE0C3
:104EB000289FF001299FF00D1124EE5EFE4F208106
:104EC0003181232B09F49CC0EC01F894529A5A9832
:104ED00085E08A95F1F700008C2F869585709C2FD0
:104EE0009570890F982F9370869586958E0123E093
:104EF000000F111F2A95E1F7890F082B0E94ED255D
:104F0000A4E0AA95F1F700C068E0802F0E944E2629
:104F1000B0E1BA95F1F752985A9A4A9902C000C086
:104F2000FCCF87E090E04A9B17C0019799F4529A12
:104F30005A9A8AE08C9FF0018D9FF00D1124EE5E4D
:104F4000FE4F0190F081E02D81E08083789481E034
:104F500090E058C000C0E7CF8AE08C9F80018D9F11
:104F6000100D11240E5E1E4FF80165816623B9F005
:104F70008091BF019091C00126813781820F931FDC
:104F80000E941B2681110BC0529A5A9AD801ED91AA
:104F9000FC9182E08083789482E090E033C00E94AC
:104FA000E525B0E2BA95F1F75A98529AE0E1EA9510
:104FB000F1F78AE08C9FF0018D9FF00D1124EE5ED9
:104FC000FE4F6281662351F08091BF019091C00134
:104FD00023813481820F931F0E946E260E94ED254B
:104FE0008AE08C9FF0018D9FF00D1124EE5EFE4F44
:104FF0000190F081E02D1082789480E090E002C072
:1050000084E090E0DF91CF911F910F9108959093EC
:10501000AC028093AB0208950E94FE13811103C07D
:105020008091A6020895E091AB02F091AC02309716
:1050300021F00190F081E02D099480E00895E09145
:10504000AB02F091AC02309721F00280F381E02DA9
:1050500009940895E091AB02F091AC02309739F0D9
:1050600022E0DC012C930480F581E02D0994089561
:105070002091A9023091AA022817390771F0909364
:10508000AA028093A902E091AB02F091AC023097A2
:1050900021F00680F781E02D099408952091A70260
:1050A0003091A8022817390771F09093A8028093D5
:1050B000A702E091AB02F091AC02309721F000849E
:1050C000F185E02D09940895FC01329697E080E087
:1050D000915029F021912223D9F38F5FF9CF0895C0
:1050E000662349F0FC01329608962191621729F057
:1050F000E817F907D1F780E0089581E008959C0151
:10510000FC0132969FEF80E04191461789F09F3F66
:1051100019F4411101C0982F8F5F8630A9F79F3F86
:1051200039F0F901E90FF11D97FDFA9562830895B1
:1051300008959C012A5F3F4FFC014281461301C044
:105140001282019682179307B9F708950C947F286D
:105150000C949928029626E0FC0111922A95E9F711
:1051600008951092050310920603109207031092FF
:1051700008030895CF92DF92EF92FF926B017C01BA
:105180000E94FE1381110EC00E949329C61AD70AED
:10519000E80AF90AC0920503D0920603E0920703D9
:1051A000F0920803FF90EF90DF90CF9008950F9357
:1051B0001F930E94FE13882321F01F910F910C94DE
:1051C00093290E94932900910503109106032091D1
:1051D000070330910803600F711F821F931F1F91F7
:1051E0000F9108950E94FE1381110C9487290E944B
:1051F000D728CB010895089508950C94FC280C94A9
:10520000FC28CF930E94FF280E9473130E94FD2860
:10521000C0E08C2F0E94F511811104C0CF5FC8300F
:10522000C1F701C081E0CF9108950C94FC280C9443
:10523000152980911103843059F10E94172980E0CB
:105240000E9406050E94F91D1092AD0220E488E13B
:1052500090E00FB6F894A895809360000FBE20935D
:10526000600083B7817F846083BF83B7816083BF21
:105270007894889583B78E7F83BF0FB6F894A895EE
:1052800080916000886180936000109260000FBE82
:1052900008950C94FC280E94E4080E940C280E94A7
:1052A00006050E94C51E0C9449291F920F920FB645
:1052B0000F9211248F939F93AF93BF938091AD0270
:1052C000811113C08091090390910A03A0910B03EF
:1052D000B0910C034196A11DB11D809309039093D9
:1052E0000A03A0930B03B0930C03BF91AF919F915E
:1052F0008F910F900FBE0F901F90189582E084BD84
:1053000093E095BD9AEF97BD80936E0008952FB7F7
:10531000F8948091090390910A03A0910B03B09136
:105320000C032FBF08952FB7F89460910903709173
:105330000A0380910B0390910C032FBF08959C01E9
:105340004FB7F8948091090390910A03A0910B0341
:10535000B0910C034FBF821B930B0895CF92DF9245
:10536000EF92FF922FB7F894C0900903D0900A03F0
:10537000E0900B03F0900C032FBFA7019601261BB2
:10538000370B480B590BCA01B901FF90EF90DF9022
:10539000CF90089578941F920F920FB60F92112418
:1053A0008F939F93AF93BF938091090390910A03CA
:1053B000A0910B03B0910C030196A11DB11D809328
:1053C000090390930A03A0930B03B0930C03BF91BE
:1053D000AF919F918F910F900FBE0F901F901895D6
:1053E00087E797E790930108809300089AE088E1A7
:1053F0000FB6F894A895809360000FBE909360005C
:10540000FFCF9093F7018093F60108958091B90240
:10541000089590911103943029F58093AE02709312
:10542000B0026093AF029093E9008FEF9091E80093
:10543000815095FD06C095ED9A95F1F70000811118
:10544000F5CF8091E80085FF0DC040E050E063E0BB
:1054500070E08EEA92E00E94822C8091E8008E77C4
:105460008093E8000895BC0184E00C94092ABC01F3
:1054700083E00C94092A24E02093E9002FEF309177
:10548000E800215035FD06C035ED3A95F1F70000F2
:105490002111F5CF2091E80025FF0BC040E050E03E
:1054A00066E070E00E94822C8091E8008E77809305
:1054B000E8000895CF93DF9321E02093E9002FEFD8
:1054C0003091E800215035FD06C035ED3A95F1F7F1
:1054D00000002111F5CF2091E80025FF14C0EC0158
:1054E00040E050E068E070E00E94822C8091E8008B
:1054F0008E778093E80088E0FE01A1EBB2E0019096
:105500000D928A95E1F7DF91CF910895CF936032A4
:1055100019F5209111032430F9F4C091E900CF70FE
:105520003091EC00232F217030FD20E8C22B22E0C7
:105530002093E9002091E80020FF0BC040E050E0FC
:1055400060E270E00E94822C8091E8008E77809368
:10555000E800CF70C093E900CF91089580911003C7
:10556000811109C00E945E2E0E94BB2E8091E20034
:1055700084608093E20008951092100308950895C6
:105580000895089542E061EC81E00E94D72D42E247
:1055900061EC84E00E94D72D42E261EC82E00E943F
:1055A000D72D42E260EC83E00C94D72D8091130359
:1055B000833009F462C030F4813071F0823009F434
:1055C0009BC008958A3009F487C08B3009F46DC000
:1055D000893009F0A9C020C080911203813A09F0F6
:1055E000A3C08091E800877F8093E8008091160334
:1055F00090911703892B21F468E081EB92E003C0BE
:1056000060E080E090E070E00E94182D8091E8005A
:105610008B778093E800089580911203813209F01E
:1056200083C08091160390911703009719F0029799
:1056300009F07AC08091E800877F8093E80080912C
:10564000E80082FD05C0809111038111F8CF6CC084
:105650002091F3008091F20090E0922B029729F4C0
:105660008091F1008B7F813021F48091F100809353
:10567000B9028091E8008B7753C080911203813A80
:1056800009F052C08091160390911703892B09F0FD
:105690004BC08091E800877F8093E8008091E8000C
:1056A00080FFFCCF8091550136C08091120381327A
:1056B000D9F58091160390911703892BA9F5809154
:1056C000E800877F8093E8000E940C2E80911403ED
:1056D000809355010C94E40880911203813221F5E6
:1056E0008091E800877F8093E8000E940C2E8091D3
:1056F00015038093BA02089580911203813AA1F4B0
:105700008091E800877F8093E8008091E80080FF27
:10571000FCCF8091BA028093F1008091E8008E77EF
:105720008093E8000C940C2E089584B7877F84BF83
:105730000FB6F894A895809160008861809360000E
:10574000109260000FBE90E080E80FB6F89480934E
:105750006100909361000FBE0C94170F0E945E2EA3
:105760000E94BB2EE2EEF0E080818460808378941A
:105770000E9450310E94250F8BE491E00C94072881
:10578000CF93DF93CDB7DEB7A0970FB6F894DEBF07
:105790000FBECDBF809111038530A9F48091110314
:1057A000853079F40E94192980910F038823B1F381
:1057B0000E940129882391F30E946C2C0E94E40826
:1057C000EDCF0E944B290E94330F8091110384304A
:1057D00011F583E08093E9008091E80082FF1BC00F
:1057E0008091E80085FF0AC040E050E060E270E090
:1057F000CE0101960E94CD2C91E001C090E08091F5
:10580000E8008B778093E800992329F060E2CE01CD
:1058100001960E946521A0960FB6F894DEBF0FBED8
:10582000CDBFDF91CF9108950C94162C292F3327EB
:1058300023303105C9F060F42130310581F0223088
:10584000310509F041C08BE590E029E934E040C022
:1058500021323105E1F02232310531F135C082E1EA
:1058600090E024EF34E034C099278130910549F06D
:1058700028F0029749F5E7E7F4E005C0E5E9F4E030
:1058800002C0E9E8F4E0849190E09F0121C0633018
:105890007105D0F4660F771FFB01E151FE4F2081A7
:1058A000318189E090E014C06330710568F4FB0138
:1058B000EE0FFF1FE751FE4F20813181FB01EA51BE
:1058C000FE4F808190E004C080E090E020E030E076
:1058D000FA0131832083089580E189BD82E189BD89
:1058E00009B400FEFDCF8091D8008F7D8093D80051
:1058F0008091E00082608093E0008091E00081FD73
:10590000FCCF0895CF92DF92EF92FF920F931F93F7
:10591000CF93DF93EC018B017A010E942B2E811132
:1059200033C0E114F10439F0F70180819181081B43
:10593000190BC80FD91FC12CD12C0115110519F154
:105940008091E80085FD16C08091E8008E778093F5
:10595000E800E114F10449F0F70180819181C80E5B
:10596000D91ED182C08285E00FC00E942B2E8823D1
:1059700021F30AC089918093F10001501109FFEFD2
:10598000CF1ADF0ADACF80E0DF91CF911F910F911C
:10599000FF90EF90DF90CF900895CF92DF92EF923B
:1059A000FF920F931F93CF93DF93EC018B017A014A
:1059B0000E942B2E811133C0E114F10439F0F7015C
:1059C00080819181081B190BC80FD91FC12CD12CC4
:1059D0000115110519F18091E80085FD16C080912F
:1059E000E8008B778093E800E114F10449F0F701B7
:1059F00080819181C80ED91ED182C08285E00FC0FE
:105A00000E942B2E882321F30AC08091F1008993F4
:105A100001501109FFEFCF1ADF0ADACF80E0DF91E2
:105A2000CF911F910F91FF90EF90DF90CF9008954D
:105A300020911803309119032617370748F0611594
:105A4000710539F42091E8002E772093E80001C019
:105A5000B901FC0120E06115710579F18091110314
:105A60008823F1F18530F1F18091E80083FD3CC09D
:105A70008091E80082FD2EC08091E80080FFEBCF8E
:105A80002091F3008091F20090E0922B6115710556
:105A900051F08830910538F421912093F100615044
:105AA00071090196F3CF21E0089709F020E0809179
:105AB000E8008E778093E800CECF2111CFCF0AC0C7
:105AC00080911103882361F0853061F08091E800B6
:105AD00083FD0AC08091E80082FFF2CF80E0089544
