:100000000C94F2020C9439030C9439030C94452699
:100010000C9439030C9439030C9439030C94390370
:100020000C9439030C9439030C94962E0C94682F7D
:100030000C9412290C9439030C9439030C94390351
:100040000C9439030C9439030C9439030C94390340
:100050000C9439030C9487290C9439030C943903BC
:100060000C9439030C9439030C9439030C94390320
:100070000C9439030C9439030C9439030C94390310
:100080000C9439030C9439030C9439030C94390300
:100090000C9439030C9439030C9439030C943903F0
:1000A0000C9439030C9439030C943903D606D60604
:1000B0000807080755077307560856087E07E6071E
:1000C000F707F707F608F60808090809FF080809FE
:1000D00008090809F608F6080409080908090409C6
:1000E00038213B215B216C2174217F2182218521D4
:1000F0008821CE21CE218B218E219321A021AD21DB
:10010000B021B421C121D52FFC2FF430FC2FF430C5
:1001100048306B30F430C230D13007634236B79B81
:10012000D8A71A39685618AEBAAB558C1D3CB7CC57
:100130005763BD6DEDFD753EF6177231BF000000CF
:10014000803F05A84CCDB2D44EB93836A9020C5028
:10015000B9918688083CA6AAAA2ABE000000803F62
:100160000000290014001A00080015001700000004
:100170002B0004001600070009000A000000E1003F
:100180001D001B00060019000500E000E200E3006E
:1001900049002C002C002C4100001C0018000C0011
:1001A000120013002A0000000B000D000E000F00CB
:1001B0002D0028000000110010003600370052000A
:1001C00038002C422C002C00E400500051004F005D
:1001D00000002B001E001F00200021002200000054
:1001E000E0001E021F022002210222020000E100A4
:1001F00057005600550054006700E000E200E3009D
:1002000049002C002C002C41000023002400250074
:10021000260027002A0000002302240225022602CD
:10022000270228000000350089002F1230122D12FD
:10023000E5002C422C002C00E400500051004F003F
:1002400000002B003A003B003C003D003E00000057
:10025000E0001F0231003300331234000000E100DF
:10026000C25CC35CC55CC65CC75CE000E200E30046
:1002700049002C002C002C4100003F0040004100B0
:10028000420043004C0000005000510052004F005B
:100290002E0028000000C85CC95C2F00300031002F
:1002A000E5002C422C002C00E400500051004F00CF
:1002B00000000000000000002A2B280000000000C1
:1002C0000000000000000000000000290000000005
:1002D0002C1E3420212224342627252E362D373873
:1002E000271E1F202122232425263333362E37387C
:1002F0001F0405060708090A0B0C0D0E0F1011123A
:10030000131415161718191A1B1C1D2F3130232D05
:10031000350405060708090A0B0C0D0E0F10111203
:10032000131415161718191A1B1C1D2F3130354CB4
:1003300000000000000000000000000000000000BD
:1003400000000000000000000000000000000000AD
:10035000000000007E0F00D4FFFFFFC70000007800
:1003600000047F3F1F643214643214783C1E1E1454
:100370000A05FFAA7F5540000101010101010101A9
:100380000102020202020202020203030303030348
:100390000303040404040404040505050505060616
:1003A00006060607070707070808080809090909D4
:1003B0000A0A0A0B0B0B0C0C0C0D0D0D0E0E0E0F7A
:1003C0000F0F10101111111212131314141515160A
:1003D000161717181819191A1A1B1B1C1D1D1E1E7B
:1003E0001F202021222223242425262627282929CC
:1003F0002A2B2C2D2D2E2F303132323334353637F7
:1004000038393A3B3C3D3E3F4041424344454647F4
:1004100048494A4C4D4E4F50515354555658595ACD
:100420005B5D5E5F616264656668696B6C6D6F7071
:1004300072737577787A7B7D7E8082838587888AE0
:100440008C8E8F91939596989A9C9EA0A2A3A5A717
:10045000A9ABADAFB1B3B5B7BABCBEC0C2C4C6C913
:10046000CBCDCFD1D4D6D8DBDDDFE2E4E7E9EBEECC
:10047000F0F3F5F8FAFDFF100363006F006F006CF6
:100480000036003500300000000A036D002E006BBE
:1004900000690000000403090409025B0003010075
:1004A000A0FA090400000103010100092111010063
:1004B000012240000705810308000A090401000227
:1004C000030000000921110100012222000705821A
:1004D00003200001070503032000010904020001B5
:1004E00003000000092111010001227B000705849F
:1004F0000320000A1201000200000008434D5006CC
:100500000100010200010660FF0961A101096215F5
:100510000026FF009520750881020963150026FF5B
:1005200000952075089102C005010902A10185020C
:100530000901A100050919012908150025019508DF
:10054000750181020501093009311581257F950268
:100550007508810609381581257F95017508810682
:10056000050C0A38021581257F950175088106C0A2
:10057000C005010980A101850319012AB7001501F1
:1005800026B700950175108100C0050C0901A10175
:10059000850419012AA002150126A00295017510F3
:1005A0008100C005010906A101050719E029E71529
:1005B00000250195087501810295017508810105E5
:1005C00007190029FF150026FF0095067508810010
:1005D0000508190129059505750191029501750315
:1005E0009101C00011241FBECFEFDAE0DEBFCDBF06
:1005F00004B603FE27C08091120390911303A091CB
:100600001403B09115038730904BA740B04BD1F441
:1006100010921203109213031092140310921503F8
:1006200014BE84B7877F84BF0FB6F894A8958091D5
:100630006000886180936000109260000FBEE0E06F
:10064000F8E3099511E0A0E0B1E0E0EFFAE602C0BE
:1006500005900D92AE3EB107D9F723E0AEEEB1E0C2
:1006600001C01D92A231B207E1F70E94F4150C946B
:1006700076350C94000081E0089581E008950C9493
:100680003D0308950C9441031F93CF93DF9300D053
:1006900000D01F92CDB7DEB749835A836B83309168
:1006A000F00189819A81311114C0662359F0222307
:1006B00049F00E94EC09182F682F89819A810E94C5
:1006C000950903C00E94C009182F69817A81812F82
:1006D00004C00E94EC0969817A810F900F900F90FD
:1006E0000F900F90DF91CF911F910C94A022FC01ED
:1006F000262F408151816281738184810C9444034F
:1007000081E00895CF93DF93EC0160E00E947703CE
:10071000BE01DF91CF910C944203E1E0F0E0DF01F4
:1007200002C0AA0FBB1F6A95E2F7BD01DF0102C03C
:10073000AA0FBB1F4A95E2F7AD01462B01C0EE0F91
:100740002A95EAF7942F9823491302C08E2B089517
:10075000E0958E230895242F462F682F809106025E
:100760000E948D030C9452090E94DB110E94050522
:100770000C940B120C94071208950E94E4080E9436
:10078000BC032FEF84E39CE0215080409040E1F7D0
:1007900000C000000C94AD290F931F93CF93DF93FB
:1007A0008C0161E00E947703EC01B8010E94902067
:1007B000882309F44BC0B801CE010E943F0388236F
:1007C00009F444C0B801CE010E94ED238823F1F161
:1007D000B801CE010E943F248823C1F1B801CE01A7
:1007E0000E947125882391F1B801CE010E94391F22
:1007F000882361F1F8018281882309F1CA358DE5EA
:10080000D807C1F050F4C115FCE5DF0781F0CE3DFB
:10081000DC45A9F40E94E70E19C0CB35EDE5DE07F3
:1008200061F0CC35DD4559F40E94790D08C00E9475
:10083000BD030CC00E94820D02C00E94850DC8013C
:10084000DF91CF911F910F910C943B0380E0DF91DA
:10085000CF911F910F910895DF92EF92FF920F9326
:100860001F93CF93DF93E82FF0E0E055FD4FD49036
:10087000282F26952695269530E0F901E05BFC4F60
:100880000491877010E0082E02C0159507950A9410
:10089000E2F701701127F901E05CFC4FE490F12CC4
:1008A000082E02C0F594E7940A94E2F791E0E92259
:1008B000FF24F901E05DFC4FC491D0E002C0D59562
:1008C000C7958A95E2F7C170DD270115110519F06A
:1008D00081EE0E945F05E114F10419F086EE0E949A
:1008E0005F058D2D0E948806EF2819F086EE0E9484
:1008F0000906012B19F081EE0E940906CD2B51F05B
:100900008CE2DF91CF911F910F91FF90EF90DF90DC
:100910000C948806DF91CF911F910F91FF90EF907B
:10092000DF900895EF92FF920F931F93CF93DF9381
:10093000EC01162F0AE08881882309F455C0813024
:1009400009F043C08981813041F47E0182E0E80EE4
:10095000F11C8A810E94880609C0823049F47E0118
:10096000E2E0EE0EF11C8A810E945F05E7012FC0D4
:10097000833041F47E01F2E0EF0EF11C8A810E9487
:100980000906F4CF843011F0219621C02A812296E5
:1009900080E090E030E0205331092A30310558F4EE
:1009A000089FA001099F500D1124C901840F951FB4
:1009B00021962881EFCF009751F0EFE9FFE03197C2
:1009C000F1F700C000000197F6CF0E942C04219699
:1009D000812F882309F4AFCFEFE9FFE03197F1F7DA
:1009E00000C000008150F5CFDF91CF911F910F9192
:1009F000FF90EF90089560E00C94920408950C9499
:100A0000FE0481E008950C9401050895CF93C82F4A
:100A10000E94FF048C2F0E940305CF910895CF936D
:100A2000DF93CDB7DEB72B970FB6F894DEBF0FBEBE
:100A3000CDBF4F83588769877A878B8761110E9462
:100A4000A80D9E012F5F3F4F86E0F90111928A9514
:100A5000E9F785E0FE013796D90101900D928A955C
:100A6000E1F789819A814C815D81452B31F09F3F6F
:100A700031F491E08F3F19F403C091E001C090E0A0
:100A800090FF09C049815A816B817C818D819E8153
:100A90000E94A80C05C0C9010E9480038111F2CFF9
:100AA0002B960FB6F894DEBF0FBECDBFDF91CF916E
:100AB0000895FC01808191810E94190A0895CF93C5
:100AC000882309F4A4C0C82F8238C1F40E94C92722
:100AD00081FD9DC069E380910001909101010E9418
:100AE00063280E94CD0D2FEF81EE94E021508040CD
:100AF0009040E1F700C0000069E319C0833801F5B8
:100B00000E94C92780FD83C063E580910001909118
:100B100001010E9463280E94CD0D2FEF81EE94E029
:100B2000215080409040E1F700C0000063E58091D3
:100B30000001909101010E946528CF910C94CD0D88
:100B40008438C1F40E94C92782FD61C067E48091A6
:100B50000001909101010E9463280E94CD0D2FEFAA
:100B600081EE94E0215080409040E1F700C0000009
:100B700067E4DDCF8CEF8C0F813AD0F46C2F80913D
:100B80000001909101010E942D28882349F06C2FCB
:100B900080910001909101010E9465280E94CD0D75
:100BA0006C2F80910001909101010E946328C5CFB4
:100BB00080E28C0F883048F4C77081E001C0880F54
:100BC000CA95EAF70E948B0DB8CFEBE5EC0FE33046
:100BD00040F4F0E0EB58FE4F808190E0CF910C9410
:100BE000F527E8E5EC0FE73150F4F0E0EE0FFF1FDA
:100BF000E95BFE4F80819181CF910C940B28C03F1F
:100C000030F08C2F0E948116CF910C945317CF9106
:100C10000895882309F464C0823879F40E94C927B2
:100C200081FF5EC069E380910001909101010E9403
:100C300063280E94CD0D69E310C08338B1F40E948F
:100C4000C92780FF4DC063E58091000190910101AB
:100C50000E9463280E94CD0D63E580910001909170
:100C600001010E9465280C94CD0D843879F40E940E
:100C7000C92782FF35C067E480910001909101018E
:100C80000E9463280E94CD0D67E4E7CF9CEF980F88
:100C9000913A10F4682FE1CF90E2980F983050F419
:100CA000877091E001C0990F8A95EAF7892F0E9419
:100CB000910DD9CF9BE5980F933020F480E090E020
:100CC0000C94F52798E5980F973120F480E090E098
:100CD0000C940B28803F20F00E94DC160C945317D4
:100CE00008951F93CF93DF93182FEB010E945F05A8
:100CF000209741F08FE99FE00197F1F700C00000D5
:100D00002197F6CF812FDF91CF911F910C94090687
:100D1000893319F060E070E002C060E570E00C9487
:100D20007106882321F00E948B0D0C94CD0D08953F
:100D3000882321F00E94910D0C94CD0D0895CF923F
:100D4000DF92EF92FF920F931F93CF93DF937C017B
:100D5000062FC72FFC01D281158112951F700E94AA
:100D6000600D882399F0DD2389F08C2F807F8034FB
:100D700021F080E2800F883048F082E00E941D0E52
:100D80000E94600D91E0D82ED92601C0D12CCC2E26
:100D9000C2948FE0C8228C2D90E08C30910508F031
:100DA00085C1FC01EA5AFF4F0C94CD348C2F807F13
:100DB000CF70882311F0C295C07FDD2399F0CC233A
:100DC00009F460C180E2800F883010F0011104C086
:100DD0008C2F0E948B0D03C08C2F0E949B0D0E94B4
:100DE000CD0D50C1802F0E940906CC2309F45EC1AD
:100DF00080E2800F883010F0011104C08C2F0E9417
:100E0000910D03C08C2F0E94A10D0E94CD0D4EC1EB
:100E10008C2F807FCF70803211F0C295C07F00236D
:100E200019F00130C9F022C0DD2371F0112341F027
:100E3000113031F40E94AE0D8C2B0E94B60D36C1DC
:100E40000E94AE0D8C2B1DC0112319F0113009F436
:100E50002DC10E94C30D25C0DD2321F0163008F0FE
:100E600025C10EC0153008F021C11BC0DD2361F083
:100E7000112331F0F701858180FF04C18F708583D4
:100E80008C2F0E94910612C1112359F0093309F0E9
:100E90000AC1FFEF27EE83E0F15020408040E1F7E8
:100EA00000C18C2F0E94980601C18C2F86958695D3
:100EB000837019F0813061F0F9C0DD2321F0802FBB
:100EC0009C2F937002C080E090E00E94F527F6C04E
:100ED000DD2321F0802F9C2F937002C080E090E0F2
:100EE0000E940B28EBC0802FDD2319F00E94811691
:100EF00002C00E94DC160E945317E0C08C2F837042
:100F000079F5D111D7C0402F429546954770440FCF
:100F1000440F202F2F70042E01C0220F0A94EAF7ED
:100F200004FF08C08FE090E001C0880F4A95EAF7FF
:100F3000809501C080E0C695C695C370822BC230F3
:100F400049F058F4C13019F00E944609B3C00E941C
:100F50004109B0C00E944B09ADC00E943F09AAC020
:100F6000DD2319F08C2F817001C08695882309F448
:100F7000A1C0402F429546954770440F440F202F43
:100F80002F70042E01C0220F0A94EAF704FF08C054
:100F90008FE090E001C0880F4A95EAF7809501C084
:100FA00080E0C695C695C370822BC23049F058F4D4
:100FB000C13019F00E948A097DC00E9485097AC05B
:100FC0000E948F0977C00E94520974C0CF70DD2340
:100FD00039F08C2F0E946309802F0E9491066AC00D
:100FE000802F0E9498068C2F0E946E0963C0023FDA
:100FF00001F128F4003F41F0013FA1F03FC0033F61
:10100000F9F0043F39F13AC0DD2341F0153008F022
:101010004DC08C2F8F710E947A0948C0163008F09D
:1010200045C0F7CFDD2339F08C2F8F710E94630903
:101030003DC0DD23C9F38C2F8F710E946E0936C02D
:10104000DD2329F08C2F8F710E945B092FC00E9435
:1010500058092CC0DD2349F0CF718C2F0E94630901
:1010600063E08C2F0E94020E21C081E00E941D0EC1
:101070001230E0F082E00E941D0E18C0DD2331F036
:10108000112391F2802F0E945F0510C0112399F265
:10109000093349F49FEFE7EEF3E09150E040F04070
:1010A000E1F700C00000802F0E94090688EF8C0D38
:1010B000843020F40E94C9270E940605DD20C9F073
:1010C0000E945C0D80FD15C0F70112820E94560D32
:1010D0000E946309C7010E949A080E94560DDF9181
:1010E000CF911F910F91FF90EF90DF90CF900C94D4
:1010F0006E09DF91CF911F910F91FF90EF90DF90DC
:10110000CF9008950F931F93CF93DF93EC016881E5
:1011100079818A810E94240A8C010E9494090E948C
:101120003309B801CE010E949F06DF91CF911F9134
:101130000F910895CF93DF93EC01988189812B81E2
:101140003C81232B31F08F3F31F481E09F3F19F434
:1011500003C081E001C080E080FD19C0CE010E9483
:10116000CC0381110CC00E94600D882381F08A811C
:10117000882369F082E0DF91CF910C941D0ECE019F
:101180000E948208CE01DF91CF910C948203DF91FF
:10119000CF91089580E090E00E94F52780E090E0F4
:1011A0000E940B280E94A80D0E94AB0D0E94CD0D3D
:1011B0000E9484180C9453178091000190910101B2
:1011C0000E9467280C94CA080E94980D0C94DC08B1
:1011D000E92FE295EF704E2F50E0FA013297EE3092
:1011E000F105B0F4EE59FF4F0C94CD34803F91F0EF
:1011F00018F4883E68F40EC0843F51F40BC0883E5A
:1012000048F0813F29F406C093FB882780F90895B0
:1012100080E0089581E00895FC01808191810E9421
:10122000190A0E94E8080895CF93DF9300D000D0F8
:101230001F92CDB7DEB70F900F900F900F900F90C9
:10124000DF91CF910895CF93DF9300D000D000D0ED
:10125000CDB7DEB726960FB6F894DEBF0FBECDBF72
:10126000DF91CF910895089508950C9434090C945A
:1012700035090E943709809307020C94CA080C9420
:10128000390990910702892B0C9439099091070232
:1012900089230C9439099091070289270C94390904
:1012A0000C9434090E945009809306020C94CA08D9
:1012B00080E00C94520991E001C0990F8A95EAF7F9
:1012C000892F0C94520921E030E001C0220F8A9549
:1012D000EAF780910602822B0C94520921E030E05B
:1012E00001C0220F8A95EAF7209580910602822399
:1012F0000C94520921E030E001C0220F8A95EAF7F0
:101300008091060282270C94520990910602892B43
:101310000C9452099091060289230C9452099091E1
:10132000060289270C945209089527E0929F800DA8
:101330001124E82FE695E695E695877051E001C007
:10134000550F8A95EAF783E0E89FF0011124EF50EA
:10135000FE4F20E030E070E04081CB01022E02C061
:10136000969587950A94E2F7817081958427852365
:10137000842781932F5F3F4F2330310569F708950C
:1013800027E0929F800D1124682F669566956695DB
:10139000982F977083E0689FB001112440E050E0DF
:1013A00080E0FB01E40FF51FEF50FE4F208130E09D
:1013B000092E02C0369527950A94E2F7217033274B
:1013C000042E01C0220F0A94EAF7822B4F5F5F4F71
:1013D0004330510531F70895CF92DF92FF920F937A
:1013E0001F93CF93DF936C01009106028091070257
:1013F000082BC7E0D0E010E0C8010C2E02C0959584
:1014000087950A94E2F780FD04C02197A8F7F12C94
:1014100007C0FC2EB6018C2F0E94E5100197A9F39E
:101420008F2DDF91CF911F910F91FF90DF90CF9083
:101430000895CF93DF93EC010E94EC09BE010E9456
:10144000E510DF91CF9108951F93CF93DF93EB01C8
:101450009091F001992321F0CB010E94190A13C049
:10146000882349F0CB010E94EC09182F682FCE0188
:101470000E94950904C0CB010E94C009182FBE012B
:10148000812F0E94E510DF91CF911F9108951F9346
:10149000CF93DF93C091080216E080910902C8172C
:1014A00099F0D0E01C9FF0011D9FF00D1124E65F24
:1014B000FD4F4081518162817381848195810E94B9
:1014C00023092196C770E9CFDF91CF911F9108952D
:1014D00040913A0250913B0260913C0270913D0272
:1014E00080913E0290913F020C9423090F931F9329
:1014F000CF93DF9380913F0282958F7009F05DC09A
:1015000080913C02882309F458C080910802109110
:10151000090260913A0270913B02C0913D02D09164
:101520003E0291E06F3F09F090E0292F06E081171D
:1015300009F443C0209721F07F3F21F030E003C041
:1015400031E001C0322F90E030FD34C0089FF0013F
:10155000099FF00D1124DF01A65FBD4F11963C914C
:101560001197371327C03C91361324C012963C9133
:10157000129731111FC013964D915C9114974C1B1B
:101580005D0B483C5105B0F480913F028F70806143
:1015900080933F02E15FFD4F80818F708061808387
:1015A0008AE392E00E949A08DF91CF911F910F91F8
:1015B0000C94470A01968770BACFDF91CF911F91A3
:1015C0000F9108959F92AF92BF92CF92DF92EF92C8
:1015D000FF920F931F93CF93DF93CDB7DEB7619741
:1015E0000FB6F894DEBF0FBECDBF8C0185E0F801C9
:1015F000DE011D9601900D928A95E1F7F801E280D7
:1016000090913A0260913B0220913D0230913E025E
:101610002115310531F06F3F31F481E09F3F19F41E
:1016200003C081E001C080E0F82FF1709F2E80FDA3
:101630003FC1F80140815181A380B4808AE3C82E64
:1016400082E0D82EF0903C02F501E21BF30BFF2064
:1016500009F4D9C080913F02E83CF10508F095C03B
:10166000282F207F09F052C0561313C0491311C010
:10167000FE2CE1100EC08F70806180933F020E94AB
:10168000680AC6010E949A0880913F02F80185838A
:101690004CC1AB2831F05F3F31F481E04F3F19F48A
:1016A00003C081E001C080E080FD03C081E08E25A1
:1016B00002C080E090E0F82FF170FF2E80FF1CC088
:1016C000809108022091090236E0821709F40BC1CB
:1016D00090E0389FF001399FF00D1124E65FFD4F37
:1016E0006181561306C06081461303C06281E61211
:1016F00003C001968770E9CFFE2CEE2009F415C1D6
:1017000080913F02816080933F0254C0561306C00F
:10171000491304C0E11002C0F80199C0C8010E9439
:101720000C09882361F1EE2051F120913F02822FB4
:1017300082958F7090E0029774F080913A029091B8
:101740003B0298878F831986BB86AA862C87CE0199
:1017500007960E949A0886E0F801AAE3B2E0019099
:101760000D928A95E1F70E94760A0E94680A0AC0E3
:10177000561711F1C8010E940C0981112CC0C80133
:101780000E949A08FF24F394D0C0282F207F81F76D
:101790007A2DB98AA88A6E2D89890E9414098AE354
:1017A00092E00E949A0886E0F60111928A95E9F784
:1017B0000E94680AF12CB9C04913DCCFE110DACFDE
:1017C000F8018583C8010E949A0886E0F60111920B
:1017D0008A95E9F7AAC0EE2091F220913F02822F6C
:1017E00082958F7090E002970CF4B5CF80913A0209
:1017F00090913B029A8389831B82BD82AC822E83A7
:10180000CE010196A6CFE83CF10508F044C0FE2CBD
:10181000EE2009F4B4CF561330C049132EC02091E6
:101820003F0220FD21C0822F82958F70482F50E00B
:1018300041155105C9F0F80125834F30510541F09C
:101840008F5F982F9295907F822F8F70892B858341
:10185000C8010E949A0886E0F801AAE3B2E001906C
:101860000D928A95E1F73CC086E0F801AAE3B2E068
:1018700001900D928A95E1F758C0C8010E940C09A9
:10188000811169CF80913F02816080933F02C8013E
:101890000E949A084AC07A2DB98AA88A6E2D898931
:1018A0000E94140986E0F60111928A95E9F718C0A2
:1018B000EE2009F464CFC8010E940C09F82E882399
:1018C00009F45DCF86E0F801AAE3B2E001900D9241
:1018D0008A95E1F78AE392E00E9459050E94760A10
:1018E0000E94680A22C04D875E878D859E850E9472
:1018F000190A292F22952F70223028F49F7039F071
:10190000811105C00BC0243028F49F7049F4805E1B
:10191000883020F0C8010E949A089F2CF92C05C03D
:10192000F8019581907F99F7F9CF8F2D61960FB6C9
:10193000F894DEBF0FBECDBFDF91CF911F910F9105
:10194000FF90EF90DF90CF90BF90AF909F90089561
:101950001F93CF93DF93CDB7DEB72C970FB6F894D4
:10196000DEBF0FBECDBF4F83588769877A878B87CD
:101970009C87CE0107960E94E20A8823D1F09F81BE
:1019800088852A853B85232B31F08F3F31F481E018
:101990009F3F19F403C081E001C080E080FD47C093
:1019A0004F81588569857A858B859C850E9423099E
:1019B0003EC086E0FE013796DE01119601900D9241
:1019C0008A95E1F7FF81E8856A857B856115710558
:1019D00031F0EF3F31F481E0FF3F19F403C081E0C3
:1019E00001C080E080FD23C02091090230E0C901E0
:1019F0000196877099274091080250E08417950757
:101A0000F1F1F983EA837D836C8396E0929FD001A4
:101A1000939FB00D1124A65FBD4FFE01319601903A
:101A20000D929A95E1F7809309020E94470A16E009
:101A30008091080290910902891771F1189FC001E5
:101A40001124865F9D4F0E94E20A882329F1E091CC
:101A500008021E9FF0011124E65FFD4F4081518175
:101A600062817381848195810E942309809108029B
:101A700090E001968770992780930802D9CF0E9441
:101A8000E4081092090210920802EAE3F2E086E00C
:101A9000DF011D928A95E9F72C960FB6F894DEBF08
:101AA0000FBECDBFDF91CF911F910895809140026D
:101AB0008595859585950895809140028770089554
:101AC00090914002977081E009F480E00895909130
:101AD000B40292FB222720F9281751F080FB92F9DB
:101AE0009093B4028091B3029091B4020C94640E6E
:101AF00008958091B40282FB882780F991E08927BC
:101B00000C94670D81E00C94670D80E00C94670DD8
:101B100080914C02089590914C02892B80934C0245
:101B20000895809590914C02892380934C020895EA
:101B300010924C02089590914B02892B80934B0296
:101B40000895809590914B02892380934B020895CC
:101B500010924B02089510924A020895809141021A
:101B6000089508950C94B10D0C94B20D9091B402A7
:101B700092FD08C090914102981721F08093410294
:101B80000C94B40D089580914102882329F010929D
:101B9000410280E00C94B40D0895E0910001F091B1
:101BA000010180914C028083E0910001F0910101DC
:101BB000908180914B02892B8083E0910001F0910C
:101BC0000101908180914A02892B8083809141029A
:101BD000882381F0E0910001F09101019081892B2F
:101BE000808380910001909101010E942128811140
:101BF0000E94C30D80910001909101010C94DC279B
:101C00000C94B10D9091B40292FD10C098E0899FA0
:101C100090011124262B209340020E946309809199
:101C200040028595859585950C94000E0C9463096A
:101C30001092400280E00C94000E209140028095AA
:101C4000822380934002982F977041F430E0482F10
:101C5000082E000C550B2417350721F49091B4027F
:101C600092FF07C08595859585950E946E090C9415
:101C7000180E08956FEF7FEF80E090E00C946035D0
:101C800080E090E00E943C35893E9E4F11F40C9418
:101C9000332080E0089582E090E00C942E3583E0BC
:101CA00090E00C942E35CF9384E090E00E942E3586
:101CB000C82F82E290E00E942E352C2F30E0A9013F
:101CC000582BCA01CF910895CF93C92F682F84E074
:101CD00090E00E9442356C2F82E290E0CF910C940C
:101CE0004235AB01BC018FE090E00C945435AB0160
:101CF000BC0183E190E00C94543560E070E0CB01CE
:101D00000C94770E60E070E0CB010E94710E0C9491
:101D10007D0E69EE7EEF80E090E00E94603560E02D
:101D200082E090E00E94423560E083E090E00E9413
:101D300042351092070260E084E090E00E94423554
:101D400060E082E290E00E94423560E085E090E051
:101D50000E94423560E086E090E00E9442356FEFDD
:101D600087E090E00E94423540E050E0BA0188E010
:101D700090E00E94543560E08DE090E00E94423592
:101D800040E050E0BA0188E190E00E94543560E004
:101D900087E190E00E94423540E050E0BA018CE1DA
:101DA00090E00E94543560E070E080E290E00E9494
:101DB000603540E050E0BA0188E190E00E9454357F
:101DC00080E00E944C200E9478200C94820E0C949B
:101DD000890E682F8EE090E00C9442350E945029C5
:101DE00060935A0270935B0280935C0290935D0251
:101DF0006093560270935702809358029093590251
:101E0000089585B7806885BF85B7806885BF0895C8
:101E10000C94BB1308950C940A0F0C940A0F0C94A5
:101E20000D0F0C940A0F0C94110F0C940A0F0E94C2
:101E3000010F81EC91E10E94BE290E94150F0C94C4
:101E4000130F0E940B0F0C940A0F0E943B290E9453
:101E50006E280E9487200E94BB120E9462230E946B
:101E6000471E0C940F0F9F92AF92BF92CF92DF92BA
:101E7000EF92FF920F931F93CF93DF93CDB7DEB70F
:101E80002A970FB6F894DEBF0FBECDBF0E94301365
:101E900081110E94EE0E8EE4A82E82E0B82E00E0A2
:101EA00010E0902E802F0E94F511D82EF501C190E0
:101EB0005F01C826B1F40F5F1F4F0830110589F785
:101EC0008FEF89838A831B820E9444298160782F47
:101ED0009D838C8349815A816B818D810E940F057E
:101EE0002FC080915E0281FD0E94FB11E12CFF2436
:101EF000F3948C2D8F21F1F00E94080F882399F024
:101F0000EE829F82DF2081E009F480E088870E94D2
:101F100044298160782F9A8789874E815F816885FF
:101F20008A850E940F05F801E25BFD4F8081F8264B
:101F3000F08206C0E394FF0CF7E0EF12DACFBBCFDC
:101F40000E948B1E0E9471170E94C92790914D021A
:101F50008917B9F00E94C92780934D022A960FB6BF
:101F6000F894DEBF0FBECDBFDF91CF911F910F91CF
:101F7000FF90EF90DF90CF90BF90AF909F900C9428
:101F800006052A960FB6F894DEBF0FBECDBFDF91CF
:101F9000CF911F910F91FF90EF90DF90CF90BF9066
:101FA000AF909F900895CF93DF930E94EA10EC01C9
:101FB000811521E5920708F045C0811530E59307AA
:101FC00008F094C0883E910528F5803E910508F000
:101FD000F8C0883A910570F4853A910508F07CC004
:101FE0008130910509F475C008F4E8C0049708F041
:101FF000E8C0E4C08F3B910508F0E0C0C85AD0E0CB
:10200000CC0FDD1FC858DE4F0990D881C02DCE01FE
:102010009464D8C0811540E2940758F4811551E0CA
:10202000950708F0CEC0803F910508F4C7C09065C1
:10203000C9C0C11580E4D80708F4C0C0DF70CE0164
:10204000906AC0C0811525E59207A8F4811534E592
:10205000930708F095C0811543E5940708F07BC00D
:10206000811552E5950708F061C0D82FCC27CE0125
:10207000816F906AA7C0C11589E5D807A0F4C11582
:1020800028E5D20708F082C0C11536E5D30708F06D
:1020900095C08C2F0E947E118F7190E0D82FCC2795
:1020A000CE0190628FC0C1154AE5D40708F474C010
:1020B000CE0190568115904208F080C08D2F8F710F
:1020C0000E947E11DD27D0628F71AE01582BCA01AC
:1020D00079C081E090E076C0C55AD0E0CA55DE4FA5
:1020E0008881C82FD0E0CE0190646CC074E09695D2
:1020F00087957A95E1F7282F23703C2F337081E084
:1021000090E002C0880F991F3A95E2F79C68AC01F5
:10211000522B9A019C2F9F709695969550E2959F11
:10212000E0011124C9018C2B9D2B4CC08370992791
:1021300021E030E002C0220F331F8A95E2F79C2F86
:102140009695969580E2989FE0011124C22BD32B9F
:10215000CE019C6837C08370992721E030E002C02F
:10216000220F331F8A95E2F79C2F9695969540E2B1
:10217000949FE0011124C22BD32BCE019A6822C078
:10218000D82FCC27CE01846F906A1CC0DC2FCC27BF
:10219000CE01806F906A16C08C2F8F700E947E11C6
:1021A00094E0D695C7959A95E1F7CF70D0E0DC2FF3
:1021B000CC27D0699E01282BC90104C080E090E0A3
:1021C00001C0CE01DF91CF9108950E94A0220E940C
:1021D000D30F08958238910569F1B0F481339105E8
:1021E00009F46DC048F48932910509F463C08A325C
:1021F000910509F469C008958533910509F455C026
:1022000089339105B9F00895833E910569F138F459
:10221000803E9105B1F0823E910509F10895863E18
:102220009105A9F1873E9105B9F1843E910509F028
:1022300064C023C02091B30220FD4FC021FD4DC0DA
:1022400008958091B30280FD44C08091B40280FF64
:1022500044C08091B30284FD42C083EE4DC08091A2
:10226000B30282FF38C0F5CF8091B30282FD33C044
:102270008091B40280FD31C0ECCF8091B40281FF27
:1022800032C08091B30284FD2AC087EE35C08091B0
:10229000B30283FF26C0F5CF8091B30283FD21C036
:1022A0008091B40281FD1FC0ECCF8091B30285FD07
:1022B0001CC01DC08091B30285FD19C016C080915D
:1022C000B30286FD16C017C08091B30286FD13C00D
:1022D00010C089E311C082EE0FC080EE0DC080E017
:1022E0000BC086EE09C084EE07C089E205C085E315
:1022F00003C08AE201C081E390E008959091B302A7
:1023000092FF0DC0282F2871283019F4877F846030
:1023100006C0282F2471243011F48B7F886093FF2E
:102320000DC0282F2871283119F4877E846106C0DA
:10233000282F2471243111F48B7E88612091B402FE
:1023400020FF0DC0382F3871383019F4877F816035
:1023500006C0382F3171313011F48E7F886021FF33
:102360000DC0282F2871283119F4877E816106C09D
:10237000282F2171213111F48E7E886194FD877E92
:10238000089580E008950C943A0E0E9430138FE374
:102390009CE90197F1F700C000000E94301380E033
:1023A0000E94F51180FF04C00E94C3110C94AD2956
:1023B00008950C94C5110E94400E811102C00E9424
:1023C000E70E0E944B0E80935E020E94530E909384
:1023D000B4028093B3020E94D9110E944F0E0E9452
:1023E0003F09809106020C945009E82FF0E0E35475
:1023F000FD4F80810895089580EA8A95F1F7089548
:1024000000C008950C94FC1108950C9404120C94CF
:1024100005120C9404120C940912F894E82FE2951A
:10242000EF70F0E031A1282F2F7081E090E001C023
:10243000880F2A95EAF7982F9095932391A392A15C
:10244000892B82A37894089508950C9424120F93F5
:102450001F93CF93DF93C9EAD1E089918F3F11F0A9
:102460000E940D1281E0C03BD807B9F7C0EBD1E064
:1024700004EB11E089918F3F11F00E940D120C17AF
:102480001D07C1F7DF91CF911F910F910895DF9242
:10249000EF92FF920F931F93CF93DF93062F10E0DD
:1024A00007551E4FE80128812F3F09F45CC0F62E26
:1024B000E92ED82EF894E22FE295EF70F0E081A19A
:1024C0002F70C1E0D0E0AE0102C0440F551F2A9525
:1024D000E2F79A01842B81A382A12095282322A3CD
:1024E00078940E9400120F2C01C0CC0F0A94EAF7D6
:1024F0003C2F6C2F6095A0EBB1E0ED2DFE2DAF01D0
:102500004C5F5F4FE12C2D912F3FA9F0822F8295D8
:102510008F7090E0EC0188A190E02F7002C095953B
:1025200087952A95E2F780FD06C08081832B808302
:10253000EE24E39403C08081862380833196E417E0
:10254000F50709F7F80180818F3F11F00E940D1205
:102550006E2D8F2DDF91CF911F910F91FF90EF90F6
:10256000DF900C940212DF91CF911F910F91FF9099
:10257000EF90DF9008950E94D51380910201809121
:102580000201811102C094E001C090E09093C60264
:1025900084E0891B8093C5020E942712E5EBF2E0DC
:1025A000ADEBB2E011921D9282E0ED3BF807D1F75E
:1025B00084E00E9484130E94B4030C94DF131F93E1
:1025C000CF93DF9300D000D0CDB7DEB70E94BB130E
:1025D0006091C602882371F119821A821B821C82C3
:1025E000862F90E0BE016F5F7F4F83549D4F0E9406
:1025F000ED13E091C5029E012B5F3F4FF0E0E354E5
:10260000FD4FDE011196882361F010E08D919081DD
:10261000981711F0808311E03196A217B307B1F734
:1026200006C011921D92A217B307D9F711E00E94BC
:10263000BA030DC070E063547D4F8091C50290E0F5
:1026400083549D4F0E947D140E94251210E0812F1B
:102650000F900F900F900F90DF91CF911F910895E1
:10266000EF92FF920F931F93CF93DF93CDB7DEB717
:1026700028970FB6F894DEBF0FBECDBF8E010F5F57
:102680001F4F88E0F80111928A95E9F7F12C6F2D20
:10269000C8010E944712F394F7E0FF12F8CF48E018
:1026A00050E0B80185EB92E00E9418357C0121E0F2
:1026B000892B09F420E0E114F10441F088E0F801ED
:1026C000A5EBB2E001900D928A95E1F76091C60208
:1026D00070E063547D4F44E085EB92E00E948513E7
:1026E000EF2819F40E94DF1202C081E090E02896E2
:1026F0000FB6F894DEBF0FBECDBFDF91CF911F9113
:102700000F91FF90EF9008950895FF920F931F93FC
:10271000CF93DF938C01F62ED72FC42F222349F0BD
:1027200081E0809361020E9444299093600280932B
:102730005F02809161028823C1F080915F029091D5
:1027400060020E945C29059780F0EF2DFD2FD801D3
:102750004C2F50E0CD01801B910B841795071CF482
:102760008D918193F7CF10926102DF91CF911F91EC
:102770000F91FF9008958091640281110DC00E9415
:102780002D31811102C082E001C081E0809364029A
:10279000823011F40E94283181E0909164029130DE
:1027A00009F080E008950C94BB130E94D31380932A
:1027B00002010E94BB1381110C94251408950E94FC
:1027C000BB13811102C00C942714089581E09091ED
:1027D00065029A3008F080E008950F931F93CF931D
:1027E000DF93EC018B01809165028A3038F4B801E7
:1027F000CE010E947B1481111DC00AC0809162022B
:10280000909163020E945C29843F914080F715C03B
:10281000809165028F3F19F08F5F809365028091F0
:1028200065028A3060F00E9444299093630280938D
:10283000620203C01092650202C080E001C081E024
:10284000DF91CF911F910F9108950C94FF250C9467
:102850000226EF92FF920F931F93CF93DF9379019C
:10286000C82F880FDD0B41155105A9F08AE08C9F18
:10287000F0018D9FF00D1124ED5FFE4F8381948157
:102880008A599D4F228130E04217530708F49A017C
:10289000A9010E942535CE010E940C27892B09F53C
:1028A0000115110501F18AE08C9FF0018D9FF00D5B
:1028B0001124ED5FFE4F458150E00417150708F421
:1028C000A8018AE08C9FF0018D9FF00D1124ED5F2F
:1028D000FE4F668177816A597D4FC7010E94253579
:1028E00002C080E001C081E0DF91CF911F910F9184
:1028F000FF90EF9008950C949E150C94BA150F93C9
:102900001F93CF93DF9300D000D0CDB7DEB7609197
:102910007B0270917C0280917D0290917E020E94E8
:102920006B29643671058105910528F10E94942870
:10293000DC01CB010296A11DB11D89839A83AB8373
:10294000BC8300E010E020E030E044E050E0BE0155
:102950006F5F7F4F82E00E942914182F882361F057
:102960000E94502960937B0270937C0280937D02C9
:1029700090937E0201C011E0812F0F900F900F9075
:102980000F90DF91CF911F910F910895AF92BF9259
:10299000CF92DF92EF92FF920F931F93CF93DF932B
:1029A0007C015B016A010E94E613811103C001E012
:1029B00010E002C00AE010E0C1E0D0E0F894B501F8
:1029C000C701F60109957894811115C021960C175D
:1029D0001D0794F0CC9F9001CD9F300D300D112438
:1029E00080E090E045E34A95F1F7000001968217F8
:1029F0009307C1F7E3CF81E0DF91CF911F910F9152
:102A0000FF90EF90DF90CF90BF90AF900895AF927E
:102A1000BF92CF92DF92EF92FF920F931F93CF93CB
:102A2000DF9300D000D01F92CDB7DEB75B01E090FE
:102A3000B801F090B90101E010E09E012B5F3F4F1B
:102A400040E050E060E070E080E00E942914182F20
:102A5000882309F43EC067018FEFC81AD80A609135
:102A60007702709178028091790290917A020E94A7
:102A70006B29643671058105910518F104E010E0B9
:102A80009E012F5F3F4F40E050E060E070E081E04A
:102A90000E942914182F64E070E0C6010E9463238D
:102AA00091E02D81281390E0192351F10E945029C3
:102AB00060937702709378028093790290937A0200
:102AC00011C064E070E0C6010E9463239D818913F8
:102AD000D5CFF70181819281A381B48189839A83C3
:102AE000AB83BC83112361F089819A81AB81BC8166
:102AF0008093730290937402A0937502B093760250
:102B00008091730290917402A0917502B091760247
:102B1000F50180839183A283B383812F0F900F905F
:102B20000F900F900F90DF91CF911F910F91FF9019
:102B3000EF90DF90CF90BF90AF9008950F931F93C9
:102B4000CF93DF93EC018B0147E055E10E94C6145F
:102B5000882351F04FE754E1B801CE01DF91CF91C6
:102B60001F910F910C94C61480E0DF91CF911F91BB
:102B70000F9108950F931F93CF93DF93F894C09113
:102B8000B801D091B901CE01019624E0FB01DC012E
:102B900001900D922A95E1F764E070E00E946323B2
:102BA00088837894F8946D817E818F8198850091D7
:102BB0006F021091700220917102309172026017C1
:102BC00071078207930751F060936F027093700250
:102BD00080937102909372020E9477287894DF911B
:102BE000CF911F910F9108950E94B8280E94522BF7
:102BF0000E946B2B0E947D2B0E94210FFBCF8091A6
:102C0000850280FF0BC06091260185E0689FB001BE
:102C1000112475956795759567952BC081FF09C03F
:102C20006091260185E0689FB00111247595679534
:102C300020C082FF07C06091260185E0689FB00137
:102C4000112417C0909184029923D1F0609125013D
:102C5000961788F72091260185E0289F900111247E
:102C6000929FA001939F500D112470E0CA010E9411
:102C700097346038710540F46115710519F406C088
:102C800065E070E0862F08958FE7089581E008954C
:102C90008091850280FF08C06091220170E07595E7
:102CA00067957595679521C081FF06C060912201E7
:102CB00070E07595679519C082FF04C0609122018C
:102CC00070E010C090918302992399F060912101E6
:102CD0009617A0F780912201899FC001112470E00E
:102CE0000E9497346038710540F46115710519F43C
:102CF00006C061E070E0862F08958FE7089581E0B7
:102D00000895803F21F40E94FF15819504C0813F02
:102D100029F40E94FF15809389020895823F21F4CF
:102D20000E94FF15819504C0833F29F40E94FF157E
:102D3000809388020895893F19F40E94481605C0BF
:102D40008A3F31F40E944816819580938A02089543
:102D50008B3F21F40E944816819504C08C3F29F4D2
:102D60000E94481680938B0208959CE0980F95303E
:102D700078F421E030E0A90102C0440F551F9A9574
:102D8000E2F7CA0190918702892B80938702089508
:102D90008D3F21F48091850281600BC08E3F21F42C
:102DA00080918502826005C08F3F29F48091850261
:102DB0008460809385020895803F39F49091890260
:102DC00097FF35C01092890259C0813F29F4909134
:102DD00089021916BCF32BC090918802823F29F416
:102DE00097FF25C01092880249C0833F19F4191635
:102DF000CCF31DC090918A02893F29F41916BCF4C6
:102E000010928A023BC08A3F19F497FF10C0F8CF96
:102E10008B3F39F490918B0297FF09C010928B027F
:102E20002DC08C3F21F490918B021916BCF39CE0CD
:102E3000980F953080F421E030E0A90102C0440FE2
:102E4000551F9A95E2F7CA018095909187028923D0
:102E50008093870213C08D3F21F4809185028E7F7D
:102E60000BC08E3F21F4809185028D7F05C08F3F7E
:102E700029F4809185028B7F80938502809188025E
:102E8000811106C080918902811102C010928402D2
:102E900080918A02811106C080918B02811102C04B
:102EA0001092830208950E944429209188022111E2
:102EB00004C020918902222321F090938202809302
:102EC000810220918A02211104C020918B022223C9
:102ED00021F09093800280937F0286E892E00C9428
:102EE000E727EF92FF920F931F93CF93DF9300D0CA
:102EF00000D000D0CDB7DEB786E0E6E8F2E0DE0134
:102F0000119601900D928A95E1F7E0908802F09079
:102F1000890200918A0210918B021092880210920D
:102F2000890210928A0210928B02E11003C0FF20E6
:102F300009F45DC080918102909182020E945C2917
:102F4000AC0190918402992339F02091270130E05F
:102F50002417350758F04BC0209128018AE0289F9C
:102F6000900111242417350718F041C09F3F19F034
:102F70009F5F90938402EE2061F00E94FF151E1463
:102F800014F09FEF01C091E0989F902D1124909331
:102F90008802FF2061F00E94FF151F1414F09FEFBC
:102FA00001C091E0989F902D112490938902309157
:102FB00088023323E1F0209189022223C1F045EBFE
:102FC0003403C0011124992319F09093880203C09F
:102FD00081E08093880235EB2303C00111249923FB
:102FE00019F09093890203C081E080938902011156
:102FF00003C0112309F45DC080917F02909180028B
:103000000E945C29AC0190918302992339F02091B0
:10301000230130E02417350758F04BC020912401DC
:103020008AE0289F900111242417350718F041C029
:103030009F3F19F09F5F90938302002361F00E94ED
:103040004816101614F09FEF01C091E0989F902D44
:10305000112490938A02112361F00E9448161116E0
:1030600014F09FEF01C091E0989F902D1124909350
:103070008B0230918A023323E1F020918B022223CC
:10308000C1F045EB3403C0011124992319F090934A
:103090008A0203C081E080938A0235EB2303C001DA
:1030A0001124992319F090938B0203C081E080933F
:1030B0008B028091880281110BC08091890281115D
:1030C00007C080918A02811103C080918B02811117
:1030D0000E945317EB82FC820D831E8386E0FE0163
:1030E0003196A6E8B2E001900D928A95E1F7269616
:1030F0000FB6F894DEBF0FBECDBFDF91CF911F9109
:103100000F91FF90EF900895E6E8F2E086E0DF018E
:103110001D928A95E9F71092840210928302109210
:1031200085020895EF92FF920F931F93CF93DF9341
:103130008B01682F11110AC0442329F0E82FF0E019
:10314000E958FC4F6491762F862F75C0212F30E00F
:10315000E82FF0E0442321F0E958FC4FE491F0E03F
:1031600046E0049FC0011124CFEFD0E0BE010E94D1
:1031700083344BEA4603C001479F900D1124800F12
:10318000911D800F911D982F990F890FAE01421B41
:10319000530B4E9FD0014F9FB00D5E9FB00D112479
:1031A0009B2F189FA0011124452F55278E01041B2A
:1031B000150B0E9FA0010F9F500D1E9F500D112447
:1031C0007E01E81AF108E29E8001E39E100DF29E56
:1031D000100D1124212F3327C21BD30BCE9F90013A
:1031E000CF9F300DDE9F300D112462307105A9F0A4
:1031F00048F46115710569F061307105C9F48B2FD0
:10320000752F0DC06430710581F058F0663071057E
:1032100079F47E2F8B2F932F0DC0832F7B2F9E2F22
:1032200009C08E2F7B2F952F05C08E2F732F02C0C4
:103230007E2F852F692FDF91CF911F910F91FF90E6
:10324000EF90089541E00E949218089508950E9419
:1032500022190895CF93DF93762FE901682F842FE9
:103260000E942719798368838A83DF91CF9108951B
:103270008091C802282F269530E02115310519F4D8
:103280008170826005C02532310524F08170886428
:103290008093C802089588E090E00C943635CF9270
:1032A000DF92EF92FF926B017C010E943819B70107
:1032B000A60188E090E0FF90EF90DF90CF900C9413
:1032C00054356091C8027091C9028091CA029091F0
:1032D000CB020C944F19E8ECF2E083E0808311827A
:1032E0008FEF8283838314826081718182819381D5
:1032F0000C944F198091C80280FF02C086950895F2
:1033000080E008959091CC02933018F49F5F9093E1
:10331000CC02882351F06091C8027091C90280915B
:10332000CA029091CB020C944F19089581E00C943D
:1033300082199091CC02992319F091509093CC026C
:10334000882351F06091C8027091C9028091CA022D
:103350009091CB020C944F19089581E00C94991927
:103360008091CC0208958093CC02662351F0609145
:10337000C8027091C9028091CA029091CB020C944C
:103380004F19089560E00C94B3198091C902089513
:103390008091CA0208958091CB02089570E00C9448
:1033A000082060912D018091C80280FF0AC08091A1
:1033B0002C0123E0829FC001112483539D4F0C9464
:1033C000CE1980912E0190912F01891780F7E82F57
:1033D000F0E09F01220F331FE20FF31FE353FD4F75
:1033E0001182108212828F5FF0CF9091C80290FFFD
:1033F00016C090912E0120912F01921770F4E92FA1
:10340000F0E0DF01AA0FBB1FEA0FFB1FE353FD4FE4
:103410008183608342839F5FF0CF0C94D11908951C
:10342000CF93DF9300D01F92CDB7DEB79091C80243
:1034300090FF0AC09E012F5F3F4F0E942A194B81C7
:1034400069818A810E94F5190F900F900F90DF918A
:10345000CF910895CF93DF93EC016C8170E080E011
:1034600090E00E94843220E030E04FE753E40E9475
:10347000A7312BED3FE049E450E40E94AD330E94B8
:103480001A340E9421322BE43AE34EE25FE30E94B9
:103490003A3120EF3BEF48ED52E40E94AD330E94F9
:1034A0005332462FE8ECF2E0628181810E94101ACB
:1034B0008C818F5F8C83DF91CF910895CF93DF93C1
:1034C000EC01E8ECF2E0438162818C810E94101AE9
:1034D0008C818F5F8C83DF91CF9108950F931F9321
:1034E000CF93DF9300D01F92CDB7DEB78C018091D0
:1034F0008C0281110AC09E012F5F3F4F4FEF6FEF8B
:103500000E942A198A8180938C02F801848181307B
:1035100051F028F0823061F440918C020AC0809111
:103520008C0240E007C060918C0240E080E003C064
:1035300040E080E060E00E94F519F801848190E0AD
:10354000019663E070E00E94973484830F900F909F
:103550000F90DF91CF911F910F910895AF92BF927D
:10356000CF92DF92EF92FF920F931F93CF93DF934F
:1035700000D01F92CDB7DEB7182FF62E042FE22E03
:103580009091C80290FF6DC0E92FE695AE2FB0E094
:10359000A654BE4F8C91809398029E7F923061F426
:1035A0009E012F5F3F4F812F0E942A194B81698115
:1035B0008A810E94F51943C0823019F40091CB0230
:1035C0003EC0863019F41091C90239C08930D9F350
:1035D0008931A9F5E9518E2F8170D82EE695F0E05A
:1035E000EE58FC4FA590B490C12CBB2460913001E3
:1035F000C61618F52C2D30E0A29EC001A39E900D9A
:10360000B29E900D112470E00E948334812FD1105E
:1036100002C0860F01C0861B90912E01290F311D1B
:10362000A901440F551F240F351F23533D4F402F31
:103630006F2D0E942A19C394D9CF0E94D1191093DB
:10364000C902F092CA020093CB02EE2051F06091C1
:10365000C8027091C9028091CA029091CB020E9467
:103660004F190F900F900F90DF91CF911F910F91F5
:10367000FF90EF90DF90CF90BF90AF900895E8EC6F
:10368000F2E09181282F4381628188E0890F0C94B8
:10369000AE1A81E00C943F1BE8ECF2E09181282FF8
:1036A0004381628188EF890F0C94AE1A81E00C94FB
:1036B0004C1BE8ECF2E0628128E0620F08F46FEF47
:1036C000282F438181810C94AE1A81E00C94591B00
:1036D000E8ECF2E0628128E0621B08F460E0282F49
:1036E000438181810C94AE1A81E00C94681BE8EC54
:1036F000F2E0438128E0420F08F44FEF282F628167
:1037000081810C94AE1A81E00C94771BE8ECF2E016
:10371000438128E0421B08F440E0282F6281818128
:103720000C94AE1A81E00C94861B20E00C94AE1A27
:10373000FF920F931F93CF93DF93EC01F12C0FEFC8
:1037400010E060913001F616F0F480912E012F2DDB
:1037500030E0280F311DC901880F991F280F391F2C
:1037600023533D4F70E0C8010E949734962F8C81FF
:103770004091CB026091CA02F99E800D11240E94F3
:103780002A19F394DECF0E94D1199A818C8190FF7F
:1037900002C08F5F01C081508C83DF91CF911F9158
:1037A0000F91FF900895BF92CF92DF92EF92FF9218
:1037B0000F931F93CF93DF93FC01828180FF02C0A0
:1037C0000FEF01C001E010E080913001181708F000
:1037D00040C080912E01C12ED12CE601C80FD11D11
:1037E000CE01880F991FC80FD91FC353DD4F19820F
:1037F00018821A8234E0E32EF12CB12C80918E02D3
:103800008B0D813114F08F7005C087FF03C090913C
:103810003001890F082E000C990BC816D90691F4B7
:103820008091CB028E9DA0018F9D500D1124559546
:103830004795559547959E016091CA028091C902AE
:103840000E942A19B00EF1E0EF1AF108B9F61F5FD5
:10385000BBCF0E94D11980918E02013031F48111C9
:1038600002C080913001815007C090E001966091C4
:10387000300170E00E94973480938E02DF91CF91E7
:103880001F910F91FF90EF90DF90CF90BF90089520
:10389000CF9380912E0190912F01891770F4E82F1A
:1038A000F0E09F01220F331FE20FF31FE353FD4FA0
:1038B0001182108212828F5FF0CFC0E060913001E0
:1038C000C617C0F5EC2FF0E070E0CF010E949734EE
:1038D00020912E01820F20918D02022E000C330BBD
:1038E00090E0E217F307CCF020912B01022E000CA0
:1038F000330B2E173F078CF09C01220F331F820FD2
:10390000931F9C0123533D4F4091CB026091CA020B
:103910008091C9020E942A190BC0FC01EE0FFF1F03
:103920008E0F9F1FFC01E353FD4F11821082128204
:10393000CF5FC4CF0E94D11920912A0180918D02BE
:10394000820F80938D0290912B01920F90932B0107
:1039500019165CF4082E000C990B4091300150E0D0
:1039600041505109841795071CF0219520932A0195
:10397000CF9108958F929F92AF92BF92CF92DF9294
:10398000EF92FF920F931F93CF93DF938C01FC0173
:103990004481C42FD0E09E01DE010E94E2349B01ED
:1039A000AC010E94F8346B017C01E0E2F0E0EC1B1A
:1039B000FD0BA5E5B0E09B01AC010E94F8344B0182
:1039C0005C019F01DF010E94DA349B01AC010E947F
:1039D00003359B01AC012C0D3D1D4E1D5F1DC50126
:1039E000B4010E94AB34C22FD22F2A3228F4F3E064
:1039F0002F9F900111240DC025E530E02C1B3109CB
:103A0000C901880F991F280F391F37FF02C02F5F88
:103A10003F4F35952795C22FC095F12C85E5E82EAF
:103A2000ED1A80913001F816C8F4F1FC02C08E2D19
:103A300001C08D2F90912E012F2D30E0290F311DC7
:103A4000A901440F551F240F351F23533D4F4C2F01
:103A50006091CA020E942A19F394E3CF0E94D119FF
:103A6000F8018481811102C091E003C0803219F411
:103A70009FEF9093290190912901890FF801848388
:103A8000DF91CF911F910F91FF90EF90DF90CF903A
:103A9000BF90AF909F908F9008950F931F93CF93F7
:103AA000DF93EC0100E010E080913001282F30E03E
:103AB0000217130724F590912E019801290F311D4B
:103AC000A901440F551F240F351F23533D4F8695E1
:103AD00090E04C81081719071CF4442331F002C010
:103AE000411103C04091CB0201C040E06091CA0285
:103AF0008091C9020E942A190F5F1F4FD5CF0E94E3
:103B0000D1198C8190E00196817099278C83DF9187
:103B1000CF911F910F910895E8ECF2E080818E7FA4
:103B2000808360817181828193810E944F191092FC
:103B300099022FEF80E792E0215080409040E1F71A
:103B400000C000000C94D119E8ECF2E080818E7F77
:103B50008083109299022FEF80E792E021508040FD
:103B60009040E1F700C000000C94D1191092990226
:103B70008091960281110AC081E080939602809123
:103B8000C8028170809395020C94A41D08956091E1
:103B9000C802669570E04BE050E081E391E00E943E
:103BA0000B35892B19F481E0809399020E94AF288C
:103BB0009093900280938F0208959091C80290FF95
:103BC00035C09170811102C0926006C0853210F03C
:103BD000986402C0880F982B9093C802662351F016
:103BE0006091C8027091C9028091CA029091CB0283
:103BF0000E944F196091C802669570E04BE050E05A
:103C000081E391E00E940B35892B19F01092990203
:103C100002C00E94C71D81E0809392024091CB02B6
:103C20006091CA028091C9020C94951B0895682F77
:103C30009091C802969581E0890F853208F081E065
:103C40000C94DD1D81E00C94171E682F9091C80222
:103C500096958FEF890F09F484E20C94DD1D81E0C5
:103C60000C94251E61E00C94DD1DE8ECF2E08081EF
:103C70008160808386950C94321E8091C80280FDFD
:103C80000C948C1D0C94351E60E00C94DD1D80910D
:103C9000970281112EC00E94400E811104C00E9423
:103CA000E70E0E946B190E944B196093C802709333
:103CB000C9028093CA029093CB026E7F61F40E9486
:103CC0006B190E944B196093C8027093C9028093CC
:103CD000CA029093CB020E943819109299028091E7
:103CE000C80280FF03C086950E94441E81E0809335
:103CF00097020895E8ECF2E08081816080838695E8
:103D00000C94441E109296028091950281110E949B
:103D10007A1E0C94C71D0F931F93CF93DF9380914E
:103D20009902882309F485C080919802E091C80225
:103D3000E695E81BE0939102823049F4F0E0E25905
:103D4000FC4FE491CE2FD0E00AE21AE149C0863060
:103D500049F4F0E0E559FC4FE491CE2FD0E00EE5B8
:103D60001AE13EC0893051F4E695F0E0E859FC4F85
:103D7000E491CE2FD0E008E91BE132C08F3051F43E
:103D8000E695F0E0EB59FC4FE491CE2FD0E003ED47
:103D90001BE126C0853149F4F0E0EE59FC4FE49177
:103DA000CE2FD0E008E41CE11BC0883181F08332C3
:103DB00039F4E0E6F3E0C591D4910EE61AE110C0C3
:103DC000843251F4C4EFD1E00DE41DE109C0C8E232
:103DD000D0E00AEB1CE104C0C0EDD7E006E219E137
:103DE00080919202882361F0109292020E94AF2883
:103DF0009093900280938F021092940210929302FB
:103E00000E94AF28E0918F02F09190028E1B9F0BD1
:103E10008F3F9F4770F4EC0FFD1FF0939002E093EB
:103E20008F028FE892E0F801DF91CF911F910F91FF
:103E30000994DF91CF911F910F910895882311F07C
:103E4000FA0101C0FB010994CF93DF93C82FD62F4D
:103E50000E947A198C1740F00E947A198D1720F46D
:103E6000DF91CF910C94221E8C2FDF91CF910C9477
:103E7000321E1F93CF93DF93FB0112811111C3C038
:103E8000EC010E94880D8272CC3CFCE5DF0709F44E
:103E90009AC0A8F5C63CECE5DE0709F476C0A8F4A4
:103EA000C33C9CE5D90709F45FC028F4C23CDC455B
:103EB00009F457C054C0C43C9CE5D90709F459C063
:103EC000C53CDC4509F45CC04AC0C93CFCE5DF07E1
:103ED00009F46AC050F4C73CECE5DE0709F45AC0A7
:103EE000C83CDC4509F45BC03AC0CA3C9CE5D90734
:103EF00009F45FC0CB3CDC4509F460C030C0C13D73
:103F0000FCE5DF0709F46FC088F4CE3C9CE5D907D7
:103F100009F460C008F45CC0CF3CFCE5DF0709F49D
:103F20005CC0C03DDC4509F45BC019C0C43D9CE5E4
:103F3000D90709F460C050F4C23DFCE5DF0709F47D
:103F400055C0C33DDC4509F454C009C0C53D9CE5DE
:103F5000D90709F455C0CD35DD4509F454C011E049
:103F600052C00E943D1E4FC04FE25EE162E27EE120
:103F700004C042E25EE16FE27EE10E941E1F43C088
:103F800046E55BE169E47BE1F8CF49E45BE166E5A6
:103F90007BE1F3CF44E75BE165E67BE1EECF45E60D
:103FA0005BE164E77BE1E9CF42E95BE163E87BE168
:103FB000E4CF43E85BE162E97BE1DFCF4DEA59E121
:103FC00066E979E1DACF46E959E16DEA79E1D5CFE1
:103FD00081E017C065E082E010C068E086E00DC0B7
:103FE0006EE089E00AC064E18FE007C067E185E127
:103FF00004C088E106C062E289E10E94241F03C078
:1040000083E20E94321E812FDF91CF911F9108958C
:10401000539A2BB1277F3BB138604FB7F894FC011E
:10402000CB01880F991F680F791F6E0F7F1FE6174E
:10403000F70789F0819198E03BB9000000C087FF45
:104040002BB9880F000000C000C000C02BB900C011
:104050009A9591F7ECCF4FBF8FE594E00197F1F778
:1040600000C00000089583E290E00E942E35813266
:1040700081F484E290E00E942E35823151F485E291
:1040800090E00E942E3591E0803309F090E0892F76
:1040900001C080E081700895CF93C82F811102C0C4
:1040A0006FEF01C061E283E290E00E944235C111EE
:1040B00002C06FEF01C062E184E290E00E944235ED
:1040C000C11102C06FEF01C060E385E290E0CF91C3
:1040D0000C944235089586E290E00E942E35682FB8
:1040E00070E080E090E0089586E290E00C94423524
:1040F00080E00E944C2060E070E0CB010E947420C0
:104100000E941B220E94FA2281E00C944C200E9403
:104110006A200E943320811102C00C9478200895F7
:10412000CF93FB01C281CC23E9F09C0122513F4592
:104130002031310520F482510E940A230CC08031C5
:10414000FFE59F0751F481E00E94630943E062E0CC
:1041500081E00E94AB03C0E018C081319F45A9F403
:1041600082E0F2CF8031EFE59E0711F481E004C0D8
:1041700081319F4549F482E00E946E0943E062E08C
:1041800081E00E94AB0301C0C1E08C2FCF91089564
:104190002FEFFC0120830895CF93DF93EC018881FA
:1041A000813889F028F48038A1F40E94CB1910C01E
:1041B000823861F0833869F40E94C51989830E94AE
:1041C000C8198A8306C00E947A1902C00E94B019D9
:1041D0008983DF91CF910895CF93DF93EC0188819C
:1041E0008138B1F058F4803851F5D9810E94C8194E
:1041F000C82F0E94C5194D2F6C2F1DC08238B1F0F9
:104200008338E9F40E94CB19482F6A81898113C051
:1042100089810E94441E8981811104C0DF91CF9160
:104220000C94A41DDF91CF910C947A1E8981DF91AB
:10423000CF910C94C219DF91CF910C94951BDF9113
:10424000CF910895EF92FF920F931F93CF93DF9337
:10425000EC01062F0196E8814E2F50E0FA013197CC
:10426000E331F10508F09AC0E059FF4F0C94CD34CA
:10427000198289E056C08981823039F0833061F03B
:10428000813029F50E94502902C00E946B209A8338
:104290008B837C836D8384C07E0182E0E80EF11CF9
:1042A00010E0812F0E94F511F70181937F011F5FBC
:1042B0001830B9F775C08981823049F46A817B81F1
:1042C0008C819D810E94D3340E94742069C0602F2C
:1042D000CE010E94C82064C04B816A8189810E94FE
:1042E000ED219C838D835CC02C813D813227232767
:1042F00032274B816A8189810E94062251C00E9427
:104300001B224EC00E94EC204BC00E94CC2048C013
:104310000E94611945C00E94AD2224C00E94AF22B4
:1043200099838A833DC06B8170E089819A81AE0157
:104330004C5F5F4F9827892798270E94B22230C090
:104340006B8170E089819A81AE014C5F5F4F982745
:10435000892798270E94D72223C00E94FA2220C0D2
:104360000E94DA2189831CC06B8170E089819A8167
:10437000AE014C5F5F4F9827892798270E945A22E9
:104380000FC06B8170E089819A81AE014C5F5F4FF5
:104390009827892798270E947E2202C08FEF888362
:1043A000602FCE01DF91CF911F910F91FF90EF9081
:1043B0000C94432A84E0089550E0440F551F2EE0EA
:1043C000629F400D511D11249A0160E7869F200DC8
:1043D000311D1124C901879608950F931F93CF9320
:1043E000DF930E94DC218C010E942E35C82FD0E083
:1043F000DC2FCC27C80101960E942E359E01282B68
:10440000C901DF91CF911F910F9108950F931F93D1
:10441000CF93DF93122F032F0E94DC21EC01602F3A
:104420000E944235612FCE010196DF91CF911F91FD
:104430000F910C944235AF92BF92CF92DF92EF92E0
:10444000FF920F931F93CF93DF93A12CE12CF12CBC
:10445000B12C00E010E0C0E0D0E06701C00ED11E3A
:10446000FE01EE0FFF1FEC0DFD1DE05AFE4F2591E2
:1044700034914C2F6B2D8A2D0E9406222196C73035
:10448000D10571F7025F1F4FB39488E0B812E3CFF4
:1044900080E7E80EF11CA39484E0A812D9CFDF9145
:1044A000CF911F910F91FF90EF90DF90CF90BF9031
:1044B000AF900895EF92FF920F931F93CF93DF93E6
:1044C000EA017A01E60EF71E8C01C8018796CE1527
:1044D000DF0569F0003C21E0120720F40E942E3530
:1044E000888301C0188221960F5F1F4FEECFDF91A6
:1044F000CF911F910F91FF90EF900895EF92FF924F
:104500000F931F93CF93DF93EA017A01E60EF71E14
:104510008C01C8018796CE15DF0559F0003C21E0DB
:10452000120718F468810E94423521960F5F1F4FD1
:10453000F0CFDF91CF911F910F91FF90EF900895F1
:10454000462F843038F4783028F4673018F4672F19
:104550000C94ED2180E090E0089580E1089589E1D8
:1045600092E00895EF92FF920F931F93CF93DF9302
:10457000EA017A01E60EF71E8C01C80189519E4FAF
:10458000CE15DF0569F0093122E0120720F40E9400
:104590002E35888301C0188221960F5F1F4FEDCF03
:1045A000DF91CF911F910F91FF90EF900895EF92BF
:1045B000FF920F931F93CF93DF93EA017A01E60EE8
:1045C000F71E8C01C80189519E4FCE15DF0559F0A9
:1045D000093122E0120718F468810E9442352196C1
:1045E0000F5F1F4FEFCFDF91CF911F910F91FF9082
:1045F000EF900895CF93DF93C7EED1E060E0CE0156
:104600000E9442352196C11584E0D807B9F7DF91A1
:10461000CF910895DF92EF92FF920F931F93CF9364
:10462000DF9300D000D0CDB7DEB7F82E8FE08F1526
:10463000E8F18FEF93E00E942E35811137C007EE2D
:1046400011E0FF2069F0011584E0180779F1C80135
:104650000E942E35811101C0FA940F5F1F4FF1CFD8
:1046600019821A821B821C82DD24D39478018FEF79
:10467000E81AF80AC8010E942E3589831A82882315
:10468000A9F09FEF980F933058F48A83D9820E5F78
:104690001F4FC7010E942E358B83882339F0780184
:1046A000CE0101960E94FB048701E0CF0F900F908E
:1046B0000F900F90DF91CF911F910F91FF90EF908E
:1046C000DF9008950895FC01680F791F8FEF91E343
:1046D000E617F70771F02191822728E030E087FF85
:1046E00003C0880F892701C0880F21503109B9F70D
:1046F000EFCF08950F931F93CF93DF93C42FD22F43
:10470000FC0182818823C9F040939C020E944429C5
:1047100090939B0280939A0280E28C0F883008F07D
:1047200057C0C77081E001C0880FCA95EAF7DF91D2
:10473000CF911F910F910C94910680919C02481388
:1047400030C080919A0290919B020E945C29883C23
:10475000910538F510E21D0FCD17B9F080E28C0FEE
:10476000883040F4C77081E001C0880FCA95EAF72D
:104770000E949806183028F581E09D2F977001C09F
:10478000880F9A95EAF70E949106802F0E9488066A
:104790001830F0F4D77081E001C0880FDA95EAF79D
:1047A0000AC080E28C0F883098F4C77081E001C0A5
:1047B000880FCA95EAF7DF91CF911F910F910C9462
:1047C0009806802FDF91CF911F910F910C9488064E
:1047D000DF91CF911F910F9108950F939C01CB0111
:1047E000233F4CE5340731F188F4283DFCE53F07D1
:1047F000D9F0293D4CE5340779F1273D3C45A9F531
:1048000006E221EE41EE67ED7CE52BC0253FFCE59D
:104810003F07E1F0A8F0263F3C4539F507E225EED9
:1048200046EE66EF7CE51DC007E225EE45EE68ED3D
:104830007CE517C006E221EE40EE63EF7CE511C097
:1048400007E225EE44EE64EF7CE50BC006E221EEC4
:1048500042EE65EF7CE505C008E221E045EE69ED3A
:104860007CE50E947A2380E008C0FC0182818823D5
:1048700019F010929C0201C081E00F910895CF932E
:10488000DF93EC01FB018281882309F426C1C33048
:10489000FDE5DF0760F4CA3F9CE5D90768F49E0197
:1048A00022503C452431310508F018C105C0C136FD
:1048B000EDE5DE0709F012C10E94530E9093B40299
:1048C0008093B302C031FCE5DF0709F4CAC008F0E9
:1048D00041C0C8309CE5D90709F4A4C0F0F4C43045
:1048E000FCE5DF0709F48CC068F4C2309CE5D90709
:1048F00009F482C0C330DC4509F0E5C08091B30201
:104900008260DFC0C630FCE5DF0709F483C008F031
:1049100085C08091B3028860D4C0CC309CE5D907B3
:1049200009F490C068F4CA30FCE5DF0709F47EC0E2
:1049300008F084C00E94E4088091B3028068C1C07E
:10494000CE309CE5D90709F481C008F086C080917B
:10495000B30294C0CC3FFCE5DF0709F47BC038F517
:10496000C4319CE5D90709F49AC058F4C231FCE57A
:10497000DF0709F47AC008F07EC08091B3028F7B14
:10498000A0C0CA3F9CE5D907F1F108F03FC0C5318E
:10499000DC4509F098C08091B30282FB222720F900
:1049A00091E0922790FB82F990FB83F98AC0C115B0
:1049B0008DE5D80709F467C050F48091B402CE3F6A
:1049C000ECE5DE07C1F108F05BC08D7F65C0C23049
:1049D0008DE5D80709F471C008F46DC0C136DD4516
:1049E00009F071C08091B30284FB222720F991E085
:1049F000922790FB84F965C08091B302816061C009
:104A00008091B30216C08091B40216C08091B402A6
:104A1000826042C08091B302806153C08091B30232
:104A200080624FC08091B30280644BC08091B3021A
:104A30008860846046C0826081602EC08091B3022D
:104A40008E7F3FC08091B3028D7F3BC08091B302C7
:104A5000877F37C08091B40214C08091B3028F7EEB
:104A600030C08091B3028F7D2CC00E94E4088091F9
:104A7000B3028F7726C08091B302877F8B7F21C0DE
:104A80008D7F8E7F09C08091B402982F9095917090
:104A90008E7F892B90FB81F98093B40214C00E9411
:104AA000E4088091B30287FB222720F991E0922746
:104AB00090FB87F906C081E001C080E00E94E90E0A
:104AC00002C08093B3028091B3029091B4020E941D
:104AD000640E0E94E40880E001C081E0DF91CF9184
:104AE0000895CF93DF9386319C4541F5EB010E94F9
:104AF000880D982F8A81209100013091010188232F
:104B000079F09A7A81E009F480E080939D02911116
:104B100002C069E201C065E3C9010E9463280AC0BE
:104B200080919D02811102C069E201C065E3C90163
:104B30000E9465280E94CD0D80E001C081E0DF91D8
:104B4000CF9108958EE14A9B02C08150E1F74A9BC4
:104B5000FECF08955A9880E28A95F1F75A9A0895FF
:104B6000FC012AE02A95F1F728E090E080E031E0AE
:104B700040E14A95F1F7880F4A9B02C08160932774
:104B800000C0000040E14A95F1F7215089F720E18B
:104B90002A95F1F729B100C0000030E13A95F1F70C
:104BA00022FB222720F992272081920F90830895DB
:104BB000EF92FF920F931F93CF93DF931F92CDB786
:104BC000DEB719828C017C01E60EF11C0E151F0563
:104BD00051F00E94A225CE0101960E94B025F80155
:104BE00081938F01F3CF81E09981911180E00F9043
:104BF000DF91CF911F910F91FF90EF900895529AFE
:104C00005A9A089552985A9AEA9AE9E6F0E0808111
:104C10008F7C80830895615091E001C0990F6A955F
:104C2000EAF720E031E0992361F0492F482319F099
:104C30005A9A232701C05A9840E24A95F1F796956F
:104C4000F2CF222311F05A9A01C05A9880E28A9535
:104C5000F1F75A980895FF920F931F93CF93DF9324
:104C6000EC018C01060F111DC017D10741F0F9901E
:104C70000E94AA2568E08F2D0E940B26F5CFDF91B8
:104C8000CF911F910F91FF9008951F920F920FB631
:104C90000F921124EF92FF920F931F932F933F9344
:104CA0004F935F936F937F938F939F93AF93BF9334
:104CB000EF93FF93CF93DF931F92CDB7DEB71982A7
:104CC0000E94A225CE0101960E94B025A82FA6958C
:104CD000A695A6959A2F969595702A2F2570920FD6
:104CE000292F237096959695920F877089137CC013
:104CF0008981811179C0A43008F076C080E18A955D
:104D0000F1F75A9A529AB2E0BA95F1F700C05A9860
:104D1000EA2EF12CEAE0AE9FD0011124AD5FBE4F28
:104D20001896ED91FC9119973097B1F06091B80108
:104D30007091B90116962D913C911797260F371F48
:104D400013968D919C911497680F791F15964C912D
:104D5000159712968C9109958AE08E9DF0018F9D92
:104D6000F00D1124ED5FFE4F6581662351F08091B7
:104D7000B8019091B90126813781820F931F0E945B
:104D80002B260E94AA25F0E1FA95F1F75A9852983D
:104D90005A9A80E18A95F1F78AE08E9D80018F9D75
:104DA000100D11240D5F1E4FD80112966C911297B1
:104DB000662399F08091B8019091B90113962D91D5
:104DC0003C911497820F931F0E94D825D801ED9132
:104DD000FC91811105C082E004C0D801ED91FC91E5
:104DE00088E080830E94A2250F90DF91CF91FF91F0
:104DF000EF91BF91AF919F918F917F916F915F9153
:104E00004F913F912F911F910F91FF90EF900F9035
:104E10000FBE0F901F9018950F931F93CF93DF93A2
:104E2000843091050CF0A9C02AE0289FF001299F49
:104E3000F00D1124ED5FFE4F20813181232B09F409
:104E40009CC0EC01F894529A5A9885E08A95F1F743
:104E500000008C2F869585709C2F9570890F982F58
:104E60009370869586958E0123E0000F111F2A9579
:104E7000E1F7890F082B0E94AA25A4E0AA95F1F773
:104E800000C068E0802F0E940B26B0E1BA95F1F7D0
:104E900052985A9A4A9902C000C0FCCF87E090E02D
:104EA0004A9B17C0019799F4529A5A9A8AE08C9FAC
:104EB000F0018D9FF00D1124ED5FFE4F0190F08108
:104EC000E02D81E08083789481E090E058C000C0BC
:104ED000E7CF8AE08C9F80018D9F100D11240D5F1C
:104EE0001E4FF80165816623B9F08091B801909159
:104EF000B90126813781820F931F0E94D825811125
:104F00000BC0529A5A9AD801ED91FC9182E08083AD
:104F1000789482E090E033C00E94A225B0E2BA9576
:104F2000F1F75A98529AE0E1EA95F1F78AE08C9FFE
:104F3000F0018D9FF00D1124ED5FFE4F628166231D
:104F400051F08091B8019091B90123813481820F91
:104F5000931F0E942B260E94AA258AE08C9FF001B5
:104F60008D9FF00D1124ED5FFE4F0190F081E02D3B
:104F70001082789480E090E002C084E090E0DF91BD
:104F8000CF911F910F9108959093A4028093A30253
:104F900008950E94BB13811103C080919E02089561
:104FA000E091A302F091A402309721F00190F081EA
:104FB000E02D099480E00895E091A302F091A4020D
:104FC000309721F00280F381E02D09940895E0915B
:104FD000A302F091A402309739F022E0DC012C9377
:104FE0000480F581E02D099408952091A10230916B
:104FF000A2022817390771F09093A2028093A102B0
:10500000E091A302F091A402309721F00680F7818D
:10501000E02D0994089520919F023091A002281755
:10502000390771F09093A00280939F02E091A30250
:10503000F091A402309721F00084F185E02D0994CD
:105040000895FC01329697E080E0915029F021917B
:105050002223D9F38F5FF9CF0895662349F0FC012D
:10506000329608962191621729F0E817F907D1F7CF
:1050700080E0089581E008959C01FC0132969FEF45
:1050800080E04191461789F09F3F19F4411101C01A
:10509000982F8F5F8630A9F79F3F39F0F901E90F0C
:1050A000F11D97FDFA956283089508959C012A5F8A
:1050B0003F4FFC014281461301C0128201968217C4
:1050C0009307B9F708950C943C280C94562802963F
:1050D00026E0FC0111922A95E9F708951092FD024D
:1050E0001092FE021092FF02109200030895CF92D8
:1050F000DF92EF92FF926B017C010E94BB13811142
:105100000EC00E945029C61AD70AE80AF90AC092AE
:10511000FD02D092FE02E092FF02F0920003FF90A7
:10512000EF90DF90CF9008950F931F930E94BB13D1
:10513000882321F01F910F910C9450290E9450292F
:105140000091FD021091FE022091FF0230910003B8
:10515000600F711F821F931F1F910F9108950E946E
:10516000BB1381110C9444290E949428CB0108950B
:10517000089508950C94B9280C94B928CF930E94EF
:10518000BC280E9430130E94BA28C0E08C2F0E94D5
:10519000F511811104C0CF5FC830C1F701C081E0B3
:1051A000CF9108950C94B9280C94D22880910903CA
:1051B000843059F10E94D42880E00E9406050E94A4
:1051C000B61D1092A50220E488E190E00FB6F89495
:1051D000A895809360000FBE2093600083B7817F05
:1051E000846083BF83B7816083BF7894889583B7D9
:1051F0008E7F83BF0FB6F894A89580916000886178
:1052000080936000109260000FBE08950C94B9283E
:105210000E94E4080E94C9270E9406050E94821E7F
:105220000C9406291F920F920FB60F9211248F93A0
:105230009F93AF93BF938091A502811113C080917A
:10524000010390910203A0910303B09104034196DE
:10525000A11DB11D8093010390930203A09303034A
:10526000B0930403BF91AF919F918F910F900FBEA8
:105270000F901F90189582E084BD93E095BD9AEF42
:1052800097BD80936E0008952FB7F8948091010325
:1052900090910203A0910303B09104032FBF0895DE
:1052A0002FB7F8946091010370910203809103037A
:1052B000909104032FBF08959C014FB7F8948091FB
:1052C000010390910203A0910303B09104034FBF27
:1052D000821B930B0895CF92DF92EF92FF922FB72C
:1052E000F894C0900103D0900203E0900303F09083
:1052F00004032FBFA7019601261B370B480B590B40
:10530000CA01B901FF90EF90DF90CF900895789493
:105310001F920F920FB60F9211248F939F93AF930A
:10532000BF938091010390910203A0910303B09178
:1053300004030196A11DB11D809301039093020304
:10534000A0930303B0930403BF91AF919F918F91FA
:105350000F900FBE0F901F90189587E797E79093D7
:105360000108809300089AE088E10FB6F894A895A8
:10537000809360000FBE90936000FFCF9093EF0189
:105380008093EE0108958091B102089590910903F0
:10539000943029F58093A6027093A8026093A70227
:1053A0009093E9008FEF9091E800815095FD06C041
:1053B00095ED9A95F1F700008111F5CF8091E80005
:1053C00085FF0DC040E050E063E070E086EA92E0C7
:1053D0000E943F2C8091E8008E778093E80008952A
:1053E000BC0184E00C94C629BC0183E00C94C6295E
:1053F00024E02093E9002FEF3091E800215035FDA3
:1054000006C035ED3A95F1F700002111F5CF209156
:10541000E80025FF0BC040E050E066E070E00E942D
:105420003F2C8091E8008E778093E8000895CF9319
:10543000DF9321E02093E9002FEF3091E800215025
:1054400035FD06C035ED3A95F1F700002111F5CF95
:105450002091E80025FF14C0EC0140E050E068E036
:1054600070E00E943F2C8091E8008E778093E800E6
:1054700088E0FE01A9EAB2E001900D928A95E1F779
:10548000DF91CF910895CF93603219F520910903F0
:105490002430F9F4C091E900CF703091EC00232F53
:1054A000217030FD20E8C22B22E02093E9002091FA
:1054B000E80020FF0BC040E050E060E270E00E9496
:1054C0003F2C8091E8008E778093E800CF70C093E6
:1054D000E900CF91089580910803811109C00E94CD
:1054E0001B2E0E94782E8091E20084608093E2005F
:1054F000089510920803089508950895089542E0CC
:1055000061EC81E00E94942D42E261EC84E00E9413
:10551000942D42E261EC82E00E94942D42E260EC24
:1055200083E00C94942D80910B03833009F462C0C6
:1055300030F4813071F0823009F49BC008958A30D4
:1055400009F487C08B3009F46DC0893009F0A9C017
:1055500020C080910A03813A09F0A3C08091E8003D
:10556000877F8093E80080910E0390910F03892B31
:1055700021F468E089EA92E003C060E080E090E016
:1055800070E00E94D52C8091E8008B778093E80032
:10559000089580910A03813209F083C080910E033F
:1055A00090910F03009719F0029709F07AC080914B
:1055B000E800877F8093E8008091E80082FD05C0C5
:1055C000809109038111F8CF6CC02091F300809184
:1055D000F20090E0922B029729F48091F1008B7FEA
:1055E000813021F48091F1008093B1028091E80034
:1055F0008B7753C080910A03813A09F052C08091A1
:105600000E0390910F03892B09F04BC08091E800A5
:10561000877F8093E8008091E80080FFFCCF809135
:10562000460136C080910A038132D9F580910E037C
:1056300090910F03892BA9F58091E800877F8093D3
:10564000E8000E94C92D80910C03809346010C94C0
:10565000E40880910A03813221F58091E800877F78
:105660008093E8000E94C92D80910D038093B202BF
:10567000089580910A03813AA1F48091E800877F20
:105680008093E8008091E80080FFFCCF8091B20217
:105690008093F1008091E8008E778093E8000C946D
:1056A000C92D089584B7877F84BF0FB6F894A89555
:1056B00080916000886180936000109260000FBE4E
:1056C00090E080E80FB6F8948093610090936100B9
:1056D0000FBE0C94170F0E941B2E0E94782EE2EE34
:1056E000F0E080818460808378940E940D310E9474
:1056F000250F8CE391E00C94C427CF93DF93CDB7B3
:10570000DEB7A0970FB6F894DEBF0FBECDBF809175
:1057100009038530A9F480910903853079F40E944A
:10572000D628809107038823B1F30E94BE288823DE
:1057300091F30E94292C0E94E408EDCF0E940829D1
:105740000E94330F80910903843011F583E0809328
:10575000E9008091E80082FF1BC08091E80085FF8E
:105760000AC040E050E060E270E0CE0101960E9485
:105770008A2C91E001C090E08091E8008B778093C3
:10578000E800992329F060E2CE0101960E942221CF
:10579000A0960FB6F894DEBF0FBECDBFDF91CF91BC
:1057A00008950C94D32B292F332723303105C9F0CA
:1057B00060F42130310581F02230310509F041C01B
:1057C0008BE590E029E934E040C021323105E1F079
:1057D0002232310531F135C082E190E024EF34E02E
:1057E00034C099278130910549F028F0029749F596
:1057F000E7E7F4E005C0E5E9F4E002C0E9E8F4E039
:10580000849190E09F0121C063307105D0F4660F50
:10581000771FFB01E851FE4F2081318189E090E044
:1058200014C06330710568F4FB01EE0FFF1FEE51E9
:10583000FE4F20813181FB01E152FE4F808190E0DB
:1058400004C080E090E020E030E0FA013183208362
:10585000089580E189BD82E189BD09B400FEFDCFD4
:105860008091D8008F7D8093D8008091E000826085
:105870008093E0008091E00081FDFCCF0895CF92FD
:10588000DF92EF92FF920F931F93CF93DF93EC0180
:105890008B017A010E94E82D811133C0E114F104DB
:1058A00039F0F70180819181081B190BC80FD91FAE
:1058B000C12CD12C0115110519F18091E80085FD4D
:1058C00016C08091E8008E778093E800E114F1041F
:1058D00049F0F70180819181C80ED91ED182C08222
:1058E00085E00FC00E94E82D882321F30AC089912A
:1058F0008093F10001501109FFEFCF1ADF0ADACFD0
:1059000080E0DF91CF911F910F91FF90EF90DF909A
:10591000CF900895CF92DF92EF92FF920F931F9353
:10592000CF93DF93EC018B017A010E94E82D811166
:1059300033C0E114F10439F0F70180819181081B33
:10594000190BC80FD91FC12CD12C0115110519F144
:105950008091E80085FD16C08091E8008B778093E8
:10596000E800E114F10449F0F70180819181C80E4B
:10597000D91ED182C08285E00FC00E94E82D882305
:1059800021F30AC08091F100899301501109FFEFC2
:10599000CF1ADF0ADACF80E0DF91CF911F910F910C
:1059A000FF90EF90DF90CF900895209110033091F9
:1059B00011032617370748F06115710539F4209156
:1059C000E8002E772093E80001C0B901FC0120E037
:1059D0006115710579F1809109038823F1F1853012
:1059E000F1F18091E80083FD3CC08091E80082FDE8
:1059F0002EC08091E80080FFEBCF2091F3008091D2
:105A0000F20090E0922B6115710551F088309105FC
:105A100038F421912093F100615071090196F3CF80
:105A200021E0089709F020E08091E8008E778093CC
:105A3000E800CECF2111CFCF0AC08091090388237F
:105A400061F0853061F08091E80083FD0AC08091AB
:105A5000E80082FFF2CF80E0089582E0089583E0BD
:105A6000089581E0089520911003309111032617C5
:105A7000370748F06115710539F42091E8002E7759
:105A80002093E80001C0B901FC0120E06115710517
:105A900091F180910903882309F440C0853009F40D
:105AA0003FC08091E80083FD3DC08091E80082FD09
:105AB0002FC08091E80080FFE9CF2091F300809112
:105AC000F20090E0922B6115710559F08830910534
:105AD00040F424912093F1003196615071090196B0
