:100000000C9473020C94BA020C94BA020C944B2018
:100010000C94BA020C94BA020C94BA020C94BA0270
:100020000C94BA020C94BA020C948F280C94612997
:100030000C940B230C94BA020C94BA020C94BA02DE
:100040000C94BA020C94BA020C94BA020C94BA0240
:100050000C94BA020C9480230C94BA020C94BA0249
:100060000C94BA020C94BA020C94BA020C94BA0220
:100070000C94BA020C94BA020C94BA020C94BA0210
:100080000C94BA020C94BA020C94BA020C94BA0200
:100090000C94BA020C94BA020C94BA020C94BA02F0
:1000A0000C94BA020C94BA020C94BA026D076D0754
:1000B0009F079F07EC070A08ED08ED0815087D0863
:1000C0008E088E088D098D099F099F0996099F0941
:1000D0009F099F098D098D099B099F099F099B090C
:1000E000471B4A1B6A1B7B1B831B8E1BD41BD41B09
:1000F000D41BD41BD41B911B941B991BA61BB31B95
:10010000B61BBA1BC71BCE29F529ED2AF529ED2A06
:10011000412A642AED2ABB2ACA2A000017001500CA
:1001200008001A001400290000000A000900070056
:10013000160004002B0000000500190006001B003B
:100140001D00E1002C412C002C004900E300E200DE
:10015000E0001F001E000000000000000000000082
:1001600000001C0018000C00120013002A00000000
:100170000B000D000E000F002D00280000001100E4
:10018000100036003700520038002C422C002C00A2
:10019000E400500051004F0020002100000000004A
:1001A00000000000000000002200210020001F00CD
:1001B0001E002B0000002202210220021F021E024C
:1001C000E000000067005400550056005700E100B1
:1001D0002C412C002C004900E300E200E000230049
:1001E00022000000000000000000000000002300CA
:1001F00024002500260027002A00000023022402F4
:1002000025022602270228000000350089002F124F
:1002100030122D12E5002C422C002C00E40050007E
:1002200051004F00240025000000000000000000E5
:10023000000000003E003D003C003B003A002B0067
:10024000000034003312330031001F02E0000000D0
:10025000C75CC65CC55CC35CC25CE1002C412C0081
:100260002C004900E300E200E0001F001E00000037
:10027000000000000000000000003F0040004100BE
:10028000420043004C0000005000510052004F005B
:100290002E0028000000C85CC95C2F00300031002F
:1002A000E5002C422C002C00E400500051004F00CF
:1002B00020002100000000000000000000000000FD
:1002C0000000000000002A2B2800000000000000B1
:1002D00000000000000000000029000000002C1EAB
:1002E0003420212224342627252E362D3738271E68
:1002F0001F202122232425263333362E37381F048E
:1003000005060708090A0B0C0D0E0F101112131425
:1003100015161718191A1B1C1D2F3130232D3504E3
:1003200005060708090A0B0C0D0E0F101112131405
:1003300015161718191A1B1C1D2F3130354C0000CB
:1003400000000000000000000000000000000000AD
:10035000000000000000000000000000000000009D
:1003600000007E0F00D4FFFFFFC7000000781203DB
:1003700063006F006F006C003600350030007200C3
:1003800000001403740065006C007A006F003200F6
:1003900030003000300000000403090409025B0053
:1003A000030100A0FA090400000103010100092172
:1003B000110100012240000705810308000A090419
:1003C00001000203000000092111010001222200A6
:1003D000070582032000010705030320000109042B
:1003E00002000103000000092111010001227B002D
:1003F0000705840320000A120100020000000843E0
:100400004D51060100010200010660FF0961A101D2
:100410000962150026FF0095207508810209631501
:100420000026FF00952075089102C005010902A170
:100430000185020901A100050919012908150025F6
:1004400001950875018102050109300931158125E1
:100450007F95027508810609381581257F950175FC
:10046000088106050C0A38021581257F950175085B
:100470008106C0C005010980A101850319012AB7C1
:1004800000150126B700950175108100C0050C0903
:1004900001A101850419012AA002150126A00295D7
:1004A0000175108100C005010906A101050719E0C9
:1004B00029E7150025019508750181029501750848
:1004C00081010507190029FF150026FF0095067513
:1004D0000881000508190129059505750191029506
:1004E0000175039101C011241FBECFEFDAE0DEBF1A
:1004F000CDBF04B603FE27C08091F7029091F802A9
:10050000A091F902B091FA028730904BA740B04B0E
:10051000D1F41092F7021092F8021092F9021092A0
:10052000FA0214BE84B7877F84BF0FB6F894A895EB
:1005300080916000886180936000109260000FBE1F
:10054000E0E0F8E3099511E0A0E0B1E0E4E8F7E5C8
:1005500002C005900D92A83FB107D9F722E0A8EF9D
:10056000B1E001C01D92A73FB207E1F70E9440171A
:100570000C94C02B0C94000020910F01809110016D
:10058000909111014091120150911301452B31F0CE
:100590008F3F31F481E02F3F19F403C081E001C0A7
:1005A00080E080FD02C0892F02C080E090E080FFE3
:1005B00014C0109211010E943D238160782F909306
:1005C00013018093120140910F015091100160912D
:1005D0001101809113010E94A60520910A018091CA
:1005E0000B0190910C0140910D0150910E01452B92
:1005F00031F08F3F31F481E02F3F19F403C081E0E7
:1006000001C080E080FD02C0892F02C080E090E040
:1006100080FF14C010920C010E943D238160782F4E
:1006200090930E0180930D0140910A0150910B01AE
:1006300060910C0180910E010E94A6052091050198
:1006400080910601909107014091080150910901A4
:10065000452B31F08F3F31F481E02F3F19F403C077
:1006600081E001C080E080FD02C0892F02C080E0EF
:1006700090E080FF14C0109207010E943D2381602A
:10068000782F9093090180930801409105015091C2
:10069000060160910701809109010E94A605209141
:1006A000000180910101909102014091030150915C
:1006B0000401452B31F08F3F31F481E02F3F19F4D5
:1006C00003C081E001C080E080FD02C0892F02C02C
:1006D00080E090E080FF14C0109202010E943D2350
:1006E0008160782F90930401809303014091000171
:1006F0005091010160910201809104010C94A605C2
:100700000895811129C081E0662399F080930C013E
:100710000E943D238160782F90930E0180930D01FC
:1007200040910A0150910B0160910C0180910E01E2
:100730003CC0809311010E943D238160782F9093EB
:1007400013018093120140910F01509110016091AB
:1007500011018091130129C0813049F5662399F078
:10076000809302010E943D238160782F90930401C1
:1007700080930301409100015091010160910201B9
:100780008091040112C0809307010E943D23816083
:10079000782F9093090180930801409105015091B1
:1007A000060160910701809109010E94A60581E080
:1007B000089581E0089581E008950C94DB03089585
:1007C0000C94DF031F93CF93DF9300D000D01F92D0
:1007D000CDB7DEB749835A836B833091FA018981A3
:1007E0009A81311114C0662359F0222349F00E94E6
:1007F000830A182F682F89819A810E942C0A03C0CE
:100800000E94570A182F69817A81812F04C00E94A3
:10081000830A69817A810F900F900F900F900F904B
:10082000DF91CF911F910C94A61CFC01262F4081D3
:1008300051816281738184810C94E20381E0089587
:10084000CF93DF93EC0160E00E941504BE01DF91BD
:10085000CF910C94E003E1E0F0E0DF0102C0AA0FC9
:10086000BB1F6A95E2F7BD01DF0102C0AA0FBB1FE3
:100870004A95E2F7AD01462B01C0EE0F2A95EAF743
:10088000942F9823491302C08E2B0895E0958E2350
:100890000895242F462F682F809116020E942B0462
:1008A0000C94E9090E9488120E949C050C94B612CF
:1008B0000C94B21208950E947B090E945A042FEFF3
:1008C00084E39CE0215080409040E1F700C00000AC
:1008D0000C94A6230F931F93CF93DF938C0161E0B9
:1008E0000E941504EC01B8010E94F61A882309F44D
:1008F00044C0B801CE010E94DD038823F1F1B801A4
:10090000CE010E94F31D8823C1F1B801CE010E94DF
:10091000451E882391F1B801CE010E94771F8823DC
:1009200061F1F8018281882309F1CA358DE5D80784
:10093000C1F050F4C115FCE5DF0781F0CE3DDC4588
:10094000A9F40E947E0F19C0CB35EDE5DE0761F0FA
:10095000CC35DD4559F40E94100E08C00E945B049E
:100960000CC00E94190E02C00E941C0EC801DF912B
:10097000CF911F910F910C94D90380E0DF91CF911B
:100980001F910F910895DF92EF92FF920F931F93A3
:10099000CF93DF93E82FF0E0E254FD4FD490282F5F
:1009A00026952695269530E0F901E25AFC4F0491F0
:1009B000877010E0082E02C0159507950A94E2F79B
:1009C00001701127F901E25BFC4FE490F12C082E35
:1009D00002C0F594E7940A94E2F791E0E922FF243B
:1009E000F901E25CFC4FC491D0E002C0D595C795F7
:1009F0008A95E2F7C170DD270115110519F081EE26
:100A00000E94F605E114F10419F086EE0E94F60545
:100A10008D2D0E941F07EF2819F086EE0E94A00678
:100A2000012B19F081EE0E94A006CD2B51F08CE233
:100A3000DF91CF911F910F91FF90EF90DF900C9479
:100A40001F07DF91CF911F910F91FF90EF90DF90E3
:100A50000895EF92FF920F931F93CF93DF93EC01D2
:100A6000162F0AE08881882309F455C0813009F0E7
:100A700043C08981813041F47E0182E0E80EF11C9F
:100A80008A810E941F0709C0823049F47E01E2E09A
:100A9000EE0EF11C8A810E94F605E7012FC083301B
:100AA00041F47E01F2E0EF0EF11C8A810E94A00663
:100AB000F4CF843011F0219621C02A81229680E063
:100AC00090E030E0205331092A30310558F4089F76
:100AD000A001099F500D1124C901840F951F219673
:100AE0002881EFCF009751F0EFE9FFE03197F1F760
:100AF00000C000000197F6CF0E94C3042196812F09
:100B0000882309F4AFCFEFE9FFE03197F1F700C098
:100B100000008150F5CFDF91CF911F910F91FF9091
:100B2000EF90089560E00C94290508950C949505C4
:100B300081E008950C9498050895CF93C82F0E94E2
:100B400096058C2F0E949A05CF910895CF93DF933D
:100B5000CDB7DEB72B970FB6F894DEBF0FBECDBF73
:100B60004F83588769877A878B8761110E943F0E70
:100B70009E012F5F3F4F86E0F90111928A95E9F7B8
:100B800085E0FE013796D90101900D928A95E1F733
:100B900089819A814C815D81452B31F09F3F31F4F1
:100BA00091E08F3F19F403C091E001C090E090FF05
:100BB00009C049815A816B817C818D819E810E940F
:100BC0003F0D05C0C9010E941E048111F2CF2B9672
:100BD0000FB6F894DEBF0FBECDBFDF91CF91089561
:100BE000FC01808191810E94B00A0895CF938823EF
:100BF00009F4A4C0C82F8238C1F40E94CF2181FD1E
:100C00009DC069E380911401909115010E946922B1
:100C10000E94640E2FEF81EE94E0215080409040BE
:100C2000E1F700C0000069E319C0833801F50E94B4
:100C3000CF2180FD83C063E580911401909115015F
:100C40000E9469220E94640E2FEF81EE94E02150F1
:100C500080409040E1F700C0000063E580911401FE
:100C6000909115010E946B22CF910C94640E8438F0
:100C7000C1F40E94CF2182FD61C067E4809114011C
:100C8000909115010E9469220E94640E2FEF81EE5F
:100C900094E0215080409040E1F700C0000067E4FC
:100CA000DDCF8CEF8C0F813AD0F46C2F8091140142
:100CB000909115010E943322882349F06C2F809176
:100CC0001401909115010E946B220E94640E6C2FFA
:100CD00080911401909115010E946922C5CF80E294
:100CE0008C0F883048F4C77081E001C0880FCA9526
:100CF000EAF70E94220EB8CFEBE5EC0FE33040F4A8
:100D0000F0E0EE55FE4F808190E0CF910C94FB21F6
:100D1000E8E5EC0FE73150F4F0E0EE0FFF1FEC5880
:100D2000FE4F80819181CF910C941122C03F30F011
:100D30008C2F0E94CD17CF910C949F18CF910895BE
:100D4000882309F464C0823879F40E94CF2181FF9E
:100D50005EC069E380911401909115010E9469229F
:100D60000E94640E69E310C08338B1F40E94CF2161
:100D700080FF4DC063E580911401909115010E94A0
:100D800069220E94640E63E580911401909115011F
:100D90000E946B220C94640E843879F40E94CF2157
:100DA00082FF35C067E480911401909115010E9483
:100DB00069220E94640E67E4E7CF9CEF980F913A96
:100DC00010F4682FE1CF90E2980F983050F48770BC
:100DD00091E001C0990F8A95EAF7892F0E94280EA9
:100DE000D9CF9BE5980F933020F480E090E00C94ED
:100DF000FB2198E5980F973120F480E090E00C9467
:100E00001122803F20F00E9428180C949F1808950A
:100E10001F93CF93DF93182FEB010E94F6052097C5
:100E200041F08FE99FE00197F1F700C000002197A2
:100E3000F6CF812FDF91CF911F910C94A0068933BB
:100E400019F060E070E002C060E570E00C94080703
:100E5000882321F00E94220E0C94640E08958823AA
:100E600021F00E94280E0C94640E0895CF92DF9218
:100E7000EF92FF920F931F93CF93DF937C01062F86
:100E8000C72FFC01D281158112951F700E94F70DAA
:100E9000882399F0DD2389F08C2F807F803421F026
:100EA00080E2800F883048F082E00E94B40E0E94F9
:100EB000F70D91E0D82ED92601C0D12CCC2EC294AA
:100EC0008FE0C8228C2D90E08C30910508F085C110
:100ED000FC01EA5AFF4F0C94472B8C2F807FCF7078
:100EE000882311F0C295C07FDD2399F0CC2309F44B
:100EF00060C180E2800F883010F0011104C08C2F97
:100F00000E94220E03C08C2F0E94320E0E94640E9B
:100F100050C1802F0E94A006CC2309F45EC180E25C
:100F2000800F883010F0011104C08C2F0E94280E11
:100F300003C08C2F0E94380E0E94640E4EC18C2F6D
:100F4000807FCF70803211F0C295C07F002319F0EE
:100F50000130C9F022C0DD2371F0112341F01130BE
:100F600031F40E94450E8C2B0E944D0E36C10E941A
:100F7000450E8C2B1DC0112319F0113009F42DC121
:100F80000E945A0E25C0DD2321F0163008F025C13D
:100F90000EC0153008F021C11BC0DD2361F0112304
:100FA00031F0F701858180FF04C18F7085838C2F1C
:100FB0000E94280712C1112359F0093309F00AC110
:100FC000FFEF27EE83E0F15020408040E1F700C1C1
:100FD0008C2F0E942F0701C18C2F869586958370D8
:100FE00019F0813061F0F9C0DD2321F0802F9C2FB2
:100FF000937002C080E090E00E94FB21F6C0DD23E8
:1010000021F0802F9C2F937002C080E090E00E941E
:101010001122EBC0802FDD2319F00E94CD1702C0F2
:101020000E9428180E949F18E0C08C2F837079F5C9
:10103000D111D7C0402F429546954770440F440FB9
:10104000202F2F70042E01C0220F0A94EAF704FF0C
:1010500008C08FE090E001C0880F4A95EAF78095BC
:1010600001C080E0C695C695C370822BC23049F09E
:1010700058F4C13019F00E94DD09B3C00E94D809AC
:10108000B0C00E94E209ADC00E94D609AAC0DD230B
:1010900019F08C2F817001C08695882309F4A1C0B6
:1010A000402F429546954770440F440F202F2F70D4
:1010B000042E01C0220F0A94EAF704FF08C08FE053
:1010C00090E001C0880F4A95EAF7809501C080E062
:1010D000C695C695C370822BC23049F058F4C13012
:1010E00019F00E94210A7DC00E941C0A7AC00E9449
:1010F000260A77C00E94E90974C0CF70DD2339F059
:101100008C2F0E94FA09802F0E9428076AC0802F26
:101110000E942F078C2F0E94050A63C0023F01F135
:1011200028F4003F41F0013FA1F03FC0033FF9F038
:10113000043F39F13AC0DD2341F0153008F04DC0CD
:101140008C2F8F710E94110A48C0163008F045C0DC
:10115000F7CFDD2339F08C2F8F710E94FA093DC043
:10116000DD23C9F38C2F8F710E94050A36C0DD2361
:1011700029F08C2F8F710E94F2092FC00E94EF0975
:101180002CC0DD2349F0CF718C2F0E94FA0963E057
:101190008C2F0E94990E21C081E00E94B40E123063
:1011A000E0F082E00E94B40E18C0DD2331F011237C
:1011B00091F2802F0E94F60510C0112399F2093395
:1011C00049F49FEFE7EEF3E09150E040F040E1F7A3
:1011D00000C00000802F0E94A00688EF8C0D843094
:1011E00020F40E94CF210E949D05DD20C9F00E94BD
:1011F000F30D80FD15C0F70112820E94ED0D0E94D3
:10120000FA09C7010E9431090E94ED0DDF91CF91CB
:101210001F910F91FF90EF90DF90CF900C94050AF3
:10122000DF91CF911F910F91FF90EF90DF90CF90C2
:1012300008950F931F93CF93DF93EC016881798119
:101240008A810E94BB0A8C010E942B0A0E94CA0953
:10125000B801CE010E943607DF91CF911F910F9107
:101260000895CF93DF93EC01988189812B813C8194
:10127000232B31F08F3F31F481E09F3F19F403C0FD
:1012800081E001C080E080FD19C0CE010E946A04A7
:1012900081110CC00E94F70D882381F08A81882378
:1012A00069F082E0DF91CF910C94B40ECE010E94E0
:1012B0001909CE01DF91CF910C942004DF91CF91D9
:1012C000089580E090E00E94FB2180E090E00E9481
:1012D00011220E943F0E0E94420E0E94640E0E9444
:1012E000D0190C949F1880911401909115010E94BF
:1012F0006D220C9461090E942F0E0C947309E92F42
:10130000E295EF704E2F50E0FA013297EE30F10582
:10131000B0F4EE59FF4F0C94472B803F91F018F436
:10132000883E68F40EC0843F51F40BC0883E48F0FC
:10133000813F29F406C093FB882780F9089580E057
:10134000089581E00895FC01808191810E94B00A96
:101350000E947F090895CF93DF9300D000D01F92A1
:10136000CDB7DEB70F900F900F900F900F90DF91D9
:10137000CF910895CF93DF9300D000D000D0CDB7A8
:10138000DEB726960FB6F894DEBF0FBECDBFDF9155
:10139000CF910895089508950C94CB090C94CC092D
:1013A0000E94CE09809317020C9461090C94D00915
:1013B00090911702892B0C94D009909117028923E0
:1013C0000C94D0099091170289270C94D0090C94A1
:1013D000CB090E94E709809316020C94610980E012
:1013E0000C94E90991E001C0990F8A95EAF7892FD9
:1013F0000C94E90921E030E001C0220F8A95EAF758
:1014000080911602822B0C94E90921E030E001C0A2
:10141000220F8A95EAF720958091160282230C9478
:10142000E90921E030E001C0220F8A95EAF78091B6
:10143000160282270C94E90990911602892B0C94CC
:10144000E9099091160289230C94E90990911602FA
:1014500089270C94E909089527E0929F800D1124B3
:10146000E82FE695E695E695877051E001C0550FA7
:101470008A95EAF783E0E89FF0011124E550FE4FDA
:1014800020E030E070E04081CB01022E02C0969552
:1014900087950A94E2F781708195842785238427B4
:1014A00081932F5F3F4F2330310569F7089527E07F
:1014B000929F800D1124682F669566956695982FEA
:1014C000977083E0689FB001112440E050E080E015
:1014D000FB01E40FF51FE550FE4F208130E0092E9F
:1014E00002C0369527950A94E2F721703327042E1F
:1014F00001C0220F0A94EAF7822B4F5F5F4F4330FF
:10150000510531F70895CF92DF92FF920F931F9309
:10151000CF93DF936C010091160280911702082B84
:10152000C7E0D0E010E0C8010C2E02C09595879569
:101530000A94E2F780FD04C02197A8F7F12C07C0B8
:10154000FC2EB6018C2F0E9492110197A9F38F2DCA
:10155000DF91CF911F910F91FF90DF90CF90089571
:10156000CF93DF93EC010E94830ABE010E94921187
:10157000DF91CF9108951F93CF93DF93EB0190916B
:10158000FA01992321F0CB010E94B00A13C08823ED
:1015900049F0CB010E94830A182F682FCE010E94C8
:1015A0002C0A04C0CB010E94570A182FBE01812FBC
:1015B0000E949211DF91CF911F9108951F93CF93B5
:1015C000DF93C091180216E080911902C81799F0B4
:1015D000D0E01C9FF0011D9FF00D1124E65EFD4F31
:1015E0004081518162817381848195810E94BA0911
:1015F0002196C770E9CFDF91CF911F910895409157
:101600004A0250914B0260914C0270914D028091C0
:101610004E0290914F020C94BA090F931F93CF93EF
:10162000DF9380914F0282958F7009F05DC08091A9
:101630004C02882309F458C08091180210911902B5
:1016400060914A0270914B02C0914D02D0914E02BE
:1016500091E06F3F09F090E0292F06E0811709F42F
:1016600043C0209721F07F3F21F030E003C031E0FC
:1016700001C0322F90E030FD34C0089FF001099F77
:10168000F00D1124DF01A65EBD4F11963C9111971C
:10169000371327C03C91361324C012963C91129701
:1016A00031111FC013964D915C9114974C1B5D0B2B
:1016B000483C5105B0F480914F028F708061809357
:1016C0004F02E15EFD4F80818F70806180838AE4EC
:1016D00092E00E943109DF91CF911F910F910C94FC
:1016E000DE0A01968770BACFDF91CF911F910F91DB
:1016F00008959F92AF92BF92CF92DF92EF92FF92A6
:101700000F931F93CF93DF93CDB7DEB761970FB6DB
:10171000F894DEBF0FBECDBF8C0185E0F801DE017D
:101720001D9601900D928A95E1F7F801E280909163
:101730004A0260914B0220914D0230914E022115D8
:10174000310531F06F3F31F481E09F3F19F403C060
:1017500081E001C080E0F82FF1709F2E80FD3FC135
:10176000F80140815181A380B4808AE4C82E82E0D0
:10177000D82EF0904C02F501E21BF30BFF2009F488
:10178000D9C080914F02E83CF10508F095C0282FA0
:10179000207F09F052C0561313C0491311C0FE2C0C
:1017A000E1100EC08F70806180934F020E94FF0A8B
:1017B000C6010E94310980914F02F80185834CC116
:1017C000AB2831F05F3F31F481E04F3F19F403C0A3
:1017D00081E001C080E080FD03C081E08E2502C071
:1017E00080E090E0F82FF170FF2E80FF1CC0809108
:1017F00018022091190236E0821709F40BC190E01B
:10180000389FF001399FF00D1124E65EFD4F618194
:10181000561306C06081461303C06281E61203C0FE
:1018200001968770E9CFFE2CEE2009F415C1809156
:101830004F02816080934F0254C0561306C0491373
:1018400004C0E11002C0F80199C0C8010E94A309B8
:10185000882361F1EE2051F120914F02822F829571
:101860008F7090E0029774F080914A0290914B0241
:1018700098878F831986BB86AA862C87CE01079608
:101880000E94310986E0F801AAE4B2E001900D92CD
:101890008A95E1F70E940D0B0E94FF0A0AC05617B5
:1018A00011F1C8010E94A30981112CC0C8010E9436
:1018B0003109FF24F394D0C0282F207F81F77A2D9F
:1018C000B98AA88A6E2D89890E94AB098AE492E0C0
:1018D0000E94310986E0F60111928A95E9F70E948B
:1018E000FF0AF12CB9C04913DCCFE110DACFF801BF
:1018F0008583C8010E94310986E0F60111928A951C
:10190000E9F7AAC0EE2091F220914F02822F829532
:101910008F7090E002970CF4B5CF80914A029091BD
:101920004B029A8389831B82BD82AC822E83CE01B7
:101930000196A6CFE83CF10508F044C0FE2CEE204D
:1019400009F4B4CF561330C049132EC020914F0272
:1019500020FD21C0822F82958F70482F50E04115C5
:101960005105C9F0F80125834F30510541F08F5FD3
:10197000982F9295907F822F8F70892B8583C80135
:101980000E94310986E0F801AAE4B2E001900D92CC
:101990008A95E1F73CC086E0F801AAE4B2E0019044
:1019A0000D928A95E1F758C0C8010E94A3098111E0
:1019B00069CF80914F02816080934F02C8010E94DD
:1019C00031094AC07A2DB98AA88A6E2D89890E9468
:1019D000AB0986E0F60111928A95E9F718C0EE206E
:1019E00009F464CFC8010E94A309F82E882309F4E2
:1019F0005DCF86E0F801AAE4B2E001900D928A95ED
:101A0000E1F78AE492E00E94F0050E940D0B0E942B
:101A1000FF0A22C04D875E878D859E850E94B00A91
:101A2000292F22952F70223028F49F7039F08111D0
:101A300005C00BC0243028F49F7049F4805E8830C4
:101A400020F0C8010E9431099F2CF92C05C0F80133
:101A50009581907F99F7F9CF8F2D61960FB6F89405
:101A6000DEBF0FBECDBFDF91CF911F910F91FF90D1
:101A7000EF90DF90CF90BF90AF909F9008951F930D
:101A8000CF93DF93CDB7DEB72C970FB6F894DEBFB8
:101A90000FBECDBF4F83588769877A878B879C8716
:101AA000CE0107960E94790B8823D1F09F8188850B
:101AB0002A853B85232B31F08F3F31F481E09F3F16
:101AC00019F403C081E001C080E080FD47C04F8170
:101AD000588569857A858B859C850E94BA093EC0A8
:101AE00086E0FE013796DE01119601900D928A95EF
:101AF000E1F7FF81E8856A857B856115710531F025
:101B0000EF3F31F481E0FF3F19F403C081E001C0F1
:101B100080E080FD23C02091190230E0C9010196C8
:101B2000877099274091180250E084179507F1F1CA
:101B3000F983EA837D836C8396E0929FD001939F23
:101B4000B00D1124A65EBD4FFE01319601900D929D
:101B50009A95E1F7809319020E94DE0A16E08091BF
:101B6000180290911902891771F1189FC001112470
:101B7000865E9D4F0E94790B882329F1E09118021F
:101B80001E9FF0011124E65EFD4F4081518162816C
:101B90007381848195810E94BA098091180290E036
:101BA00001968770992780931802D9CF0E947B09EC
:101BB0001092190210921802EAE4F2E086E0DF01C6
:101BC0001D928A95E9F72C960FB6F894DEBF0FBEEA
:101BD000CDBFDF91CF911F910895809150028595DF
:101BE000859585950895809150028770089590910C
:101BF0005002977081E009F480E008959091CA0244
:101C000092FB222720F9281751F080FB92F990933C
:101C1000CA028091C9029091CA020C94FB0E0895E9
:101C20008091CA0282FB882780F991E089270C9471
:101C3000FE0D81E00C94FE0D80E00C94FE0D809171
:101C40005C02089590915C02892B80935C02089558
:101C5000809590915C02892380935C020895109294
:101C60005C02089590915B02892B80935B0208953A
:101C7000809590915B02892380935B020895109276
:101C80005B02089510925A020895809151020895BE
:101C900008950C94480E0C94490E9091CA0292FD3E
:101CA00008C090915102981721F0809351020C9432
:101CB0004B0E089580915102882329F01092510211
:101CC00080E00C944B0E0895E0911401F091150101
:101CD00080915C028083E0911401F0911501908164
:101CE00080915B02892B8083E0911401F0911501B2
:101CF000908180915A02892B8083809151028823A0
:101D000081F0E0911401F09115019081892B80837D
:101D100080911401909115010E94272281110E9447
:101D20005A0E80911401909115010C94E2210C94AB
:101D3000480E9091CA0292FD10C098E0899F9001D0
:101D40001124262B209350020E94FA098091500200
:101D50008595859585950C94970E0C94FA091092AB
:101D6000500280E00C94970E2091500280958223BF
:101D700080935002982F977041F430E0482F082E3E
:101D8000000C550B2417350721F49091CA0292FFDD
:101D900007C08595859585950E94050A0C94AF0E20
:101DA00008956FEF7FEF80E090E00C94AA2B80E025
:101DB00090E00E94862B893E9E4F11F40C94991A54
:101DC00080E0089582E090E00C947E2B83E090E028
:101DD0000C947E2BCF9384E090E00E947E2BC82F42
:101DE00082E290E00E947E2B2C2F30E0A901582B3C
:101DF000CA01CF910895CF93C92F682F84E090E056
:101E00000E948C2B6C2F82E290E0CF910C948C2B53
:101E1000AB01BC018FE090E00C949E2BAB01BC01A8
:101E200083E190E00C949E2B60E070E0CB010C9479
:101E30000E0F60E070E0CB010E94080F0C94140FAD
:101E400069EE7EEF80E090E00E94AA2B60E082E0E5
:101E500090E00E948C2B60E083E090E00E948C2B4D
:101E60001092170260E084E090E00E948C2B60E00A
:101E700082E290E00E948C2B60E085E090E00E947E
:101E80008C2B60E086E090E00E948C2B6FEF87E067
:101E900090E00E948C2B40E050E0BA0188E090E096
:101EA0000E949E2B60E08DE090E00E948C2B40E031
:101EB00050E0BA0188E190E00E949E2B60E087E14B
:101EC00090E00E948C2B40E050E0BA018CE190E061
:101ED0000E949E2B60E070E080E290E00E94AA2BBE
:101EE00040E050E0BA0188E190E00E949E2B80E043
:101EF0000E94B21A0E94DE1A0C94190F0C94200F43
:101F0000682F8EE090E00C948C2B0E944923609304
:101F100070027093710280937202909373026093C7
:101F20006C0270936D0280936E0290936F0208951D
:101F30000E94492360937002709371028093720231
:101F400090937302609368027093690280936A02AF
:101F500090936B02089585B7806885BF85B78068C8
:101F600085BF08950C94AE1408950C94B40F0C948E
:101F7000B40F0C94B70F0C94B40F0C94BB0F0C94CB
:101F8000B40F0E94AB0F8EE692E10E94B7230E942D
:101F9000BF0F0C94BD0F0E94B50F0C94B40F0E949C
:101FA00034230E9474220E94ED1A0E9466130E943C
:101FB000681D0E94E0190C94B90F9F92AF92BF92D6
:101FC000CF92DF92EF92FF920F931F93CF93DF9305
:101FD000CDB7DEB72A970FB6F894DEBF0FBECDBFE0
:101FE0000E94231481110E94850F8EE5A82E82E0A5
:101FF000B82E00E010E0902E802F0E94A212D82E62
:10200000F501C1905F01C826B1F40F5F1F4F0A3080
:10201000110589F78FEF89838A831B820E943D23F4
:102020008160782F9D838C8349815A816B818D815A
:102030000E94A6052FC08091740281FD0E94A81203
:10204000E12CFF24F3948C2D8F21F1F00E94B20F2C
:10205000882399F0EE829F82DF2081E009F480E0FE
:1020600088870E943D238160782F9A8789874E81D7
:102070005F8168858A850E94A605F801E25AFD4FB6
:102080008081F826F08206C0E394FF0CF7E0EF129F
:10209000DACFBBCF0E94FC1981110E94980F0E94D9
:1020A000BD180E94CF2190915D028917B9F00E945E
:1020B000CF2180935D022A960FB6F894DEBF0FBE43
:1020C000CDBFDF91CF911F910F91FF90EF90DF90E7
:1020D000CF90BF90AF909F900C949D052A960FB61D
:1020E000F894DEBF0FBECDBFDF91CF911F910F914E
:1020F000FF90EF90DF90CF90BF90AF909F900895AA
:10210000CF93DF930E949711EC01811521E592078F
:1021100008F045C0811530E5930708F094C0883E6B
:10212000910528F5803E910508F0F8C0883A9105A0
:1021300070F4853A910508F07CC08130910509F46E
:1021400075C008F4E8C0049708F0E8C0E4C08F3B0D
:10215000910508F0E0C0C85AD0E0CC0FDD1FCB5588
:10216000DE4F0990D881C02DCE019464D8C081156E
:1021700040E2940758F4811551E0950708F0CEC06D
:10218000803F910508F4C7C09065C9C0C11580E4BF
:10219000D80708F4C0C0DF70CE01906AC0C08115B6
:1021A00025E59207A8F4811534E5930708F095C05A
:1021B000811543E5940708F07BC0811552E595072A
:1021C00008F061C0D82FCC27CE01816F906AA7C0DC
:1021D000C11589E5D807A0F4C11528E5D20708F094
:1021E00082C0C11536E5D30708F095C08C2F0E9438
:1021F0002B128F7190E0D82FCC27CE0190628FC028
:10220000C1154AE5D40708F474C0CE019056811573
:10221000904208F080C08D2F8F710E942B12DD2715
:10222000D0628F71AE01582BCA0179C081E090E075
:1022300076C0C55AD0E0CD52DE4F8881C82FD0E09D
:10224000CE0190646CC074E0969587957A95E1F71D
:10225000282F23703C2F337081E090E002C0880F5C
:10226000991F3A95E2F79C68AC01522B9A019C2F7A
:102270009F709695969550E2959FE0011124C901B3
:102280008C2B9D2B4CC08370992721E030E002C03D
:10229000220F331F8A95E2F79C2F9695969580E240
:1022A000989FE0011124C22BD32BCE019C6837C02C
:1022B0008370992721E030E002C0220F331F8A95F6
:1022C000E2F79C2F9695969540E2949FE0011124A9
:1022D000C22BD32BCE019A6822C0D82FCC27CE0197
:1022E000846F906A1CC0DC2FCC27CE01806F906A6F
:1022F00016C08C2F8F700E942B1294E0D695C79534
:102300009A95E1F7CF70D0E0DC2FCC27D0699E0101
:10231000282BC90104C080E090E001C0CE01DF910C
:10232000CF9108950E94A61C0E94801008958238C3
:10233000910569F1B0F48133910509F46DC048F459
:102340008932910509F463C08A32910509F469C0A4
:1023500008958533910509F455C089339105B9F085
:102360000895833E910569F138F4803E9105B1F0FE
:10237000823E910509F10895863E9105A9F1873EB7
:102380009105B9F1843E910509F064C023C0209104
:10239000C90220FD4FC021FD4DC008958091C902A2
:1023A00080FD44C08091CA0280FF44C08091C90270
:1023B00084FD42C083EE4DC08091C90282FF38C0C7
:1023C000F5CF8091C90282FD33C08091CA0280FDA1
:1023D00031C0ECCF8091CA0281FF32C08091C90226
:1023E00084FD2AC087EE35C08091C90283FF26C0D4
:1023F000F5CF8091C90283FD21C08091CA0281FD81
:102400001FC0ECCF8091C90285FD1CC01DC080910A
:10241000C90285FD19C016C08091C90286FD16C08B
:1024200017C08091C90286FD13C010C089E311C096
:1024300082EE0FC080EE0DC080E00BC086EE09C0BA
:1024400084EE07C089E205C085E303C08AE201C0CB
:1024500081E390E008959091C90292FF0DC0282F6A
:102460002871283019F4877F846006C0282F2471D2
:10247000243011F48B7F886093FF0DC0282F2871C2
:10248000283119F4877E846106C0282F24712431F5
:1024900011F48B7E88612091CA0220FF0DC0382F75
:1024A0003871383019F4877F816006C0382F317158
:1024B000313011F48E7F886021FF0DC0282F2871E4
:1024C000283119F4877E816106C0282F21712131BE
:1024D00011F48E7E886194FD877E089580E00895D2
:1024E0000C94D10E0E9423148FE39CE90197F1F71D
:1024F00000C000000E94231480E00E94A21280FF0E
:1025000004C00E9470120C94A62308950C947212B9
:102510000E94D70E811102C00E947E0F0E94E20E1F
:10252000809374020E94EA0E9093CA028093C902BB
:102530000E9486120E94E60E0E94D6098091160221
:102540000C94E709E82FF0E0EB52FD4F80810895ED
:10255000089580EA8A95F1F7089500C008950C94D3
:10256000A91208950C94BC020C94B1120C94B412EC
:10257000F894E82FE295EF70F0E031A1282F2F704A
:1025800081E090E001C0880F2A95EAF7982F909596
:10259000932391A392A1892B82A3789408950895FF
:1025A0000C94CF120F931F93CF93DF93C6E1D1E02A
:1025B00089918F3F11F00E94B81281E0CD31D80788
:1025C000B9F7CDE1D1E002E211E089918F3F11F03E
:1025D0000E94B8120C171D07C1F7DF91CF911F9110
:1025E0000F910895DF92EF92FF920F931F93CF9375
:1025F000DF93062F10E00A5E1E4FE80128812F3F6F
:1026000009F45CC0F62EE92ED82EF894E22FE2955C
:10261000EF70F0E081A12F70C1E0D0E0AE0102C008
:10262000440F551F2A95E2F79A01842B81A382A1BA
:102630002095282322A378940E94AD120F2C01C06C
:10264000CC0F0A94EAF73C2F6C2F6095ADE1B1E016
:10265000ED2DFE2DAF014B5F5F4FE12C2D912F3FF4
:10266000A9F0822F82958F7090E0EC0188A190E014
:102670002F7002C0959587952A95E2F780FD06C0D8
:102680008081832B8083EE24E39403C080818623A2
:1026900080833196E417F50709F7F80180818F3FB1
:1026A00011F00E94B8126E2D8F2DDF91CF911F91E6
:1026B0000F91FF90EF90DF900C94AF12DF91CF91CC
:1026C0001F910F91FF90EF90DF900895CF93DF93CC
:1026D000CDB7DEB761970FB6F894DEBF0FBECDBFA2
:1026E0000E94C8148091270181112FC0FE013196EC
:1026F0002AE0DF011D922A95E9F721E9298320E9E3
:102700002A8322E32B8326E32C83CF01EDE1F1E042
:102710009E01255F3F4FDC014D91CD014193A217F2
:10272000B307C9F727E0EDE6F1E0DE011B96019063
:102730000D922A95E1F7FC01A6E1B1E0CE014296A7
:1027400021912D93E817F907D9F78091270181117D
:1027500002C095E001C090E09093E00285E0891B03
:102760008093DF020E94D212EBECF2E0A5EDB2E022
:1027700011921D9282E0E53DF807D1F785E00E94B5
:1027800077140E94520461960FB6F894DEBF0FBE14
:10279000CDBFDF91CF910C94D2140F931F93CF93A1
:1027A000DF9300D000D01F92CDB7DEB70E94AE14E9
:1027B0006091E002882379F18E010F5F1F4F85E061
:1027C000F80111928A95E9F7862F90E0B8018B52B3
:1027D0009D4F0E94E014E091DF029E012A5F3F4F6F
:1027E000F0E0EB52FD4FD801882361F010E08D91AD
:1027F0009081981711F0808311E03196A217B307EA
:10280000B1F706C011921D92A217B307D9F711E0D4
:102810000E9458040DC070E06B527D4F8091DF0222
:1028200090E08B529D4F0E9470150E94D01210E0D4
:10283000812F0F900F900F900F900F90DF91CF91FD
:102840001F910F910895EF92FF920F931F93CF93D3
:10285000DF93CDB7DEB72A970FB6F894DEBF0FBE71
:10286000CDBF8E010F5F1F4F8AE0F80111928A954C
:10287000E9F7F12C6F2DC8010E94F212F394F7E0F2
:10288000FF12F8CF4AE050E0B8018BEC92E00E94D2
:10289000682B7C0121E0892B09F420E0E114F1048C
:1028A00041F08AE0F801ABECB2E001900D928A951C
:1028B000E1F76091E00270E06B527D4F45E08BECF8
:1028C00092E00E947814EF2819F40E94CD1302C000
:1028D00081E090E02A960FB6F894DEBF0FBECDBF20
:1028E000DF91CF911F910F91FF90EF900895089580
:1028F000FF920F931F93CF93DF938C01F62ED72F68
:10290000C42F222349F081E0809377020E943D2367
:102910009093760280937502809177028823C1F0AC
:1029200080917502909176020E945523059780F060
:10293000EF2DFD2FD8014C2F50E0CD01801B910BC6
:10294000841795071CF48D918193F7CF109277022D
:10295000DF91CF911F910F91FF90089580917A029E
:1029600081110DC00E94262B811102C082E001C09E
:1029700081E080937A02823011F40E94212B81E061
:1029800090917A02913009F080E008950C94AE1491
:102990000E94C614809327010E94AE1481110C94EA
:1029A000181508950E94AE14811102C00C941A15D6
:1029B000089581E090917B029A3008F080E00895BC
:1029C0000F931F93CF93DF93EC018B0180917B02D8
:1029D0008A3038F4B801CE010E946E1581111DC0F5
:1029E0000AC080917802909179020E945523843F19
:1029F000914080F715C080917B028F3F19F08F5F67
:102A000080937B0280917B028A3060F00E943D239C
:102A1000909379028093780203C010927B0202C0E7
:102A200080E001C081E0DF91CF911F910F91089567
:102A30000C9405200C940820EF92FF920F931F93A3
:102A4000CF93DF937901C82F880FDD0B4115510516
:102A5000A9F08AE08C9FF0018D9FF00D1124E85DB4
:102A6000FE4F8381948184589D4F228130E042172C
:102A7000530708F49A01A9010E94752BCE010E9408
:102A80001221892B09F50115110501F18AE08C9FAE
:102A9000F0018D9FF00D1124E85DFE4F458150E05F
:102AA0000417150708F4A8018AE08C9FF0018D9F98
:102AB000F00D1124E85DFE4F6681778164587D4FEB
:102AC000C7010E94752B02C080E001C081E0DF9148
:102AD000CF911F910F91FF90EF9008950C94CC1619
:102AE0000C94F0160F931F93CF93DF9300D000D078
:102AF000CDB7DEB76091990270919A0280919B02E6
:102B000090919C020E9464236436710581059105B1
:102B100028F10E949A22DC01CB010296A11DB11D71
:102B200089839A83AB83BC8300E010E020E030E02F
:102B300044E050E0BE016F5F7F4F84E00E941C15AF
:102B4000182F882361F00E944923609399027093A3
:102B50009A0280939B0290939C0201C011E0812F06
:102B60000F900F900F900F90DF91CF911F910F91C9
:102B700008957F928F929F92AF92BF92CF92DF92F1
:102B8000EF92FF920F931F93CF93DF931F92CDB7D6
:102B9000DEB7762E4A015901680101E010E09E017E
:102BA0002F5F3F4F40E050E060E070E00E941C1556
:102BB000182F882379F1F4016081718182819381DA
:102BC0000E9464236436710581059105E0F0870158
:102BD000950140E050E060E070E0872D0E941C15F8
:102BE000182FB701C6010E94691D91E029812813A1
:102BF00090E01923A1F00E944923F40160837183BE
:102C0000828393830CC0B701C6010E94691D99811C
:102C10008913DDCFA701B601C5010E94752B812F55
:102C20000F90DF91CF911F910F91FF90EF90DF9068
:102C3000CF90BF90AF909F908F907F900895EF922C
:102C4000FF920F931F93CF93DF931F92CDB7DEB701
:102C50000091D6011091D701095F1F4FEE24E39434
:102C6000F12C9E012F5F3F4F45E952E063E082E087
:102C70000E94B915182F882321F0CE0101960E94D9
:102C80005A1A812F0F90DF91CF911F910F91FF90D2
:102C9000EF900895CF92DF92EF92FF920F931F93E0
:102CA000CF93DF9300D000D01F92CDB7DEB76B017A
:102CB0000091D6011091D7010F5F1F4F85E0E82EDC
:102CC000F12C9E012F5F3F4F41E952E061E080E02F
:102CD0000E94B915882349F095E0FE013196ACE8D1
:102CE000B2E001900D929A95E1F795E0ECE8F2E000
:102CF000D60101900D929A95E1F70F900F900F90E9
:102D00000F900F90DF91CF911F910F91FF90EF9057
:102D1000DF90CF900895AF92BF92CF92DF92EF9263
:102D2000FF920F931F93CF93DF937C015B016A01A6
:102D30000E94D914811103C001E010E002C00AE032
:102D400010E0C1E0D0E0F894B501C701F6010995A3
:102D50007894811115C021960C171D0794F0CC9F13
:102D60009001CD9F300D300D112480E090E045E3BF
:102D70004A95F1F70000019682179307C1F7E3CF58
:102D800081E0DF91CF911F910F91FF90EF90DF9045
:102D9000CF90BF90AF9008950F931F93CF93DF9381
:102DA000EC018B014AE456E10E948B16882391F0D6
:102DB0004FE156E1B801CE010E948B16882351F0F5
:102DC00042E755E1B801CE01DF91CF911F910F91FC
:102DD0000C948B1680E0DF91CF911F910F91089595
:102DE0000F931F93CF93DF931F92CDB7DEB7F89465
:102DF0000091D6011091D701C801019625E0FB0191
:102E0000DC0101900D922A95E1F765E070E00E94E7
:102E1000691DF80180837894F894CE0101960E9490
:102E2000511A8981F801878361E070E0CE01019633
:102E30000E94691DF80186837894F89460857185F5
:102E400082859385009188021091890220918A02DF
:102E500030918B02601771078207930751F06093DE
:102E600088027093890280938A0290938B020E9459
:102E70007D2278940F90DF91CF911F910F9108954B
:102E80000E94B5220E944B250E9464250E9476254F
:102E90000E94CB0FFBCF8091A30280FF0BC06091FB
:102EA0005F0185E0689FB001112475956795759560
:102EB00067952BC081FF09C060915F0185E0689F25
:102EC000B00111247595679520C082FF07C06091FD
:102ED0005F0185E0689FB001112417C09091A202A4
:102EE0009923D1F060915E01961788F720915F01D8
:102EF00085E0289F90011124929FA001939F500D7F
:102F0000112470E0CA010E94332B6038710540F42F
:102F10006115710519F406C065E070E0862F08950B
:102F20008FE7089581E008958091A30280FF08C093
:102F300060915B0170E0759567957595679521C007
:102F400081FF06C060915B0170E07595679519C0BF
:102F500082FF04C060915B0170E010C09091A102FB
:102F6000992399F060915A019617A0F780915B011F
:102F7000899FC001112470E00E94332B60387105D5
:102F800040F46115710519F406C061E070E0862F08
:102F900008958FE7089581E00895803F21F40E940D
:102FA0004B17819504C0813F29F40E944B178093F1
:102FB000A7020895823F21F40E944B17819504C017
:102FC000833F29F40E944B178093A6020895893FFE
:102FD00019F40E94941705C08A3F31F40E94941797
:102FE00081958093A80208958B3F21F40E94941745
:102FF000819504C08C3F29F40E9494178093A90204
:1030000008959CE0980F953078F421E030E0A90114
:1030100002C0440F551F9A95E2F7CA019091A5028C
:10302000892B8093A50208958D3F21F48091A302FE
:1030300081600BC08E3F21F48091A302826005C0A5
:103040008F3F29F48091A30284608093A3020895A6
:10305000803F39F49091A70297FF35C01092A702E4
:1030600059C0813F29F49091A7021916BCF32BC0D7
:103070009091A602823F29F497FF25C01092A602E4
:1030800049C0833F19F41916CCF31DC09091A802D2
:10309000893F29F41916BCF41092A8023BC08A3F5C
:1030A00019F497FF10C0F8CF8B3F39F49091A90223
:1030B00097FF09C01092A9022DC08C3F21F4909176
:1030C000A9021916BCF39CE0980F953080F421E01A
:1030D00030E0A90102C0440F551F9A95E2F7CA01DA
:1030E00080959091A50289238093A50213C08D3FFE
:1030F00021F48091A3028E7F0BC08E3F21F480913A
:10310000A3028D7F05C08F3F29F48091A3028B7F9E
:103110008093A3028091A602811106C08091A7022C
:10312000811102C01092A2028091A802811106C0F2
:103130008091A902811102C01092A10208950E94FB
:103140003D232091A602211104C02091A702222331
:1031500021F09093A00280939F022091A802211158
:1031600004C02091A902222321F090939E02809313
:103170009D0284EA92E00C94ED21EF92FF920F936E
:103180001F93CF93DF9300D000D000D0CDB7DEB730
:1031900086E0E4EAF2E0DE01119601900D928A9554
:1031A000E1F7E090A602F090A7020091A80210912A
:1031B000A9021092A6021092A7021092A8021092E1
:1031C000A902E11003C0FF2009F45DC080919F02B5
:1031D0009091A0020E945523AC019091A2029923E4
:1031E00039F02091600130E02417350758F04BC0CA
:1031F000209161018AE0289F90011124241735074E
:1032000018F041C09F3F19F09F5F9093A202EE20FB
:1032100061F00E944B171E1414F09FEF01C091E063
:10322000989F902D11249093A602FF2061F00E9498
:103230004B171F1414F09FEF01C091E0989F902D41
:1032400011249093A7023091A6023323E1F020913C
:10325000A7022223C1F045EB3403C00111249923B6
:1032600019F09093A60203C081E08093A60235EB8B
:103270002303C0011124992319F09093A70203C0DE
:1032800081E08093A702011103C0112309F45DC0FE
:1032900080919D0290919E020E945523AC019091D5
:1032A000A102992339F020915C0130E02417350701
:1032B00058F04BC020915D018AE0289F90011124B5
:1032C0002417350718F041C09F3F19F09F5F909376
:1032D000A102002361F00E949417101614F09FEFD2
:1032E00001C091E0989F902D11249093A802112382
:1032F00061F00E949417111614F09FEF01C091E045
:10330000989F902D11249093A9023091A802332305
:10331000E1F02091A9022223C1F045EB3403C00162
:103320001124992319F09093A80203C081E080939F
:10333000A80235EB2303C0011124992319F09093BF
:10334000A90203C081E08093A9028091A6028111A5
:103350000BC08091A702811107C08091A802811142
:1033600003C08091A90281110E949F18EB82FC8208
:103370000D831E8386E0FE013196A4EAB2E001903F
:103380000D928A95E1F726960FB6F894DEBF0FBE30
:10339000CDBFDF91CF911F910F91FF90EF900895D6
:1033A000E4EAF2E086E0DF011D928A95E9F71092E7
:1033B000A2021092A1021092A30208950C9481031C
:1033C00087988F9A2198299A8FB190E0880F892F3A
:1033D000881F990B199902C020E001C022E0822BBE
:1033E0008093AF029091270181E098279093AB02E0
:1033F000891B8093AA020895CF932091AF02220FD8
:10340000220F2093AF028FB190E0880F892F881F81
:10341000990B33B131FBEE27E0F9F0E031FF02C048
:10342000E2E0F0E0E82BF92BE22BE093AF02C09151
:10343000AB02EF70F0E0E852FE4F90818091AE0257
:10344000890F8093AE0284306CF0EC2FF0E0E455ED
:10345000FD4F80818F5F808360E08C2F0E94DE199A
:1034600021E001C020E08091AE028D3F64F4EC2F9A
:10347000F0E0E455FD4F80818150808361E08C2F26
:103480000E94DE1921E08091AE02082E000C990BFB
:1034900064E070E00E94332B8093AE02822FCF91C4
:1034A0000895E091AB02F0E0E455FD4F2081FC016E
:1034B00020830895FF920F931F93CF93DF93D091B2
:1034C000AA020D2F10E004551D4FFC01C081F80128
:1034D0008081C81BFC2E80E01F145CF4FA94F80174
:1034E00080818F5F808360E08D2F0E94DE1981E0F4
:1034F000F3CF9C2FC7FD90E0C91BCC2359F0CF5FC1
:10350000F80180818150808361E08D2F0E94DE1957
:1035100081E0F3CF882339F0DF91CF911F910F9194
:10352000FF900C94980FDF91CF911F910F91FF9016
:10353000089583E290E00E947E2B823281F484E23F
:1035400090E00E947E2B883051F485E290E00E944A
:103550007E2B91E0813209F090E0892F01C080E05C
:1035600081700895CF93C82F811102C06FEF01C001
:1035700062E283E290E00E948C2BC11102C06FEFE7
:1035800001C068E084E290E00E948C2BC11102C06F
:103590006FEF01C061E285E290E0CF910C948C2B3B
:1035A000089586E290E00E947E2B682F70E080E014
:1035B00090E0089586E290E00C948C2B80E00E94CD
:1035C000B21A60E070E0CB010E94DA1A0E94211C5E
:1035D0000E94001D81E00C94B21A0E94D01A0E9431
:1035E000991A811102C00C94DE1A0895CF93FB0141
:1035F000C281CC23E9F09C0122513F4520313105A5
:1036000020F482510E94101D0CC08031FFE59F07FD
:1036100051F481E00E94FA0943E062E081E00E94F7
:103620004904C0E018C081319F45A9F482E0F2CF7F
:103630008031EFE59E0711F481E004C081319F45A0
:1036400049F482E00E94050A43E062E081E00E94C2
:10365000490401C0C1E08C2FCF9108952FEFFC01E8
:1036600020830895EF92FF920F931F93CF93DF93E0
:10367000EC01062FE8818E2F90E0FC013197E331B9
:10368000F10508F091C0E059FF4F0C94472B1982C7
:1036900089E04DC08981823039F0833061F081301A
:1036A00029F50E94492302C00E94D11A9A838B8374
:1036B0007C836D837BC07E0182E0E80EF11C10E00C
:1036C000812F0E94A212F70181937F011F5F1A30A0
:1036D000B9F76CC08981823049F46A817B818C8121
:1036E0009D810E944D2B0E94DA1A60C0602FCE018E
:1036F0000E942E1B5BC04B816A8189810E94F31B53
:103700009C838D8353C02C813D8132272327322710
:103710004B816A8189810E940C1C48C00E94211C37
:1037200045C00E94B31C24C00E94B51C99838A83A3
:103730003DC06B8170E089819A81AE014C5F5F4F23
:103740009827892798270E94B81C30C06B8170E0A9
:1037500089819A81AE014C5F5F4F9827892798270E
:103760000E94DD1C23C00E94001D20C00E94E01B9F
:1037700089831CC06B8170E089819A81AE014C5FA6
:103780005F4F9827892798270E94601C0FC06B8184
:1037900070E089819A81AE014C5F5F4F982789273D
:1037A00098270E94841C02C08FEF8883602FCE016F
:1037B000DF91CF911F910F91FF90EF900C943C24DB
:1037C00084E0089550E0440F551F2EE0629F400DA5
:1037D000511D11249A016CE8869F200D311D112482
:1037E000C901879608950F931F93CF93DF930E948B
:1037F000E21B8C010E947E2BC82FD0E0DC2FCC274F
:10380000C80101960E947E2B9E01282BC901DF91E1
:10381000CF911F910F9108950F931F93CF93DF9333
:10382000122F032F0E94E21BEC01602F0E948C2BB1
:10383000612FCE010196DF91CF911F910F910C94D2
:103840008C2BAF92BF92CF92DF92EF92FF920F93A9
:103850001F93CF93DF93A12CE12CF12CB12C00E02E
:1038600010E0C0E0D0E06701C00ED11EFE01EE0FF7
:10387000FF1FEC0DFD1DE65EFE4F259134914C2F90
:103880006B2D8A2D0E940C1C2196C730D10571F733
:10389000025F1F4FB3948AE0B812E3CF8CE8E80EC2
:1038A000F11CA39484E0A812D9CFDF91CF911F918E
:1038B0000F91FF90EF90DF90CF90BF90AF90089561
:1038C000EF92FF920F931F93CF93DF93EA017A0158
:1038D000E60EF71E8C01C8018796CE15DF0569F04C
:1038E000003322E0120720F40E947E2B888301C05F
:1038F000188221960F5F1F4FEECFDF91CF911F915E
:103900000F91FF90EF900895EF92FF920F931F9306
:10391000CF93DF93EA017A01E60EF71E8C01C8010E
:103920008796CE15DF0559F0003322E0120718F410
:1039300068810E948C2B21960F5F1F4FF0CFDF9183
:10394000CF911F910F91FF90EF900895462F8430F3
:1039500038F47A3028F4673018F4672F0C94F31B8E
:1039600080E090E0089580E1089589EA95E0089567
:10397000EF92FF920F931F93CF93DF93EA017A01A7
:10398000E60EF71E8C01C801895A9D4FCE15DF0542
:1039900069F0093A25E0120720F40E947E2B888303
:1039A00001C0188221960F5F1F4FEDCFDF91CF919D
:1039B0001F910F91FF90EF900895EF92FF920F9358
:1039C0001F93CF93DF93EA017A01E60EF71E8C0175
:1039D000C801895A9D4FCE15DF0559F0093A25E0F7
:1039E000120718F468810E948C2B21960F5F1F4FDD
:1039F000EFCFDF91CF911F910F91FF90EF9008953E
:103A0000CF93DF93C7E5D2E060E0CE010E948C2B1C
:103A10002196C11588E0D807B9F7DF91CF910895B5
:103A2000DF92EF92FF920F931F93CF93DF9300D01B
:103A300000D0CDB7DEB7F82E8FE08F15E8F18FEF0D
:103A400097E00E947E2B811137C007E512E0FF202E
:103A500069F0011588E0180779F1C8010E947E2BF2
:103A6000811101C0FA940F5F1F4FF1CF19821A82A2
:103A70001B821C82DD24D39478018FEFE81AF80AA8
:103A8000C8010E947E2B89831A828823A9F09FEFA8
:103A9000980F933058F48A83D9820E5F1F4FC70165
:103AA0000E947E2B8B83882339F07801CE0101960A
:103AB0000E9492058701E0CF0F900F900F900F901A
:103AC000DF91CF911F910F91FF90EF90DF900895BC
:103AD0000895FC01680F791F8FEF91E3E617F70750
:103AE00071F02191822728E030E087FF03C0880F22
:103AF000892701C0880F21503109B9F7EFCF089508
:103B00000F931F93CF93DF93C42FD22FFC01828199
:103B10008823C9F04093B2020E943D239093B102E2
:103B20008093B00280E28C0F883008F057C0C770D5
:103B300081E001C0880FCA95EAF7DF91CF911F910C
:103B40000F910C9428078091B202481330C08091E5
:103B5000B0029091B1020E945523883C910538F53E
:103B600010E21D0FCD17B9F080E28C0F883040F4C1
:103B7000C77081E001C0880FCA95EAF70E942F073D
:103B8000183028F581E09D2F977001C0880F9A9515
:103B9000EAF70E942807802F0E941F071830F0F4D0
:103BA000D77081E001C0880FDA95EAF70AC080E299
:103BB0008C0F883098F4C77081E001C0880FCA95D7
:103BC000EAF7DF91CF911F910F910C942F07802F6F
:103BD000DF91CF911F910F910C941F07DF91CF912F
:103BE0001F910F9108950F939C01CB01233F4CE54A
:103BF000340731F188F4283DFCE53F07D9F0293D31
:103C00004CE5340779F1273D3C45A9F506E221EE64
:103C100041EE67ED7CE52BC0253FFCE53F07E1F079
:103C2000A8F0263F3C4539F507E225EE46EE66EF63
:103C30007CE51DC007E225EE45EE68ED7CE517C08A
:103C400006E221EE40EE63EF7CE511C007E225EECF
:103C500044EE64EF7CE50BC006E221EE42EE65EF38
:103C60007CE505C008E221E045EE69ED7CE50E94B7
:103C7000801D80E008C0FC018281882319F0109229
:103C8000B20201C081E00F910895CF93DF93EC0160
:103C9000FB018281882309F426C1C330FDE5DF07DB
:103CA00060F4CA3F9CE5D90768F49E0122503C4568
:103CB0002431310508F018C105C0C136EDE5DE0735
:103CC00009F012C10E94EA0E9093CA028093C902C1
:103CD000C031FCE5DF0709F4CAC008F041C0C830B4
:103CE0009CE5D90709F4A4C0F0F4C430FCE5DF0773
:103CF00009F48CC068F4C2309CE5D90709F482C08D
:103D0000C330DC4509F0E5C08091C9028260DFC0A4
:103D1000C630FCE5DF0709F483C008F085C0809158
:103D2000C9028860D4C0CC309CE5D90709F490C0A2
:103D300068F4CA30FCE5DF0709F47EC008F084C0EF
:103D40000E947B098091C9028068C1C0CE309CE589
:103D5000D90709F481C008F086C08091C90294C0D7
:103D6000CC3FFCE5DF0709F47BC038F5C4319CE5A6
:103D7000D90709F49AC058F4C231FCE5DF0709F409
:103D80007AC008F07EC08091C9028F7BA0C0CA3F74
:103D90009CE5D907F1F108F03FC0C531DC4509F0D9
:103DA00098C08091C90282FB222720F991E09227D6
:103DB00090FB82F990FB83F98AC0C1158DE5D80785
:103DC00009F467C050F48091CA02CE3FECE5DE07EB
:103DD000C1F108F05BC08D7F65C0C2308DE5D807AA
:103DE00009F471C008F46DC0C136DD4509F071C039
:103DF0008091C90284FB222720F991E0922790FB51
:103E000084F965C08091C902816061C08091C90256
:103E100016C08091CA0216C08091CA02826042C058
:103E20008091C902806153C08091C90280624FC0F5
:103E30008091C90280644BC08091C902886084600F
:103E400046C0826081602EC08091C9028E7F3FC0D3
:103E50008091C9028D7F3BC08091C902877F37C0A6
:103E60008091CA0214C08091C9028F7E30C08091B7
:103E7000C9028F7D2CC00E947B098091C9028F7777
:103E800026C08091C902877F8B7F21C08D7F8E7F66
:103E900009C08091CA02982F909591708E7F892BCE
:103EA00090FB81F98093CA0214C00E947B09809123
:103EB000C90287FB222720F991E0922790FB87F91E
:103EC00006C081E001C080E00E94800F02C08093A4
:103ED000C9028091C9029091CA020E94FB0E0E9401
:103EE0007B0980E001C081E0DF91CF910895CF93FD
:103EF000DF9386319C4541F5EB010E941F0E982F00
:103F00008A812091140130911501882379F09A7AE1
:103F100081E009F480E08093B302911102C069E26C
:103F200001C065E3C9010E9469220AC08091B30201
:103F3000811102C069E201C065E3C9010E946B22E0
:103F40000E94640E80E001C081E0DF91CF9108956E
:103F50008EE14A9B02C08150E1F74A9BFECF089553
:103F60005A9880E28A95F1F75A9A0895FC012AE05E
:103F70002A95F1F728E090E080E031E040E14A95B1
:103F8000F1F7880F4A9B02C08160932700C00000B0
:103F900040E14A95F1F7215089F720E12A95F1F7A0
:103FA00029B100C0000030E13A95F1F722FB222749
:103FB00020F992272081920F90830895EF92FF922B
:103FC0000F931F93CF93DF931F92CDB7DEB7198264
:103FD0008C017C01E60EF11C0E151F0551F00E94AC
:103FE000A81FCE0101960E94B61FF80181938F0190
:103FF000F3CF81E09981911180E00F90DF91CF9113
:104000001F910F91FF90EF900895529A5A9A089538
:1040100052985A9AEA9AE9E6F0E080818F7C808390
:104020000895615091E001C0990F6A95EAF720E088
:1040300031E0992361F0492F482319F05A9A232738
:1040400001C05A9840E24A95F1F79695F2CF2223A3
:1040500011F05A9A01C05A9880E28A95F1F75A985D
:104060000895FF920F931F93CF93DF93EC018C0180
:10407000060F111DC017D10741F0F9900E94B01F23
:1040800068E08F2D0E941120F5CFDF91CF911F9115
:104090000F91FF9008951F920F920FB60F92112467
:1040A000EF92FF920F931F932F933F934F935F9342
:1040B0006F937F938F939F93AF93BF93EF93FF93F0
:1040C000CF93DF931F92CDB7DEB719820E94A81F4E
:1040D000CE0101960E94B61FA82FA695A695A6957B
:1040E0009A2F969595702A2F2570920F292F23705D
:1040F00096959695920F877089137CC0898181115E
:1041000079C0A63008F076C080E18A95F1F75A9A16
:10411000529AB2E0BA95F1F700C05A98EA2EF12C03
:10412000EAE0AE9FD0011124A85DBE4F1896ED9134
:10413000FC9119973097B1F06091D6017091D70139
:1041400016962D913C911797260F371F13968D9138
:104150009C911497680F791F15964C91159712969C
:104160008C9109958AE08E9DF0018F9DF00D1124B0
:10417000E85DFE4F6581662351F08091D6019091F4
:10418000D70126813781820F931F0E9431200E9420
:10419000B01FF0E1FA95F1F75A9852985A9A80E1D7
:1041A0008A95F1F78AE08E9D80018F9D100D112474
:1041B000085D1E4FD80112966C911297662399F0F4
:1041C0008091D6019091D70113962D913C9114972F
:1041D000820F931F0E94DE1FD801ED91FC91811187
:1041E00005C082E004C0D801ED91FC9188E0808395
:1041F0000E94A81F0F90DF91CF91FF91EF91BF9187
:10420000AF919F918F917F916F915F914F913F916E
:104210002F911F910F91FF90EF900F900FBE0F9075
:104220001F9018950F931F93CF93DF9386309105BE
:104230000CF0A9C02AE0289FF001299FF00D11245D
:10424000E85DFE4F20813181232B09F49CC0EC01F5
:10425000F894529A5A9885E08A95F1F700008C2FCD
:10426000869585709C2F9570890F982F93708695F1
:1042700086958E0123E0000F111F2A95E1F7890F23
:10428000082B0E94B01FA4E0AA95F1F700C068E0D7
:10429000802F0E941120B0E1BA95F1F752985A9AF6
:1042A0004A9902C000C0FCCF87E090E04A9B17C04B
:1042B000019799F4529A5A9A8AE08C9FF0018D9F47
:1042C000F00D1124E85DFE4F0190F081E02D81E0BA
:1042D0008083789481E090E058C000C0E7CF8AE006
:1042E0008C9F80018D9F100D1124085D1E4FF801D9
:1042F00065816623B9F08091D6019091D70126811E
:104300003781820F931F0E94DE1F81110BC0529ACA
:104310005A9AD801ED91FC9182E08083789482E0F2
:1043200090E033C00E94A81FB0E2BA95F1F75A9806
:10433000529AE0E1EA95F1F78AE08C9FF0018D9FB7
:10434000F00D1124E85DFE4F6281662351F08091EB
:10435000D6019091D70123813481820F931F0E944F
:1043600031200E94B01F8AE08C9FF0018D9FF00DDC
:104370001124E85DFE4F0190F081E02D10827894C9
:1043800080E090E002C084E090E0DF91CF911F9147
:104390000F9108959093BA028093B90208950E94F4
:1043A000AE14811103C08091B4020895E091B90266
:1043B000F091BA02309721F00190F081E02D09943C
:1043C00080E00895E091B902F091BA02309721F0AF
:1043D0000280F381E02D09940895E091B902F091F3
:1043E000BA02309739F022E0DC012C930480F58189
:1043F000E02D099408952091B7023091B802281752
:10440000390771F09093B8028093B702E091B90236
:10441000F091BA02309721F00680F781E02D0994DF
:1044200008952091B5023091B6022817390771F02E
:104430009093B6028093B502E091B902F091BA026E
:10444000309721F00084F185E02D09940895FC0156
:10445000329697E080E0915029F021912223D9F300
:104460008F5FF9CF0895662349F0FC0132960896D4
:104470002191621729F0E817F907D1F780E0089534
:1044800081E008959C01FC0132969FEF80E041910C
:10449000461789F09F3F19F4411101C0982F8F5F93
:1044A0008630A9F79F3F39F0F901E90FF11D97FD1B
:1044B000FA956283089508959C012A5F3F4FFC019D
:1044C0004281461301C01282019682179307B9F701
:1044D00008950C9442220C945C22029626E0FC0182
:1044E00011922A95E9F708951092E2021092E302E0
:1044F0001092E4021092E5020895CF92DF92EF92BB
:10450000FF926B017C010E94AE1481110EC00E94CB
:104510004923C61AD70AE80AF90AC092E202D092E1
:10452000E302E092E402F092E502FF90EF90DF9068
:10453000CF9008950F931F930E94AE14882321F00B
:104540001F910F910C9449230E9449230091E2028C
:104550001091E3022091E4023091E502600F711F97
:10456000821F931F1F910F910895089508950C9431
:10457000B6220C94B622CF930E94B9220E94231433
:104580000E94B722C0E08C2F0E94A212811104C0A9
:10459000CF5FCA30C1F701C081E0CF9108950C947C
:1045A000B6220C94CF228091EE02843049F10E9411
:1045B000D12280E00E949D051092BB0220E488E198
:1045C00090E00FB6F894A895809360000FBE2093FA
:1045D000600083B7817F846083BF83B7816083BFBE
:1045E0007894889583B78E7F83BF0FB6F894A8958B
:1045F00080916000886180936000109260000FBE1F
:1046000008950C94B6220E947B090E94CF210E943B
:104610009D050C9401231F920F920FB60F92112447
:104620008F939F93AF93BF938091BB02811113C06F
:104630008091E6029091E702A091E802B091E90230
:104640004196A11DB11D8093E6029093E702A093CD
:10465000E802B093E902BF91AF919F918F910F90C3
:104660000FBE0F901F90189582E084BD93E095BD1A
:104670009AEF97BD80936E0008952FB7F8948091BC
:10468000E6029091E702A091E802B091E9022FBF03
:1046900008952FB7F8946091E6027091E702809137
:1046A000E8029091E9022FBF08959C014FB7F8945A
:1046B0008091E6029091E702A091E802B091E902B0
:1046C0004FBF821B930B0895CF92DF92EF92FF9220
:1046D0002FB7F894C090E602D090E702E090E8028D
:1046E000F090E9022FBFA7019601261B370B480B5C
:1046F000590BCA01B901FF90EF90DF90CF90089558
:1047000078941F920F920FB60F9211248F939F935C
:10471000AF93BF938091E6029091E702A091E802E7
:10472000B091E9020196A11DB11D8093E60290931C
:10473000E702A093E802B093E902BF91AF919F9185
:104740008F910F900FBE0F901F90189587E797E7F6
:1047500090930108809300089AE088E10FB6F894DE
:10476000A895809360000FBE90936000FFCF909358
:10477000F9018093F80108958091C70208959091FE
:10478000EE02943029F58093BC027093BE026093D0
:10479000BD029093E9008FEF9091E800815095FD64
:1047A00006C095ED9A95F1F700008111F5CF809143
:1047B000E80085FF0DC040E050E063E070E08CEB66
:1047C00092E00E9438268091E8008E778093E8007E
:1047D0000895BC0184E00C94BF23BC0183E00C94D9
:1047E000BF2324E02093E9002FEF3091E80021500F
:1047F00035FD06C035ED3A95F1F700002111F5CFF2
:104800002091E80025FF0BC040E050E066E070E03A
:104810000E9438268091E8008E778093E800089502
:10482000CF93DF9321E02093E9002FEF3091E80050
:10483000215035FD06C035ED3A95F1F70000211104
:10484000F5CF2091E80025FF14C0EC0140E050E0D6
:1048500068E070E00E9438268091E8008E778093AF
:10486000E80088E0FE01AFEBB2E001900D928A957E
:10487000E1F7DF91CF910895CF93603219F5209140
:10488000EE022430F9F4C091E900CF703091EC00D1
:10489000232F217030FD20E8C22B22E02093E90075
:1048A0002091E80020FF0BC040E050E060E270E0A3
:1048B0000E9438268091E8008E778093E800CF70C0
:1048C000C093E900CF9108958091ED02811109C054
:1048D0000E9414280E9471288091E20084608093D5
:1048E000E20008951092ED02089508950895089544
:1048F00042E061EC81E00E948D2742E261EC84E0BD
:104900000E948D2742E261EC82E00E948D2742E204
:1049100060EC83E00C948D278091F002833009F4E1
:1049200062C030F4813071F0823009F49BC0089588
:104930008A3009F487C08B3009F46DC0893009F0E2
:10494000A9C020C08091EF02813A09F0A3C08091F4
:10495000E800877F8093E8008091F3029091F40251
:10496000892B21F468E08FEB92E003C060E080E0E7
:1049700090E070E00E94CE268091E8008B778093D3
:10498000E80008958091EF02813209F083C08091A0
:10499000F3029091F402009719F0029709F07AC09F
:1049A0008091E800877F8093E8008091E80082FD95
:1049B00005C08091EE028111F8CF6CC02091F30008
:1049C0008091F20090E0922B029729F48091F100FF
:1049D0008B7F813021F48091F1008093C702809118
:1049E000E8008B7753C08091EF02813A09F052C002
:1049F0008091F3029091F402892B09F04BC08091D1
:104A0000E800877F8093E8008091E80080FFFCCF7A
:104A100080916C0136C08091EF028132D9F580918E
:104A2000F3029091F402892BA9F58091E800877F29
:104A30008093E8000E94C2278091F10280936C016C
:104A40000C947B098091EF02813221F58091E8007E
:104A5000877F8093E8000E94C2278091F2028093B2
:104A6000C80208958091EF02813AA1F48091E80094
:104A7000877F8093E8008091E80080FFFCCF8091E1
:104A8000C8028093F1008091E8008E778093E8005F
:104A90000C94C227089584B7877F84BF0FB6F8941B
:104AA000A8958091600088618093600010926000FA
:104AB0000FBE90E080E80FB6F89480936100909369
:104AC00061000FBE0C94C10F0E9414280E9471282F
:104AD000E2EEF0E080818460808378940E94062B6F
:104AE0000E94CF0F82E691E00C94CA21CF93DF930E
:104AF000CDB7DEB7A0970FB6F894DEBF0FBECDBF1F
:104B00008091EE028530A9F48091EE02853079F42F
:104B10000E94D3228091EC028823B1F30E94BB2231
:104B2000882391F30E9422260E947B09EDCF0E94E8
:104B300003230E94DD0F8091EE02843011F583E0A3
:104B40008093E9008091E80082FF1BC08091E8001B
:104B500085FF0AC040E050E060E270E0CE010196BF
:104B60000E94832691E001C090E08091E8008B775D
:104B70008093E800992329F060E2CE0101960E941B
:104B8000321BA0960FB6F894DEBF0FBECDBFDF91EB
:104B9000CF9108950C94CC25292F3327233031054C
:104BA000C9F060F42130310581F02230310509F07F
:104BB00041C08BE590E02CE933E040C02132310563
:104BC000E1F02232310531F135C082E190E027EF8A
:104BD00033E034C099278130910549F028F00297DD
:104BE00049F5EEE6F3E005C0E8E9F3E002C0E2E8EB
:104BF000F3E0849190E09F0121C063307105D0F40F
:104C0000660F771FFB01EF50FE4F2081318189E055
:104C100090E014C06330710568F4FB01EE0FFF1FD4
:104C2000E551FE4F20813181FB01E851FE4F80812B
:104C300090E004C080E090E020E030E0FA013183B1
:104C40002083089580E189BD82E189BD09B400FE19
:104C5000FDCF8091D8008F7D8093D8008091E000B7
:104C600082608093E0008091E00081FDFCCF089598
:104C7000CF92DF92EF92FF920F931F93CF93DF9328
:104C8000EC018B017A010E94E127811133C0E1140C
:104C9000F10439F0F70180819181081B190BC80FCD
:104CA000D91FC12CD12C0115110519F18091E800F3
:104CB00085FD16C08091E8008E778093E800E114AE
:104CC000F10449F0F70180819181C80ED91ED1828B
:104CD000C08285E00FC00E94E127882321F30AC02B
:104CE00089918093F10001501109FFEFCF1ADF0A7B
:104CF000DACF80E0DF91CF911F910F91FF90EF907D
:104D0000DF90CF900895CF92DF92EF92FF920F93B2
:104D10001F93CF93DF93EC018B017A010E94E1276F
:104D2000811133C0E114F10439F0F70180819181E0
:104D3000081B190BC80FD91FC12CD12C0115110547
:104D400019F18091E80085FD16C08091E8008B770D
:104D50008093E800E114F10449F0F701808191812A
:104D6000C80ED91ED182C08285E00FC00E94E12703
:104D7000882321F30AC08091F10089930150110921
:104D8000FFEFCF1ADF0ADACF80E0DF91CF911F91DA
:104D90000F91FF90EF90DF90CF9008952091F50252
:104DA0003091F6022617370748F06115710539F47E
:104DB0002091E8002E772093E80001C0B901FC01A2
:104DC00020E06115710579F18091EE028823F1F1FF
:104DD0008530F1F18091E80083FD3CC08091E800CE
:104DE00082FD2EC08091E80080FFEBCF2091F30080
:104DF0008091F20090E0922B6115710551F088309E
:104E0000910538F421912093F100615071090196C8
:104E1000F3CF21E0089709F020E08091E8008E7739
:104E20008093E800CECF2111CFCF0AC08091EE024F
:104E3000882361F0853061F08091E80083FD0AC02D
:104E40008091E80082FFF2CF80E0089582E008952B
:104E500083E0089581E008952091F5023091F602F3
:104E60002617370748F06115710539F42091E800DD
:104E70002E772093E80001C0B901FC0120E0611504
:104E8000710591F18091EE02882309F440C08530CC
:104E900009F43FC08091E80083FD3DC08091E800A7
:104EA00082FD2FC08091E80080FFE9CF2091F300C0
:104EB0008091F20090E0922B6115710559F08830D5
:104EC000910540F424912093F100319661507109CD
:104ED0000196F2CF21E0089709F020E08091E800E8
:104EE0008E778093E800CBCF2111CCCF0AC0809180
:104EF000EE02882361F0853061F08091E80083FD47
:104F00000AC08091E80082FFF2CF80E0089582E03D
:104F1000089583E0089581E00895982F973068F50B
:104F20009093E900981739F07091EC002091ED0012
:104F30005091F00003C0242F762F50E021FD02C0D5
:104F40009F5FECCF3091EB003E7F3093EB003091D0
:104F5000ED003D7F3093ED003091EB0031603093F8
:104F6000EB007093EC002093ED005093F000209143
:104F7000EE0027FDE5CF80E008958F708093E90073
:104F800081E008958091EF0287FF11C08091E800D1
:104F900082FD05C08091EE028111F8CF11C0809191
:104FA000E8008B770BC08091EE02882349F0809156
:104FB000E80080FFF8CF8091E8008E778093E800CA
:104FC00008952091E4003091E50095E64091EC00D1
:104FD000842F817040FF23C08091E80080FD1DC0B8
:104FE0008091EE02882399F0853099F08091EB0052
:104FF00085FD11C04091E4005091E500241735076C
:1050000029F3915011F09A01E1CF84E0089582E0F4
:10501000089583E0089581E0089580E00895409127
:10502000E80042FFDDCF08950E9482280E948A286E
:10503000E0EEF0E0808181608083E8EDF0E0808147
:105040008F77808319BCA7EDB0E08C918E7F8C9315
:1050500080818F7E80831092ED0208950F931F93BD
:10506000CF93DF930E9482280E948A28C8EDD0E067
:1050700088818F77888388818068888388818F7D05
:10508000888319BC1092EE021092EA021092EC0290
:105090001092EB0200EE10E0F80180818B7F80839C
:1050A00088818160888342E060E080E00E948D27F3
:1050B000E1EEF0E080818E7F8083E2EEF0E080819F
:1050C00081608083808188608083F80180818E7F09
:1050D0008083888180618883DF91CF911F910F91B8
:1050E0000895E8EDF0E080818F7E8083E7EDF0E0C9
:1050F00080818160808384E082BF81E08093ED02C3
:105100000C942E28E8EDF0E080818E7F8083109251
:10511000E20008951092DA001092E10008951F92C3
:105120000F920FB60F9211242F933F934F935F93DB
:105130006F937F938F939F93AF93BF93EF93FF935F
:105140008091E10082FF0BC08091E20082FF07C0E6
:105150008091E1008B7F8093E1000E94052B80917C
:10516000DA0080FF1FC08091D80080FF1BC08091B3
:10517000DA008E7F8093DA008091D90080FF0DC025
:1051800080E189BD82E189BD09B400FEFDCF81E0E7
:105190008093EE020E94642405C019BC1092EE02B6
:1051A0000E9472248091E10080FF19C08091E2008A
:1051B00080FF15C08091E2008E7F8093E200809195
:1051C000E20080618093E2008091D8008062809349
:1051D000D80019BC85E08093EE020E94762480916D
:1051E000E10084FF30C08091E20084FF2CC080E1A8
:1051F00089BD82E189BD09B400FEFDCF8091D80050
:105200008F7D8093D8008091E1008F7E8093E100B4
:105210008091E2008F7E8093E2008091E2008160C5
:105220008093E2008091EA02882311F084E007C0B5
:105230008091E30087FD02C081E001C083E080939C
:10524000EE020E9477248091E10083FF29C08091C3
:10525000E20083FF25C08091E100877F8093E10019
:1052600082E08093EE021092EA028091E1008E7F4C
:105270008093E1008091E2008E7F8093E200809134
:10528000E20080618093E20042E060E080E00E9402
:105290008D278091F00088608093F0000E94752433
:1052A000FF91EF91BF91AF919F918F917F916F91FE
:1052B0005F914F913F912F910F900FBE0F901F90D4
:1052C00018951F920F920FB60F9211242F933F93B0
:1052D0004F935F936F937F938F939F93AF93BF93FE
:1052E000CF93DF93EF93FF93C091E900CF7080914C
:1052F000EC00D82FD17080FDD0E81092E9008091A9
:10530000F000877F8093F00078940E94A529109286
:10531000E9008091F00088608093F000CD2BCF7081
:10532000C093E900FF91EF91DF91CF91BF91AF91D1
:105330009F918F917F916F915F914F913F912F91AD
:105340000F900FBE0F901F9018951F93CF93DF9370
:10535000CDB7DEB7AA970FB6F894DEBF0FBECDBFAC
:10536000EFEEF2E08091F100819322E0E73FF20757
:10537000C9F70E948C248091E80083FF2EC18091A0
:10538000EF029091F002492F50E04A30510508F0A9
:1053900024C1FA01ED57FF4F0C94472B803821F0C0
:1053A000823809F01AC108C08091EB029091EC029A
:1053B000992389F082600FC08091F3028F7087304B
:1053C00008F00BC18093E9008091EB0085FB8827F2
:1053D00080F91092E9009091E800977F9093E8009F
:1053E0008093F1001092F100D1C0282F2D7F09F099
:1053F000F4C0882319F0823061F0EFC08091F1028F
:10540000813009F0EAC0933009F080E08093EC022B
:105410002EC08091F10281112AC08091F3028F7019
:105420002FEF280F263008F0D8C08093E900209194
:10543000EB0020FF1CC0933021F48091EB008062D0
:1054400014C09091EB0090619093EB0021E030E06C
:10545000A90102C0440F551F8A95E2F74093EA0064
:105460001092EA008091EB0088608093EB0010922C
:10547000E9008091E800877F8093E8000E94C227BE
:10548000ACC08111AAC01091F1021F778091E30096
:105490008078812B8093E3008091E800877F809360
:1054A000E8000E94C2278091E80080FFFCCF809135
:1054B000E30080688093E300111102C082E001C024
:1054C00083E08093EE0289C08058823008F085C066
:1054D0008091F1029091F2028C3D53E0950779F5AD
:1054E00083E08A838AE289834FB7F894DE011396BA
:1054F00020E03EE051E2E32FF0E050935700E491CA
:1055000020FF03C0E295EF703F5FEF708E2F90E0B9
:10551000EA3010F0C79601C0C0968D939D932F5F1F
:10552000243149F74FBF8091E800877F8093E800DE
:105530006AE270E0CE0101960E94CE2616C060910C
:10554000F3027091F402AE014F5F5F4F0E94CA25D3
:10555000BC01892B09F441C09091E800977F90939A
:10556000E80089819A810E942C278091E8008B773E
:105570008093E80032C0803881F58091E800877F11
:105580008093E8008091EA028093F1008091E80026
:105590008E7772CF811121C08091F1029091F20239
:1055A00099270297D4F48091E800877F8093E800E0
:1055B0008091F1028093EA020E94C2278091EA0260
:1055C000811106C08091E30087FD02C081E001C027
:1055D00084E08093EE020E9478248091E80083FFAB
:1055E0000AC08091E800877F8093E8008091EB00FB
:1055F00080628093EB00AA960FB6F894DEBF0FBED0
:10560000CDBFDF91CF911F9108950895CF938091E1
:10561000EE028823A1F0C091E900CF709091EC00D8
:10562000892F817090FD80E8C82B1092E90080914D
:10563000E80083FD0E94A529CF70C093E900CF91B7
:1056400008950E9414281092EE020895E8EDF0E00B
:105650008081806180838AE18A95F1F700C0809122
:10566000D9008170089597FB072E16F4009407D097
:1056700077FD09D00E94542B07FC05D03EF490958D
:1056800081959F4F0895709561957F4F0895EE0F16
:10569000FF1F0590F491E02D09946927962769274B
:1056A0007827872778270895AA1BBB1B51E107C0DD
:1056B000AA1FBB1FA617B70710F0A61BB70B881FA2
:1056C000991F5A95A9F780959095BC01CD01089531
:1056D000FB01DC0104C08D910190801921F441503F
:1056E0005040C8F7881B990B0895FB01DC0102C0EC
:1056F00001900D9241505040D8F70895F999FECF8E
:1057000092BD81BDF89A992780B50895A8E1B0E0CF
:1057100042E050E00C94B22B262FF999FECF92BDB7
:1057200081BDF89A019700B4021639F01FBA20BD66
:105730000FB6F894FA9AF99A0FBE08950396272F98
:105740000E948D2B0E948C2B252F0E948D2B242FA5
:105750000C948D2B0196272F0E948D2B0C948C2B53
:10576000DC01CB01FC01F999FECF06C0F2BDE1BD21
:10577000F89A319600B40D9241505040B8F7089510
:04578000F894FFCFCB
:1057840001090000000009000000010400000000FD
:1057940004000000520233946697C6343591903267
:1057A4003600000000000001E102000000010000DA
:1057B4000000E1020000000501000000E102000019
:1057C400000106000000E1020000000107000000E3
:1057D400E10204080000000000002808641E140A06
:1057E400321EBC231024F123ED23E92301339466F4
:1057F40097C63435E200E900EA00B500B600B70008
:10580400CD008301CC008A0192019401210223027C
:1058140024022502260227022A02B300B4006F00E4
:105824007000818283E200E900EA00B500B600B7A7
:1058340000CD008301CC008A01920194012102234E
:105844000224022502260227022A02B300B4006FB2
:105854000070008182837C0200FF0100010000FFD0
:10586400FF0000010001FF0040227BA60409042B75
:0858740004AE03C703E70300C3
:00000001FF
