:100000000C94A2020C94E9020C94E9020C94E9020B
:100010000C94E9020C94E9020C94E9020C94E902B4
:100020000C94E9020C94E9020C94ED280C94BF297D
:100030000C9485230C94E9020C94E9020C94E902D7
:100040000C94E9020C94E9020C94E9020C94E90284
:100050000C94E9020C94DE230C94E9020C94E9025E
:100060000C94E9020C94E9020C94E9020C94E90264
:100070000C94E9020C94E9020C94E9020C94E90254
:100080000C94E9020C94E9020C94E9020C94E90244
:100090000C94E9020C94E9020C94E9020C94E90234
:1000A0000C94E9020C94E9020C94E9028606860697
:1000B000B806B80605072307060806082E079607A0
:1000C000A707A707A608A608B808B808AF08B80881
:1000D000B808B808A608A608B408B808B808B4084C
:1000E000381E3B1E5B1E6C1E741E7F1E821E851EEC
:1000F000881ECE1ECE1E8B1E8E1E931EA01EAD1EF3
:10010000B01EB41EC11E2C2A532A4B2B532A4B2B34
:100110009F2AC22A4B2B192B282B07634236B79BE9
:10012000D8A71A39685618AEBAAB558C1D3CB7CC57
:100130005763BD6DEDFD753EF6177231BF000000CF
:10014000803F05A84CCDB2D44EB93836A9020C5028
:10015000B9918688083CA6AAAA2ABE000000803F62
:1001600000001C0018000C00120013002A00000000
:100170000B000D000E000F002D00280000001100E4
:10018000100036003700520038002C422C002C00A2
:10019000E400500051004F0000002300240025001F
:1001A000260027002A00000023022402250226023E
:1001B000270228000000350089002F1230122D126E
:1001C000E5002C422C002C00E400500051004F00B0
:1001D00000003F0040004100420043004C0000008E
:1001E0005000510052004F002E0028000000C85C53
:1001F000C95C2F0030003100E5002C422C002C009F
:10020000E400500051004F0000000000000000001A
:100210002A2B280000000000000000000000000061
:1002200000000029000000002C1E3420212224346C
:100230002627252E362D3738271E1F20212223243E
:1002400025263333362E37381F0405060708090ADA
:100250000B0C0D0E0F101112131415161718191A76
:100260001B1C1D2F3130232D350405060708090AF4
:100270000B0C0D0E0F101112131415161718191A56
:100280001B1C1D2F3130354C000000000000000009
:10029000000000000000000000000000000000005E
:1002A0000000000000000000000000007E0F00D4ED
:1002B000FFFFFFC70000007800047F3F1F64321477
:1002C000643214783C1E1E140A05FFAA7F554000B4
:1002D0000101010101010101010202020202020207
:1002E00002020303030303030303040404040404DA
:1002F00004050505050506060606060707070707A0
:1003000008080808090909090A0A0A0B0B0B0C0C52
:100310000C0D0D0D0E0E0E0F0F0F101011111112EE
:100320001213131414151516161717181819191A6D
:100330001A1B1B1C1D1D1E1E1F20202122222324D0
:1003400024252626272829292A2B2C2D2D2E2F300F
:10035000313232333435363738393A3B3C3D3E3F23
:10036000404142434445464748494A4C4D4E4F5010
:10037000515354555658595A5B5D5E5F61626465CE
:100380006668696B6C6D6F7072737577787A7B7D58
:100390007E8082838587888A8C8E8F9193959698AC
:1003A0009A9C9EA0A2A3A5A7A9ABADAFB1B3B5B7C8
:1003B000BABCBEC0C2C4C6C9CBCDCFD1D4D6D8DB9F
:1003C000DDDFE2E4E7E9EBEEF0F3F5F8FAFDFF1824
:1003D0000363006F006F006C00360035003000686A
:1003E0000061006C00660000000A036D002E006BC7
:1003F00000690000000403090409025B0003010016
:10040000A0FA090400000103010100092111010003
:10041000012240000705810308000A0904010002C7
:1004200003000000092111010001222200070582BA
:100430000320000107050303200001090402000155
:1004400003000000092111010001227B000705843F
:100450000320000A1201000200000008434D52066A
:100460000100010200010660FF0961A10109621596
:100470000026FF009520750881020963150026FFFC
:1004800000952075089102C005010902A1018502AD
:100490000901A10005091901290815002501950880
:1004A000750181020501093009311581257F950209
:1004B0007508810609381581257F95017508810623
:1004C000050C0A38021581257F950175088106C043
:1004D000C005010980A101850319012AB700150192
:1004E00026B700950175108100C0050C0901A10116
:1004F000850419012AA002150126A0029501751094
:100500008100C005010906A101050719E029E715C9
:100510000025019508750181029501750881010585
:1005200007190029FF150026FF00950675088100B0
:1005300005081901290595057501910295017503B5
:100540009101C00011241FBECFEFDAE0DEBFCDBFA6
:1005500004B603FE27C08091B4029091B502A09129
:10056000B602B091B7028730904BA740B04BD1F4A0
:100570001092B4021092B5021092B6021092B70215
:1005800014BE84B7877F84BF0FB6F894A895809176
:100590006000886180936000109260000FBEE0E010
:1005A000F8E3099511E0A0E0B1E0E8E6FFE502C05C
:1005B00005900D92AA3CB107D9F722E0AAECB1E070
:1005C00001C01D92A43BB207E1F70E94F7120C9400
:1005D000B22F0C94000081E0089581E008950C94FE
:1005E000ED0208950C94F1021F93CF93DF9300D096
:1005F00000D01F92CDB7DEB749835A836B83309109
:10060000CC0189819A81311114C0662359F02223CB
:1006100049F00E949C09182F682F89819A810E94B5
:10062000450903C00E947009182F69817A81812FC2
:1006300004C00E949C0969817A810F900F900F90ED
:100640000F900F90DF91CF911F910C949E1FFC0192
:10065000262F408151816281738184810C94F40240
:1006600081E00895CF93DF93EC0160E00E942703BF
:10067000BE01DF91CF910C94F202E1E0F0E0DF01E6
:1006800002C0AA0FBB1F6A95E2F7BD01DF0102C0DD
:10069000AA0FBB1F4A95E2F7AD01462B01C0EE0F32
:1006A0002A95EAF7942F9823491302C08E2B0895B8
:1006B000E0958E230895242F462F682F8091D9012D
:1006C0000E943D030C9402090E9489110E94B50406
:1006D0000C94B9110C94B51108950E9494080E94CD
:1006E0006C032FEF84E39CE0215080409040E1F7C1
:1006F00000C000000C9404240F931F93CF93DF934A
:100700008C0161E00E942703EC01B8010E94901D5A
:10071000882309F44BC0B801CE010E94EF02882360
:1007200009F444C0B801CE010E94D3208823F1F11E
:10073000B801CE010E9425218823C1F1B801CE0164
:100740000E945722882391F1B801CE010E943C1CDF
:10075000882361F1F8018281882309F1CA358DE58A
:10076000D807C1F050F4C115FCE5DF0781F0CE3D9C
:10077000DC45A9F40E94970E19C0CB35EDE5DE07E4
:1007800061F0CC35DD4559F40E94290D08C00E9466
:100790006D030CC00E94320D02C00E94350DC801CD
:1007A000DF91CF911F910F910C94EB0280E0DF91CC
:1007B000CF911F910F910895DF92EF92FF920F93C7
:1007C0001F93CF93DF93E82FF0E0E85FFD4FD490C5
:1007D000282F26952695269530E0F901E855FD4FFE
:1007E0000491877010E0082E02C0159507950A94B1
:1007F000E2F701701127F901E856FD4FE490F12C62
:10080000082E02C0F594E7940A94E2F791E0E922F9
:10081000FF24F901E857FD4FC491D0E002C0D595FF
:10082000C7958A95E2F7C170DD270115110519F00A
:1008300081EE0E940F05E114F10419F086EE0E948A
:100840000F058D2D0E943806EF2819F086EE0E94C4
:10085000B905012B19F081EE0E94B905CD2B51F09D
:100860008CE2DF91CF911F910F91FF90EF90DF907D
:100870000C943806DF91CF911F910F91FF90EF906C
:10088000DF900895EF92FF920F931F93CF93DF9322
:10089000EC01162F0AE08881882309F455C08130C5
:1008A00009F043C08981813041F47E0182E0E80E85
:1008B000F11C8A810E94380609C0823049F47E0109
:1008C000E2E0EE0EF11C8A810E940F05E7012FC0C5
:1008D000833041F47E01F2E0EF0EF11C8A810E9428
:1008E000B905F4CF843011F0219621C02A812296D7
:1008F00080E090E030E0205331092A30310558F48F
:10090000089FA001099F500D1124C901840F951F54
:1009100021962881EFCF009751F0EFE9FFE0319762
:10092000F1F700C000000197F6CF0E94DC0321968A
:10093000812F882309F4AFCFEFE9FFE03197F1F77A
:1009400000C000008150F5CFDF91CF911F910F9132
:10095000FF90EF90089560E00C94420408950C9489
:10096000AE0481E008950C94B1040895CF93C82F8C
:100970000E94AF048C2F0E94B304CF910895CF93AF
:10098000DF93CDB7DEB72B970FB6F894DEBF0FBE5F
:10099000CDBF4F83588769877A878B8761110E9403
:1009A000580D9E012F5F3F4F86E0F90111928A9505
:1009B000E9F785E0FE013796D90101900D928A95FD
:1009C000E1F789819A814C815D81452B31F09F3F10
:1009D00031F491E08F3F19F403C091E001C090E041
:1009E00090FF09C049815A816B817C818D819E81F4
:1009F0000E94580C05C0C9010E9430038111F2CF3A
:100A00002B960FB6F894DEBF0FBECDBFDF91CF910E
:100A10000895FC01808191810E94C9090895CF93B6
:100A2000882309F4A4C0C82F8238C1F40E948D2203
:100A300081FD9DC069E380910001909101010E94B8
:100A400020230E947D0D2FEF81EE94E02150804005
:100A50009040E1F700C0000069E319C0833801F558
:100A60000E948D2280FD83C063E5809100019091FA
:100A700001010E9420230E947D0D2FEF81EE94E062
:100A8000215080409040E1F700C0000063E5809174
:100A90000001909101010E942223CF910C947D0DC1
:100AA0008438C1F40E948D2282FD61C067E4809188
:100AB0000001909101010E9420230E947D0D2FEFE3
:100AC00081EE94E0215080409040E1F700C00000AA
:100AD00067E4DDCF8CEF8C0F813AD0F46C2F8091DE
:100AE0000001909101010E94EA22882349F06C2FB5
:100AF00080910001909101010E9422230E947D0DAE
:100B00006C2F80910001909101010E942023C5CF9C
:100B100080E28C0F883048F4C77081E001C0880FF4
:100B2000CA95EAF70E943B0DB8CFEBE5EC0FE33036
:100B300040F4F0E0EA5AFE4F808190E0CF910C94AF
:100B4000B222E8E5EC0FE73150F4F0E0EE0FFF1FC2
:100B5000E85DFE4F80819181CF910C94C822C03F07
:100B600030F08C2F0E948413CF910C945614CF91A7
:100B70000895882309F464C0823879F40E948D2294
:100B800081FF5EC069E380910001909101010E94A4
:100B900020230E947D0D69E310C08338B1F40E94C8
:100BA0008D2280FF4DC063E580910001909101018D
:100BB0000E9420230E947D0D63E5809100019091A9
:100BC00001010E9422230C947D0D843879F40E9447
:100BD0008D2282FF35C067E4809100019091010170
:100BE0000E9420230E947D0D67E4E7CF9CEF980FC1
:100BF000913A10F4682FE1CF90E2980F983050F4BA
:100C0000877091E001C0990F8A95EAF7892F0E94B9
:100C1000410DD9CF9BE5980F933020F480E090E010
:100C20000C94B22298E5980F973120F480E090E080
:100C30000C94C822803F20F00E94DF130C945614BD
:100C400008951F93CF93DF93182FEB010E940F0598
:100C5000209741F08FE99FE00197F1F700C0000075
:100C60002197F6CF812FDF91CF911F910C94B90579
:100C7000893319F060E070E002C060E570E00C9428
:100C80002106882321F00E943B0D0C947D0D0895D0
:100C9000882321F00E94410D0C947D0D0895CF9280
:100CA000DF92EF92FF920F931F93CF93DF937C011C
:100CB000062FC72FFC01D281158112951F700E944B
:100CC000100D882399F0DD2389F08C2F807F8034EC
:100CD00021F080E2800F883048F082E00E94CD0D44
:100CE0000E94100D91E0D82ED92601C0D12CCC2E17
:100CF000C2948FE0C8228C2D90E08C30910508F0D2
:100D000085C1FC01EA5AFF4F0C94122F8C2F807F73
:100D1000CF70882311F0C295C07FDD2399F0CC23DA
:100D200009F460C180E2800F883010F0011104C026
:100D30008C2F0E943B0D03C08C2F0E944B0D0E94F4
:100D40007D0D50C1802F0E94B905CC2309F45EC1EE
:100D500080E2800F883010F0011104C08C2F0E94B7
:100D6000410D03C08C2F0E94510D0E947D0D4EC17C
:100D70008C2F807FCF70803211F0C295C07F00230E
:100D800019F00130C9F022C0DD2371F0112341F0C8
:100D9000113031F40E945E0D8C2B0E94660D36C11D
:100DA0000E945E0D8C2B1DC0112319F0113009F427
:100DB0002DC10E94730D25C0DD2321F0163008F0EF
:100DC00025C10EC0153008F021C11BC0DD2361F024
:100DD000112331F0F701858180FF04C18F70858375
:100DE0008C2F0E94410612C1112359F0093309F0DA
:100DF0000AC1FFEF27EE83E0F15020408040E1F789
:100E000000C18C2F0E94480601C18C2F86958695C3
:100E1000837019F0813061F0F9C0DD2321F0802F5B
:100E20009C2F937002C080E090E00E94B222F6C036
:100E3000DD2321F0802F9C2F937002C080E090E092
:100E40000E94C822EBC0802FDD2319F00E9484137A
:100E500002C00E94DF130E945614E0C08C2F8370E2
:100E600079F5D111D7C0402F429546954770440F70
:100E7000440F202F2F70042E01C0220F0A94EAF78E
:100E800004FF08C08FE090E001C0880F4A95EAF7A0
:100E9000809501C080E0C695C695C370822BC23094
:100EA00049F058F4C13019F00E94F608B3C00E940E
:100EB000F108B0C00E94FB08ADC00E94EF08AAC0B4
:100EC000DD2319F08C2F817001C08695882309F4E9
:100ED000A1C0402F429546954770440F440F202FE4
:100EE0002F70042E01C0220F0A94EAF704FF08C0F5
:100EF0008FE090E001C0880F4A95EAF7809501C025
:100F000080E0C695C695C370822BC23049F058F474
:100F1000C13019F00E943A097DC00E9435097AC09B
:100F20000E943F0977C00E94020974C0CF70DD2380
:100F300039F08C2F0E941309802F0E9441066AC04D
:100F4000802F0E9448068C2F0E941E0963C0023F1A
:100F500001F128F4003F41F0013FA1F03FC0033F01
:100F6000F9F0043F39F13AC0DD2341F0153008F0C3
:100F70004DC08C2F8F710E942A0948C0163008F08E
:100F800045C0F7CFDD2339F08C2F8F710E941309F4
:100F90003DC0DD23C9F38C2F8F710E941E0936C01E
:100FA000DD2329F08C2F8F710E940B092FC00E9426
:100FB00008092CC0DD2349F0CF718C2F0E94130942
:100FC00063E08C2F0E94B20D21C081E00E94CD0D04
:100FD0001230E0F082E00E94CD0D18C0DD2331F028
:100FE000112391F2802F0E940F0510C0112399F256
:100FF000093349F49FEFE7EEF3E09150E040F04011
:10100000E1F700C00000802F0E94B90588EF8C0D29
:10101000843020F40E948D220E94B604DD20C9F0A5
:101020000E940C0D80FD15C0F70112820E94060D72
:101030000E941309C7010E944A080E94060DDF9111
:10104000CF911F910F91FF90EF90DF90CF900C9474
:101050001E09DF91CF911F910F91FF90EF90DF90CC
:10106000CF9008950F931F93CF93DF93EC01688186
:1010700079818A810E94D4098C010E9444090E94CE
:10108000E308B801CE010E944F06DF91CF911F9176
:101090000F910895CF93DF93EC01988189812B8183
:1010A0003C81232B31F08F3F31F481E09F3F19F4D5
:1010B00003C081E001C080E080FD19C0CE010E9424
:1010C0007C0381110CC00E94100D882381F08A815D
:1010D000882369F082E0DF91CF910C94CD0DCE0191
:1010E0000E943208CE01DF91CF910C943203DF9140
:1010F000CF91089580E090E00E94B22280E090E0DD
:101100000E94C8220E94580D0E945B0D0E947D0D16
:101110000E9487150C945614809100019091010152
:101120000E9424230C947A080E94480D0C948C0889
:10113000E92FE295EF704E2F50E0FA013297EE3032
:10114000F105B0F4EE59FF4F0C94122F803F91F04F
:1011500018F4883E68F40EC0843F51F40BC0883EFA
:1011600048F0813F29F406C093FB882780F9089551
:1011700080E0089581E00895FC01808191810E94C2
:10118000C9090E9498080895CF93DF9300D000D03A
:101190001F92CDB7DEB70F900F900F900F900F906A
:1011A000DF91CF910895CF93DF9300D000D000D08E
:1011B000CDB7DEB726960FB6F894DEBF0FBECDBF13
:1011C000DF91CF910895089508950C94E4080C944C
:1011D000E5080E94E7088093DA010C947A080C94E1
:1011E000E9089091DA01892B0C94E9089091DA01D1
:1011F00089230C94E9089091DA0189270C94E90875
:101200000C94E4080E9400098093D9010C947A0898
:1012100080E00C94020991E001C0990F8A95EAF7E9
:10122000892F0C94020921E030E001C0220F8A9539
:10123000EAF78091D901822B0C94020921E030E079
:1012400001C0220F8A95EAF720958091D901822367
:101250000C94020921E030E001C0220F8A95EAF7E0
:101260008091D90182270C9402099091D901892B90
:101270000C9402099091D90189230C940209909150
:10128000D90189270C940209089527E0929F800DC7
:101290001124E82FE695E695E695877051E001C0A8
:1012A000550F8A95EAF783E0E89FF0011124E35394
:1012B000FE4F20E030E070E04081CB01022E02C002
:1012C000969587950A94E2F7817081958427852306
:1012D000842781932F5F3F4F2330310569F70895AD
:1012E00027E0929F800D1124682F6695669566957C
:1012F000982F977083E0689FB001112440E050E080
:1013000080E0FB01E40FF51FE353FE4F208130E046
:10131000092E02C0369527950A94E2F721703327EB
:10132000042E01C0220F0A94EAF7822B4F5F5F4F11
:101330004330510531F70895CF92DF92FF920F931A
:101340001F93CF93DF936C010091D9018091DA0153
:10135000082BC7E0D0E010E0C8010C2E02C0959524
:1013600087950A94E2F780FD04C02197A8F7F12C35
:1013700007C0FC2EB6018C2F0E9493100197A9F391
:101380008F2DDF91CF911F910F91FF90DF90CF9024
:101390000895CF93DF93EC010E949C09BE010E9447
:1013A0009310DF91CF9108951F93CF93DF93EB01BB
:1013B0009091CC01992321F0CB010E94C90913C05F
:1013C000882349F0CB010E949C09182F682FCE0179
:1013D0000E94450904C0CB010E947009182FBE016C
:1013E000812F0E949310DF91CF911F9108951F9339
:1013F000CF93DF93C091DB0116E08091DC01C81729
:1014000099F0D0E01C9FF0011D9FF00D1124E352D4
:10141000FE4F4081518162817381848195810E9458
:10142000D3082196C770E9CFDF91CF911F9108951E
:1014300040910D0250910E0260910F0270911002C6
:1014400080911102909112020C94D3080F931F9374
:10145000CF93DF938091120282958F7009F05DC067
:1014600080910F02882309F458C08091DB0110910C
:10147000DC0160910D0270910E02C0911002D091BA
:10148000110291E06F3F09F090E0292F06E08117EB
:1014900009F443C0209721F07F3F21F030E003C0E2
:1014A00031E001C0322F90E030FD34C0089FF001E0
:1014B000099FF00D1124DF01A352BE4F11963C91FC
:1014C0001197371327C03C91361324C012963C91D4
:1014D000129731111FC013964D915C9114974C1BBC
:1014E0005D0B483C5105B0F4809112028F70806111
:1014F00080931202EE51FE4F80818F708061808355
:101500008DE092E00E944A08DF91CF911F910F91E8
:101510000C94F70901968770BACFDF91CF911F9194
:101520000F9108959F92AF92BF92CF92DF92EF9268
:10153000FF920F931F93CF93DF93CDB7DEB76197E1
:101540000FB6F894DEBF0FBECDBF8C0185E0F80169
:10155000DE011D9601900D928A95E1F7F801E28077
:1015600090910D0260910E022091100230911102B3
:101570002115310531F06F3F31F481E09F3F19F4BF
:1015800003C081E001C080E0F82FF1709F2E80FD44
:101590003FC1F80140815181A380B4808DE0C82E05
:1015A00082E0D82EF0900F02F501E21BF30BFF2032
:1015B00009F4D9C080911202E83CF10508F095C009
:1015C000282F207F09F052C0561313C0491311C0B1
:1015D000FE2CE1100EC08F708061809312020E9479
:1015E000180AC6010E944A0880911202F8018583F8
:1015F0004CC1AB2831F05F3F31F481E04F3F19F42B
:1016000003C081E001C080E080FD03C081E08E2541
:1016100002C080E090E0F82FF170FF2E80FF1CC028
:101620008091DB012091DC0136E0821709F40BC1C7
:1016300090E0389FF001399FF00D1124E352FE4FE6
:101640006181561306C06081461303C06281E612B1
:1016500003C001968770E9CFFE2CEE2009F415C176
:101660008091120281608093120254C0561306C00A
:10167000491304C0E11002C0F80199C0C8010E94DA
:10168000BC08882361F1EE2051F120911202822FD3
:1016900082958F7090E0029774F080910D02909186
:1016A0000E0298878F831986BB86AA862C87CE0167
:1016B00007960E944A0886E0F801ADE0B2E001908A
:1016C0000D928A95E1F70E94260A0E94180A0AC024
:1016D000561711F1C8010E94BC0881112CC0C80125
:1016E0000E944A08FF24F394D0C0282F207F81F75E
:1016F0007A2DB98AA88A6E2D89890E94C4088DE046
:1017000092E00E944A0886E0F60111928A95E9F774
:101710000E94180AF12CB9C04913DCCFE110DACFCE
:10172000F8018583C8010E944A0886E0F6011192FB
:101730008A95E9F7AAC0EE2091F220911202822F39
:1017400082958F7090E002970CF4B5CF80910D02D6
:1017500090910E029A8389831B82BD82AC822E8374
:10176000CE010196A6CFE83CF10508F044C0FE2C5E
:10177000EE2009F4B4CF561330C049132EC0209187
:10178000120220FD21C0822F82958F70482F50E0D9
:1017900041155105C9F0F80125834F30510541F03D
:1017A0008F5F982F9295907F822F8F70892B8583E2
:1017B000C8010E944A0886E0F801ADE0B2E001905D
:1017C0000D928A95E1F73CC086E0F801ADE0B2E009
:1017D00001900D928A95E1F758C0C8010E94BC089B
:1017E000811169CF80911202816080931202C80139
:1017F0000E944A084AC07A2DB98AA88A6E2D898922
:101800000E94C40886E0F60111928A95E9F718C093
:10181000EE2009F464CFC8010E94BC08F82E88238A
:1018200009F45DCF86E0F801ADE0B2E001900D92E1
:101830008A95E1F78DE092E00E9409050E94260A50
:101840000E94180A22C04D875E878D859E850E9462
:10185000C909292F22952F70223028F49F7039F062
:10186000811105C00BC0243028F49F7049F4805EBC
:10187000883020F0C8010E944A089F2CF92C05C02E
:10188000F8019581907F99F7F9CF8F2D61960FB66A
:10189000F894DEBF0FBECDBFDF91CF911F910F91A6
:1018A000FF90EF90DF90CF90BF90AF909F90089502
:1018B0001F93CF93DF93CDB7DEB72C970FB6F89475
:1018C000DEBF0FBECDBF4F83588769877A878B876E
:1018D0009C87CE0107960E94920A8823D1F09F81AF
:1018E00088852A853B85232B31F08F3F31F481E0B9
:1018F0009F3F19F403C081E001C080E080FD47C034
:101900004F81588569857A858B859C850E94D3088F
:101910003EC086E0FE013796DE01119601900D92E1
:101920008A95E1F7FF81E8856A857B8561157105F8
:1019300031F0EF3F31F481E0FF3F19F403C081E063
:1019400001C080E080FD23C02091DC0130E0C901AE
:101950000196877099274091DB0150E08417950725
:10196000F1F1F983EA837D836C8396E0929FD00145
:10197000939FB00D1124A352BE4FFE0131960190EA
:101980000D929A95E1F78093DC010E94F70916E029
:101990008091DB019091DC01891771F1189FC001E2
:1019A000112483529E4F0E94920A882329F1E091CC
:1019B000DB011E9FF0011124E352FE4F4081518153
:1019C00062817381848195810E94D3088091DB01BB
:1019D00090E00196877099278093DB01D9CF0E9410
:1019E00094081092DC011092DB01EDE0F2E086E059
:1019F000DF011D928A95E9F72C960FB6F894DEBFA9
:101A00000FBECDBFDF91CF911F910895809113023A
:101A10008595859585950895809113028770089521
:101A200090911302977081E009F480E008959091FD
:101A3000650292FB222720F9281751F080FB92F9CA
:101A40009093650280916402909165020C94140E4B
:101A500008958091650282FB882780F991E08927AB
:101A60000C94170D81E00C94170D80E00C94170D69
:101A700080911F02089590911F02892B80931F026D
:101A80000895809590911F02892380931F020895E5
:101A900010921F02089590911E02892B80931E02BE
:101AA0000895809590911E02892380931E020895C7
:101AB00010921E02089510921D0208958091140242
:101AC000089508950C94610D0C94620D9091650237
:101AD00092FD08C090911402981721F0809314028F
:101AE0000C94640D089580911402882329F01092BB
:101AF000140280E00C94640D0895E0910001F091CF
:101B0000010180911F028083E0910001F0910101A9
:101B1000908180911E02892B8083E0910001F091D9
:101B20000101908180911D02892B80838091140294
:101B3000882381F0E0910001F09101019081892BCF
:101B4000808380910001909101010E94DE22811129
:101B50000E94730D80910001909101010C949922D3
:101B60000C94610D9091650292FD10C098E0899FE0
:101B700090011124262B209313020E9413098091B7
:101B800013028595859585950C94B00D0C941309D9
:101B90001092130280E00C94B00D209113028095F6
:101BA000822380931302982F977041F430E0482FDE
:101BB000082E000C550B2417350721F4909165026F
:101BC00092FF07C08595859585950E941E090C9406
:101BD000C80D08956FEF7FEF80E090E00C949C2F8C
:101BE00080E090E00E94782F893E9E4F11F40C9483
:101BF000331D80E0089582E090E00C946A2F83E02A
:101C000090E00C946A2FCF9384E090E00E946A2FBA
:101C1000C82F82E290E00E946A2F2C2F30E0A901A9
:101C2000582BCA01CF910895CF93C92F682F84E014
:101C300090E00E947E2F6C2F82E290E0CF910C9476
:101C40007E2FAB01BC018FE090E00C94902FAB0194
:101C5000BC0183E190E00C94902F60E070E0CB0138
:101C60000C94270E60E070E0CB010E94210E0C94D2
:101C70002D0E69EE7EEF80E090E00E949C2F60E0E8
:101C800082E090E00E947E2F60E083E090E00E947E
:101C90007E2F1092DA0160E084E090E00E947E2FB7
:101CA00060E082E290E00E947E2F60E085E090E0BC
:101CB0000E947E2F60E086E090E00E947E2F6FEF12
:101CC00087E090E00E947E2F40E050E0BA0188E07B
:101CD00090E00E94902F60E08DE090E00E947E2FC7
:101CE00040E050E0BA0188E190E00E94902F60E06F
:101CF00087E190E00E947E2F40E050E0BA018CE145
:101D000090E00E94902F60E070E080E290E00E94FE
:101D10009C2F40E050E0BA0188E190E00E94902FB3
:101D200080E00E944C1D0E94781D0C94320E0C9491
:101D3000390E682F8EE090E00C947E2F0E94C32312
:101D40006093290270932A0280932B0290932C02B5
:101D500060932502709326028093270290932802B5
:101D6000089585B7806885BF85B7806885BF089569
:101D700081E008950C94B80E08950C94BC0E0C9458
:101D8000BC0E0C94BF0E0C94BC0E0C94C30E0C94A1
:101D9000BC0E0E94B10E8FE691E10E9415240E94B4
:101DA000C70E0C94C50E0E94BD0E0C94BC0E0E9472
:101DB000AE230E94871D0E9466120E944A1B0C944B
:101DC000C10E9F92AF92BF92CF92DF92EF92FF929D
:101DD0000F931F93CF93DF93CDB7DEB72A970FB63C
:101DE000F894DEBF0FBECDBF0E947E1281110E940B
:101DF0009E0E81E2A82E82E0B82E00E010E0902E28
:101E0000802F0E94A311D82EF501C1905F01C82632
:101E1000B1F40F5F1F4F0430110589F78FEF8983ED
:101E20008A831B820E94B7238160782F9D838C83D5
:101E300049815A816B818D810E94BF042FC080919E
:101E40002D0281FD0E94A911E12CFF24F3948C2D19
:101E50008F21F1F00E94BA0E882399F0EE829F82C2
:101E6000DF2081E009F480E088870E94B723816049
:101E7000782F9A8789874E815F8168858A850E943D
:101E8000BF04F801EF5DFD4F8081F826F08206C0A7
:101E9000E394FF0CF7E0EF12DACFBBCF0E948E1B6A
:101EA0000E9474140E948D22909120028917B9F02B
:101EB0000E948D22809320022A960FB6F894DEBFEE
:101EC0000FBECDBFDF91CF911F910F91FF90EF908B
:101ED000DF90CF90BF90AF909F900C94B6042A965D
:101EE0000FB6F894DEBF0FBECDBFDF91CF911F912B
:101EF0000F91FF90EF90DF90CF90BF90AF909F90A9
:101F00000895CF93DF930E949810EC01811521E58D
:101F1000920708F045C0811530E5930708F094C09A
:101F2000883E910528F5803E910508F0F8C0883A72
:101F3000910570F4853A910508F07CC081309105D7
:101F400009F475C008F4E8C0049708F0E8C0E4C0DC
:101F50008F3B910508F0E0C0C85AD0E0CC0FDD1FE0
:101F6000C75ADE4F0990D881C02DCE019464D8C0E5
:101F7000811540E2940758F4811551E0950708F067
:101F8000CEC0803F910508F4C7C09065C9C0C11597
:101F900080E4D80708F4C0C0DF70CE01906AC0C0EA
:101FA000811525E59207A8F4811534E5930708F01B
:101FB00095C0811543E5940708F07BC0811552E573
:101FC000950708F061C0D82FCC27CE01816F906AA9
:101FD000A7C0C11589E5D807A0F4C11528E5D20727
:101FE00008F082C0C11536E5D30708F095C08C2FE4
:101FF0000E942C118F7190E0D82FCC27CE019062D7
:102000008FC0C1154AE5D40708F474C0CE019056BC
:102010008115904208F080C08D2F8F710E942C1185
:10202000DD27D0628F71AE01582BCA0179C081E0E3
:1020300090E076C0C55AD0E0C957DE4F8881C82FDE
:10204000D0E0CE0190646CC074E0969587957A9547
:10205000E1F7282F23703C2F337081E090E002C01D
:10206000880F991F3A95E2F79C68AC01522B9A01B0
:102070009C2F9F709695969550E2959FE0011124B4
:10208000C9018C2B9D2B4CC08370992721E030E037
:1020900002C0220F331F8A95E2F79C2F96959695E2
:1020A00080E2989FE0011124C22BD32BCE019C68C3
:1020B00037C08370992721E030E002C0220F331F20
:1020C0008A95E2F79C2F9695969540E2949FE001C1
:1020D0001124C22BD32BCE019A6822C0D82FCC2733
:1020E000CE01846F906A1CC0DC2FCC27CE01806F9C
:1020F000906A16C08C2F8F700E942C1194E0D69598
:10210000C7959A95E1F7CF70D0E0DC2FCC27D06946
:102110009E01282BC90104C080E090E001C0CE01DF
:10212000DF91CF9108950E949E1F0E94810F089514
:102130008238910569F1B0F48133910509F46DC0DD
:1021400048F48932910509F463C08A32910509F493
:1021500069C008958533910509F455C08933910507
:10216000B9F00895833E910569F138F4803E9105F8
:10217000B1F0823E910509F10895863E9105A9F1DD
:10218000873E9105B9F1843E910509F064C023C0F2
:102190002091640220FD4FC021FD4DC00895809123
:1021A000640280FD44C08091650280FF44C080913C
:1021B000640284FD42C083EE4DC08091640282FFC0
:1021C00038C0F5CF8091640282FD33C080916502F2
:1021D00080FD31C0ECCF8091650281FF32C08091DB
:1021E000640284FD2AC087EE35C08091640283FFBB
:1021F00026C0F5CF8091640283FD21C080916502E5
:1022000081FD1FC0ECCF8091640285FD1CC01DC004
:102210008091640285FD19C016C08091640286FD1C
:1022200016C017C08091640286FD13C010C089E3F8
:1022300011C082EE0FC080EE0DC080E00BC086EEB4
:1022400009C084EE07C089E205C085E303C08AE2C5
:1022500001C081E390E008959091640292FF0DC067
:10226000282F2871283019F4877F846006C0282F12
:102270002471243011F48B7F886093FF0DC0282FC8
:102280002871283119F4877E846106C0282F2471B3
:10229000243111F48B7E88612091650220FF0DC0EE
:1022A000382F3871383019F4877F816006C0382F95
:1022B0003171313011F48E7F886021FF0DC0282FDD
:1022C0002871283119F4877E816106C0282F217179
:1022D000213111F48E7E886194FD877E089580E01F
:1022E00008950C94EA0D0E947E128FE39CE90197F9
:1022F000F1F700C000000E947E1280E00E94A3114E
:1023000080FF04C00E9471110C94042408950C9461
:1023100073110E94F00D811102C00E94970E0E945D
:10232000FB0D80932D020E94030E90936502809313
:1023300064020E9487110E94FF0D0E94EF088091A5
:10234000D9010C940009E82FF0E0E659FD4F808197
:102350000895089580EA8A95F1F7089500C00895D8
:102360000C94AA1108950C94B2110C94B3110C940E
:10237000B2110C94B711F894E82FE295EF70F0E0E9
:1023800031A1282F2F7081E090E001C0880F2A959D
:10239000EAF7982F9095932391A392A1892B82A37A
:1023A000789408950F931F93CF93DF93CAE8D1E0F9
:1023B00089918F3F11F00E94BB1181E0C139D8078C
:1023C000B9F7C1E9D1E005E911E089918F3F11F03A
:1023D0000E94BB110C171D07C1F7DF91CF911F9110
:1023E0000F910895DF92EF92FF920F931F93CF9377
:1023F000DF93062F10E006571E4FE80128812F3F7C
:1024000009F45CC0F62EE92ED82EF894E22FE2955E
:10241000EF70F0E081A12F70C1E0D0E0AE0102C00A
:10242000440F551F2A95E2F79A01842B81A382A1BC
:102430002095282322A378940E94AE110F2C01C06E
:10244000CC0F0A94EAF73C2F6C2F6095A1E9B1E01C
:10245000ED2DFE2DAF014C5F5F4FE12C2D912F3FF5
:10246000A9F0822F82958F7090E0EC0188A190E016
:102470002F7002C0959587952A95E2F780FD06C0DA
:102480008081832B8083EE24E39403C080818623A4
:1024900080833196E417F50709F7F80180818F3FB3
:1024A00011F00E94BB116E2D8F2DDF91CF911F91E6
:1024B0000F91FF90EF90DF900C94B011DF91CF91CE
:1024C0001F910F91FF90EF90DF9008950E94D2111D
:1024D000A6E6B2E01C92EAE6F2E0108211961C92A7
:1024E0001197118212961C921297128213961C92C7
:1024F000138284E00E94C0120C9464031F93CF9354
:10250000DF9300D000D0CDB7DEB719821A821B82CC
:102510001C8210E0612FCE0101960E94F2111F5F14
:102520001730C1F744E050E0BE016F5F7F4F86E691
:1025300092E00E945D2F11E0009709F410E0892BD2
:1025400061F089819A81AB81BC818093660290930E
:102550006702A0936802B0936902212F44E06AE603
:1025600072E086E692E00E94C1120E946A03812F07
:102570000F900F900F900F90DF91CF911F910895C2
:102580000895FF920F931F93CF93DF938C01F62E44
:10259000D72FC42F222349F081E0809330020E947C
:1025A000B72390932F0280932E02809130028823CC
:1025B000C1F080912E0290912F020E94CF230597A7
:1025C00080F0EF2DFD2FD8014C2F50E0CD01801B66
:1025D000910B841795071CF48D918193F7CF10927E
:1025E0003002DF91CF911F910F91FF9008950E94CB
:1025F0002B230E94A9250E94C2250E94D4250E9457
:10260000D30EFBCF8091370280FF0BC06091070192
:1026100085E0689FB001112475956795759567955C
:102620002BC081FF09C06091070185E0689FB00160
:1026300011247595679520C082FF07C0609107013E
:1026400085E0689FB001112417C09091360299234C
:10265000D1F060910601961788F72091070185E077
:10266000289F90011124929FA001939F500D112447
:1026700070E0CA010E94DC2E6038710540F46115DB
:10268000710519F406C065E070E0862F08958FE7A4
:10269000089581E008958091370280FF08C060911D
:1026A000030170E0759567957595679521C081FF69
:1026B00006C06091030170E07595679519C082FFAF
:1026C00004C06091030170E010C09091350299231D
:1026D00099F0609102019617A0F780910301899FFC
:1026E000C001112470E00E94DC2E6038710540F4B6
:1026F0006115710519F406C061E070E0862F089538
:102700008FE7089581E00895803F21F40E9402132D
:10271000819504C0813F29F40E94021380933B02FB
:102720000895823F21F40E940213819504C0833FE3
:1027300029F40E94021380933A020895893F19F404
:102740000E944B1305C08A3F31F40E944B138195C0
:1027500080933C0208958B3F21F40E944B13819596
:1027600004C08C3F29F40E944B1380933D020895CE
:102770009CE0980F953078F421E030E0A90102C088
:10278000440F551F9A95E2F7CA0190913902892B9F
:102790008093390208958D3F21F480913702816042
:1027A0000BC08E3F21F480913702826005C08F3FBD
:1027B00029F4809137028460809337020895803F26
:1027C00039F490913B0297FF35C010923B0259C0FB
:1027D000813F29F490913B021916BCF32BC09091D4
:1027E0003A02823F29F497FF25C010923A0249C06D
:1027F000833F19F41916CCF31DC090913C02893F18
:1028000029F41916BCF410923C023BC08A3F19F41B
:1028100097FF10C0F8CF8B3F39F490913D0297FF9E
:1028200009C010923D022DC08C3F21F490913D02D1
:102830001916BCF39CE0980F953080F421E030E04D
:10284000A90102C0440F551F9A95E2F7CA0180956D
:102850009091390289238093390213C08D3F21F46E
:10286000809137028E7F0BC08E3F21F4809137021A
:102870008D7F05C08F3F29F4809137028B7F809335
:10288000370280913A02811106C080913B0281118A
:1028900002C01092360280913C02811106C08091E4
:1028A0003D02811102C01092350208950E94B723A3
:1028B00020913A02211104C020913B02222321F0F1
:1028C000909334028093330220913C02211104C082
:1028D00020913D02222321F0909332028093310215
:1028E00088E392E00C94A422EF92FF920F931F933F
:1028F000CF93DF9300D000D000D0CDB7DEB786E015
:10290000E8E3F2E0DE01119601900D928A95E1F77D
:10291000E0903A02F0903B0200913C0210913D029F
:1029200010923A0210923B0210923C0210923D0229
:10293000E11003C0FF2009F45DC080913302909143
:1029400034020E94CF23AC0190913602992339F0D2
:102950002091080130E02417350758F04BC0209132
:1029600009018AE0289F900111242417350718F0E7
:1029700041C09F3F19F09F5F90933602EE2061F0B7
:102980000E9402131E1414F09FEF01C091E0989F63
:10299000902D112490933A02FF2061F00E940213BF
:1029A0001F1414F09FEF01C091E0989F902D112407
:1029B00090933B0230913A023323E1F020913B02A5
:1029C0002223C1F045EB3403C0011124992319F0EF
:1029D00090933A0203C081E080933A0235EB2303DF
:1029E000C0011124992319F090933B0203C081E0A8
:1029F00080933B02011103C0112309F45DC0809153
:102A00003102909132020E94CF23AC0190913502A5
:102A1000992339F02091040130E02417350758F04C
:102A20004BC0209105018AE0289F900111242417B2
:102A3000350718F041C09F3F19F09F5F9093350212
:102A4000002361F00E944B13101614F09FEF01C099
:102A500091E0989F902D112490933C02112361F0F6
:102A60000E944B13111614F09FEF01C091E0989F44
:102A7000902D112490933D0230913C023323E1F0DC
:102A800020913D022223C1F045EB3403C001112403
:102A9000992319F090933C0203C081E080933C029B
:102AA00035EB2303C0011124992319F090933D02C3
:102AB00003C081E080933D0280913A0281110BC0F6
:102AC00080913B02811107C080913C02811103C0BB
:102AD00080913D0281110E945614EB82FC820D838D
:102AE0001E8386E0FE013196A8E3B2E001900D92CC
:102AF0008A95E1F726960FB6F894DEBF0FBECDBFDC
:102B0000DF91CF911F910F91FF90EF900895E8E32F
:102B1000F2E086E0DF011D928A95E9F71092360215
:102B200010923502109237020895EF92FF920F93A0
:102B30001F93CF93DF938B01682F11110AC0442399
:102B400029F0E82FF0E0E153FD4F6491762F862FB6
:102B500075C0212F30E0E82FF0E0442321F0E1534D
:102B6000FD4FE491F0E046E0049FC0011124CFEF57
:102B7000D0E0BE010E94C82E4BEA4603C001479F29
:102B8000900D1124800F911D800F911D982F990F8A
:102B9000890FAE01421B530B4E9FD0014F9FB00DCA
:102BA0005E9FB00D11249B2F189FA0011124452F6B
:102BB00055278E01041B150B0E9FA0010F9F500D72
:102BC0001E9F500D11247E01E81AF108E29E80013B
:102BD000E39E100DF29E100D1124212F3327C21BEE
:102BE000D30BCE9F9001CF9F300DDE9F300D11246F
:102BF00062307105A9F048F46115710569F0613022
:102C00007105C9F48B2F752F0DC06430710581F0EB
:102C100058F06630710579F47E2F8B2F932F0DC0FD
:102C2000832F7B2F9E2F09C08E2F7B2F952F05C0C2
:102C30008E2F732F02C07E2F852F692FDF91CF91AA
:102C40001F910F91FF90EF90089541E00E9495151C
:102C5000089508950E9425160895CF93DF93762F47
:102C6000E901682F842F0E942A16798368838A835A
:102C7000DF91CF91089580916E02282F269530E044
:102C80002115310519F48170826005C025323105A6
:102C900024F08170886480936E02089588E090E04B
:102CA0000C94722FCF92DF92EF92FF926B017C0116
:102CB0000E943B16B701A60188E090E0FF90EF90DC
:102CC000DF90CF900C94902F60916E0270916F0204
:102CD00080917002909171020C945216EEE6F2E02F
:102CE00083E0808311828FEF8283838314826081EB
:102CF0007181828193810C94521680916E0280FFC3
:102D000002C08695089580E00895909172029330F4
:102D100018F49F5F90937202882351F060916E02C5
:102D200070916F0280917002909171020C94521612
:102D3000089581E00C94851690917202992319F000
:102D4000915090937202882351F060916E027091BD
:102D50006F0280917002909171020C945216089546
:102D600081E00C949C168091720208958093720207
:102D7000662351F060916E0270916F028091700233
:102D8000909171020C945216089560E00C94B6165E
:102D900080916F0208958091700208958091710270
:102DA000089570E00C94081D60910E0180916E02F0
:102DB00080FF0AC080910D0123E0829FC001112491
:102DC0008D589D4F0C94D11680910F019091100158
:102DD000891780F7E82FF0E09F01220F331FE20FE1
:102DE000F31FED58FD4F1182108212828F5FF0CFDA
:102DF00090916E0290FF16C090910F0120911001EA
:102E0000921770F4E92FF0E0DF01AA0FBB1FEA0F61
:102E1000FB1FED58FD4F8183608342839F5FF0CF9E
:102E20000C94D4160895CF93DF9300D01F92CDB7A2
:102E3000DEB790916E0290FF0AC09E012F5F3F4F58
:102E40000E942D164B8169818A810E94F8160F908D
:102E50000F900F90DF91CF910895CF93DF93EC0106
:102E60006C8170E080E090E00E94C92C20E030E0AE
:102E70004FE753E40E94EC2B2BED3FE049E450E494
:102E80000E94F22D0E945F2E0E94662C2BE43AE3F2
:102E90004EE25FE30E947F2B20EF3BEF48ED52E4D0
:102EA0000E94F22D0E94982C462FEEE6F2E06281FD
:102EB00081810E9413178C818F5F8C83DF91CF916A
:102EC0000895CF93DF93EC01EEE6F2E04381628157
:102ED0008C810E9413178C818F5F8C83DF91CF913F
:102EE00008950F931F93CF93DF9300D01F92CDB718
:102EF000DEB78C0180913E0281110AC09E012F5FD6
:102F00003F4F4FEF6FEF0E942D168A8180933E0254
:102F1000F8018481813051F028F0823061F44091D1
:102F20003E020AC080913E0240E007C060913E022E
:102F300040E080E003C040E080E060E00E94F816DE
:102F4000F801848190E0019663E070E00E94DC2E3D
:102F500084830F900F900F90DF91CF911F910F916D
:102F60000895AF92BF92CF92DF92EF92FF920F93AC
:102F70001F93CF93DF9300D01F92CDB7DEB7182FEA
:102F8000F62E042FE22E90916E0290FF6DC0E92F75
:102F9000E695AE2FB0E0AB56BE4F8C9180934A02BF
:102FA0009E7F923061F49E012F5F3F4F812F0E94E0
:102FB0002D164B8169818A810E94F81643C08230A8
:102FC00019F4009171023EC0863019F410916F021D
:102FD00039C08930D9F38931A9F5E9518E2F817033
:102FE000D82EE695F0E0E653FD4FA590B490C12CA5
:102FF000BB2460911101C61618F52C2D30E0A29E5D
:10300000C001A39E900DB29E900D112470E00E940D
:10301000C82E812FD11002C0860F01C0861B90914F
:103020000F01290F311DA901440F551F240F351F12
:103030002D583D4F402F6F2D0E942D16C394D9CF90
:103040000E94D41610936F02F092700200937102E6
:10305000EE2051F060916E0270916F0280917002CB
:10306000909171020E9452160F900F900F90DF9175
:10307000CF911F910F91FF90EF90DF90CF90BF9075
:10308000AF900895EEE6F2E09181282F43816281AE
:1030900088E0890F0C94B11781E00C944218EEE699
:1030A000F2E09181282F4381628188EF890F0C948F
:1030B000B11781E00C944F18EEE6F2E0628128E04F
:1030C000620F08F46FEF282F438181810C94B117B0
:1030D00081E00C945C18EEE6F2E0628128E0621B6D
:1030E00008F460E0282F438181810C94B11781E0BE
:1030F0000C946B18EEE6F2E0438128E0420F08F4EE
:103100004FEF282F628181810C94B11781E00C94DC
:103110007A18EEE6F2E0438128E0421B08F440E032
:10312000282F628181810C94B11781E00C94891859
:1031300020E00C94B117FF920F931F93CF93DF936E
:10314000EC01F12C0FEF10E060911101F616F0F494
:1031500080910F012F2D30E0280F311DC901880FFC
:10316000991F280F391F2D583D4F70E0C8010E944C
:10317000DC2E962F8C814091710260917002F99E35
:10318000800D11240E942D16F394DECF0E94D416D8
:103190009A818C8190FF02C08F5F01C081508C8327
:1031A000DF91CF911F910F91FF900895BF92CF9221
:1031B000DF92EF92FF920F931F93CF93DF93FC0167
:1031C000828180FF02C00FEF01C001E010E080911A
:1031D0001101181708F040C080910F01C12ED12CA9
:1031E000E601C80FD11DCE01880F991FC80FD91F46
:1031F000CD58DD4F198218821A8234E0E32EF12C6B
:10320000B12C809140028B0D813114F08F7005C07C
:1032100087FF03C090911101890F082E000C990BB4
:10322000C816D90691F4809171028E9DA0018F9DE0
:10323000500D112455954795559547959E016091E0
:10324000700280916F020E942D16B00EF1E0EF1A0D
:10325000F108B9F61F5FBBCF0E94D41680914002DF
:10326000013031F4811102C080911101815007C0F9
:1032700090E001966091110170E00E94DC2E809335
:103280004002DF91CF911F910F91FF90EF90DF905F
:10329000CF90BF900895CF9380910F01909110012E
:1032A000891770F4E82FF0E09F01220F331FE20F1F
:1032B000F31FED58FD4F1182108212828F5FF0CF05
:1032C000C0E060911101C617C0F5EC2FF0E070E08E
:1032D000CF010E94DC2E20910F01820F20913F022E
:1032E000022E000C330B90E0E217F307CCF0209194
:1032F0000C01022E000C330B2E173F078CF09C01A3
:10330000220F331F820F931F9C012D583D4F409178
:1033100071026091700280916F020E942D160BC0A5
:10332000FC01EE0FFF1F8E0F9F1FFC01ED58FD4F9C
:10333000118210821282CF5FC4CF0E94D4162091D6
:103340000B0180913F02820F80933F0290910C010C
:10335000920F90930C0119165CF4082E000C990B37
:103360004091110150E041505109841795071CF01C
:10337000219520930B01CF9108958F929F92AF9248
:10338000BF92CF92DF92EF92FF920F931F93CF9352
:10339000DF938C01FC014481C42FD0E09E01DE014B
:1033A0000E94272F9B01AC010E943D2F6B017C01E5
:1033B000E0E2F0E0EC1BFD0BA5E5B0E09B01AC0109
:1033C0000E943D2F4B015C019F01DF010E941F2FD6
:1033D0009B01AC010E94482F9B01AC012C0D3D1DAF
:1033E0004E1D5F1DC501B4010E94F02EC22FD22FC9
:1033F0002A3228F4F3E02F9F900111240DC025E517
:1034000030E02C1B3109C901880F991F280F391F83
:1034100037FF02C02F5F3F4F35952795C22FC095CC
:10342000F12C85E5E82EED1A80911101F816C8F40B
:10343000F1FC02C08E2D01C08D2F90910F012F2D18
:1034400030E0290F311DA901440F551F240F351FEE
:103450002D583D4F4C2F609170020E942D16F39411
:10346000E3CF0E94D416F8018481811102C091E05B
:1034700003C0803219F49FEF90930A0190910A01E2
:10348000890FF8018483DF91CF911F910F91FF90F5
:10349000EF90DF90CF90BF90AF909F908F90089566
:1034A0000F931F93CF93DF93EC0100E010E0809126
:1034B0001101282F30E00217130724F590910F0116
:1034C0009801290F311DA901440F551F240F351FE5
:1034D0002D583D4F869590E04C81081719071CF434
:1034E000442331F002C0411103C04091710201C078
:1034F00040E06091700280916F020E942D160F5F74
:103500001F4FD5CF0E94D4168C8190E00196817018
:1035100099278C83DF91CF911F910F910895EEE64B
:10352000F2E080818E7F80836081718182819381CE
:103530000E94521610924B022FEF80E792E021502A
:1035400080409040E1F700C000000C94D416EEE6F5
:10355000F2E080818E7F808310924B022FEF80E714
:1035600092E0215080409040E1F700C000000C94B0
:10357000D41610924B028091480281110AC081E05A
:103580008093480280916E028170809347020C9470
:10359000A71A089560916E02669570E04BE050E0C6
:1035A00082E191E00E94502F892B19F481E08093F1
:1035B0004B020E94B72390934202809341020895E8
:1035C00090916E0290FF35C09170811102C092609F
:1035D00006C0853210F0986402C0880F982B909333
:1035E0006E02662351F060916E0270916F028091BD
:1035F0007002909171020E94521660916E0266955F
:1036000070E04BE050E082E191E00E94502F892B66
:1036100019F010924B0202C00E94CA1A81E08093F6
:103620004402409171026091700280916F020C948B
:1036300098180895682F90916E02969581E0890FF1
:10364000853208F081E00C94E01A81E00C941A1B9A
:10365000682F90916E0296958FEF890F09F484E29E
:103660000C94E01A81E00C94281B61E00C94E01AA1
:10367000EEE6F2E080818160808386950C94351BB4
:1036800080916E0280FD0C948F1A0C94381B60E0C0
:103690000C94E01A8091490281112EC00E94F00D15
:1036A000811104C00E94970E0E946E160E944E1651
:1036B00060936E0270936F02809370029093710218
:1036C0006E7F61F40E946E160E944E1660936E0229
:1036D00070936F0280937002909371020E943B1668
:1036E00010924B0280916E0280FF03C086950E946B
:1036F000471B81E0809349020895EEE6F2E0808165
:103700008160808386950C94471B109248028091BB
:10371000470281110E947D1B0C94CA1A0F931F93BC
:10372000CF93DF9380914B02882309F485C0809169
:103730004A02E0916E02E695E81BE0934302823074
:1037400049F4F0E0EA53FD4FE491CE2FD0E00DE2D2
:1037500017E149C0863049F4F0E0ED53FD4FE491A4
:10376000CE2FD0E001E617E13EC0893051F4E69556
:10377000F0E0E054FD4FE491CE2FD0E00BE918E1EA
:1037800032C08F3051F4E695F0E0E354FD4FE49100
:10379000CE2FD0E006ED18E126C0853149F4F0E0E7
:1037A000E654FD4FE491CE2FD0E00BE419E11BC0AD
:1037B000883181F0833239F4E8EBF2E0C591D4919D
:1037C00001E717E110C0843251F4C4EFD1E000E505
:1037D0001AE109C0C8E2D0E00DEB19E104C0C0ED68
:1037E000D7E009E216E180914402882361F010924B
:1037F00044020E94B72390934202809341021092A8
:103800004602109245020E94B723E0914102F091D6
:1038100042028E1B9F0B8F3F9F4770F4EC0FFD1FE2
:10382000F0934202E093410281E492E0F801DF91DB
:10383000CF911F910F910994DF91CF911F910F911B
:103840000895882311F0FA0101C0FB010994CF9378
:10385000DF93C82FD62F0E947D168C1740F00E9450
:103860007D168D1720F4DF91CF910C94251B8C2FA2
:10387000DF91CF910C94351B1F93CF93DF93FB0106
:103880001281112309F4BCC0EC010E94380D827230
:10389000CC3CFCE5DF0709F497C008F043C0C63C08
:1038A000ECE5DE0709F47CC0D8F4C33C9CE5D907FD
:1038B00009F46AC038F4C23CDC4509F0A4C00E9497
:1038C000401BA0C0C43C9CE5D90709F462C0C53CBC
:1038D000DC4509F098C049E558E16CE478E15DC049
:1038E000C93CFCE5DF0709F465C070F4C73CECE5B2
:1038F000DE0709F45AC0C83CDC4509F084C048E63C
:1039000058E167E778E149C0CA3C9CE5D90709F46A
:1039100056C0CB3CDC4509F076C040EB56E169E986
:1039200076E13BC0C13DFCE5DF0709F45AC098F4DD
:10393000CE3C9CE5D90709F44EC008F44AC0CF3C00
:10394000FCE5DF0709F44AC0C03DDC4509F05BC077
:103950006EE089E04EC0C43D9CE5D90709F447C03C
:1039600050F4C23DFCE5DF07F9F1C33DDC4509F049
:103970004AC088E142C0C53D9CE5D907E9F1CD3593
:10398000DD4509F43FC03FC042E35BE165E27BE116
:1039900004C045E25BE162E37BE10E94211C32C08E
:1039A0004CE458E169E578E1F8CF47E758E168E68B
:1039B00078E1F3CF45E958E166E878E1EECF46E8F3
:1039C00058E165E978E1E9CF49E956E160EB76E154
:1039D000E4CF81E012C065E082E00BC068E086E0E1
:1039E00008C064E18FE005C067E185E102C062E2E2
:1039F00089E10E94271C06C083E20E94351B02C099
:103A000011E001C010E0812FDF91CF911F91089547
:103A1000539A2BB1277F3BB138604FB7F894FC0124
:103A2000CB01880F991F680F791F6E0F7F1FE61754
:103A3000F70789F0819198E03BB9000000C087FF4B
:103A40002BB9880F000000C000C000C02BB900C017
:103A50009A9591F7ECCF4FBF8FE594E00197F1F77E
:103A600000C00000089583E290E00E946A2F823235
:103A700081F484E290E00E946A2F873051F485E25D
:103A800090E00E946A2F91E0803109F090E0892F48
:103A900001C080E081700895CF93C82F811102C0CA
:103AA0006FEF01C062E283E290E00E947E2FC111BD
:103AB00002C06FEF01C067E084E290E00E947E2FB9
:103AC000C11102C06FEF01C060E185E290E0CF91CB
:103AD0000C947E2F089586E290E00E946A2F682F52
:103AE00070E080E090E0089586E290E00C947E2FF4
:103AF00080E00E944C1D60E070E0CB010E94741DCC
:103B00000E941B1F0E94F81F81E00C944C1D0E9414
:103B10006A1D0E94331D811102C00C94781D089506
:103B2000CF93FB01C281CC23E9F09C0122513F4598
:103B30002031310520F482510E9408200CC08031D0
:103B4000FFE59F0751F481E00E94130943E062E022
:103B500081E00E945B03C0E018C081319F45A9F459
:103B600082E0F2CF8031EFE59E0711F481E004C0DE
:103B700081319F4549F482E00E941E0943E062E0E2
:103B800081E00E945B0301C0C1E08C2FCF910895BA
:103B90002FEFFC0120830895CF93DF93EC01888100
:103BA000813889F028F48038A1F40E94CE1610C024
:103BB000823861F0833869F40E94C81689830E94B4
:103BC000CB168A8306C00E947D1602C00E94B316DF
:103BD0008983DF91CF910895CF93DF93EC018881A2
:103BE0008138B1F058F4803851F5D9810E94CB1654
:103BF000C82F0E94C8164D2F6C2F1DC08238B1F0FF
:103C00008338E9F40E94CE16482F6A81898113C057
:103C100089810E94471B8981811104C0DF91CF9166
:103C20000C94A71ADF91CF910C947D1B8981DF91B1
:103C3000CF910C94C516DF91CF910C949818DF9119
:103C4000CF910895EF92FF920F931F93CF93DF933D
:103C5000EC01062F0196E8814E2F50E0FA013197D2
:103C6000E331F10508F09AC0E059FF4F0C94122F90
:103C7000198289E056C08981823039F0833061F041
:103C8000813029F50E94C32302C00E946B1D9A83D4
:103C90008B837C836D8384C07E0182E0E80EF11CFF
:103CA00010E0812F0E94A311F70181937F011F5F14
:103CB0001430B9F775C08981823049F46A817B81FB
:103CC0008C819D810E94182F0E94741D69C0602FF5
:103CD000CE010E94C81D64C04B816A8189810E9407
:103CE000ED1E9C838D835CC02C813D813227232770
:103CF00032274B816A8189810E94061F51C00E9430
:103D00001B1F4EC00E94EC1D4BC00E94CC1D48C022
:103D10000E94641645C00E94AB1F24C00E94AD1FC4
:103D200099838A833DC06B8170E089819A81AE015D
:103D30004C5F5F4F9827892798270E94B01F30C09B
:103D40006B8170E089819A81AE014C5F5F4F98274B
:103D5000892798270E94D51F23C00E94F81F20C0E2
:103D60000E94DA1E89831CC06B8170E089819A8170
:103D7000AE014C5F5F4F9827892798270E945A1FF2
:103D80000FC06B8170E089819A81AE014C5F5F4FFB
:103D90009827892798270E947D1F02C08FEF88836C
:103DA000602FCE01DF91CF911F910F91FF90EF9087
:103DB0000C949A2484E0089550E0440F551F2EE09F
:103DC000629F400D511D11249A0168E3869F200DCA
:103DD000311D1124C901879608950F931F93CF9326
:103DE000DF930E94DC1E8C010E946A2FC82FD0E056
:103DF000DC2FCC27C80101960E946A2F9E01282B38
:103E0000C901DF91CF911F910F9108950F931F93D7
:103E1000CF93DF93122F032F0E94DC1EEC01602F43
:103E20000E947E2F612FCE010196DF91CF911F91CD
:103E30000F910C947E2FAF92BF92CF92DF92EF92B0
:103E4000FF920F931F93CF93DF93A12CE12CF12CC2
:103E5000B12C00E010E0C0E0D0E06701C00ED11E40
:103E6000FE01EE0FFF1FEC0DFD1DE05AFE4F2591E8
:103E700034914C2F6B2D8A2D0E94061F2196C7303E
:103E8000D10571F7025F1F4FB39484E0B812E3CFFE
:103E900088E3E80EF11CA39484E0A812D9CFDF9147
:103EA000CF911F910F91FF90EF90DF90CF90BF9037
:103EB000AF900895EF92FF920F931F93CF93DF93EC
:103EC000EA017A01E60EF71E8C01C8018796CE152D
:103ED000DF0561F0003E110520F40E946A2F8883FF
:103EE00001C0188221960F5F1F4FEFCFDF91CF9156
:103EF0001F910F91FF90EF900895EF92FF920F9313
:103F00001F93CF93DF93EA017A01E60EF71E8C012F
:103F1000C8018796CE15DF0551F0003E110518F453
:103F200068810E947E2F21960F5F1F4FF1CFDF9196
:103F3000CF911F910F91FF90EF900895462F8430FD
:103F400038F4743028F4673018F4672F0C94ED1EA1
:103F500080E090E0089580E1089589EF92E008956F
:103F6000EF92FF920F931F93CF93DF93EA017A01B1
:103F7000E60EF71E8C01C801895F9E4FCE15DF0546
:103F800069F0093F22E0120720F40E946A2F88831B
:103F900001C0188221960F5F1F4FEDCFDF91CF91A7
:103FA0001F910F91FF90EF900895EF92FF920F9362
:103FB0001F93CF93DF93EA017A01E60EF71E8C017F
:103FC000C801895F9E4FCE15DF0559F0093F22E0F9
:103FD000120718F468810E947E2F21960F5F1F4FF1
:103FE000EFCFDF91CF911F910F91FF90EF90089548
:103FF000CF93DF93C7E0D1E060E0CE010E947E2F37
:104000002196C11584E0D807B9F7DF91CF910895C3
:10401000DF92EF92FF920F931F93CF93DF9300D025
:1040200000D0CDB7DEB7F82E8FE08F15E8F18FEF17
:1040300093E00E946A2F811137C007E011E0FF2052
:1040400069F0011584E0180779F1C8010E946A2F10
:10405000811101C0FA940F5F1F4FF1CF19821A82AC
:104060001B821C82DD24D39478018FEFE81AF80AB2
:10407000C8010E946A2F89831A828823A9F09FEFC2
:10408000980F933058F48A83D9820E5F1F4FC7016F
:104090000E946A2F8B83882339F07801CE01019624
:1040A0000E94AB048701E0CF0F900F900F900F900C
:1040B000DF91CF911F910F91FF90EF90DF900895C6
:1040C0000F931F93CF93DF93C42FD22FFC018281D4
:1040D0008823C9F040934E020E94B72390934D026B
:1040E00080934C0280E28C0F883008F057C0C77074
:1040F00081E001C0880FCA95EAF7DF91CF911F9147
:104100000F910C94410680914E02481330C080916B
:104110004C0290914D020E94CF23883C910538F5C6
:1041200010E21D0FCD17B9F080E28C0F883040F4FB
:10413000C77081E001C0880FCA95EAF70E9448065F
:10414000183028F581E09D2F977001C0880F9A954F
:10415000EAF70E944106802F0E9438061830F0F4DA
:10416000D77081E001C0880FDA95EAF70AC080E2D3
:104170008C0F883098F4C77081E001C0880FCA9511
:10418000EAF7DF91CF911F910F910C944806802F91
:10419000DF91CF911F910F910C943806DF91CF9151
:1041A0001F910F9108950F939C01CB01233F4CE584
:1041B000340731F188F4283DFCE53F07D9F0293D6B
:1041C0004CE5340779F1273D3C45A9F506E221EE9F
:1041D00041EE67ED7CE52BC0253FFCE53F07E1F0B4
:1041E000A8F0263F3C4539F507E225EE46EE66EF9E
:1041F0007CE51DC007E225EE45EE68ED7CE517C0C5
:1042000006E221EE40EE63EF7CE511C007E225EE09
:1042100044EE64EF7CE50BC006E221EE42EE65EF72
:104220007CE505C008E221E045EE69ED7CE50E94F1
:10423000602080E008C0FC018281882319F0109280
:104240004E0201C081E00F910895CF93DF93EC01FE
:10425000FB018281882309F426C1C330FDE5DF0715
:1042600060F4CA3F9CE5D90768F49E0122503C45A2
:104270002431310508F018C105C0C136EDE5DE076F
:1042800009F012C10E94030E9093650280936402AC
:10429000C031FCE5DF0709F4CAC008F041C0C830EE
:1042A0009CE5D90709F4A4C0F0F4C430FCE5DF07AD
:1042B00009F48CC068F4C2309CE5D90709F482C0C7
:1042C000C330DC4509F0E5C0809164028260DFC044
:1042D000C630FCE5DF0709F483C008F085C0809193
:1042E00064028860D4C0CC309CE5D90709F490C042
:1042F00068F4CA30FCE5DF0709F47EC008F084C02A
:104300000E949408809164028068C1C0CE309CE510
:10431000D90709F481C008F086C08091640294C076
:10432000CC3FFCE5DF0709F47BC038F5C4319CE5E0
:10433000D90709F49AC058F4C231FCE5DF0709F443
:104340007AC008F07EC0809164028F7BA0C0CA3F13
:104350009CE5D907F1F108F03FC0C531DC4509F013
:1043600098C08091640282FB222720F991E0922775
:1043700090FB82F990FB83F98AC0C1158DE5D807BF
:1043800009F467C050F480916502CE3FECE5DE078A
:10439000C1F108F05BC08D7F65C0C2308DE5D807E4
:1043A00009F471C008F46DC0C136DD4509F071C073
:1043B0008091640284FB222720F991E0922790FBF0
:1043C00084F965C080916402816061C0809164025B
:1043D00016C08091650216C080916502826042C05D
:1043E00080916402806153C08091640280624FC0FA
:1043F0008091640280644BC0809164028860846014
:1044000046C0826081602EC0809164028E7F3FC072
:10441000809164028D7F3BC080916402877F37C0AA
:104420008091650214C0809164028F7E30C08091BB
:1044300064028F7D2CC00E949408809164028F7763
:1044400026C080916402877F8B7F21C08D7F8E7F05
:1044500009C080916502982F909591708E7F892B6D
:1044600090FB81F98093650214C00E9494088091AA
:10447000640287FB222720F991E0922790FB87F9BD
:1044800006C081E001C080E00E94990E02C08093C6
:10449000640280916402909165020E94140E0E9451
:1044A000940880E001C081E0DF91CF910895CF931F
:1044B000DF9386319C4541F5EB010E94380D982F22
:1044C0008A812091000130910101882379F09A7A44
:1044D00081E009F480E080934F02911102C069E20B
:1044E00001C065E3C9010E9420230AC080914F02E8
:1044F000811102C069E201C065E3C9010E94222363
:104500000E947D0D80E001C081E0DF91CF91089590
:1045100090935502809354020895E0915402F091D3
:104520005502309721F00190F081E02D099480E050
:104530000895E0915402F0915502309721F00280E5
:10454000F381E02D09940895E0915402F091550211
:10455000309739F022E0DC012C930480F581E02DC6
:104560000994089520915202309153022817390777
:1045700071F09093530280935202E0915402F091B3
:104580005502309721F00680F781E02D09940895B7
:1045900020915002309151022817390771F0909301
:1045A000510280935002E0915402F09155023097ED
:1045B00021F00084F185E02D09940895FC013296E4
:1045C00097E080E0915029F021912223D9F38F5F69
:1045D000F9CF0895662349F0FC013296089621919F
:1045E000621729F0E817F907D1F780E0089581E014
:1045F00008959C01FC0132969FEF80E0419146179F
:1046000089F09F3F19F4411101C0982F8F5F8630C8
:10461000A9F79F3F39F0F901E90FF11D97FDFA95D0
:104620006283089508959C012A5F3F4FFC014281F7
:10463000461301C01282019682179307B9F70895B5
:104640000C94F9220C941323029626E0FC0111929B
:104650002A95E9F70895089508950C942C230C9455
:104660002C23CF930E942F230E947E120E942D2381
:10467000C0E08C2F0E94A311811104C0CF5FC43011
:10468000C1F701C081E0CF9108950C942C230C94C4
:1046900045238091AB02843059F10E94472380E08A
:1046A0000E94B6040E94B91A1092560220E488E1D2
:1046B00090E00FB6F894A895809360000FBE209309
:1046C000600083B7817F846083BF83B7816083BFCD
:1046D0007894889583B78E7F83BF0FB6F894A8959A
:1046E00080916000886180936000109260000FBE2E
:1046F00008950C942C230E9494080E948D220E94FD
:10470000B6040E94851B0C9479231F920F920FB65A
:104710000F9211248F939F93AF93BF938091560272
:10472000811113C08091A3029091A402A091A502CF
:10473000B091A6024196A11DB11D8093A302909352
:10474000A402A093A502B093A602BF91AF919F913E
:104750008F910F900FBE0F901F90189582E084BD2F
:1047600093E095BD9AEF97BD80936E0008952FB7A3
:10477000F8948091A3029091A402A091A502B09117
:10478000A6022FBF08952FB7F8946091A3027091ED
:10479000A4028091A5029091A6022FBF08959C01CA
:1047A0004FB7F8948091A3029091A402A091A50222
:1047B000B091A6024FBF821B930B089578941F926D
:1047C0000F920FB60F9211248F939F93AF93BF93C5
:1047D0008091A3029091A402A091A502B091A6029B
:1047E0000196A11DB11D8093A3029093A402A093F2
:1047F000A502B093A602BF91AF919F918F910F90A8
:104800000FBE0F901F90189587E797E790930108C8
:10481000809300089AE088E10FB6F894A8958093F9
:1048200060000FBE90936000FFCF9093CB01809308
:10483000CA0108958091620208959091AB0294306C
:1048400029F5809357027093590260935802909310
:10485000E9008FEF9091E800815095FD06C095ED3D
:104860009A95F1F700008111F5CF8091E80085FF5E
:104870000DC040E050E063E070E087E592E00E9408
:1048800096268091E8008E778093E8000895BC0119
:1048900084E00C941D24BC0183E00C941D2424E0CE
:1048A0002093E9002FEF3091E800215035FD06C03C
:1048B00035ED3A95F1F700002111F5CF2091E80090
:1048C00025FF0BC040E050E066E070E00E949626B5
:1048D0008091E8008E778093E8000895CF93DF936E
:1048E00021E02093E9002FEF3091E800215035FDC1
:1048F00006C035ED3A95F1F700002111F5CF209172
:10490000E80025FF14C0EC0140E050E068E070E0F2
:104910000E9496268091E8008E778093E80088E0D8
:10492000FE01AAE5B2E001900D928A95E1F7DF91D0
:10493000CF910895CF93603219F52091AB022430C6
:10494000F9F4C091E900CF703091EC00232F217071
:1049500030FD20E8C22B22E02093E9002091E800FE
:1049600020FF0BC040E050E060E270E00E9496261D
:104970008091E8008E778093E800CF70C093E900C3
:10498000CF9108958091AA02811109C00E947228D6
:104990000E94CF288091E20084608093E200089515
:1049A0001092AA02089508950895089542E061ECD6
:1049B00081E00E94EB2742E261EC84E00E94EB2759
:1049C00042E261EC82E00E94EB2742E260EC83E08D
:1049D0000C94EB278091AD02833009F462C030F46F
:1049E000813071F0823009F49BC008958A3009F457
:1049F00087C08B3009F46DC0893009F0A9C020C090
:104A00008091AC02813A09F0A3C08091E800877FD1
:104A10008093E8008091B0029091B102892B21F43B
:104A200068E08AE592E003C060E080E090E070E03A
:104A30000E942C278091E8008B778093E8000895EE
:104A40008091AC02813209F083C08091B0029091D4
:104A5000B102009719F0029709F07AC08091E8003E
:104A6000877F8093E8008091E80082FD05C08091F7
:104A7000AB028111F8CF6CC02091F3008091F2005D
:104A800090E0922B029729F48091F1008B7F813086
:104A900021F48091F100809362028091E8008B778D
:104AA00053C08091AC02813A09F052C08091B002AB
:104AB0009091B102892B09F04BC08091E800877F6B
:104AC0008093E8008091E80080FFFCCF809127016F
:104AD00036C08091AC028132D9F58091B0029091BC
:104AE000B102892BA9F58091E800877F8093E800C7
:104AF0000E9420288091AE02809327010C94940894
:104B00008091AC02813221F58091E800877F80930B
:104B1000E8000E9420288091AF02809363020895EC
:104B20008091AC02813AA1F48091E800877F809364
:104B3000E8008091E80080FFFCCF809163028093C1
:104B4000F1008091E8008E778093E8000C94202893
:104B5000089584B7877F84BF0FB6F894A895809195
:104B60006000886180936000109260000FBE90E04A
:104B700080E80FB6F89480936100909361000FBEB7
:104B80000C94C90E0E9472280E94CF28E2EEF0E039
:104B900080818460808378940E94642B0E94D70E69
:104BA0008DE191E00C948822CF93DF93CDB7DEB7EF
:104BB000A0970FB6F894DEBF0FBECDBF8091AB02B9
:104BC0008530A9F48091AB02853079F40E944923A5
:104BD0008091A9028823B1F30E943123882391F3A5
:104BE0000E9480260E949408EDCF0E947B230E94A1
:104BF000E10E8091AB02843011F583E08093E900EF
:104C00008091E80082FF1BC08091E80085FF0AC008
:104C100040E050E060E270E0CE0101960E94E126A3
:104C200091E001C090E08091E8008B778093E800EC
:104C3000992329F060E2CE0101960E94221EA096DF
:104C40000FB6F894DEBF0FBECDBFDF91CF910895B0
:104C50000C942A26292F332723303105C9F060F41C
:104C60002130310581F02230310509F041C08BE55A
:104C700090E029EF33E040C021323105E1F02232EB
:104C8000310531F135C082E190E024E534E034C0F3
:104C900099278130910549F028F0029749F5EFEC0A
:104CA000F3E005C0E5EFF3E002C0E9EEF3E0849144
:104CB00090E09F0121C063307105D0F4660F771F2B
:104CC000FB01ED53FE4F2081318189E090E014C05B
:104CD0006330710568F4FB01EE0FFF1FE354FE4FD4
:104CE00020813181FB01E654FE4F808190E004C0B9
:104CF00080E090E020E030E0FA01318320830895E5
:104D000080E189BD82E189BD09B400FEFDCF8091BB
:104D1000D8008F7D8093D8008091E00082608093DE
:104D2000E0008091E00081FDFCCF0895CF92DF92FA
:104D3000EF92FF920F931F93CF93DF93EC018B01C0
:104D40007A010E943F28811133C0E114F10439F047
:104D5000F70180819181081B190BC80FD91FC12C45
:104D6000D12C0115110519F18091E80085FD16C0BF
:104D70008091E8008E778093E800E114F10449F017
:104D8000F70180819181C80ED91ED182C08285E051
:104D90000FC00E943F28882321F30AC08991809385
:104DA000F10001501109FFEFCF1ADF0ADACF80E0DE
:104DB000DF91CF911F910F91FF90EF90DF90CF90F7
:104DC0000895CF92DF92EF92FF920F931F93CF93AC
:104DD000DF93EC018B017A010E943F28811133C0DF
:104DE000E114F10439F0F70180819181081B190B5E
:104DF000C80FD91FC12CD12C0115110519F18091B3
:104E0000E80085FD16C08091E8008B778093E8006C
:104E1000E114F10449F0F70180819181C80ED91E97
:104E2000D182C08285E00FC00E943F28882321F3F1
:104E30000AC08091F100899301501109FFEFCF1A48
:104E4000DF0ADACF80E0DF91CF911F910F91FF90C1
:104E5000EF90DF90CF9008952091B2023091B3028D
:104E60002617370748F06115710539F42091E800DD
:104E70002E772093E80001C0B901FC0120E0611504
:104E8000710579F18091AB028823F1F18530F1F160
:104E90008091E80083FD3CC08091E80082FD2EC037
:104EA0008091E80080FFEBCF2091F3008091F20029
:104EB00090E0922B6115710551F08830910538F41E
:104EC00021912093F100615071090196F3CF21E007
:104ED000089709F020E08091E8008E778093E80041
:104EE000CECF2111CFCF0AC08091AB02882361F0D1
:104EF000853061F08091E80083FD0AC08091E80070
:104F000082FFF2CF80E0089582E0089583E0089563
:104F100081E008952091B2023091B302261737073D
:104F200048F06115710539F42091E8002E7720933F
:104F3000E80001C0B901FC0120E06115710591F1A3
:104F40008091AB02882309F440C0853009F43FC04A
:104F50008091E80083FD3DC08091E80082FD2FC074
:104F60008091E80080FFE9CF2091F3008091F2006A
:104F700090E0922B6115710559F08830910540F44D
:104F800024912093F1003196615071090196F2CF7E
:104F900021E0089709F020E08091E8008E77809367
:104FA000E800CBCF2111CCCF0AC08091AB0288237F
:104FB00061F0853061F08091E80083FD0AC0809146
:104FC000E80082FFF2CF80E0089582E0089583E058
:104FD000089581E00895982F973068F59093E9003F
:104FE000981739F07091EC002091ED005091F0008D
:104FF00003C0242F762F50E021FD02C09F5FECCF2D
:105000003091EB003E7F3093EB003091ED003D7F1F
:105010003093ED003091EB0031603093EB007093F2
:10502000EC002093ED005093F0002091EE0027FD5E
:10503000E5CF80E008958F708093E90081E00895C6
:105040008091AC0287FF11C08091E80082FD05C00D
:105050008091AB028111F8CF11C08091E8008B776D
:105060000BC08091AB02882349F08091E80080FF5B
:10507000F8CF8091E8008E778093E8000895209122
:10508000E4003091E50095E64091EC00842F8170BA
:1050900040FF23C08091E80080FD1DC08091AB02DD
:1050A000882399F0853099F08091EB0085FD11C03F
:1050B0004091E4005091E5002417350729F3915001
:1050C00011F09A01E1CF84E0089582E0089583E031
:1050D000089581E0089580E008954091E80042FF3E
:1050E000DDCF08950E94E0280E94E828E0EEF0E07D
:1050F000808181608083E8EDF0E080818F7780831C
:1051000019BCA7EDB0E08C918E7F8C9380818F7E4F
:1051100080831092AA0208950F931F93CF93DF9379
:105120000E94E0280E94E828C8EDD0E088818F77AF
:10513000888388818068888388818F7D888319BC73
:105140001092AB021092A7021092A9021092A8022C
:1051500000EE10E0F80180818B7F80838881816080
:10516000888342E060E080E00E94EB27E1EEF0E01F
:1051700080818E7F8083E2EEF0E080818160808399
:10518000808188608083F80180818E7F8083888120
:1051900080618883DF91CF911F910F910895E8ED91
:1051A000F0E080818F7E8083E7EDF0E08081816098
:1051B000808384E082BF81E08093AA020C948C28D3
:1051C000E8EDF0E080818E7F80831092E200089508
:1051D0001092DA001092E10008951F920F920FB61C
:1051E0000F9211242F933F934F935F936F937F936D
:1051F0008F939F93AF93BF93EF93FF938091E100C1
:1052000082FF0BC08091E20082FF07C08091E10025
:105210008B7F8093E1000E94632B8091DA0080FFF6
:105220001FC08091D80080FF1BC08091DA008E7F64
:105230008093DA008091D90080FF0DC080E189BDA4
:1052400082E189BD09B400FEFDCF81E08093AB020D
:105250000E94C22405C019BC1092AB020E94D02447
:105260008091E10080FF19C08091E20080FF15C0AD
:105270008091E2008E7F8093E2008091E200806165
:105280008093E2008091D80080628093D80019BC9E
:1052900085E08093AB020E94D4248091E10084FFDA
:1052A00030C08091E20084FF2CC080E189BD82E1A2
:1052B00089BD09B400FEFDCF8091D8008F7D809319
:1052C000D8008091E1008F7E8093E1008091E20020
:1052D0008F7E8093E2008091E20081608093E20003
:1052E0008091A702882311F084E007C08091E30039
:1052F00087FD02C081E001C083E08093AB020E9481
:10530000D5248091E10083FF29C08091E20083FFD2
:1053100025C08091E100877F8093E10082E0809347
:10532000AB021092A7028091E1008E7F8093E10092
:105330008091E2008E7F8093E2008091E2008061A4
:105340008093E20042E060E080E00E94EB278091E1
:10535000F00088608093F0000E94D324FF91EF91C9
:10536000BF91AF919F918F917F916F915F914F917D
:105370003F912F910F900FBE0F901F9018951F9285
:105380000F920FB60F9211242F933F934F935F9379
:105390006F937F938F939F93AF93BF93CF93DF933D
:1053A000EF93FF93C091E900CF708091EC00D82F6C
:1053B000D17080FDD0E81092E9008091F000877FE5
:1053C0008093F00078940E94032A1092E900809163
:1053D000F00088608093F000CD2BCF70C093E9007F
:1053E000FF91EF91DF91CF91BF91AF919F918F91FD
:1053F0007F916F915F914F913F912F910F900FBED1
:105400000F901F9018951F93CF93DF93CDB7DEB702
:10541000AA970FB6F894DEBF0FBECDBFECEAF2E05C
:105420008091F100819322E0E43BF207C9F70E94EA
:10543000EA248091E80083FF2EC18091AC02909114
:10544000AD02492F50E04A30510508F024C1FA015D
:10545000ED57FF4F0C94122F803821F0823809F05D
:105460001AC108C08091A8029091A902992389F0DD
:1054700082600FC08091B0028F70873008F00BC13E
:105480008093E9008091EB0085FB882780F91092DA
:10549000E9009091E800977F9093E8008093F100F5
:1054A0001092F100D1C0282F2D7F09F0F4C088237D
:1054B00019F0823061F0EFC08091AE02813009F0C6
:1054C000EAC0933009F080E08093A9022EC0809159
:1054D000AE0281112AC08091B0028F702FEF280F89
:1054E000263008F0D8C08093E9002091EB0020FF1F
:1054F0001CC0933021F48091EB00806214C0909125
:10550000EB0090619093EB0021E030E0A90102C034
:10551000440F551F8A95E2F74093EA001092EA0083
:105520008091EB0088608093EB001092E9008091FD
:10553000E800877F8093E8000E942028ACC081119A
:10554000AAC01091AE021F778091E3008078812B72
:105550008093E3008091E800877F8093E8000E94B9
:1055600020288091E80080FFFCCF8091E3008068D4
:105570008093E300111102C082E001C083E08093B8
:10558000AB0289C08058823008F085C08091AE029D
:105590009091AF028C3D53E0950779F583E08A83C3
:1055A0008AE289834FB7F894DE01139620E03EE04B
:1055B00051E2E32FF0E050935700E49120FF03C045
:1055C000E295EF703F5FEF708E2F90E0EA3010F0C1
:1055D000C79601C0C0968D939D932F5F243149F7E4
:1055E0004FBF8091E800877F8093E8006AE270E017
:1055F000CE0101960E942C2716C06091B0027091D6
:10560000B102AE014F5F5F4F0E942826BC01892B7B
:1056100009F441C09091E800977F9093E800898158
:105620009A810E948A278091E8008B778093E80016
:1056300032C0803881F58091E800877F8093E80050
:105640008091A7028093F1008091E8008E7772CF5D
:10565000811121C08091AE029091AF0299270297EB
:10566000D4F48091E800877F8093E8008091AE02B7
:105670008093A7020E9420288091A702811106C072
:105680008091E30087FD02C081E001C084E0809347
:10569000AB020E94D6248091E80083FF0AC080916B
:1056A000E800877F8093E8008091EB008062809320
:1056B000EB00AA960FB6F894DEBF0FBECDBFDF9108
:1056C000CF911F9108950895CF938091AB028823C5
:1056D000A1F0C091E900CF709091EC00892F81700A
:1056E00090FD80E8C82B1092E9008091E80083FDCE
:1056F0000E94032ACF70C093E900CF9108955058BB
:10570000BB27AA270E94972B0C94422D0E94342D70
:1057100038F00E943B2D20F039F49F3F19F426F415
:105720000C940A2D0EF4E095E7FB0C94042DE92F60
:105730000E94532D58F3BA17620773078407950721
:1057400020F079F4A6F50C94752D0EF4E0950B2E4F
:10575000BA2FA02D0B01B90190010C01CA01A001C3
:105760001124FF27591B99F0593F50F4503E68F11E
:105770001A16F040A22F232F342F4427585FF3CF5F
:10578000469537952795A795F0405395C9F77EF430
:105790001F16BA0B620B730B840BBAF09150A1F079
:1057A000FF0FBB1F661F771F881FC2F70EC0BA0FFF
:1057B000621F731F841F48F4879577956795B79587
:1057C000F7959E3F08F0B0CF9395880F08F0992782
:1057D000EE0F9795879508950E94002C0C94422D0A
:1057E0000E943B2D58F00E94342D40F029F45F3F79
:1057F00029F00C94042D51110C94762D0C940A2D43
:105800000E94532D68F39923B1F3552391F3951B0F
:10581000550BBB27AA2762177307840738F09F5FD1
:105820005F4F220F331F441FAA1FA9F335D00E2E3E
:105830003AF0E0E832D091505040E695001CCAF7AB
:105840002BD0FE2F29D0660F771F881FBB1F26176E
:1058500037074807AB07B0E809F0BB0B802DBF0145
:10586000FF2793585F4F3AF09E3F510578F00C9414
:10587000042D0C94762D5F3FE4F3983ED4F3869587
:1058800077956795B795F7959F5FC9F7880F911D35
:105890009695879597F90895E1E0660F771F881F21
:1058A000BB1F621773078407BA0720F0621B730BD4
:1058B000840BBA0BEE1F88F7E095089529F416F0D3
:1058C0000C94042D0C94752D0C940A2D0E945B2DC4
:1058D000A8F39638A0F707F80F92E8942BE33AEA7A
:1058E00048EB5FE70E94082E0F920F920F924DB780
:1058F0005EB70F920E94BE2DEAE1F1E00E940D2DED
:105900004F915F91EF91FF91E595EE1FFF1F49F0D9
:10591000FE57E0684427EE0F441FFA95E1F74195E2
:10592000550B0E94882D0F9007FE0C947C2D089536
:105930000E945B2D88F09F5798F0B92F9927B75197
:10594000B0F0E1F0660F771F881F991F1AF0BA9523
:10595000C9F714C0B13091F00E94752DB1E00895DF
:105960000C94752D672F782F8827B85F39F0B93FD1
:10597000CCF3869577956795B395D9F73EF49095D6
:105980008095709561957F4F8F4F9F4F0895E89454
:1059900009C097FB3EF490958095709561957F4F77
:1059A0008F4F9F4F9923A9F0F92F96E9BB27939525
:1059B000F695879577956795B795F111F8CFFAF435
:1059C000BB0F11F460FF1BC06F5F7F4F8F4F9F4F66
:1059D00016C0882311F096E911C0772321F09EE8C4
:1059E000872F762F05C0662371F096E8862F70E02A
:1059F00060E02AF09A95660F771F881FDAF7880F04
:105A00009695879597F9089597F99F6780E870E0D4
:105A100060E008959FEF80EC0895DF93CF931F938C
:105A20000F93FF92EF92DF927B018C01689406C086
:105A3000DA2EEF010E94052EFE01E894A591259132
:105A4000359145915591A6F3EF010E94972BFE01E8
:105A50009701A801DA9469F7DF90EF90FF900F911A
:105A60001F91CF91DF91089500240A94161617060E
:105A700018060906089500240A941216130614063F
:105A800005060895092E0394000C11F4882352F0A2
:105A9000BB0F40F4BF2B11F460FF04C06F5F7F4F5A
:105AA0008F4F9F4F089557FD9058440F551F59F041
:105AB0005F3F71F04795880F97FB991F61F09F3FFB
:105AC00079F087950895121613061406551FF2CF24
:105AD0004695F1DF08C0161617061806991FF1CF74
